:100000003AEF06F0F76A140FF66E000EF7220900B9
:10001000F5501200280C01064C555A205556202048
:100020002020202020202020202020004C555A2055
:10003000424C414E434120202020202020202000FF
:1000400056454E54494C41444F52202020202020F8
:100050002020200056454C4F43494441442044450C
:1000600020464C554A4F200043414D42494F2043C2
:100070004F4E54524153454E412020004D494E4968
:100080002D434142494E4120444520464C554A4F5C
:100090000000204C414D494E415220484F52495A90
:1000A0004F4E54414C200000202020204A5020492F
:1000B0004E474C4F42414C20202020200000202061
:1000C00020205245463A204A5043483438202020C8
:1000D000202000002020202020496E677265736573
:1000E0002020202020202020000020202020436FDE
:1000F0006E7472617365F161202020202020000061
:1001000020202020434C4156453D2569256925691D
:1001100025692020000020202020202020202020D1
:1001200020202020202020202000202020202043CC
:100130006F6E7472617365F16120202020002020B1
:1001400020202020436F727265637461202020207C
:1001500020002020202020202020202020202020BF
:100160002020202020002020202020436F6E747249
:10017000617365F16120202020002020202020498B
:100180006E636F72726563746120202020002020EE
:10019000202020202020202020202020202020205F
:1001A00020002D2D2D4D454E55205052494E43498E
:1001B00050414C2D2D2D000020202020204573740F
:1001C00061646F2020646520202020200000202012
:1001D000202020204C757A202055562020202020D9
:1001E000202000004F6E20202020202020202000F2
:1001F0004F66662020202020202020200000202084
:1002000020202020202020202020202020202020EE
:100210002020000020202020204C757A20555620D8
:100220007961202020202020000020202065737488
:100230006120656E63656E64696461202020000042
:1002400020202020202020202020202020202020AE
:1002500020202020000020202020202020202020DE
:1002600020202020202020202020000020202020CE
:100270002020456E63656E64696F20202020202059
:100280000000202020202020204C757A2055562068
:10029000202020202020000020202020202020209E
:1002A000202020202020202020202020000020208E
:1002B000202020202020202020202020202020203E
:1002C0002020000020202020204C757A2055562028
:1002D000796120202020202000002020202065732C
:1002E00074612061706167616461202020200000DA
:1002F00020202020202020202020202020202020FE
:10030000202020200000202020202020202020202D
:10031000202020202020202020200000202020201D
:10032000202020417061676F202020202020202085
:1003300000002020202020204C757A2020555620B7
:1003400020202020202000002020202020202020ED
:1003500020202020202020202020202000002020DD
:1003600020202045737461646F2064652020202064
:10037000200020202020204C757A20426C616E6382
:100380006120202020004F6E2020202020202020CF
:1003900020004F66662020202020202020002020E2
:1003A000202020202020202020202020202020204D
:1003B000202000002020204C757A20426C616E6362
:1003C00061202079612020200000202020657374A6
:1003D0006120656E63656E646964612020200000A1
:1003E000202020202020202020202020202020200D
:1003F000202020200000202020202020202020203D
:10040000202020202020202020200000202020202C
:100410002020456E63656E64696F202020202020B7
:10042000000020202020204C757A20426C616E63F1
:1004300061202020202000002020202020202020BB
:1004400020202020202020202020202000002020EC
:10045000202020202020202020202020202020209C
:1004600020200000202020204C757A20426C616EF4
:100470006361207961202020000020202020657306
:100480007461206170616761646120202020000038
:10049000202020202020202020202020202020205C
:1004A000202020200000202020202020202020208C
:1004B000202020202020202020200000202020207C
:1004C000202020417061676F2020202020202020E4
:1004D0000000202020204C757A2020426C616E6341
:1004E000612020202020000020202020202020200B
:1004F000202020202020202020202020000020203C
:1005000020202045737461646F20646520202020C2
:100510002000202020202056656E74696C61646F75
:100520007220202020004F6E20202020202020201C
:1005300020004F6666202020202020202000202040
:1005400020202020202020202020202020202020AB
:1005500020200000202020456C2056656E74696CB8
:1005600061646F72202020200000202079612065C6
:1005700073746120656E63656E6469646F2000004A
:10058000202020202020202020202020202020206B
:10059000202020200000202020202020202020209B
:1005A000202020202020202020200000202020208B
:1005B0002020456E63656E64696F20202020202016
:1005C0000000202020202056656E74696C61646FE5
:1005D0007220202020200000202020202020202009
:1005E000202020202020202020202020000020204B
:1005F00020202020202020202020202020202020FB
:1006000020200000202020202056656E74696C6137
:10061000646F7220202020200000202020204573BD
:100620007461206170616761646F20202020000088
:1006300020202020202020202020202020202020BA
:1006400020202020000020202020202020202020EA
:1006500020202020202020202020000020202020DA
:10066000202020417061676F202020202020202042
:100670000000202020202056656E74696C61646F34
:100680007220202020200000202020202020202058
:100690002020202020202020202020200000536522
:1006A0006C656363696F6E652056656C6F63696422
:1006B000616400002020202064652056656E746906
:1006C0006C61646F722020200000202020202020F8
:1006D000202020202020202020202020202000005A
:1006E00020202048612073656C656363696F6E61CB
:1006F000646F2020000020206C612076656C6F63A1
:1007000069646164202025692020000020202020C9
:1007100020202020202020202020202020202020D9
:100720000000202020202020496E6772657365201C
:10073000202020202020000020436F6E74726173FF
:1007400065F1612041637475616C202000002020F8
:100750002020434C4156453D256925692569256979
:1007600020200000202020202020202020202020C9
:100770002020202020202020000020202020204396
:100780006F6E7472617365F161202020202000007B
:10079000202020202020436F727265637461202026
:1007A0002020202000002020202020202020202089
:1007B0002020202020202020202000002020202079
:1007C0002020202020202020202020202020202029
:1007D00000002020202020436F6E7472617365F149
:1007E00061202020202000002020202020496E634E
:1007F0006F72726563746120202020200000202029
:1008000020202020202020202020202020202020E8
:10081000202000002020202020496E67726573652B
:10082000202020202020202000002020436F6E74F4
:1008300072617365F161204E75657661202000005C
:1008400020202020434C4156453D256925692569D6
:10085000256920200000202020202020202020208A
:1008600020202020202020202020000020202020C8
:1008700020436F6E7472617365F161202020202027
:1008800000002020202020416C6D6163656E616452
:100890006120202020200000202020202020202057
:1008A0002020202020202020202020200000EA6A74
:1008B000230EE96EEF500EE0010E016E006A002E6D
:1008C000FED7012EFBD74A0E006E002EFED700D0B9
:1008D000EF2EF2D7000C2938F00B006E0F0E8114AA
:1008E0000010816E0000818000D08190000CF00E1D
:1008F000936E818400008180000081380F0B296E87
:10090000819000008180000081380F0B286E81905B
:10091000000E936E2938006EF00E0016005028105D
:10092000016E95EF04F08192E2D701C028F001BE7C
:10093000FBD726A0819226B081820000819400001E
:1009400081902738286E0F0E281628C029F0C3DFA3
:1009500027500F0B286E296EBEDF000C000E936E21
:100960008192819481900F0E236EA1DF010E1C6E87
:100970001C50030808E3030E296EADDF050E236E3D
:1009800096DF1C2AF5D7020E296EA5DF1C6A1C50C3
:1009900003080FE3036A1C50F2CF1DF0F29E02EC35
:1009A00000F01DBEF28E1D6E266A276EBCDF1C2A6B
:1009B000EED747EF06F0010E245CFC0F0FE2040FA8
:1009C000F6EF04F0800E256E09D0C00E256E06D01D
:1009D000940E256E03D0D40E256E00D0010E235C3C
:1009E0002526266A25C027F09EDF000CE824F76A3A
:1009F000F736070FF66E0A0EF7220A00F550FA6E68
:100A00000800F550F96EC409CA09D009D609225068
:100A10000C0A05E0060A0DE0020A12E016D0266A6A
:100A2000010E276E80DF010E046E020E236E3FDF83
:100A300012D0042A010E236E04C024F0BCDF0BD0B8
:100A4000266A100E276E6FDF06D0010E266E22C0BA
:100A500027F069DF00D0000C0900F5520CE0F6CF5A
:100A60001FF0F7CF20F0F5CF22F0D1DF1FC0F6FF47
:100A700020C0F7FFF1D7000C0900F6CF1DF0F7CF2B
:100A80001EF0F5CF22F0C3DF1DC0F6FF1EC0F7FF3A
:100A90001C2EF2D7000C2350016A225C03E222C014
:100AA00000F00CD0006A080E246E22360036235067
:100AB000005CD8B0006E0136242EF7D7000C200E53
:100AC0001DA8300E1E6E1CC000F01CAE07D0001E0C
:100AD000002A00C01CF02D0E1E6E1D8E01501CC081
:100AE00022F0640E236ED7DF00C01CF0300E01240C
:100AF0001F6E1CC022F00A0E236ECDDF300E0024C4
:100B0000216E300E0124206E1EC000F01DA602D002
:100B10001DAE1D941DB80BD01DAE22D01DB420D02B
:100B200000C01FF01DB21CD000C020F019D0300E44
:100B30001F5C16E100C01FF0200E1E6E1DA604D023
:100B40001D941D821DAE1D92300E205C09E100C077
:100B500020F0200E1F6E1DA6F7D71D921DAE1D9012
:100B60001DA403D01EC022F052DF1DA203D01FC05F
:100B700022F04DDF1DA003D020C022F048DF21C0AD
:100B800022F045DF000C1D2C0AD0020E236E1EC081
:100B900024F011DF180EF66E000EF76E5DDF1D50AB
:100BA00002080AE1020E236E1EC024F004DF2C0EA0
:100BB000F66E000EF76E50DF1D5003080AE1020EBC
:100BC000236E1EC024F0F7DE400EF66E000EF76EA8
:100BD00043DF1D5004080AE1020E236E1EC024F0FC
:100BE000EADE540EF66E000EF76E36DF1D50050875
:100BF0000AE1020E236E1EC024F0DDDE680EF66EE2
:100C0000000EF76E29DF000C1E5208E18C969596B7
:100C10008C9895988C9A959A8C9495941E2C08D0C3
:100C20008C9695968C9895988C9A959A8C84959498
:100C30001E50020808E18C9895988C9A959A8C948D
:100C400095948C8695961E50030808E18C9A959A87
:100C50008C9495948C9695968C8895981E50040843
:100C600008E18C9695968C9895988C9495948C8A9E
:100C7000959A000CF86AD09EEA6AE96AC150C00BE6
:100C80000F09C16E070EB46E956A8C6A67D6010EA5
:100C9000236E246E90DE7C0EF66E000EF76EDCDEA8
:100CA000010E236E020E246E86DE920EF66E000E8C
:100CB000F76ED2DE010E236E030E246E7CDEA80ECC
:100CC000F66E000EF76EC8DE010E236E040E246E63
:100CD00072DEBE0EF66E000EF76EBEDE080E1C6EE5
:100CE000FA0E236EE4DD1C2EFBD70C0E226E8FDE77
:100CF000056A060E066E020E076E0B0E086E020ED9
:100D0000096E030E0A6E020E0B6E0C6E040E0D6E53
:100D10000E900E920E940E960E980E9A0E9C0F6ADE
:100D2000010E106E3E0E116E200E126E5E0E136ED0
:100D3000146A156A166A176A186A196A1A6A1B6AA7
:100D4000F2CF1CF0F29E050EA96EA69CA69EA68070
:100D5000A8501CBEF28E106EF2CF1CF0F29EA96A53
:100D6000A69CA69EA680A8501CBEF28E186E140EDD
:100D7000236E9DDDF2CF1CF0F29E010EA96EA69CA3
:100D8000A69EA680A8501CBEF28E196E140E236E6D
:100D90008EDDF2CF1CF0F29E020EA96EA69CA69EDE
:100DA000A680A8501CBEF28E1A6E140E236E7FDD34
:100DB000F2CF1CF0F29E030EA96EA69CA69EA68002
:100DC000A8501CBEF28E1B6E140E236E70DD0552F1
:100DD000D8A4A8D1010E236E246EEDDDD40EF66EDC
:100DE000000EF76E39DE010E236E020E246EE3DD77
:100DF000EA0EF66E000EF76E2FDE010E236E030E66
:100E0000246ED9DD000EF66E010EF76E0A0E1C6E12
:100E100033DE14C01CF01F0E1D6E51DE15C01CF019
:100E20001F0E1D6E4CDE16C01CF01F0E1D6E47DE21
:100E300017C01CF01F0E1D6E42DE200E226EE7DD75
:100E4000200E226EE4DD928080A010D00EB60DD070
:100E50000B0E085C036A140FE96E000E0320EA6EA5
:100E6000EF2A0E861E0E236E22DD01D00E96928290
:100E700080A210D00EBA0DD00B0E085C036A140FBE
:100E8000E96E000E0320EA6EEF060E8A1E0E236E38
:100E90000EDD01D00E9A928480A40BD00EB808D03B
:100EA0000E88082A1E0E236E02DD0C0E226EAFDDA8
:100EB00001D00E98928680A60BD00EBC08D00E8C66
:100EC00008061E0E236EF3DC0C0E226EA0DD01D090
:100ED0000E9C0B0E085C036A140FE96E000E0320D3
:100EE000EA6EEFBE01D00AD00B0E085C036A140F45
:100EF000E96E000E0320EA6E090EEF6E0B0E085C21
:100F0000036A140FE96E000E0320EA6EEFBE0CD0E8
:100F1000EF50090809E20B0E085C036A140FE96E32
:100F2000000E0320EA6EEF6A08500A0802E30B0E77
:100F3000086E08C023F0040E246E3DDD13C022F0BD
:100F400066DD08500E08D8B0DDD01450030869E102
:100F50001550080866E11650090863E117500208A9
:100F600060E1A96AA86AA69CA69EA684F250006EBB
:100F7000F29E0F01550EA76EAA0EA76EA682A6B20C
:100F8000FED7A6940050F212140E236E00018FDCDF
:100F9000010EA96EA86AA69CA69EA684F250006EB9
:100FA000F29E0F01550EA76EAA0EA76EA682A6B2DC
:100FB000FED7A6940050F212140E236E000177DCC7
:100FC000020EA96EA86AA69CA69EA684F250006E88
:100FD000F29E0F01550EA76EAA0EA76EA682A6B2AC
:100FE000FED7A6940050F212140E236E00015FDCAF
:100FF000030EA96EA86AA69CA69EA684F250006E57
:10100000F29E0F01550EA76EAA0EA76EA682A6B27B
:10101000FED7A6940050F212140E236E000147DC96
:10102000FF001850145C3FE11950155C3CE11A5068
:10103000165C39E11B50175C36E1010E236E246EFD
:10104000BADC160EF66E010EF76E06DD010E236E8B
:10105000020E246EB0DC2A0EF66E010EF76EFCDC7A
:10106000010E236E030E246EA6DC3E0EF66E010EFC
:10107000F76EF2DC010E236E040E246E9CDC520E21
:10108000F66E010EF76EE8DC020E1C6EFA0E236E91
:101090000EDC1C2EFBD7010E056E0B0E086E0C0E1F
:1010A000226EB5DC2FD0010E236E246E84DC010E7F
:1010B000236E020E246E7FDC660EF66E010EF76E56
:1010C000CBDC010E236E030E246E75DC7A0EF66EF9
:1010D000010EF76EC1DC010E236E040E246E6BDC74
:1010E0008E0EF66E010EF76EB7DC020E1C6EFA0E57
:1010F000236E57EC04F01C2EFAD70B0E086E0C0E64
:10110000226E85DC08500B080DE208500D080AE33A
:10111000010E085C1C6E236E040E246E4CDC12C0A3
:1011200022F075DC052CDDD0010E236E246E43DC2D
:10113000A20EF66E010EF76E8FDC0FBE01D001D04D
:101140000F6A928080A00DD00EB60AD00B06090659
:10115000010E09240A6E0E861E0E236E57EC04F053
:1011600001D00E96928280A20DD00EBA0AD00B2A20
:10117000092A010E095C0A6E0E8A1E0E236E57ECB8
:1011800004F001D00E9A0B500D5C08E20F2A0BC040
:101190000DF0020E0D5C0C6E040E096E0C500B5C13
:1011A00008E20F060BC00CF0020E0C240D6E020EAE
:1011B000096E0B50065C09E207C00BF0020E096EC7
:1011C0000F6A0BC00CF00C240D6E07500B5C0AE28A
:1011D00006C00BF0040E096E020E0F6E0BC00DF070
:1011E0000D5C0C6E010E0F241C6E1D6E020E1E6E29
:1011F000CADC020E0F241C6E1D6E030E1E6EC3DCB5
:10120000030E0F241C6E1D6E040E1E6EBCDC010E40
:10121000236E09C024F0DBEC04F011C022F007ECCF
:1012200005F00950020814E1010E236E040E246E2D
:10123000DBEC04F012C022F007EC05F0010E236E87
:10124000030E246EDBEC04F012C022F007EC05F074
:101250000950040814E1010E236E020E246EDBEC2B
:1012600004F012C022F007EC05F0010E236E030E0D
:10127000246EDBEC04F012C022F007EC05F00950FC
:10128000030814E1010E236E040E246EDBEC04F05F
:1012900012C022F007EC05F0010E236E020E246E40
:1012A000DBEC04F012C022F007EC05F0928480A47D
:1012B00017D00EB814D00E880BC005F0030E096EBF
:1012C0001E0E236E57EC04F00C0E226E07EC05F098
:1012D0000550060804E1146A156A166A176A01D0F7
:1012E0000E9805500208D8A479D1010E236E246E01
:1012F000DBEC04F0B80EF66E010EF76E2CEC05F088
:10130000010E236E020E246EDBEC04F0CE0EF66EA0
:10131000010EF76E2CEC05F0090E236E030E246E01
:10132000DBEC04F0E40EF66E010EF76E2CEC05F02B
:10133000090E236E040E246EDBEC04F0F00EF66E44
:10134000010EF76E2CEC05F0928080A009D00EB64D
:1013500006D009060E861E0E236E57EC04F001D04F
:101360000E96928280A209D00EBA06D0092A0E8A61
:101370001E0E236E57EC04F001D00E9A095003089C
:101380000CE3030E096E070E236E040E246EDBECD5
:1013900004F012C022F007EC05F0095003080CE23B
:1013A000040E096E070E236E030E246EDBEC04F0B0
:1013B00012C022F007EC05F0928680A60ED00EBC7B
:1013C0000BD0020E096E0B6E0E8C010E056E0F6AAD
:1013D0001E0E236E57EC04F001D00E9C928480A464
:1013E000F2D00EB8EFD00E88010E056E0F6A0950CC
:1013F000030834E10EA032D00E808C809590010E4F
:10140000236E246EDBEC04F0FE0EF66E010EF76E1A
:101410002CEC05F0010E236E020E246EDBEC04F0C2
:10142000140EF66E020EF76E2CEC05F0010E236E14
:10143000030E246EDBEC04F02A0EF66E020EF76E3D
:101440002CEC05F0010E236E040E246EDBEC04F090
:10145000400EF66E020EF76E2CEC05F009500308F4
:1014600034E10EB032D00E808C809590010E236E48
:10147000246EDBEC04F0560EF66E020EF76E2CECCA
:1014800005F0010E236E020E246EDBEC04F06C0EF0
:10149000F66E020EF76E2CEC05F0010E236E030EB5
:1014A000246EDBEC04F0820EF66E020EF76E2CEC6E
:1014B00005F0010E236E040E246EDBEC04F0980E92
:1014C000F66E020EF76E2CEC05F00950040834E1BC
:1014D0000EB032D00E908C909590010E236E246E3B
:1014E000DBEC04F0AE0EF66E020EF76E2CEC05F09F
:1014F000010E236E020E246EDBEC04F0C40EF66EB9
:10150000020EF76E2CEC05F0010E236E030E246E16
:10151000DBEC04F0DA0EF66E020EF76E2CEC05F042
:10152000010E236E040E246EDBEC04F0F00EF66E5A
:10153000020EF76E2CEC05F00950040834E10EA001
:1015400032D00E908C909590010E236E246EDBECC1
:1015500004F0060EF66E030EF76E2CEC05F0010E8D
:10156000236E020E246EDBEC04F01C0EF66E030EEE
:10157000F76E2CEC05F0010E236E030E246EDBECEF
:1015800004F0320EF66E030EF76E2CEC05F0010E31
:10159000236E040E246EDBEC04F0480EF66E030E90
:1015A000F76E2CEC05F0020E1C6EFA0E236E57EC53
:1015B00004F01C2EFAD7020E096E0B6E0C0E226E72
:1015C00007EC05F001D00E98070E236E09C024F039
:1015D000DBEC04F011C022F007EC05F00550030825
:1015E000D8A479D1010E236E246EDBEC04F05E0EDC
:1015F000F66E030EF76E2CEC05F0010E236E020E54
:10160000246EDBEC04F0720EF66E030EF76E2CEC1B
:1016100005F0090E236E030E246EDBEC04F0860E3B
:10162000F66E030EF76E2CEC05F0090E236E040E19
:10163000246EDBEC04F0920EF66E030EF76E2CECCB
:1016400005F0928080A009D00EB606D009060E865D
:101650001E0E236E57EC04F001D00E96928280A2EB
:1016600009D00EBA06D0092A0E8A1E0E236E57EC38
:1016700004F001D00E9A095003080CE3030E096E22
:10168000070E236E040E246EDBEC04F012C022F071
:1016900007EC05F0095003080CE2040E096E070E72
:1016A000236E030E246EDBEC04F012C022F007EC74
:1016B00005F0928680A60ED00EBC0BD0020E096EED
:1016C0000B6E0E8C010E056E0F6A1E0E236E57EC0C
:1016D00004F001D00E9C928480A4F2D00EB8EFD01A
:1016E0000E88010E056E0F6A0950030834E10EA240
:1016F00032D00E828C829592010E236E246EDBEC2A
:1017000004F09E0EF66E030EF76E2CEC05F0010E43
:10171000236E020E246EDBEC04F0B40EF66E030EA4
:10172000F76E2CEC05F0010E236E030E246EDBEC3D
:1017300004F0CA0EF66E030EF76E2CEC05F0010EE7
:10174000236E040E246EDBEC04F0E00EF66E030E46
:10175000F76E2CEC05F00950030834E10EB232D0DC
:101760000E828C829592010E236E246EDBEC04F0C7
:10177000F60EF66E030EF76E2CEC05F0010E236EDE
:10178000020E246EDBEC04F00C0EF66E040EF76E07
:101790002CEC05F0010E236E030E246EDBEC04F03E
:1017A000220EF66E040EF76E2CEC05F0010E236E81
:1017B000040E246EDBEC04F0380EF66E040EF76EA9
:1017C0002CEC05F00950040834E10EB232D00E9230
:1017D0008C929592010E236E246EDBEC04F04E0E7B
:1017E000F66E040EF76E2CEC05F0010E236E020E61
:1017F000246EDBEC04F0640EF66E040EF76E2CEC37
:1018000005F0010E236E030E246EDBEC04F07A0E5D
:10181000F66E040EF76E2CEC05F0010E236E040E2E
:10182000246EDBEC04F0900EF66E040EF76E2CECDA
:1018300005F00950040834E10EA232D00E928C92C9
:101840009592010E236E246EDBEC04F0A60EF66E6C
:10185000040EF76E2CEC05F0010E236E020E246EC2
:10186000DBEC04F0BC0EF66E040EF76E2CEC05F00B
:10187000010E236E030E246EDBEC04F0D20EF66E26
:10188000040EF76E2CEC05F0010E236E040E246E90
:10189000DBEC04F0E80EF66E040EF76E2CEC05F0AF
:1018A000020E1C6EFA0E236E57EC04F01C2EFAD7B3
:1018B000020E096E0B6E0C0E226E07EC05F001D0C5
:1018C0000E98070E236E09C024F0DBEC04F011C063
:1018D00022F007EC05F005500408D8A497D1010EBA
:1018E000236E246EDBEC04F0FE0EF66E040EF76E33
:1018F0002CEC05F0010E236E020E246EDBEC04F0DE
:10190000120EF66E050EF76E2CEC05F0090E236E26
:10191000030E246EDBEC04F0260EF66E050EF76E59
:101920002CEC05F0090E236E040E246EDBEC04F0A3
:10193000320EF66E050EF76E2CEC05F0928080A04C
:1019400009D00EB606D009060E861E0E236E57EC81
:1019500004F001D00E96928280A209D00EBA06D071
:10196000092A0E8A1E0E236E57EC04F001D00E9A3F
:10197000095003080CE3030E096E070E236E040ED4
:10198000246EDBEC04F012C022F007EC05F00950E5
:1019900003080CE2040E096E070E236E030E246E7C
:1019A000DBEC04F012C022F007EC05F0928680A672
:1019B0000ED00EBC0BD0020E096E0B6E0E8C010EFB
:1019C000056E0F6A1E0E236E57EC04F001D00E9CBC
:1019D000928480A410D10EB80DD10E88010E056E30
:1019E0000F6A0950030842E10EA440D00E84F2CFE2
:1019F0001CF0F29E050EA96EA69CA69EA680A8507D
:101A00001CBEF28E1D6E1DC01EF004EC06F0010E11
:101A1000236E246EDBEC04F03E0EF66E050EF76EC0
:101A20002CEC05F0010E236E020E246EDBEC04F0AC
:101A3000540EF66E050EF76E2CEC05F0010E236EBB
:101A4000030E246EDBEC04F06A0EF66E050EF76EE4
:101A50002CEC05F0010E236E040E246EDBEC04F07A
:101A6000800EF66E050EF76E2CEC05F0095003089B
:101A700042E10EB440D00E84F2CF1CF0F29E050E6F
:101A8000A96EA69CA69EA680A8501CBEF28E1D6EB6
:101A90001DC01EF004EC06F0010E236E246EDBEC7C
:101AA00004F0960EF66E050EF76E2CEC05F0010EA6
:101AB000236E020E246EDBEC04F0AC0EF66E050E07
:101AC000F76E2CEC05F0010E236E030E246EDBEC9A
:101AD00004F0C20EF66E050EF76E2CEC05F0010E4A
:101AE000236E040E246EDBEC04F0D80EF66E050EA9
:101AF000F76E2CEC05F00950040835E10EB433D034
:101B00000E941E6A04EC06F0010E236E246EDBECCC
:101B100004F0EE0EF66E050EF76E2CEC05F0010EDD
:101B2000236E020E246EDBEC04F0040EF66E060E3D
:101B3000F76E2CEC05F0010E236E030E246EDBEC29
:101B400004F01A0EF66E060EF76E2CEC05F0010E80
:101B5000236E040E246EDBEC04F0300EF66E060EDF
:101B6000F76E2CEC05F00950040835E10EA433D0D3
:101B70000E941E6A04EC06F0010E236E246EDBEC5C
:101B800004F0460EF66E060EF76E2CEC05F0010E14
:101B9000236E020E246EDBEC04F05C0EF66E060E75
:101BA000F76E2CEC05F0010E236E030E246EDBECB9
:101BB00004F0720EF66E060EF76E2CEC05F0010EB8
:101BC000236E040E246EDBEC04F0880EF66E060E17
:101BD000F76E2CEC05F0020E1C6EFA0E236E57EC1D
:101BE00004F01C2EFAD7020E096E0B6E0C0E226E3C
:101BF00007EC05F001D00E98070E236E09C024F003
:101C0000DBEC04F011C022F007EC05F005500508EC
:101C1000D8A4DED0010E236E246EDBEC04F09E0E01
:101C2000F66E060EF76E2CEC05F0010E236E020E1A
:101C3000246EDBEC04F0B40EF66E060EF76E2CECA0
:101C400005F0080E236E030E246EDBEC04F010C0CA
:101C50001CF01F0E1D6E5FEC05F0928080A009D075
:101C60000EB606D0102A0E861E0E236E57EC04F018
:101C700001D00E96928280A209D00EBA06D010062C
:101C80000E8A1E0E236E57EC04F001D00E9A928637
:101C900080A60ED00EBC0BD0020E096E0B6E0E8C01
:101CA000010E056E0F6A1E0E236E57EC04F001D074
:101CB0000E9C10BE03D01050000802E3040E106EFC
:101CC00010BE05D01050040802E2010E106E92847E
:101CD00080A473D00EB870D00E88010E056E0F6A06
:101CE000050EA96E10C0A8FFA69CA69EA684F25061
:101CF000006EF29E0F01550EA76EAA0EA76EA68269
:101D0000A6B2FED7A6940050F2120EA406D010C0C0
:101D10001EF0000104EC06F00F01010E236E246E8C
:101D20000001DBEC04F0CA0EF66E060EF76E2CEC2A
:101D300005F0010E236E020E246EDBEC04F0E00EC3
:101D4000F66E060EF76E2CEC05F0010E236E030EF8
:101D5000246EDBEC04F0F60EF66E060EF76E100E37
:101D60001C6E3CEC05F010C01CF01F0E1D6E5FECED
:101D700005F0200E226E07EC05F0200E226E07EC17
:101D800005F0010E236E040E246EDBEC04F00C0E45
:101D9000F66E070EF76E2CEC05F0020E1C6EFA0EB6
:101DA000236E57EC04F01C2EFAD7020E096E0B6E50
:101DB0000C0E226E07EC05F001D00E98060E236E75
:101DC00009C024F0DBEC04F011C022F007EC05F0B0
:101DD00005500608D8A474D1010E236E246EDBECE6
:101DE00004F0220EF66E070EF76E2CEC05F0010ED5
:101DF000236E020E246EDBEC04F0380EF66E070E36
:101E0000F76E2CEC05F0010E236E030E246EDBEC56
:101E100004F04E0EF66E070EF76E0A0E1C6E3CECCA
:101E200005F014C01CF01F0E1D6E5FEC05F015C010
:101E30001CF01F0E1D6E5FEC05F016C01CF01F0E8F
:101E40001D6E5FEC05F017C01CF01F0E1D6E5FECE1
:101E500005F0200E226E07EC05F0200E226E07EC36
:101E600005F0928080A011D00EB60ED00B0E085C4B
:101E7000036A140FE96E000E0320EA6EEF2A0E8645
:101E80001E0E236E57EC04F001D00E96928280A2B3
:101E900011D00EBA0ED00B0E085C036A140FE96E57
:101EA000000E0320EA6EEF060E8A1E0E236E57EC1C
:101EB00004F001D00E9A928480A40DD00EB80AD0FE
:101EC0000E88082A1E0E236E57EC04F00C0E226EAC
:101ED00007EC05F001D00E98928680A60DD00EBCBE
:101EE0000AD00E8C08061E0E236E57EC04F00C0E62
:101EF000226E07EC05F001D00E9C0B0E085C036A05
:101F0000140FE96E000E0320EA6EEFBE01D00AD076
:101F10000B0E085C036A140FE96E000E0320EA6ED4
:101F2000090EEF6E0B0E085C036A140FE96E000ECB
:101F30000320EA6EEFBE0CD0EF50090809E20B0E49
:101F4000085C036A140FE96E000E0320EA6EEF6A64
:101F500008500A0808E3010E056E0F6A020E096EAA
:101F60000B6E0B0E086E08C023F0040E246EDBEC23
:101F700004F013C022F007EC05F008500E08D8B0AA
:101F80008DD01850145C4DE11950155C4AE11A507F
:101F9000165C47E11B50175C44E1010E236E246E72
:101FA000DBEC04F0640EF66E070EF76E2CEC05F019
:101FB000010E236E020E246EDBEC04F07A0EF66E38
:101FC000070EF76E2CEC05F0010E236E030E246E47
:101FD000DBEC04F0900EF66E070EF76E2CEC05F0BD
:101FE000010E236E040E246EDBEC04F0A60EF66EDA
:101FF000070EF76E2CEC05F0020E1C6EFA0E236E27
:1020000057EC04F01C2EFAD73D0E056E0B0E086E31
:102010000C0E226E07EC05F0146A156A166A176A30
:102020003DD0010E236E246EDBEC04F0BC0EF66E88
:10203000070EF76E2CEC05F0010E236E020E246ED7
:10204000DBEC04F0D20EF66E070EF76E2CEC05F00A
:10205000010E236E030E246EDBEC04F0E80EF66E28
:10206000070EF76E2CEC05F0010E236E040E246EA5
:10207000DBEC04F0FE0EF66E070EF76E2CEC05F0AE
:10208000020E1C6EFA0E236E57EC04F01C2EFAD7CB
:102090000B0E086E0C0E226E07EC05F008500B08B4
:1020A0000FE208500D080CE3010E085C1C6E236E55
:1020B000040E246EDBEC04F012C022F007EC05F0F5
:1020C00005503D08D8A487D1010E236E246EDBECA9
:1020D00004F0140EF66E080EF76E2CEC05F0010EEF
:1020E000236E020E246EDBEC04F02A0EF66E080E50
:1020F000F76E2CEC05F0010E236E030E246EDBEC64
:1021000004F0400EF66E080EF76E0A0E1C6E3CECE4
:1021100005F014C01CF01F0E1D6E5FEC05F015C01D
:102120001CF01F0E1D6E5FEC05F016C01CF01F0E9C
:102130001D6E5FEC05F017C01CF01F0E1D6E5FECEE
:1021400005F0200E226E07EC05F0200E226E07EC43
:1021500005F0928080A011D00EB60ED00B0E085C58
:10216000036A140FE96E000E0320EA6EEF2A0E8652
:102170001E0E236E57EC04F001D00E96928280A2C0
:1021800011D00EBA0ED00B0E085C036A140FE96E64
:10219000000E0320EA6EEF060E8A1E0E236E57EC29
:1021A00004F001D00E9A928480A40DD00EB80AD00B
:1021B0000E88082A1E0E236E57EC04F00C0E226EB9
:1021C00007EC05F001D00E98928680A60DD00EBCCB
:1021D0000AD00E8C08061E0E236E57EC04F00C0E6F
:1021E000226E07EC05F001D00E9C0B0E085C036A12
:1021F000140FE96E000E0320EA6EEFBE01D00AD084
:102200000B0E085C036A140FE96E000E0320EA6EE1
:10221000090EEF6E0B0E085C036A140FE96E000ED8
:102220000320EA6EEFBE0CD0EF50090809E20B0E56
:10223000085C036A140FE96E000E0320EA6EEF6A71
:1022400008500A0804E3050E056E0B0E086E08C060
:1022500023F0040E246EDBEC04F013C022F007EC34
:1022600005F008500E08D8B0A4D0010E236E246EDD
:10227000DBEC04F0560EF66E080EF76E2CEC05F053
:10228000010E236E020E246EDBEC04F06C0EF66E73
:10229000080EF76E2CEC05F0010E236E030E246E73
:1022A000DBEC04F0820EF66E080EF76E2CEC05F0F7
:1022B000010E236E040E246EDBEC04F0980EF66E15
:1022C000080EF76E2CEC05F0A96A14C0A8FFA69CB6
:1022D000A69EA684F250006EF29E0F01550EA76EC8
:1022E000AA0EA76EA682A6B2FED7A6940050F2123E
:1022F000140E236E000157EC04F0010EA96E15C0F8
:10230000A8FFA69CA69EA684F250006EF29E0F0126
:10231000550EA76EAA0EA76EA682A6B2FED7A694E9
:102320000050F212140E236E000157EC04F0020E5E
:10233000A96E16C0A8FFA69CA69EA684F250006EA9
:10234000F29E0F01550EA76EAA0EA76EA682A6B228
:10235000FED7A6940050F212140E236E000157EC23
:1023600004F0030EA96E17C0A8FFA69CA69EA68423
:10237000F250006EF29E0F01550EA76EAA0EA76EC8
:10238000A682A6B2FED7A6940050F212140E236EB7
:10239000000157EC04F0020E1C6EFA0E236E57EC8F
:1023A00004F01C2EFAD7010E056E0F6A020E096E9C
:1023B0000B6E08500B080FE208500D080CE3010EDD
:1023C000085C1C6E236E040E246EDBEC04F012C05D
:0C23D00022F007EC05F0E7EF06F0030038
:020000040030CA
:0E0000003FC03E1E000781000FC00FE00F4002
:00000001FF
;PIC18F4550
;CRC=AF16  CREATED="02-sep-14 09:29"
