:04000000F0EF39F0F4
:0800080057EF00F000000000BA
:100010000000000000000000046ED8CF05F0E0CF23
:1000200006F00001E9CF0CF0EACF07F0E1CF08F0CD
:10003000E2CF09F0D9CF0AF0DACF0BF0F3CF12F00C
:10004000F4CF13F0FACF14F0FBCF15F000C00EF090
:1000500001C00FF002C010F003C011F09DAA34EFF0
:1000600000F09EBA14EF02F00EC000F00FC001F0D5
:1000700010C002F011C003F00CC0E9FF07C0EAFF96
:10008000078E08C0E1FF09C0E2FF0AC0D9FF0BC01C
:10009000DAFF12C0F3FF13C0F4FF14C0FAFF15C05B
:1000A000FBFF045006C0E0FF05C0D8FF1000176E2C
:1000B000D8CF18F0E0CF19F00001E9CF1FF0EACF58
:1000C0001AF0E1CF1BF0E2CF1CF0D9CF1DF0DACF50
:1000D0001EF0F3CF25F0F4CF26F0FACF27F0FBCFB8
:1000E00028F000C021F001C022F002C023F003C0BC
:1000F00024F0F2AA7FEF00F0F2B4B6EF01F09DA079
:1001000085EF00F09EB0CFEF01F0F2A88BEF00F08A
:10011000F2B242EF01F021C000F022C001F023C092
:1001200002F024C003F01FC0E9FF1AC0EAFF1A8ED4
:100130001BC0E1FF1CC0E2FF1DC0D9FF1EC0DAFFDB
:1001400025C0F3FF26C0F4FF27C0FAFF28C0FBFF3D
:10015000175019C0E0FF18C0D8FF10006A302E7683
:10016000616C3D2575006A312E76616C3D30000072
:100170006A322E76616C3D3000006A332E76616CF7
:100180003D3000006A312E76616C3D2575006A3085
:100190002E76616C3D31303000006A322E76616C13
:1001A0003D3000006A332E76616C3D3000006A32CB
:1001B0002E76616C3D2575006A302E76616C3D317E
:1001C000303000006A312E76616C3D3130300000F5
:1001D0006A332E76616C3D3000006A332E76616C96
:1001E0003D2575006A302E76616C3D31303000005F
:1001F0006A312E76616C3D31303000006A322E76E5
:10020000616C3D31303000005072696E636970611D
:100210006C2E62636F3D254C750066656368612EC8
:1002200062636F3D254C750065737461646F2E6267
:10023000636F3D254C7500006665782E62636F3DE7
:10024000254C750066646F776E2E62636F3D254C9A
:10025000750074332E62636F3D254C750000743257
:100260002E62636F3D254C75000070646F776E2EB3
:1002700062636F3D254C75007065782E62636F3D3B
:10028000254C750080877F8902016F2BD8B4702BB5
:1002900077510C0806E1D76ADC0ED66E8B969496E1
:1002A00061D077510B0806E1D76AD20ED66E8B96D5
:1002B000949658D077510A0806E1D76AC80ED66ED0
:1002C0008B9694964FD07751090806E1D76ABE0EF7
:1002D000D66E8B96949646D07751080806E1D76A79
:1002E000B40ED66E8B9694963DD07751070806E1F2
:1002F000D76AAF0ED66E8B96949634D07751060897
:1003000006E1D76AAA0ED66E8B9694962BD07751BB
:10031000050806E1D76AA50ED66E8B96949622D074
:100320007751040806E1D76AA00ED66E8B96949694
:1003300019D07751030806E1D76A9B0ED66E8B96CB
:10034000949610D07751020806E1D76A960ED66EC1
:100350008B96949607D0772D05D0D76A910ED66EDE
:100360008B969496F29200018BEF00F00201775386
:1003700012E077510C080FE3000180A707D08B86AD
:100380009496D76AFD0ED66E809704D08B9694967D
:10039000D76AD66A0201F29400018BEF00F0F30EE7
:1003A000CF6ECB0ECE6E0201712BD8B4722B72536E
:1003B00003E17151C70828E2726B716B00017D8106
:1003C00080817DA303D0BD2BD8B4BE2B7EB502D0D7
:1003D00080A906D0A62BA6513B0802E2A66BA82B4B
:1003E00080A306D0AA2BAA513B0802E2AA6BAC2B31
:1003F0007FA509D0B72BD8B4B82BAE2BAE513B0894
:1004000002E2AE6BAF2B02019E9000018BEF00F079
:100410009EAAFED7ABCF2AF0AECF01F02AA202D01F
:10042000AB98AB8815EF02F0F3D701C0A1F0A15152
:10043000650803E1010EA26F476AA22D0AD0036A84
:1004400047503C0FE96E000E0320EA6EA1C0EFFF9B
:10045000472A4750090802E2476AA26B475210E157
:100460003C5065080BE13D3C09D03E3C07D044526E
:1004700005E1453C03D0050E986F02D00A0E986F37
:100480009E9A34EF00F070616765204269656E7670
:10049000656E696461007061676520436C617665B3
:1004A00000007061676520416A75737465730000B0
:1004B00074302E7478743D22257522007661302EBA
:1004C00076616C3D310074302E7478743D22257550
:1004D000257522007661302E76616C3D32007430D5
:1004E0002E7478743D222575257525752200766158
:1004F000302E76616C3D330074302E7478743D225A
:10050000257525752575257522007661302E766155
:100510006C3D340074302E7478743D22220070617A
:10052000676520436C617665436F727265637461C1
:1005300000007061676520436C617665426164000C
:100540007061676520436F6E6669670070616765FB
:1005500020416A757374657300007061676520439C
:100560006C6176650000746974756C6F2E747874B4
:100570003D22436C617665204E75657661220000F0
:100580007061676520416A757374657300007469F2
:1005900074756C6F2E7478743D22436C617665209F
:1005A0004E756576612200007061676520416A754D
:1005B000737465730000746974756C6F2E7478744D
:1005C0003D22436C617665204E75657661220000A0
:1005D000646F6576656E74730000746974756C6F12
:1005E0002E7478743D22436C617665204163747586
:1005F000616C2200646F6576656E747300007469C7
:1006000074756C6F2E7478743D22436C617665202E
:100610005465636E69636F220000646F6576656E72
:1006200074730000746974756C6F2E7478743D2255
:10063000496E677265736520436F6E74726173658E
:10064000F16122007061676520436C617665436FDC
:1006500072726563746100007061676520436C614C
:100660007665426164007061676520436F6E6669FC
:1006700067007061676520416A7573746573000077
:100680007061676520436C617665000074697475FC
:100690006C6F2E7478743D22436C617665204E75C4
:1006A0006576612200007061676520416A75737428
:1006B00065730000746974756C6F2E7478743D22D4
:1006C000436C617665204E7565766122000070612D
:1006D000676520416A7573746573000070616765B2
:1006E00020436C6176654261640066656368612ED3
:1006F0007478743D2246656368613A253032752FFF
:10070000253032752F323025303275202020204898
:100710006F72613A20253032753A253032753A25AC
:100720003032752020543A25303275B04322000013
:1007300070616765205469656D706F50757267618F
:10074000000070616765205469656D706F555600D3
:10075000706167652054696D65506F737450000057
:1007600070616765204D746F000070616765204699
:100770006563686100007061676520436C61766540
:1007800000007061676520436C61766500007061F0
:100790006765205072696E636970616C00007061FA
:1007A0006765205072696E636970616C00006665F0
:1007B0006368612E7478743D2246656368613A25EA
:1007C0003032752F253032752F323025303275207A
:1007D000202020486F72613A20253032753A25304A
:1007E00032753A253032752020543A25303275B0B2
:1007F00043220000747365636573742E70636F3DEC
:10080000363535333500746D696E6573742E7063DB
:100810006F3D3000747365636573742E70636F3D54
:100820003000746D696E6573742E70636F3D36357C
:10083000353335007061676520416A75737465737F
:100840000000746D696E6573742E7478743D222592
:10085000303275220000747365636573742E74788A
:10086000743D222530327522000066656368612E72
:100870007478743D2246656368613A253032752F7D
:10088000253032752F323025303275202020204817
:100890006F72613A20253032753A253032753A252B
:1008A0003032752020543A25303275B04322000092
:1008B000747365636573742E70636F3D36353533BD
:1008C0003500746D696E6573742E70636F3D300012
:1008D000747365636573742E70636F3D3000746D5F
:1008E000696E6573742E70636F3D36353533350030
:1008F0007061676520416A75737465730000746D7B
:10090000696E6573742E7478743D222530327522B9
:100910000000747365636573742E7478743D2225CA
:10092000303275220000746974756C6F2E7478749F
:100930003D225075726761220000746974756C6F96
:100940002E7478743D222155626971756520656C3D
:100950002076696472696F2122006D696E5075722C
:1009600067612E7478743D222530327522007365DC
:100970006350757267612E7478743D22253032752C
:10098000220066656368612E7478743D2246656353
:1009900068613A253032752F253032752F32302577
:1009A00030327520202020486F72613A2025303285
:1009B000753A253032753A253032752020543A2563
:1009C000303275B043220000706167652050726953
:1009D0006E636970616C00007061676520507269B8
:1009E0006E636970616C00006665782E7478743D82
:1009F0002256656C6F63696461643A202575202214
:100A0000000066646F776E2E7478743D22536174B3
:100A10007572616369F36E3A2025322E3266206961
:100A20006E48324F220066656368612E7478743DAB
:100A30002246656368613A253032752F253032755C
:100A40002F32302530327520202020486F72613AD5
:100A500020253032753A253032753A2530327520EE
:100A600020543A25303275B04322000070646F770D
:100A70006E2E7478743D22253033752525220000B2
:100A800062302E7069633D31370062302E706963C9
:100A90003D31360062312E7069633D32350062317E
:100AA0002E7069633D32360062312E7069633D32CB
:100AB000360065737461646F2E7478743D224361EF
:100AC0006D6269652046696C74726F22000069630B
:100AD0006F6E2E7069633D32390065737461646FA7
:100AE0002E7478743D22556269717565205669646B
:100AF00072696F22000069636F6E2E7069633D3208
:100B0000300065737461646F2E7478743D2256658D
:100B10006E74696C61646F72204F4646220069638F
:100B20006F6E2E7069633D32300065737461646F5F
:100B30002E7478743D224F706572616369F36E2084
:100B4000536567757261220069636F6E2E70696309
:100B50003D31390062322E7069633D3237006232B6
:100B60002E7069633D3238007061676520506F7385
:100B700074507572676100007061676520416A7525
:100B80007374657300007061676520416A757374E2
:100B9000657300007061676520506F7374507572E3
:100BA000676100006D696E50757267612E747874AC
:100BB0003D2225303275220073656350757267617E
:100BC0002E7478743D222530327522006665636884
:100BD000612E7478743D2246656368613A2530322F
:100BE000752F253032752F32302530327520202078
:100BF00020486F72613A20253032753A25303275BF
:100C00003A253032752020543A25303275B04322CF
:100C1000000070616765205072696E636970616C75
:100C2000000070616765204F66660000706167654F
:100C300020416A7573746573000074686F72612E69
:100C40007478743D2225303275220000746D696E0F
:100C500075746F732E7478743D22253032752200BE
:100C6000746469612E7478743D22253032752200D7
:100C7000746D65732E7478743D22253032752200B0
:100C800074796561722E7478743D22253032752234
:100C9000000070616765204269656E76656E696403
:100CA000610070616765204269656E76656E696492
:100CB000610066656368612E7478743D22466563E1
:100CC00068613A253032752F253032752F32302544
:100CD00030327520202020486F72613A2025303252
:100CE000753A253032753A253032752020543A2530
:100CF000303275B043220000747365636573742EDF
:100D000070636F3D363535333500746D696E6573CC
:100D1000742E70636F3D3000747365636573742E59
:100D200070636F3D3000746D696E6573742E70630F
:100D30006F3D3635353335007061676520416A7522
:100D4000737465730000746D696E6573742E7478C6
:100D5000743D22253032752200007473656365731B
:100D6000742E7478743D2225303275220000623072
:100D70002E7478743D22555628686F726173293A33
:100D80002530354C7522000062312E7478743D2276
:100D900046696C74726F28686F726173293A2530E6
:100DA000354C752200006365726F496E2E7478743D
:100DB0003D224365726F20496E466C6F773A20255D
:100DC000322E3066202200006365726F446E2E74EE
:100DD00078743D224365726F20446E466C6F773A9B
:100DE0002025322E306620220000616A75737465FA
:100DF000496E2E7478743D22416A7573746520497A
:100E00006E466C6F773A25322E32662051693A254C
:100E1000332E30662200616A75737465446E2E74D9
:100E200078743D22416A7573746520446E466C6F18
:100E3000773A25322E32662051643A25332E3066B9
:100E40002200696E666C6F772E7478743D22496E4D
:100E5000466C6F773A2025322E32662050693A254B
:100E6000322E326620220000646F776E666C6F77D8
:100E70002E7478743D22446F776E466C6F773A20FB
:100E800025322E32662050643A25322E32662200F8
:100E9000616463696E2E7478743D22414443496EE7
:100EA0003A202530344C75202200616463646E2E34
:100EB0007478743D22414443446E3A202530344CCA
:100EC0007520643A25322E32662200007061676513
:100ED00020416A7573746573000070616765204115
:100EE0006A757374657300007061676520416A7587
:100EF0007374657300007061676520507572676177
:100F000000007061676520436C6176650000436F87
:100F10006E6669672E7432632E7478743D2256654E
:100F20006C6F63696461642200007433632E7478AB
:100F3000743D222575220000436F6E6669672E742A
:100F400032632E7478743D224365726F20496E4679
:100F50006C6F772200007433632E7478743D222501
:100F6000322E30662200436F6E6669672E743263DC
:100F70002E7478743D224365726F20446E466C6F08
:100F8000772200007433632E7478743D2225322E4C
:100F900030662200436F6E6669672E7432632E746A
:100FA00078743D22416A7573746520496E466C6F92
:100FB000772200007433632E7478743D2225322E1C
:100FC00032662200436F6E6669672E7432632E7438
:100FD00078743D22416A7573746520446E466C6F67
:100FE000772200007433632E7478743D2225322EEC
:100FF00032662200436F6E6669672E7432632E7408
:1010000078743D224365726F2050446F776E466C52
:101010006F7722007433632E7478743D2225322E4C
:1010200030662200436F6E6669672E7432632E74D9
:1010300078743D224365726F2050496E466C6F771D
:1010400022007433632E7478743D2225322E30666C
:101050002200436F6E6669672E7432632E74787453
:101060003D224C696D6974652050446F776E466C03
:101070006F7722007433632E7478743D2225322EEC
:1010800031662200436F6E6669672E7432632E7478
:1010900078743D224C696D6974652050496E466CC8
:1010A0006F7722007433632E7478743D2225322EBC
:1010B00031662200436F6E6669672E7432632E7448
:1010C00078743D2256656C6F6369646164203222D6
:1010D00000007433632E7478743D2225752200005D
:1010E000436F6E6669672E7432632E7478743D2286
:1010F000416C61726D6120496E466C6F7722000011
:101100007433632E7478743D2225322E32662200A9
:10111000436F6E6669672E7432632E7478743D2255
:101120005020496E696369616C20446F776E466C2C
:101130006F7722007433632E7478743D2225322E2B
:1011400032662200436F6E6669672E7432632E74B6
:1011500078743D225020496E696369616C20496E44
:10116000466C6F7722007433632E7478743D2225A9
:10117000322E32662200436F6E6669672E743263C8
:101180002E7478743D22502061746D6F73666572A1
:101190006963612200007433632E7478743D2225E4
:1011A000322E30662200436F6E6669672E7432639A
:1011B0002E7478743D2248756D6564616422000068
:1011C0007433632E7478743D2225322E30662200EB
:1011D0007061676520416A757374657300006665A8
:1011E0006368612E7478743D2246656368613A25B0
:1011F0003032752F253032752F3230253032752040
:10120000202020486F72613A20253032753A25300F
:1012100032752200060EEA6E0B0EE96EEF500DE0FD
:10122000060E016E006A002EFED7012EFBD77B0E44
:10123000006E002EFED7EF2EF3D7000C0501FE6BDB
:10124000FE5107080DE3D890FD3302E28B9801D0E0
:101250008B889498949A8B8A949A8B9AFE2BF0D7C9
:101260000001000C95968C86FBC5FDF5E7DFFCC5FB
:10127000FDF5E4DF95968C96000C95968C86F8C566
:10128000FDF5DCDF9488100E006E002EFED7000006
:101290000501F96BF951070815E3948882B802D06B
:1012A000D89001D0D880FA33949A8B8A210E006EA0
:1012B000002EFED7949A8B9A210E006E002EFED738
:1012C000F92BE8D795968C96FAC501F00001000C31
:1012D00095968C96210E006E002EFED7949A8B9ACE
:1012E0008E0E0501FB6FFC6B0001BCDF900E05014B
:1012F000FB6FA40EFC6F0001B5DF810E0501F86FD6
:101300000001BBDF01C0F4F50501F451800B06E0DC
:10131000800EFB6FFC6B0001A5DF05010001ABEF48
:101320003CF00900F55211E0F6CFF4F5F7CFF5F5F2
:10133000F8CFF6F5F5509EA8FED7AD6EF4C5F6FFD2
:10134000F5C5F7FFF6C5F8FFECD7000C9EA8FED751
:10135000AD6E000C100E006E002EFED70000FF0ECA
:10136000F5DF100E006E002EFED70000FF0EEEDF40
:10137000100E006E002EFED70000FF0EE7DF100EED
:10138000006E002EFED70000000C8C9E959E8C9C5B
:10139000959C000C8E0E006E45C601F044C602F00E
:1013A000036A015209E102C001F0026A080E005E00
:1013B000015202E1006A08D0D89001BE04D0023682
:1013C00001360006F9D7019E000C06014051D8B441
:1013D000A5D04C6F4451D8B4A1D04C5F05E37F0E2B
:1013E0004C27D8B09BD006D0810E4C5FD8A096D0A9
:1013F000D8B494D04CC600F0016A026A036A4B6B01
:1014000041C64AF64A8F42C649F643C648F6190E07
:101410004C6F4751485F0DE2010E495F0AE24A5F97
:1014200008E24B5F06E24B2B4A2B492B47514827DA
:1014300028D04651495F12E2010E4A5F0FE24B5F2E
:101440000DE24B2B4A2B465149274751482719E3B8
:10145000492B17E14A2B15E14B2B13D0455180093D
:101460004A5F0EE2010E4B5F0BE24B2B45518009A8
:101470004A2746514927E9E34A2BE7E14B2BE5D7B9
:1014800003804C2F01D00BD0D890483749374A37CA
:101490004B37D8900336023601364D37BAD74DA1B7
:1014A00006D0D8900132023203324D3302D000060A
:1014B00035E04DBF1ED0D890483749374A374B37B3
:1014C0004751485F07E2010E495F04E24A5F02E2CA
:1014D0004B5F1AE34651495F05E2010E4A5F02E2A3
:1014E0004B5F12E3455180094A5F03E2010E4B5FF7
:1014F0000BE3032A09E1022A07E1012A05E1002A98
:101500000DE001320232033241C64CF645514C1B0C
:101510004CAF02D0018E06D0019E04D0006A016A51
:10152000026A036A0001000C800ED8A202D00601F4
:10153000491B06014E6B4F6B45C64DF649514D1B7D
:101540004451D8B4DFD04C6F006E4851D8B4E3D0CA
:101550004C5FD8B483D03EE349C652F6528F4AC698
:1015600051F64BC650F64F6BD8905233513350332F
:101570004F334C2FF8D74DAF03D04E81E0D04E9172
:101580004C914E89060EEA6E470EE96EEBD04E99ED
:101590004DBF0AD04CA113D05233513350334F3387
:1015A000002AD8B4C7D00BD052BF0CD0D8904F3738
:1015B0005037513752370006D8B4BCD0F5D74E8DCE
:1015C0006DD04E9D45C64DF645AF02D0528FABD083
:1015D000529FA9D048C64CF648C600F044514C5F13
:1015E00045C652F6528F46C651F647C650F64F6B67
:1015F000D8905233513350334F334C2FF8D74DAF2F
:1016000003D04E839CD04E934C914E8B060EEA6EC7
:101610004B0EE96EA7D04E9B4DBF0AD04CA113D004
:101620005233513350334F33002AD8B483D00BD0C8
:1016300052BF0CD0D8904F37503751375237000631
:10164000D8B478D0F5D74E8F29D04E9F49C64DF6E5
:1016500049AF02D0528F67D0529F65D049C652F62B
:10166000528F4AC651F64BC650F64DAF04D0529F2A
:101670004E8565D04E954F6B4C91060EEA6E470E27
:10168000E96E70D04DBF1CD045C64DF64CA106D0BA
:101690005233513350334F33002A4CE04FAF0BD00D
:1016A000502B09E1512B07E1522B05E15233513305
:1016B0005033002A3FE04EBD84D74EBFC6D71CD062
:1016C000800E521B52AF04D03AD049C64DF60AD014
:1016D00045C64DF6525306E1515304E1505302E121
:1016E000006A21D052BF08D0D8904F3750375137B9
:1016F0005237002EF7D71ED04DAF02D0528F13D0E5
:10170000529F11D048C600F049C652F64AC651F65B
:101710004BC650F608D044C600F045C652F646C641
:1017200051F647C650F652C601F051C602F050C6F7
:1017300003F034D0006A016A026A036A2FD04F6B4B
:10174000501F511F521F4F1F4F2B05E1502B03E11C
:10175000512B01E1522B4EB112D74EB354D74EB597
:1017600089D7B3D7EF50502705E3512B03E1522B14
:10177000D8B44C81ED52EF50512703E3522BD8B42B
:101780004C81ED52EF50EFBE01D0800A5227D8B005
:101790004C814EB9FCD64EBB3ED774D70001000C2D
:1017A000F2CFF4F5F29CF29EAA6AA96AA69CA69EC4
:1017B000A680A8500501F4BDF28CF4BFF28E0001A2
:1017C000CB6F0A0E06010B6F000124DDF2CFF4F59A
:1017D000F29CF29EAA6A010EA96EA69CA69EA68005
:1017E000A8500501F4BDF28CF4BFF28E0001CC6F5D
:1017F0000A0E06010B6F00010DDDF2CFF4F5F29C2D
:10180000F29EAA6A020EA96EA69CA69EA680A85069
:101810000501F4BDF28CF4BFF28E0001CD6F0A0E0B
:1018200006010B6F0001F6DCF2CFF4F5F29CF29E9C
:10183000AA6A030EA96EA69CA69EA680A8500501C2
:10184000F4BDF28CF4BFF28E0001CE6F0A0E0601D9
:101850000B6F0001DFDCF2CFF4F5F29CF29EAA6A76
:10186000040EA96EA69CA69EA680A8500501F4BDF4
:10187000F28CF4BFF28E0001A96F0A0E06010B6F05
:101880000001C8DCF2CFF4F5F29CF29EAA6A050EC4
:10189000A96EA69CA69EA680A8500501F4BDF28C58
:1018A000F4BFF28E0001A76F0A0E06010B6F000154
:1018B000B1DCF2CFF4F5F29CF29EAA6A060EA96E94
:1018C000A69CA69EA680A8500501F4BDF28CF4BF8C
:1018D000F28E0001AD6F0A0E06010B6F00019ADC5B
:1018E000F2CFF4F5F29CF29EAA6A070EA96EA69CAE
:1018F000A69EA680A8500501F4BDF28CF4BFF28E1E
:101900000001AB6F0A0E06010B6F000183DCF2CF02
:10191000F4F5F29CF29EAA6A080EA96EA69CA69EF9
:10192000A680A8500501F4BDF28CF4BFF28E000130
:10193000B16F0A0E06010B6F00016CDCF2CFF4F5FB
:10194000F29CF29EAA6A090EA96EA69CA69EA6808B
:10195000A8500501F4BDF28CF4BFF28E0001B06F07
:101960000A0E06010B6F000155DCF2CFF4F5F29C74
:10197000F29EAA6A0C0EA96EA69CA69EA680A850EE
:101980000501F4BDF28CF4BFF28E0001C36F0A0EA4
:1019900006010B6F00013EDCF2CFF4F5F29CF29EE3
:1019A000AA6A0D0EA96EA69CA69EA680A850050147
:1019B000F4BDF28CF4BFF28E0001C46F0A0E060172
:1019C0000B6F000127DCF2CFF4F5F29CF29EAA6ABD
:1019D0000E0EA96EA69CA69EA680A8500501F4BD79
:1019E000F28CF4BFF28E0001C56F0A0E06010B6F78
:1019F000000110DCF2CFF4F5F29CF29EAA6A0F0E01
:101A0000A96EA69CA69EA680A8500501F4BDF28CE6
:101A1000F4BFF28E0001C66F0A0E06010B6F0001C3
:101A20000AEC09F0F2CFF4F5F29CF29EAA6A100ECD
:101A3000A96EA69CA69EA680A8500501F4BDF28CB6
:101A4000F4BFF28E0001C76F0A0E06010B6F000192
:101A50000AEC09F0F2CFF4F5F29CF29EAA6A110E9C
:101A6000A96EA69CA69EA680A8500501F4BDF28C86
:101A7000F4BFF28E0001C86F0A0E06010B6F000161
:101A80000AEC09F0F2CFF4F5F29CF29EAA6A120E6B
:101A9000A96EA69CA69EA680A8500501F4BDF28C56
:101AA000F4BFF28E0001C96F0A0E06010B6F000130
:101AB0000AEC09F0F2CFF4F5F29CF29EAA6A130E3A
:101AC000A96EA69CA69EA680A8500501F4BDF28C26
:101AD000F4BFF28E0001CA6F0A0E06010B6F0001FF
:101AE0000AEC09F00A0E06010B6F00010AEC09F07E
:101AF000F2CFF4F5F29CF29EAA6A190EA96EA69C8A
:101B0000A69EA680A8500501F4BDF28CF4BFF28E0B
:101B100000018A6F0A0E06010B6F00010AEC09F042
:101B2000F2CFF4F5F29CF29EAA6A1A0EA96EA69C58
:101B3000A69EA680A8500501F4BDF28CF4BFF28EDB
:101B40000601456B446F000125DC03C0FEF002C0B6
:101B5000FDF001C0FCF000C0FBF00A0E06010B6FA7
:101B600000010AEC09F0FEC043F6FDC042F6FCC0DD
:101B700041F6FBC040F60601476B466B480E456FC9
:101B8000850E446F000121DC03C0FEF002C0FDF0B1
:101B900001C0FCF000C0FBF00601456B8AC044F6B2
:101BA0000001CAEC09F0D89203C047F602C046F61D
:101BB00001C045F600C044F6FEC04BF6FDC04AF633
:101BC000FCC049F6FBC048F6AFDC03C008F302C016
:101BD00007F301C006F300C005F3F2CFF4F5F29C61
:101BE000F29EAA6A1B0EA96EA69CA69EA680A8506D
:101BF0000501F4BDF28CF4BFF28E00018A6F0A0E6B
:101C000006010B6F00010AEC09F0F2CFF4F5F29C2B
:101C1000F29EAA6A1C0EA96EA69CA69EA680A8503B
:101C20000501F4BDF28CF4BFF28E0601456B446FE2
:101C30000001CAEC09F003C0FEF002C0FDF001C0D3
:101C4000FCF000C0FBF00A0E06010B6F00010AEC6D
:101C500009F0FEC043F6FDC042F6FCC041F6FBC0F1
:101C600040F60601476B466B480E456F850E446F84
:101C70000001E5EC09F003C0FEF002C0FDF001C078
:101C8000FCF000C0FBF00601456B8AC044F6000181
:101C9000CAEC09F0D89203C047F602C046F601C06C
:101CA00045F600C044F6FEC04BF6FDC04AF6FCC047
:101CB00049F6FBC048F638DC03C071F302C070F38C
:101CC00001C06FF300C06EF30A0E06010B6F000136
:101CD0000AEC09F0F2CFF4F5F29CF29EAA6A1D0E0E
:101CE000A96EA69CA69EA680A8500501F4BDF28C04
:101CF000F4BFF28E00018A6F0A0E06010B6F00011D
:101D00000AEC09F0F2CFF4F5F29CF29EAA6A1E0EDC
:101D1000A96EA69CA69EA680A8500501F4BDF28CD3
:101D2000F4BFF28E0601456B446F0001CAEC09F066
:101D300003C0FEF002C0FDF001C0FCF000C0FBF0EB
:101D40000A0E06010B6F00010AEC09F0FEC043F613
:101D5000FDC042F6FCC041F6FBC040F60601476BF1
:101D6000466B200E456F820E446F0001E5EC09F0D2
:101D700003C0FEF002C0FDF001C0FCF000C0FBF0AB
:101D80000601456B8AC044F60001CAEC09F0D892FE
:101D900003C047F602C046F601C045F600C044F64F
:101DA000FEC04BF6FDC04AF6FCC049F6FBC048F643
:101DB00094EC0AF003C0BBF502C0BAF501C0B9F556
:101DC00000C0B8F5F2CFF4F5F29CF29EAA6A1F0E9D
:101DD000A96EA69CA69EA680A8500501F4BDF28C13
:101DE000F4BFF28E00018A6F0A0E06010B6F00012C
:101DF0000AEC09F0F2CFF4F5F29CF29EAA6A200EEA
:101E0000A96EA69CA69EA680A8500501F4BDF28CE2
:101E1000F4BFF28E0601456B446F0001CAEC09F075
:101E200003C0FEF002C0FDF001C0FCF000C0FBF0FA
:101E30000A0E06010B6F00010AEC09F0FEC043F622
:101E4000FDC042F6FCC041F6FBC040F60601476B00
:101E5000466B200E456F820E446F0001E5EC09F0E1
:101E600003C0FEF002C0FDF001C0FCF000C0FBF0BA
:101E70000601456B8AC044F60001CAEC09F0D8920D
:101E800003C047F602C046F601C045F600C044F65E
:101E9000FEC04BF6FDC04AF6FCC049F6FBC048F652
:101EA00094EC0AF003C077F502C076F501C075F531
:101EB00000C074F5F2CFF4F5F29CF29EAA6A220EED
:101EC000A96EA69CA69EA680A8500501F4BDF28C22
:101ED000F4BFF28EF56FF2CFF6F5F29CF29EAA6A8D
:101EE000210EA96EA69CA69EA680A850F6BDF28CD7
:101EF000F6BFF28EF76FF5C503F0F7510601446F98
:101F000003C045F60001CAEC09F003C0F3F202C0B9
:101F1000F2F201C0F1F200C0F0F20A0E06010B6FFE
:101F200000010AEC09F0F2CFF4F5F29CF29EAA6AE5
:101F3000240EA96EA69CA69EA680A8500501F4BDFD
:101F4000F28CF4BFF28EF56FF2CFF6F5F29CF29EB2
:101F5000AA6A230EA96EA69CA69EA680A850F6BDCE
:101F6000F28CF6BFF28EF76FF5C503F0F75106015C
:101F7000446F03C045F60001CAEC09F003C05CF3EE
:101F800002C05BF301C05AF300C059F30A0E060108
:101F90000B6F00010AEC09F0F2CFF4F5F29CF29E0F
:101FA000AA6A260EA96EA69CA69EA680A850050128
:101FB000F4BDF28CF4BFF28EF56FF2CFF6F5F29C21
:101FC000F29EAA6A250EA96EA69CA69EA680A8507F
:101FD000F6BDF28CF6BFF28EF76FF5C5BEF0F7C511
:101FE000BDF00A0E06010B6F00010AEC09F0F2CFFA
:101FF000F4F5F29CF29EAA6A270EA96EA69CA69EF4
:10200000A680A8500501F4BDF28CF4BFF28E000149
:10201000BC6BBB6F0A0E06010B6F00010AEC09F0E6
:10202000F2CFF4F5F29CF29EAA6A280EA96EA69C45
:10203000A69EA680A8500501F4BDF28CF4BFF28ED6
:1020400000018F6F0A0E06010B6F00010AEC09F008
:10205000F2CFF4F5F29CF29EAA6A290EA96EA69C14
:10206000A69EA680A8500501F4BDF28CF4BFF28EA6
:102070000001906F0A0E06010B6F00010AEC09F0D7
:10208000F2CFF4F5F29CF29EAA6A2B0EA96EA69CE2
:10209000A69EA680A8500501F4BDF28CF4BFF28E76
:1020A000F56FF2CFF6F5F29CF29EAA6A2A0EA96E9F
:1020B000A69CA69EA680A850F6BDF28CF6BFF28E16
:1020C000F76FF5C503F0F7510601446F03C045F6FD
:1020D0000001CAEC09F003C0F7F202C0F6F201C039
:1020E000F5F200C0F4F20A0E06010B6F00010AECD3
:1020F00009F0F2CFF4F5F29CF29EAA6A2D0EA96EB9
:10210000A69CA69EA680A8500501F4BDF28CF4BF43
:10211000F28EF56FF2CFF6F5F29CF29EAA6A2C0EC3
:10212000A96EA69CA69EA680A850F6BDF28CF6BF0E
:10213000F28EF76FF5C503F0F7510601446F03C047
:1021400045F60001CAEC09F003C060F302C05FF37A
:1021500001C05EF300C05DF30A0E06010B6F0001C3
:102160000AEC09F0F2CFF4F5F29CF29EAA6A2F0E67
:10217000A96EA69CA69EA680A8500501F4BDF28C6F
:10218000F4BFF28EF56FF2CFF6F5F29CF29EAA6ADA
:102190002E0EA96EA69CA69EA680A850F6BDF28C17
:1021A000F6BFF28EF76FF5C503F0F7510601446FE5
:1021B00003C045F60001CAEC09F003C0ADF502C04A
:1021C000ACF501C0ABF500C0AAF50A0E06010B6F15
:1021D00000010AEC09F0F2CFF4F5F29CF29EAA6A33
:1021E000310EA96EA69CA69EA680A8500501F4BD3E
:1021F000F28CF4BFF28EF56FF2CFF6F5F29CF29E00
:10220000AA6A300EA96EA69CA69EA680A850F6BD0E
:10221000F28CF6BFF28EF76FF5C503F0F7510601A9
:10222000446F03C045F60001CAEC09F003C069F52C
:1022300002C068F501C067F500C066F50A0E060128
:102240000B6F00010AEC09F0F2CFF4F5F29CF29E5C
:10225000AA6A320EA96EA69CA69EA680A850050169
:10226000F4BDF28CF4BFF28E0201FA6F0A0E060181
:102270000B6F00010AEC09F0F2CFF4F5F29CF29E2C
:10228000AA6A330EA96EA69CA69EA680A850050138
:10229000F4BDF28CF4BFF28E0301636F0A0E0601E7
:1022A0000B6F00010AEC09F0F2CFF4F5F29CF29EFC
:1022B000AA6A340EA96EA69CA69EA680A850050107
:1022C000F4BDF28CF4BFF28E00018A6F0A0E060193
:1022D0000B6F00010AEC09F0F2CFF4F5F29CF29ECC
:1022E000AA6A350EA96EA69CA69EA680A8500501D6
:1022F000F4BDF28CF4BFF28E0601456B446F000111
:10230000CAEC09F003C0FEF002C0FDF001C0FCF011
:1023100000C0FBF00A0E06010B6F00010AEC09F089
:10232000FEC043F6FDC042F6FCC041F6FBC040F6DD
:102330000601476B466B480E456F850E446F0001E2
:10234000E5EC09F003C0FEF002C0FDF001C0FCF0B6
:1023500000C0FBF00601456B8AC044F60001CAECE0
:1023600009F0D89203C047F602C046F601C045F610
:1023700000C044F6FEC04BF6FDC04AF6FCC049F66C
:10238000FBC048F694EC0AF003C03EF202C03DF2F6
:1023900001C03CF200C03BF2F2CFF4F5F29CF29E99
:1023A000AA6A360EA96EA69CA69EA680A850050114
:1023B000F4BDF28CF4BFF28E00018A6F0A0E0601A2
:1023C0000B6F00010AEC09F0F2CFF4F5F29CF29EDB
:1023D000AA6A370EA96EA69CA69EA680A8500501E3
:1023E000F4BDF28CF4BFF28E0601456B446F000120
:1023F000CAEC09F003C0FEF002C0FDF001C0FCF021
:1024000000C0FBF00A0E06010B6F00010AEC09F098
:10241000FEC043F6FDC042F6FCC041F6FBC040F6EC
:102420000601476B466B480E456F850E446F0001F1
:10243000E5EC09F003C0FEF002C0FDF001C0FCF0C5
:1024400000C0FBF00601456B8AC044F60001CAECEF
:1024500009F0D89203C047F602C046F601C045F61F
:1024600000C044F6FEC04BF6FDC04AF6FCC049F67B
:10247000FBC048F694EC0AF003C016F102C015F157
:1024800001C014F100C013F1F2CFF4F5F29CF29EFA
:10249000AA6A380EA96EA69CA69EA680A850050121
:1024A000F4BDF28CF4BFF28E00018A6F0A0E0601B1
:1024B0000B6F00010AEC09F0F2CFF4F5F29CF29EEA
:1024C000AA6A390EA96EA69CA69EA680A8500501F0
:1024D000F4BDF28CF4BFF28E0601456B446F00012F
:1024E000CAEC09F003C0FEF002C0FDF001C0FCF030
:1024F00000C0FBF00A0E06010B6F00010AEC09F0A8
:10250000FEC043F6FDC042F6FCC041F6FBC040F6FB
:102510000601476B466B480E456F850E446F000100
:10252000E5EC09F003C0FEF002C0FDF001C0FCF0D4
:1025300000C0FBF00601456B8AC044F60001CAECFE
:1025400009F0D89203C047F602C046F601C045F62E
:1025500000C044F6FEC04BF6FDC04AF6FCC049F68A
:10256000FBC048F694EC0AF003C01AF102C019F15E
:1025700001C018F100C017F1F2CFF4F5F29CF29E01
:10258000AA6A3A0EA96EA69CA69EA680A85005012E
:10259000F4BDF28CF4BFF28E0601456B446F00016E
:1025A000CAEC09F003C06EF202C06DF201C06CF219
:1025B00000C06BF20A0E06010B6F00010AEC09F075
:1025C000F2CFF4F5F29CF29EAA6A3B0EA96EA69C8D
:1025D000A69EA680A8500501F4BDF28CF4BFF28E31
:1025E0000601456B446F0001CAEC09F003C056F2C6
:1025F00002C055F201C054F200C053F20A0E0601A7
:102600000B6F00010AEC09F0C1EF3CF041C648F63F
:1026100006014551481B48AF05D0D894D89041BF1A
:10262000D8802FD041C648F644C649F64051495F8C
:1026300006E048AF26D0D850010AD86E22D045C651
:1026400049F64151495F06E048AF1BD0D850010A16
:10265000D86E17D046C649F64251495F06E048AFEA
:1026600010D0D850010AD86E0CD047C649F6435155
:10267000495F06E048AF05D0D850010AD86E01D0B6
:10268000D8900001000C06014051D8B471D0006E02
:102690004451D8B46DD0002604E3810E002668E2D0
:1026A00004D07F0E005E64E363E041C648F6455106
:1026B000481B418F458F43514703F4CF4AF642519F
:1026C0004603F4CF03F0F3CF49F64703F3504A270C
:1026D000F4504923000E032243514603F3504A2786
:1026E000F4504923000E026A03220222415147039B
:1026F000F3504927F4500322000E022241514603B1
:10270000F3500326F4500222000E016A01224351C5
:102710004503F3504927F4500322000E0222012200
:1027200042514503F3500326F4500222000E0122C9
:1027300041514503F3500226F4500122002A01BE04
:1027400005D049370336023601360006000E49AF80
:102750000AD0032A02220122015005E1025003E1BE
:10276000035001E1002A48BF018E48AF019E04D00A
:10277000006A016A026A036A0001000CCBBF03D041
:10278000CB51090803E3CBBF01D017D0CB6BAA6AAA
:10279000A96AA86AA69CA69EA684F250006EF29C26
:1027A000F29E0F01550EA76EAA0EA76EA682A6B2C4
:1027B000FED7A6940050F2120001CCBF03D0CC513A
:1027C000090803E3CCBF01D018D0CC6BAA6A010E74
:1027D000A96EA86AA69CA69EA684F250006EF29CE2
:1027E000F29E0F01550EA76EAA0EA76EA682A6B284
:1027F000FED7A6940050F2120001CDBF03D0CD51F8
:10280000090803E3CDBF01D018D0CD6BAA6A020E30
:10281000A96EA86AA69CA69EA684F250006EF29CA1
:10282000F29E0F01550EA76EAA0EA76EA682A6B243
:10283000FED7A6940050F2120001CEBF03D0CE51B5
:10284000090802E3CEAF18D0CE6BAA6A030EA96EB8
:10285000A86AA69CA69EA684F250006EF29CF29EE8
:102860000F01550EA76EAA0EA76EA682A6B2FED7BE
:10287000A6940050F2120001A95163081AE2010E59
:10288000A96FAA6A040EA96E010EA86EA69CA69E48
:10289000A684F250006EF29CF29E0F01550EA76EB8
:1028A000AA0EA76EA682A6B2FED7A6940050F21278
:1028B0000001A7513B0818E2A76BAA6A050EA96E92
:1028C000A86AA69CA69EA684F250006EF29CF29E78
:1028D0000F01550EA76EAA0EA76EA682A6B2FED74E
:1028E000A6940050F2120001AD5163081AE2010EE5
:1028F000AD6FAA6A060EA96E010EA86EA69CA69ED2
:10290000A684F250006EF29CF29E0F01550EA76E47
:10291000AA0EA76EA682A6B2FED7A6940050F21207
:102920000001AB513B0818E2AB6BAA6A070EA96E17
:10293000A86AA69CA69EA684F250006EF29CF29E07
:102940000F01550EA76EAA0EA76EA682A6B2FED7DD
:10295000A6940050F2120001B15163081AE2010E70
:10296000B16FAA6A080EA96E010EA86EA69CA69E5B
:10297000A684F250006EF29CF29E0F01550EA76ED7
:10298000AA0EA76EA682A6B2FED7A6940050F21297
:102990000001B0513B0818E2B06BAA6A090EA96E9B
:1029A000A86AA69CA69EA684F250006EF29CF29E97
:1029B0000F01550EA76EAA0EA76EA682A6B2FED76D
:1029C000A6940050F2120001C3BF03D0C3510908FE
:1029D00003E3C3BF01D018D0C36BAA6A0C0EA96E63
:1029E000A86AA69CA69EA684F250006EF29CF29E57
:1029F0000F01550EA76EAA0EA76EA682A6B2FED72D
:102A0000A6940050F2120001C4BF03D0C4510908BB
:102A100003E3C4BF01D018D0C46BAA6A0D0EA96E1F
:102A2000A86AA69CA69EA684F250006EF29CF29E16
:102A30000F01550EA76EAA0EA76EA682A6B2FED7EC
:102A4000A6940050F2120001C5BF03D0C551090879
:102A500003E3C5BF01D018D0C56BAA6A0E0EA96EDC
:102A6000A86AA69CA69EA684F250006EF29CF29ED6
:102A70000F01550EA76EAA0EA76EA682A6B2FED7AC
:102A8000A6940050F2120001C6BF03D0C651090837
:102A900003E3C6BF01D018D0C66BAA6A0F0EA96E99
:102AA000A86AA69CA69EA684F250006EF29CF29E96
:102AB0000F01550EA76EAA0EA76EA682A6B2FED76C
:102AC000A6940050F2120001C7BF03D0C7510908F5
:102AD00003E3C7BF01D018D0C76BAA6A100EA96E56
:102AE000A86AA69CA69EA684F250006EF29CF29E56
:102AF0000F01550EA76EAA0EA76EA682A6B2FED72C
:102B0000A6940050F2120001C8BF03D0C8510908B2
:102B100003E3C8BF01D018D0C86BAA6A110EA96E12
:102B2000A86AA69CA69EA684F250006EF29CF29E15
:102B30000F01550EA76EAA0EA76EA682A6B2FED7EB
:102B4000A6940050F2120001C9BF03D0C951090870
:102B500003E3C9BF01D018D0C96BAA6A120EA96ECF
:102B6000A86AA69CA69EA684F250006EF29CF29ED5
:102B70000F01550EA76EAA0EA76EA682A6B2FED7AB
:102B8000A6940050F2120001CABF03D0CA5109082E
:102B900003E3CABF01D017D0CA6BAA6A130EA96E8D
:102BA000A86AA69CA69EA684F250006EF29CF29E95
:102BB0000F01550EA76EAA0EA76EA682A6B2FED76B
:102BC000A6940050F2120601436B426B200E416F37
:102BD000820E406F08C347F607C346F606C345F6A4
:102BE00005C344F6000112DD10E208C343F607C333
:102BF00042F606C341F605C340F60601476B466B35
:102C0000456B446B000102DD34E10301086B076B87
:102C1000400E066F7F0E056FAA6A190EA96E010E8F
:102C2000A86EA69CA69EA684F250006EF29CF29E10
:102C30000F01550EA76EAA0EA76EA682A6B2FED7EA
:102C4000A6940050F212AA6A1A0EA96E320EA86E4D
:102C5000A69CA69EA684F250006EF29CF29E550E93
:102C6000A76EAA0EA76EA682A6B2FED7A6940050A3
:102C7000F2120601436B426B200E416F820E406FD1
:102C800071C347F670C346F66FC345F66EC344F68C
:102C90000001BCDC10E271C343F670C342F66FC39F
:102CA00041F66EC340F60601476B466B456B446BBD
:102CB0000001ACDC34E10301716B706B400E6F6F8F
:102CC0007F0E6E6FAA6A1B0EA96E010EA86EA69CDF
:102CD000A69EA684F250006EF29CF29E0F01550E45
:102CE000A76EAA0EA76EA682A6B2FED7A694005023
:102CF000F212AA6A1C0EA96E320EA86EA69CA69E9F
:102D0000A684F250006EF29CF29E550EA76EAA0E9B
:102D1000A76EA682A6B2FED7A6940050F2120601B4
:102D2000436B426B416B800E406FBBC547F6BAC523
:102D300046F6B9C545F6B8C544F6000167DC10E2B1
:102D4000BBC543F6BAC542F6B9C541F6B8C540F6AB
:102D50000601476B466B456B446B000157DC32E163
:102D60000501BB6BBA6BB96B7F0EB86FAA6A1D0EFB
:102D7000A96E010EA86EA69CA69EA684F250006EB7
:102D8000F29CF29E0F01550EA76EAA0EA76EA682A8
:102D9000A6B2FED7A6940050F212AA6A1E0EA96E21
:102DA000A86AA69CA69EA684F250006EF29CF29E93
:102DB000550EA76EAA0EA76EA682A6B2FED7A6943F
:102DC0000050F2120601436B426B400E416F800EC1
:102DD000406F77C547F676C546F675C545F674C5A6
:102DE00044F6000113DC10E277C543F676C542F6DF
:102DF00075C541F674C540F60601476B466B456BD9
:102E0000446B000103DC32E10501776B766B756B77
:102E10007F0E746FAA6A1F0EA96E010EA86EA69C83
:102E2000A69EA684F250006EF29CF29E0F01550EF3
:102E3000A76EAA0EA76EA682A6B2FED7A6940050D1
:102E4000F212AA6A200EA96EA86AA69CA69EA68463
:102E5000F250006EF29CF29E550EA76EAA0EA76E5F
:102E6000A682A6B2FED7A6940050F2120601436BCA
:102E7000426B0C0E416F870E406FF3C247F6F2C2F1
:102E800046F6F1C245F6F0C244F6000106EC13F036
:102E900013E2F3C243F6F2C242F6F1C241F6F0C2C7
:102EA00040F60601476B466B340E456F860E446F45
:102EB000000106EC13F033E30201F36BF26B4B0EEF
:102EC000F16F860EF06FAA6A210EA96ECB0EA86E66
:102ED000A69CA69EA684F250006EF29CF29E0F0164
:102EE000550EA76EAA0EA76EA682A6B2FED7A6940E
:102EF0000050F212AA6A220EA96EA86AA69CA69E8B
:102F0000A684F250006EF29CF29E550EA76EAA0E99
:102F1000A76EA682A6B2FED7A6940050F2120601B2
:102F2000436B426B0C0E416F870E406F5CC347F6DC
:102F30005BC346F65AC345F659C344F6000106EC96
:102F400013F013E25CC343F65BC342F65AC341F687
:102F500059C340F60601476B466B340E456F860E2B
:102F6000446F000106EC13F034E303015C6B5B6B10
:102F70004B0E5A6F860E596FAA6A230EA96ECB0E9E
:102F8000A86EA69CA69EA684F250006EF29CF29EAD
:102F90000F01550EA76EAA0EA76EA682A6B2FED787
:102FA000A6940050F212AA6A240EA96EA86AA69CE2
:102FB000A69EA684F250006EF29CF29E550EA76E5D
:102FC000AA0EA76EA682A6B2FED7A6940050F21251
:102FD0000001BE510D0833E2FF0A03E1BD511008A4
:102FE0002EE2BE6BBD6BAA6A250EA96EA86AA69CCE
:102FF000A69EA684F250006EF29CF29E0F01550E22
:10300000A76EAA0EA76EA682A6B2FED7A6940050FF
:10301000F212AA6A260EA96EA86AA69CA69EA6848B
:10302000F250006EF29CF29E550EA76EAA0EA76E8D
:10303000A682A6B2FED7A6940050F2120001BC539D
:1030400003E1BB513C0819E2BC6BBB6BAA6A270EBB
:10305000A96EA86AA69CA69EA684F250006EF29C59
:10306000F29E0F01550EA76EAA0EA76EA682A6B2FB
:10307000FED7A6940050F21200018F510D081AE2FB
:10308000020E8F6FAA6A280EA96E020EA86EA69C69
:10309000A69EA684F250006EF29CF29E0F01550E81
:1030A000A76EAA0EA76EA682A6B2FED7A69400505F
:1030B000F212000190510D0819E2020E906FAA6AF7
:1030C000290EA96E020EA86EA69CA69EA684F2509A
:1030D000006EF29CF29E0F01550EA76EAA0EA76E0F
:1030E000A682A6B2FED7A6940050F2120601436B48
:1030F000426B480E416F840E406FF7C247F6F6C22E
:1031000046F6F5C245F6F4C244F6000106EC13F0AB
:1031100030E30201F76BF66BF56BF46BAA6A2A0ECB
:10312000A96EA86AA69CA69EA684F250006EF29C88
:10313000F29E0F01550EA76EAA0EA76EA682A6B22A
:10314000FED7A6940050F212AA6A2B0EA96EA86AA6
:10315000A69CA69EA684F250006EF29CF29E550E8E
:10316000A76EAA0EA76EA682A6B2FED7A69400509E
:10317000F2120601436B426B480E416F840E406FA2
:1031800060C347F65FC346F65EC345F65DC344F6CB
:10319000000106EC13F030E30301606B5F6B5E6BC4
:1031A0005D6BAA6A2C0EA96EA86AA69CA69EA68430
:1031B000F250006EF29CF29E0F01550EA76EAA0E01
:1031C000A76EA682A6B2FED7A6940050F212AA6AF3
:1031D0002D0EA96EA86AA69CA69EA684F250006E2B
:1031E000F29CF29E550EA76EAA0EA76EA682A6B2FC
:1031F000FED7A6940050F2120601436B426B7A0E82
:10320000416F860E406FADC547F6ACC546F6ABC5FF
:1032100045F6AAC544F6000106EC13F013E2ADC56D
:1032200043F6ACC542F6ABC541F6AAC540F6060169
:10323000476B466B480E456F860E446F000106ECE7
:1032400013F033E30501AD6BAC6B5C0EAB6F860E18
:10325000AA6FAA6A2E0EA96EDC0EA86EA69CA69E68
:10326000A684F250006EF29CF29E0F01550EA76EDE
:10327000AA0EA76EA682A6B2FED7A6940050F2129E
:10328000AA6A2F0EA96EA86AA69CA69EA684F250D2
:10329000006EF29CF29E550EA76EAA0EA76EA68235
:1032A000A6B2FED7A6940050F2120601436B426B01
:1032B0007A0E416F860E406F69C547F668C546F6BF
:1032C00067C545F666C544F6000106EC13F013E247
:1032D00069C543F668C542F667C541F666C540F65E
:1032E0000601476B466B480E456F860E446F000122
:1032F00006EC13F033E30501696B686B5C0E676FD6
:10330000860E666FAA6A300EA96EDC0EA86EA69CA9
:10331000A69EA684F250006EF29CF29E0F01550EFE
:10332000A76EAA0EA76EA682A6B2FED7A6940050DC
:10333000F212AA6A310EA96EA86AA69CA69EA6845D
:10334000F250006EF29CF29E550EA76EAA0EA76E6A
:10335000A682A6B2FED7A6940050F2120201FA513C
:10336000140819E20A0EFA6FAA6A320EA96E0A0E42
:10337000A86EA69CA69EA684F250006EF29CF29EB9
:103380000F01550EA76EAA0EA76EA682A6B2FED793
:10339000A6940050F21203016351140819E20A0EB8
:1033A000636FAA6A330EA96E0A0EA86EA69CA69E2B
:1033B000A684F250006EF29CF29E0F01550EA76E8D
:1033C000AA0EA76EA682A6B2FED7A6940050F2124D
:1033D0000601436B426B416B810E406F3EC247F664
:1033E0003DC246F63CC245F63BC244F6000106EC3F
:1033F00013F035E3CD0E02013E6FCC0E3D6F4C0E47
:103400003C6F7D0E3B6FAA6A340EA96EA86AA69C1B
:10341000A69EA684F250006EF29CF29E0F01550EFD
:10342000A76EAA0EA76EA682A6B2FED7A6940050DB
:10343000F212AA6A350EA96E280EA86EA69CA69E48
:10344000A684F250006EF29CF29E550EA76EAA0E54
:10345000A76EA682A6B2FED7A6940050F2129A0ECC
:103460000601436F990E426F190E416F7E0E406F39
:1034700016C147F615C146F614C145F613C144F608
:10348000000106EC13F035E39A0E0101166F990E58
:10349000156F190E146F7D0E136FAA6A360EA96E82
:1034A000A86AA69CA69EA684F250006EF29CF29E8C
:1034B0000F01550EA76EAA0EA76EA682A6B2FED762
:1034C000A6940050F212AA6A370EA96E010EA86ED9
:1034D000A69CA69EA684F250006EF29CF29E550E0B
:1034E000A76EAA0EA76EA682A6B2FED7A69400501B
:1034F000F212660E0601436F426F416F7F0E406FFE
:103500001AC147F619C146F618C145F617C144F667
:10351000000106EC13F035E3CD0E0101166FCC0E61
:10352000156F4C0E146F7E0E136FAA6A380EA96EBB
:10353000A86AA69CA69EA684F250006EF29CF29EFB
:103540000F01550EA76EAA0EA76EA682A6B2FED7D1
:10355000A6940050F212AA6A390EA96E080EA86E3F
:10356000A69CA69EA684F250006EF29CF29E550E7A
:10357000A76EAA0EA76EA682A6B2FED7A69400508A
:10358000F2120601436B426B5C0E416F850E406F79
:103590006EC247F66DC246F66CC245F66BC244F683
:1035A000000106EC13F013E26EC243F66DC242F660
:1035B0006CC241F66BC240F60601476B466B700E5B
:1035C000456F840E446F000106EC13F01EE3020108
:1035D0006E6B6D6B0E0E6C6F850E6B6FAA6A3A0E7A
:1035E000A96E470EA86EA69CA69EA684F250006EF9
:1035F000F29CF29E0F01550EA76EAA0EA76EA68230
:10360000A6B2FED7A6940050F2120601436B426B9D
:10361000480E416F850E406F56C247F655C246F6BA
:1036200054C245F653C244F6000106EC13F013E20F
:1036300056C243F655C242F654C241F653C240F652
:103640000601476B466B200E456F830E446F0001E9
:1036500006EC13F01EE30201566B556B700E546FAF
:10366000840E536FAA6A3B0EA96E3C0EA86EA69CF0
:10367000A69EA684F250006EF29CF29E0F01550E9B
:10368000A76EAA0EA76EA682A6B2FED7A694005079
:10369000F2126EC243F66DC242F66CC241F66BC2C4
:1036A00040F60601476B466B7A0E456F880E446FF5
:1036B000000143EC13F003C04AF202C049F201C01A
:1036C00048F200C047F2C3EF3CF098510508D8A477
:1036D000BBD03CC031F03DC032F03EC033F03FC003
:1036E00034F040C035F041C036F042C037F043C03E
:1036F00038F044C039F045C03AF0342C07D0816B23
:103700008151995D02E081C099F09DD0345002084A
:1037100008E1010E816F8151995D02E081C099F04D
:1037200092D03450030808E1020E816F8151995DF7
:1037300002E081C099F087D03450040808E1030EFC
:10374000816F8151995D02E081C099F07CD0345045
:10375000050808E1040E816F8151995D02E081C086
:1037600099F071D03450060808E1050E816F81513F
:10377000995D02E081C099F066D03450070808E1F5
:10378000060E816F8151995D02E081C099F05BD096
:103790003450080808E1070E816F8151995D02E0FD
:1037A00081C099F050D03450090808E1080E816FAB
:1037B0008151995D02E081C099F045D034500A08EA
:1037C00008E1090E816F8151995D02E081C099F095
:1037D0003AD034500F0801E136D034501A0808E1CD
:1037E0000A0E816F8151995D02E081C099F02BD062
:1037F00034501B0808E10F0E816F8151995D02E082
:1038000081C099F020D034501C0808E1100E816F5F
:103810008151995D02E081C099F015D034502C0897
:1038200008E1640E816F8151995D02E081C099F0D9
:103830000AD03450CC0807E1F00E816F9951F0089E
:1038400002E081C099F006D0A06BA051090802E304
:10385000A02BFBD7DEEF3CF0F9C5FAF50501FA39EC
:10386000006E0F0E001600500A0DF3CFF9F5FA396D
:10387000006EF00E00160050003A0F0E00160050B9
:10388000F927F9C501F00001000C06010E511003E3
:10389000F3CF01F0F4CF00F01103F35000260F51E5
:1038A0001003F3500020026E0001000C06010835E1
:1038B000006E0036FC0E001600C001F0C250C30BB3
:1038C0000010C26E010E0B6F00010AEC09F0C282FB
:1038D000C2B2FED7C4CF0AF60601C3CF09F609C6A5
:1038E00001F00AC602F00001000C8E0E006E060107
:1038F0004051005E41C602F042C601F0028E005205
:1039000009E0D890025202E1015204E00232013291
:10391000002EF7D741AF05D0011E021E012AD8B4F0
:10392000022A0001000C06013F9133C638F632C668
:1039300037F631C636F630C635F633C643F632C6EC
:1039400042F631C641F630C640F6476B466B456BD2
:10395000446B000106EC13F005E306013F8136518C
:10396000800A366F38C643F637C642F636C641F689
:1039700035C640F60601476B466B456B8E0E446FAD
:10398000000106EC13F001E218E138C643F637C631
:1039900042F636C641F635C640F6A7DF02C045F608
:1039A00001C044F6CAEC09F003C03CF602C03BF685
:1039B00001C03AF600C039F6D1D038C643F637C652
:1039C00042F636C641F635C640F6800E0601476F10
:1039D000960E466F180E456F960E446F000106EC6A
:1039E00013F0D8A0B3D038C643F637C642F636C671
:1039F00041F635C640F60601476B466B456B8E0EA9
:103A0000446F0001E5EC09F003C043F602C042F642
:103A100001C041F600C040F668DF02C03EF601C0BA
:103A20003DF638C643F637C642F636C641F635C6C9
:103A300040F60601476B466B456B8E0E446F0001E6
:103A4000E5EC09F000C040F601C041F602C042F6C4
:103A500003C043F63EC645F63DC644F6CAEC09F03F
:103A6000D88243C647F642C646F641C645F640C62A
:103A700044F603C04BF602C04AF601C049F600C046
:103A800048F694EC0AF00601436B426B416B8E0ED4
:103A9000406F03C047F602C046F601C045F600C0BD
:103AA00044F6000143EC13F003C038F602C037F6C9
:103AB00001C036F600C035F63EC645F63DC644F6B2
:103AC000CAEC09F00601436B426B416B8E0E406FEE
:103AD00003C047F602C046F601C045F600C044F6F2
:103AE000000143EC13F003C03CF602C03BF601C0FA
:103AF0003AF600C039F638C643F637C642F636C63F
:103B000041F635C640F6F1DE02C045F601C044F686
:103B1000CAEC09F0D8923CC647F63BC646F63AC610
:103B200045F639C644F603C04BF602C04AF601C05A
:103B300049F600C048F694EC0AF003C03CF602C017
:103B40003BF601C03AF600C039F608D038C63CF65C
:103B500037C63BF636C63AF635C639F638C643F6AA
:103B600037C642F636C641F635C640F6BEDE02C05E
:103B700045F601C044F6CAEC09F0D88238C647F6CB
:103B800037C646F636C645F635C644F603C04BF68C
:103B900002C04AF601C049F600C048F694EC0AF0AB
:103BA00003C038F602C037F601C036F600C035F65D
:103BB00006013FA103D03A51800A3A6F38C643F656
:103BC00037C642F636C641F635C640F6476B466BF9
:103BD000456B446B000106EC13F03CE006013FA18D
:103BE0001CD034531AE1D8823CC647F63BC646F691
:103BF0003AC645F639C644F64B6B4A6B496B7F0EA5
:103C0000486F000194EC0AF003C03CF602C03BF69A
:103C100001C03AF600C039F606013FB11CD0342D80
:103C20001AD0D8923CC647F63BC646F63AC645F689
:103C300039C644F64B6B4A6B496B7F0E486F0001E7
:103C400094EC0AF003C03CF602C03BF601C03AF621
:103C500000C039F6060133C643F632C642F631C615
:103C600041F630C640F6476B466B456B446B00012E
:103C700006EC13F006E106013C6B3B6B3A6B396BCB
:103C8000000139C600F03AC601F03BC602F03CC65E
:103C900003F0000C2FC633F62EC632F62DC631F6D1
:103CA0002CC630F6010E0601346F00013CDEC7EF72
:103CB0001EF02FC633F62EC632F62DC631F62CC6B0
:103CC00030F60601346B00012EDEEBEF1EF023C64A
:103CD00043F622C642F621C641F620C640F606014A
:103CE000476B466B456B446B000106EC13F0D8B490
:103CF000A1D01FC643F61EC642F61DC641F61CC61D
:103D000040F623C647F622C646F621C645F620C62B
:103D100044F6E5EC09F000C028F601C029F602C01F
:103D20002AF603C02BF603C043F602C042F601C0D8
:103D300041F600C040F60601476B466B456B446B8D
:103D4000000106EC13F024E31FC643F61EC642F63C
:103D50001DC641F61CC640F623C647F622C646F6E7
:103D600021C645F620C644F6E5EC09F000C028F669
:103D700001C029F602C02AF603C02BF603C02FF6B5
:103D800002C02EF601C02DF600C02CF683D723D03A
:103D90001FC643F61EC642F61DC641F61CC640F6B7
:103DA00023C647F622C646F621C645F620C644F687
:103DB000E5EC09F000C028F601C029F602C02AF699
:103DC00003C02BF603C02FF602C02EF601C02DF65D
:103DD00000C02CF66ED703C027F602C026F601C03D
:103DE00025F600C024F627C643F626C642F625C6A9
:103DF00041F624C640F623C647F622C646F621C63B
:103E000045F620C644F643EC13F0D8821FC647F6A9
:103E10001EC646F61DC645F61CC644F603C04BF644
:103E200002C04AF601C049F600C048F694EC0AF018
:103E300001D000D0000C8E0E006E37C601F036C6E1
:103E400002F0036A01AE05D0011E021E022A01E142
:103E5000012A015209E102C001F0026A080E005E67
:103E6000015202E1006A0DD0D89001BE04D00236A2
:103E700001360006F9D7060137AF02D0000101D0A4
:103E8000019E0001000C23C627F622C626F621C695
:103E900025F620C624F627C643F626C642F625C6D2
:103EA00041F624C640F60601476B466B456B7F0E14
:103EB000446F000106EC13F0D8B446D2060E06019A
:103EC000366F240EE96E36C6EAFF7E0EEF6ED8829C
:103ED00027C647F626C646F625C645F624C644F646
:103EE0004B6B4A6B496B7F0E486F000194EC0AF0F4
:103EF00000C035F601C036F602C037F603C038F60A
:103F0000D89227C647F626C646F625C645F624C6E5
:103F100044F606014B6B4A6B496B7F0E486F0001FC
:103F200094EC0AF038C643F637C642F636C641F678
:103F300035C640F603C047F602C046F601C045F656
:103F400000C044F6E5EC09F003C027F602C026F6EF
:103F500001C025F600C024F627C643F626C642F661
:103F600025C641F624C640F627C647F626C646F6BD
:103F700025C645F624C644F643EC13F003C033F6D9
:103F800002C032F601C031F600C030F6BC0E0601A8
:103F9000436F240E426F670E416F7D0E406F33C634
:103FA00047F632C646F631C645F630C644F600013D
:103FB00043EC13F000C035F601C036F602C037F608
:103FC00003C038F6D89203C047F602C046F601C0D7
:103FD00045F600C044F6E30E06014B6FE40E4A6F4F
:103FE000900E496F820E486F000194EC0AF003C0F6
:103FF0002BF602C02AF601C029F600C028F62BC60F
:1040000043F62AC642F629C641F628C640F633C60C
:1040100047F632C646F631C645F630C644F643EC9E
:1040200013F000C035F601C036F602C037F603C003
:1040300038F6D89203C047F602C046F601C045F6EE
:1040400000C044F61C0E06014B6F870E4A6F570ED8
:10405000496F830E486F000194EC0AF003C02BF601
:1040600002C02AF601C029F600C028F62BC643F686
:104070002AC642F629C641F628C640F633C647F698
:1040800032C646F631C645F630C644F643EC13F068
:1040900000C035F601C036F602C037F603C038F668
:1040A000D89203C047F602C046F601C045F600C0EC
:1040B00044F6AB0E06014B6FE10E4A6F9E0E496F40
:1040C000830E486F000194EC0AF003C02BF602C087
:1040D0002AF601C029F600C028F60601436B426BA0
:1040E000416B7F0E406F33C647F632C646F631C687
:1040F00045F630C644F6000143EC13F000C035F637
:1041000001C036F602C037F603C038F6D89203C0B5
:1041100047F602C046F601C045F600C044F6B40EAC
:1041200006014B6F2A0E4A6F820E496F486F0001DD
:1041300094EC0AF003C02FF602C02EF601C02DF653
:1041400000C02CF62FC643F62EC642F62DC641F609
:104150002CC640F633C647F632C646F631C645F69B
:1041600030C644F643EC13F000C035F601C036F615
:1041700002C037F603C038F6D89203C047F602C033
:1041800046F601C045F600C044F6800E06014B6FAE
:104190003E0E4A6F060E496F830E486F000194EC85
:1041A0000AF003C02FF602C02EF601C02DF600C0A3
:1041B0002CF62FC643F62EC642F62DC641F62CC667
:1041C00040F633C647F632C646F631C645F630C627
:1041D00044F643EC13F000C035F601C036F602C0D9
:1041E00037F603C038F6D89203C047F602C046F649
:1041F00001C045F600C044F6AB0E06014B6FE10E60
:104200004A6F9E0E496F820E486F000194EC0AF0CF
:1042100003C02FF602C02EF601C02DF600C02CF60A
:1042200027C643F626C642F625C641F624C640F602
:104230002BC647F62AC646F629C645F628C644F6D2
:1042400043EC13F000C035F601C036F602C037F675
:1042500003C038F603C043F602C042F601C041F67F
:1042600000C040F62FC647F62EC646F62DC645F6C8
:104270002CC644F6E5EC09F003C02BF602C02AF682
:1042800001C029F600C028F6060E0601366F200E82
:10429000E96E36C6EAFF7E0EEF5C346F34BF01D0A4
:1042A00014D0000ED8803455376B366F36BF3707C1
:1042B0000001C1DD00C02CF60150800A06012D6FFF
:1042C00002C02EF603C02FF610D0376B34C636F678
:1042D00036BF37070001AFDD03C02FF602C02EF650
:1042E00001C02DF600C02CF606012FC643F62EC6DF
:1042F00042F62DC641F62CC640F6180E476F720ED8
:10430000466F310E456F7E0E446F000143EC13F093
:10431000D8922BC647F62AC646F629C645F628C6C1
:1043200044F603C04BF602C04AF601C049F600C08D
:1043300048F694EC0AF003C02BF602C02AF601C03E
:1043400029F600C028F606D006012B6B2A6B296BD4
:10435000286B000128C600F029C601F02AC602F029
:104360002BC603F0000C23C643F622C642F621C634
:1043700041F620C640F6180E0601476F720E466FD2
:10438000310E456F7E0E446F0001E5EC09F003C06D
:1043900043F602C042F601C041F600C040F675EC9B
:1043A0001CF001C030F60601319123C627F622C663
:1043B00026F621C625F620C624F623C643F622C6D5
:1043C00042F621C641F620C640F6476B466B456B68
:1043D000446B000106EC13F006E306013181306DF9
:1043E0002551800A256F06012B6B2A6B296B286BE0
:1043F000060E336F280EE96E33C6EAFF7F0E3025B6
:10440000EF6E27C643F626C642F625C641F624C6F9
:1044100040F6180E476F720E466F310E456F7E0ED6
:10442000446F0001E5EC09F000C032F601C033F63C
:1044300002C034F603C035F60601376B30C636F6D7
:1044400036BF37070001F7DCD88235C647F634C6D9
:1044500046F633C645F632C644F603C04BF602C0F4
:104460004AF601C049F600C048F694EC0AF003C0D1
:1044700027F602C026F601C025F600C024F67C0E01
:104480000601436F880E426F590E416F720E406FE6
:1044900027C647F626C646F625C645F624C644F680
:1044A000000143EC13F000C032F601C033F602C045
:1044B00034F603C035F6D89203C047F602C046F67C
:1044C00001C045F600C044F6E00E06014B6F970EA2
:1044D0004A6F260E496F750E486F000194EC0AF082
:1044E00003C02FF602C02EF601C02DF600C02CF638
:1044F0002FC643F62EC642F62DC641F62CC640F610
:1045000027C647F626C646F625C645F624C644F60F
:1045100043EC13F000C032F601C033F602C034F6AB
:1045200003C035F6D89203C047F602C046F601C074
:1045300045F600C044F6C40E06014B6F1D0E4A6FCF
:104540001E0E496F780E486F000194EC0AF003C00C
:104550002FF602C02EF601C02DF600C02CF62FC695
:1045600043F62EC642F62DC641F62CC640F627C6A7
:1045700047F626C646F625C645F624C644F643EC5D
:1045800013F000C032F601C033F602C034F603C0A7
:1045900035F6D89203C047F602C046F601C045F68C
:1045A00000C044F65E0E06014B6F500E4A6F630E5C
:1045B000496F7A0E486F000194EC0AF003C02FF6A1
:1045C00002C02EF601C02DF600C02CF62FC643F611
:1045D0002EC642F62DC641F62CC640F627C647F633
:1045E00026C646F625C645F624C644F643EC13F027
:1045F00000C032F601C033F602C034F603C035F60F
:10460000D89203C047F602C046F601C045F600C086
:1046100044F61A0E06014B6FFE0E4A6F750E496F77
:104620007C0E486F000194EC0AF003C02FF602C024
:104630002EF601C02DF600C02CF62FC643F62EC66E
:1046400042F62DC641F62CC640F627C647F626C6CA
:1046500046F625C645F624C644F643EC13F000C0E2
:1046600032F601C033F602C034F603C035F6D892F4
:1046700003C047F602C046F601C045F600C044F646
:10468000180E06014B6F720E4A6F310E496F7E0E87
:10469000486F000194EC0AF003C02FF602C02EF61A
:1046A00001C02DF600C02CF627C643F626C642F6FA
:1046B00025C641F624C640F62FC647F62EC646F656
:1046C0002DC645F62CC644F643EC13F0D8920601ED
:1046D000476B466B456B7F0E446F03C04BF602C0C1
:1046E0004AF601C049F600C048F6000194EC0AF011
:1046F0002BC643F62AC642F629C641F628C640F61E
:1047000003C047F602C046F601C045F600C044F6B5
:1047100043EC13F003C02BF602C02AF601C029F6C1
:1047200000C028F6060131A119D0436B426B416BE2
:104730007F0E406F2BC647F62AC646F629C645F6B9
:1047400028C644F60001E5EC09F003C02BF602C0D0
:104750002AF601C029F600C028F6060128C600F096
:1047600029C601F02AC602F02BC603F00001000C96
:1047700017C643F616C642F615C641F614C640F6ED
:104780000601476B466B456B446B000106EC13F06A
:10479000D8A0D9D01BC61FF61AC61EF619C61DF61C
:1047A00018C61CF60601236B226B216B7F0E206F4F
:1047B000000167EC1EF000C01CF601C01DF602C02F
:1047C0001EF603C01FF603C043F602C042F601C046
:1047D00041F600C040F60601476B466B456B446BE3
:1047E000000106EC13F0D8A4AED01BC61FF61AC603
:1047F0001EF619C61DF618C61CF60601236B226BA1
:10480000216B800E206F000167EC1EF000C01CF6CB
:1048100001C01DF602C01EF603C01FF603C043F61A
:1048200002C042F601C041F600C040F60601476BE7
:10483000466B456B446B000106EC13F041E114C676
:104840001CF606011551800A1D6F16C61EF617C606
:104850001FF617C623F616C622F6216F14C620F6D9
:10486000000143EC1FF000C01CF601C01DF602C0A1
:104870001EF603C01FF603C043F602C042F601C095
:1048800041F600C040F61BC647F61AC646F619C6E2
:1048900045F618C644F643EC13F000C01CF601C000
:1048A0001DF602C01EF603C01FF603C023F602C0A9
:1048B00022F601C021F600C020F655DDDED042D040
:1048C00014C61CF606011551800A1D6F16C61EF689
:1048D00017C61FF617C623F616C622F6216F14C692
:1048E00020F6000143EC1FF000C01CF601C01DF6CD
:1048F00002C01EF603C01FF603C043F602C042F614
:1049000001C041F600C040F61BC647F61AC646F67F
:1049100019C645F618C644F643EC13F000C01CF661
:1049200001C01DF602C01EF603C01FF603C023F629
:1049300002C022F601C021F600C020F614DD800E70
:10494000011A9BD09AD017C643F616C642F615C672
:1049500041F614C640F60601476B466B456B446B47
:10496000000106EC13F030E31BC61FF61AC61EF654
:1049700019C61DF618C61CF60601236B226B216BA7
:104980007F0E206F000167EC1EF000C01CF601C016
:104990001DF602C01EF603C01FF603C043F602C098
:1049A00042F601C041F600C040F60601476B466B77
:1049B000456B446B000106EC13F006E0006A016AE7
:1049C000026A036A5AD059D017C643F616C642F691
:1049D00015C641F614C640F60601476B466B456B9B
:1049E000446B000106EC13F012E11BC643F61AC635
:1049F00042F619C641F618C640F60601476B466BEB
:104A0000456B446B000106EC13F001E236E117C67A
:104A100023F616C622F615C621F614C620F643EC78
:104A20001FF000C01CF601C01DF602C01EF603C038
:104A30001FF603C043F602C042F601C041F600C0B3
:104A400040F61BC647F61AC646F619C645F618C6FE
:104A500044F643EC13F000C01CF601C01DF602C082
:104A60001EF603C01FF603C023F602C022F601C0E3
:104A700021F600C020F677DC00D0000C0501F96BB0
:104A8000F86BF76BF66B06010F6BF5C50EF6116B45
:104A9000690E106F000145EC1CF001C000F6080E15
:104AA00006010124016E000E0220036E0150870FE3
:104AB000016E020E032201C000F603C001F6F5C527
:104AC00008F6000156EC1CF001C6EAFF00C6E9FF3B
:104AD00002C0ECFFED5201C0EFFF06010F6BF5C500
:104AE0000EF6116B690E106F000145EC1CF002C050
:104AF00001F601C000F6870E06010124E96E020EE0
:104B00000220EA6EEFCF00F0ECCF01F0ECCF02F024
:104B1000ECCF03F0EACF01F6E9CF00F6D88236C237
:104B200047F635C246F634C245F633C244F603C0F2
:104B30004BF602C04AF601C049F600C048F6000133
:104B400094EC0AF001C6EAFF00C6E9FF03C0F9F5DC
:104B500002C0F8F501C0F7F500C0F6F506010F6BCD
:104B6000F5C50EF6116B690E106F000145EC1CF0D7
:104B700001C000F6080E06010124016E000E02209D
:104B8000036E0150870FE96E020E0320EA6EECCF30
:104B900001F6ED52EFCF00F601C645F600C644F629
:104BA0000001CAEC09F0EACF03F6E9CF02F6D89289
:104BB00003C047F602C046F601C045F600C044F601
:104BC000F9C54BF6F8C54AF6F7C549F6F6C548F6F5
:104BD00094EC0AF003C6EAFF02C6E9FF03C0F2F054
:104BE00002C0F1F001C0F0F000C0EFF0F2C043F6F7
:104BF000F1C042F6F0C041F6EFC040F60601476B47
:104C0000C00E466F7F0E456F880E446F0001E5ECC5
:104C100009F000C000F601C001F602C002F603C0B0
:104C200003F603C043F602C042F601C041F600C0DD
:104C300040F60601476B466B200E456F810E446FB0
:104C4000000143EC13F003C0F2F002C0F1F001C028
:104C5000F0F000C0EFF006010F6BF5C50EF6116B1A
:104C6000690E106F000145EC1CF001C000F60B0E40
:104C700006010124016E000E0220036E0150870F11
:104C8000016E020E032201C000F603C001F6F2C05D
:104C900017F6F1C016F6F0C015F6EFC014F61B6B50
:104CA0001A6B196B810E186F000162DD00C002F6ED
:104CB00001C003F602C004F603C005F603C043F6C4
:104CC00002C042F601C041F600C040F63AC147F6C4
:104CD00039C146F638C145F637C144F643EC13F006
:104CE00000C002F601C003F602C004F603C005F6D8
:104CF000F2C017F6F1C016F6F0C015F6EFC014F6C4
:104D000006011B6B1A6B400E196F800E186F0001A5
:104D10002FDD00C006F601C007F602C008F603C08A
:104D200009F603C043F602C042F601C041F600C0D6
:104D300040F63EC147F63DC146F63CC145F63BC193
:104D400044F643EC13F0EACF07F6E9CF06F6D89223
:104D500005C647F604C646F603C645F602C644F63F
:104D600003C04BF602C04AF601C049F600C048F63F
:104D700094EC0AF007C6EAFF06C6E9FF00C002F697
:104D800001C003F602C004F603C005F6F2C017F630
:104D9000F1C016F6F0C015F6EFC014F606011B6B55
:104DA0001A6B196B800E186F0001E2DC00C008F668
:104DB00001C009F602C00AF603C00BF603C043F6B1
:104DC00002C042F601C041F600C040F642C147F6BB
:104DD00041C146F640C145F63FC144F643EC13F0ED
:104DE000EACF09F6E9CF08F6D89205C647F604C619
:104DF00046F603C645F602C644F603C04BF602C0AB
:104E00004AF601C049F600C048F694EC0AF009C61B
:104E1000EAFF08C6E9FF00C002F601C003F602C0BF
:104E200004F603C005F6F2C043F6F1C042F6F0C046
:104E300041F6EFC040F646C147F645C146F644C1CB
:104E400045F643C144F643EC13F0EACF0BF6E9CF45
:104E50000AF6D89205C647F604C646F603C645F6D6
:104E600002C644F603C04BF602C04AF601C049F63A
:104E700000C048F694EC0AF00BC6EAFF0AC6E9FF48
:104E800000C002F601C003F602C004F603C005F636
:104E9000EACF0DF6E9CF0CF6D89203C047F602C070
:104EA00046F601C045F600C044F64AC14BF649C17A
:104EB0004AF648C149F647C148F694EC0AF00DC6D7
:104EC000EAFF0CC6E9FF01C6EAFF00C6E9FF00C021
:104ED000EFFF01C0ECFF02C0ECFF03C0ECFF0601D6
:104EE0000F6BF5C50EF6116B690E106F000145ECE6
:104EF0001CF001C000F60B0E06010124016E000E2D
:104F00000220036E0150870FE96E020E0320EA6E45
:104F1000EFCF00F6ECCF01F6ECCF02F6ECCF03F6C4
:104F200003C643F602C642F601C641F600C640F685
:104F3000476B466B456B446B000106EC13F01DE3B9
:104F400006010F6BF5C50EF6116B690E106F0001AF
:104F500045EC1CF001C000F60B0E06010124016EA9
:104F6000000E0220036E0150870FE96E020E03202F
:104F7000EA6EEF6AEC6AEC6AEC6A06010F6BF5C543
:104F80000EF6116B690E106F000145EC1CF002C0AB
:104F900001F601C000F60F0E06010124016E000E9D
:104FA0000220036E0150870FE96E020E0320EA6EA5
:104FB000EFCF00F6010E0501F45D0601005D1AE079
:104FC00019E30F6BF5C50EF6116B690E106F00013A
:104FD00045EC1CF001C000F60F0E06010124016E25
:104FE000000E0220036E0150870FE96E020E0320AF
:104FF000EA6EEF6A0F6BF5C50EF6116B690E106F56
:10500000000145EC1CF002C001F601C000F6190ECB
:1050100006010027000E01230F6BF5C50EF6116B7C
:10502000690E106F000145EC1CF002C003F601C0D0
:1050300002F60F0E06010124016E000E0220036E1F
:105040000150870FE96E020E0320EA6E0F6BEFCF5F
:105050000EF6116B040E106F000145EC1CF002C03F
:1050600003F0015006010025016E01510322015099
:10507000870F016E020E032201C000F603C001F685
:105080000F6BF5C50EF6116B690E106F000145EC44
:105090001CF002C003F601C002F60B0E060101244B
:1050A000016E000E0220036E0150870FE96E020EA2
:1050B0000320EA6EEFCF00F0ECCF01F0ECCF02F06E
:1050C000ECCF03F001C6EAFF00C6E9FF00C0EFFF26
:1050D00001C0ECFF02C0ECFF03C0ECFF0F6BF5C595
:1050E0000EF6116B690E106F000145EC1CF001C04B
:1050F00000F60F0E06010124016E000E0220036E61
:105100000150870FE96E020E0320EA6EEF2A0F6B43
:10511000F5C50EF6116B690E106F000145EC1CF021
:1051200001C000F6110E06010124016E000E0220DE
:10513000036E0150870FE96E020E0320EA6EEF6ADC
:10514000EC6AEC6AEC6A0001866B010E0501F45D05
:105150000001865D02E0D8B083D006010F6BF5C573
:105160000EF6116B690E106F000145EC1CF001C0CA
:1051700000F6110E06010124016E000E0220036EDE
:105180000150870F016E020E032201C000F603C01A
:1051900001F603C0EAFF01C0E9FFEFCF02F6ECCF52
:1051A00003F6ECCF04F6ECCF05F60F6BF5C50EF663
:1051B000116B690E106F000145EC1CF002C007F680
:1051C00001C006F6190E06010627000E07230F6B15
:1051D00086C00EF6116B040E106F000145EC1CF03A
:1051E00002C003F0015006010625016E075103229B
:1051F0000150870FE96E020E0320EA6EEFCF00F038
:10520000ECCF01F0ECCF02F0ECCF03F0EACF07F6E1
:10521000E9CF06F6D89205C647F604C646F603C699
:1052200045F602C644F603C04BF602C04AF601C07A
:1052300049F600C048F6000194EC0AF007C6EAFF00
:1052400006C6E9FF01C6EAFF00C6E9FF00C0EFFF9E
:1052500001C0ECFF02C0ECFF03C0ECFF862B75D74A
:1052600006010F6BF5C50EF6116B690E106F00018C
:1052700045EC1CF001C000F6110E06010124016E80
:10528000000E0220036E0150870F016E020E0322F2
:1052900001C000F603C001F60F6BF5C50EF6116BE9
:1052A000690E106F000145EC1CF001C002F6110EF2
:1052B00006010124016E000E0220036E0150870FCB
:1052C000E96E020E0320EA6EEFCF02F6ECCF03F692
:1052D000ECCF04F6ECCF05F6456BF4C544F60001BF
:1052E000CAEC09F005C643F604C642F603C641F609
:1052F00002C640F603C047F602C046F601C045F6B6
:1053000000C044F6E5EC09F000C002F601C003F667
:1053100002C004F603C005F606010F6BF5C50EF6D4
:10532000116B690E106F000145EC1CF002C007F60E
:1053300001C006F6150E06010124016E000E0220C2
:10534000036E0150870FE96E020E0320EA6EEFCF65
:1053500000F0ECCF01F0ECCF02F0ECCF03F005C68B
:1053600043F604C642F603C641F602C640F603C041
:1053700047F602C046F601C045F600C044F60001FB
:1053800043EC13F001C6EAFF00C6E9FF00C0EFFFDF
:1053900001C0ECFF02C0ECFF03C0ECFF06010F6B85
:1053A000F5C50EF6116B690E106F000145EC1CF08F
:1053B00001C000F6110E06010124016E000E02204C
:1053C000036E0150870F016E020E032201C000F62A
:1053D00003C001F60F6BF5C50EF6116B690E106F69
:1053E000000145EC1CF001C002F6110E060101247B
:1053F000016E000E0220036E0150870FE96E020E4F
:105400000320EA6EEFCF02F6ECCF03F6ECCF04F602
:10541000ECCF05F666C243F665C242F664C241F6B9
:1054200063C240F67D0E476F0C0E466F2D0E456F22
:10543000770E446F000143EC13F000C006F601C084
:1054400007F602C008F603C009F603C043F602C01F
:1054500042F601C041F600C040F60601476B466BBC
:10546000610E456F8A0E446F000143EC13F005C6D0
:1054700043F604C642F603C641F602C640F603C030
:1054800047F602C046F601C045F600C044F6E5EC1A
:1054900009F001C6EAFF00C6E9FF00C0EFFF01C046
:1054A000ECFF02C0ECFF03C0ECFF06010F6BF5C57B
:1054B0000EF6116B690E106F000145EC1CF002C076
:1054C00001F601C000F6110E06010124016E000E66
:1054D0000220036E0150870FE96E020E0320EA6E70
:1054E000EFCF00F0ECCF01F0ECCF02F0ECCF03F007
:1054F0000001000C06010F6BF5C50EF6116B440E92
:10550000106F000145EC1CF001C0F6F5400E0501DE
:105510000124016E000E0220036E0150940FE96E0B
:10552000040E0320EA6EEF6AEC6AEC6AEC6A06018C
:105530000F6BF5C50EF6116B440E106F000145ECB4
:105540001CF001C0F6F5940E05010124016E040E55
:105550000220036E01C0F6F5F76FF5C508F60001ED
:1055600056EC1CF0F7C5EAFFF6C5E9FF02C0ECFFF8
:10557000ED5201C0EFFF06010F6BF5C50EF6116B82
:10558000440E106F000145EC1CF001C0F6F5020E50
:1055900005010124016E000E0220036E0150940FDC
:1055A000016E040E032201C0F6F503C0F7F50601F3
:1055B0000F6BF5C50EF6116B440E106F000145EC34
:1055C0001CF002C0F9F501C0F8F5940E05010124A4
:1055D000E96E040E0220EA6EECCF03F0ED52EFCF3D
:1055E00044F603C045F60001CAEC09F0F7C5EAFF2E
:1055F000F6C5E9FF00C0EFFF01C0ECFF02C0ECFF01
:1056000003C0ECFF06010F6BF5C50EF6116B440EDF
:10561000106F000145EC1CF001C0F6F50A0E050103
:105620000124016E000E0220036E0150940F016EE2
:10563000040E032201C0F6F503C0F7F506010F6B57
:10564000F5C50EF6116B440E106F000145EC1CF011
:1056500001C0F8F5020E05010124016E000E0220C2
:10566000036E0150940FE96E040E0320EA6EEFCF33
:10567000F8F5ECCFF9F5ECCFFAF5ECCFFBF5060138
:105680000F6BF5C50EF6116B440E106F000145EC63
:105690001CF002C0FDF501C0FCF5060E0501012459
:1056A000016E000E0220036E0150940FE96E040E8D
:1056B0000320EA6EEFCF00F0ECCF01F0ECCF02F068
:1056C000ECCF03F0FBC543F6FAC542F6F9C541F647
:1056D000F8C540F603C047F602C046F601C045F6DD
:1056E00000C044F60001E5EC09F000C0F8F501C087
:1056F000F9F502C0FAF503C0FBF5EACFFDF5E9CFF5
:10570000FCF5D88203C047F602C046F601C045F654
:1057100000C044F606014B6B4A6B496B7F0E486F25
:10572000000194EC0AF0FDC5EAFFFCC5E9FFF7C5EE
:10573000EAFFF6C5E9FF00C0EFFF01C0ECFF02C0C1
:10574000ECFF03C0ECFF06010F6BF5C50EF6116B05
:10575000440E106F000145EC1CF001C0F6F50A0E76
:1057600005010124016E000E0220036E0150940F0A
:10577000E96E040E0320EA6EEFCFF6F5ECCFF7F5F5
:10578000ECCFF8F5ECCFF9F5F9C543F6F8C542F6DC
:10579000F7C541F6F6C540F60601476B466B456B0B
:1057A000446B000106EC13F01DE306010F6BF5C519
:1057B0000EF6116B440E106F000145EC1CF001C099
:1057C000F6F50A0E05010124016E000E0220036E9B
:1057D0000150940FE96E040E0320EA6EEF6AEC6A42
:1057E000EC6AEC6A06010F6BF5C50EF6116B440E00
:1057F000106F000145EC1CF002C0F7F501C0F6F592
:10580000120E05010124016E000E0220036E0150EC
:10581000940FE96E040E0320EA6EEFCFF6F5010E49
:10582000F45DF65D1BE01AE306010F6BF5C50EF69D
:10583000116B440E106F000145EC1CF001C0F6F531
:10584000120E05010124016E000E0220036E0150AC
:10585000940FE96E040E0320EA6EEF6A06010F6BE7
:10586000F5C50EF6116B440E106F000145EC1CF0EF
:1058700002C0F7F501C0F6F5180E0501F627000E77
:10588000F72306010F6BF5C50EF6116B440E106F72
:10589000000145EC1CF002C0F9F501C0F8F5120E4C
:1058A00005010124016E000E0220036E0150940FC9
:1058B000E96E040E0320EA6E06010F6BEFCF0EF6C1
:1058C000116B040E106F000145EC1CF002C003F0D8
:1058D00001500501F625016EF75103220150940F86
:1058E000016E040E032201C0F6F503C0F7F50601B0
:1058F0000F6BF5C50EF6116B440E106F000145ECF1
:105900001CF001C0F8F50A0E05010124016E000E1D
:105910000220036E0150940FE96E040E0320EA6E1C
:10592000EFCFF8F5ECCFF9F5ECCFFAF5ECCFFBF5CE
:10593000FBC543F6FAC542F6F9C541F6F8C540F68F
:10594000D70E0601476FA30E466F456B810E446F5D
:10595000000143EC13F0F7C5EAFFF6C5E9FF00C00C
:10596000EFFF01C0ECFF02C0ECFF03C0ECFF06013B
:105970000F6BF5C50EF6116B440E106F000145EC70
:105980001CF001C0F6F5120E05010124016E000E97
:105990000220036E0150940FE96E040E0320EA6E9C
:1059A000EF2A0001866B010E0501F45D0001865DA2
:1059B00002E0D8B085D006010F6BF5C50EF6116B6D
:1059C000440E106F000145EC1CF001C0F6F5400ECE
:1059D00005010124016E000E0220036E0150940F98
:1059E000016E040E032201C0F6F503C0F7F503C0F3
:1059F000EAFF01C0E9FFEFCFF8F5ECCFF9F5ECCF06
:105A0000FAF5ECCFFBF506010F6BF5C50EF6116B41
:105A1000440E106F000145EC1CF002C0FDF501C002
:105A2000FCF5180E0501FC27000EFD2306010F6B87
:105A300086C00EF6116B040E106F000145EC1CF0D1
:105A400002C003F001500501FC25016EFD51032247
:105A50000150940FE96E040E0320EA6EEFCF00F0C0
:105A6000ECCF01F0ECCF02F0ECCF03F0EACFFDF584
:105A7000E9CFFCF5D892FBC547F6FAC546F6F9C55D
:105A800045F6F8C544F603C04BF602C04AF601C01D
:105A900049F600C048F6000194EC0AF0FDC5EAFFA3
:105AA000FCC5E9FFF7C5EAFFF6C5E9FF00C0EFFF57
:105AB00001C0ECFF02C0ECFF03C0ECFF862B73D7E4
:105AC00006010F6BF5C50EF6116B440E106F000149
:105AD00045EC1CF001C0F6F5400E05010124016EF5
