:1000000084EF09F06896000C046ED8CF05F0E0CFBD
:1000100006F00001E9CF0CF0EACF07F0E1CF08F0DD
:10002000E2CF09F0D9CF0AF0DACF0BF0F3CF12F01C
:10003000F4CF13F0FACF14F000C00EF001C00FF0AF
:1000400002C010F003C011F09DA02AEF00F09EB096
:100050004DEF07F0A0AA30EF00F0A1BA09EF07F0CA
:100060000EC000F00FC001F010C002F011C003F08C
:100070000CC0E9FF07C0EAFF078E08C0E1FF09C016
:10008000E2FF0AC0D9FF0BC0DAFF12C0F3FF13C0B2
:10009000F4FF14C0FAFF045006C0E0FF05C0D8FF0B
:1000A0001000F76AB20FF66E000EF7220900F55045
:1000B00012000003FFFFFFFFFFFFFFFFFFFFFFFF37
:1000C000FFFF07AE03D0F2CF0DF0F29EF76AE40F08
:1000D000F66E000EF7220900F55007AE02D00DBEF5
:1000E000F28E12004000120000000000000000002C
:1000F0000000000000000000000000000000000000
:1001000000000000F76A140FF66E010EF7220900D6
:10011000F55012000600FF0901A101190129081577
:1001200080257F75089512810219012908750895A7
:10013000129102C0F76A440FF66E010EF722090011
:10014000F55012000000F76A560FF66E010EF72206
:100150000900F55012002000F76A680FF66E010ED4
:10016000F7220900F550120009022900010100C020
:10017000320904000002030000000921000100010F
:100180002220000705810312000A0705010312005F
:100190000A00F76AA20FF66E010EF7220900F55069
:1001A00012000100F76AB40FF66E010EF722090083
:1001B000F55012001200F76AC60FF66E010EF72214
:1001C0000900F55012001201100100000040610406
:1001D0002000000101020001F76AE80FF66E010E2F
:1001E000F7220900F5501200040309040803430034
:1001F000430053001A03430043005300200048000B
:10020000490044002000440065006D006F006D92BD
:10021000699468A402D06894FCD715EF07F0400EEB
:100220000401016F040E036F100E026F880E006F41
:10023000046B040E076F500E066F0001000C70A0D7
:1002400002D0EDDF7090689A1EEF07F06A6A68923C
:1002500024EF07F00101FE91FDBFFE81FD9FFD51DE
:10026000100803E2000E016E25D0FEA112D0036A31
:10027000FD51F2CFFFF1F29E000113DF0101FFBF3C
:10028000F28EFF0802E1000E01D0010E016E12D0C5
:1002900011D0036AFD51F2CFFFF1F29E000101DFA0
:1002A0000101FFBFF28EFF0802E1000E01D0010E36
:1002B000016E00D00001000C036A0101FC51700FB7
:1002C000E96E0F0E0320EA6EEF6AFCC1FDF100013A
:1002D000C1DF015219E00101FC51080DF350FE6B22
:1002E000E96E040EFE25EA6EEF6AFC51080DF3502C
:1002F000FE6BFD6F040EFD27000EFE23FDC1E9FF1E
:10030000040EFE25EA6EEF6A0001000C010E0101E9
:10031000FB6FFB510F0807E3FBC1FCF10001CCDFD1
:100320000101FB2BF6D70001000C0101F16BF15329
:100330000AE1036AF151240FE96E000E0320EA6E10
:10034000EF6AF12BF4D7186A010E196E176A0001D3
:10035000000C6A6A686A9F0E6B6E3D0E696E6E6A6B
:10036000D5DFE3DF160E706E68A602D04BDEFCD739
:100370006D9855DF030E1F6E2AEF07F069846898A9
:100380006D8230EF07F0689C36EF07F0F6C120F081
:10039000000CFF0E206E000C0101F46B235244E0B0
:1003A000F4513F0841E31A50FC0F31E2040F000101
:1003B0001FEF02F0036A2250F2CFF6F1F29ECCDE7C
:1003C0000101F6BFF28EF56F22D0036A2250F2CF00
:1003D000F6F1F29E97DE0101F6BFF28EF56F17D0AF
:1003E000036A2250F2CFF6F1F29EF6DE0101F6BF6B
:1003F000F28EF56F0CD0036A2250F2CFF6F1F29E26
:10040000DADE0101F6BFF28EF56F01D00101222A7A
:100410002306F451F42B036A500FE96E040E0320F7
:10042000EA6EF5C1EFFFBAD7235204E1F451400858
:1004300001E0176AF4C1F6F10001A8DF000CE8241E
:10044000F76AF736590FF66E040EF7220A00F550D8
:10045000FA6E0800F550F96EB403CA03E003F60320
:10046000226A1A6A04011351010A000109E0030A11
:100470000CE0010A0DE0220A24E0030A47E072D0F2
:10048000120E236E030E1A6E6FD0290E236E6CD0DF
:10049000020E1A6E036A040112511B0FE96E000E60
:1004A0000320EA6EEFCF22F0036A2250F2CFF4F17C
:1004B000F29E000191DE0101F4BFF28E236E000175
:1004C00053D0D89004011235036AF2CFF4F1F29EB2
:1004D000000168DE0900F5CF03F00101F4BFF28EE0
:1004E000226E223C01D00FD0036A2250F2CFF4F1E9
:1004F000F29E000131DE0101F4BFF28E236E000195
:1005000033D004D00101000144DF3AD0D890040177
:100510001435036AF2CFF4F1F29E00010BDE0900FC
:10052000F5CF03F00101F4BFF28E226E223C01D020
:1005300016D0010E1A6ED89004011435036AF2CF5A
:10054000F4F1F29E0001FFDD0900F5CF03F0010197
:10055000F4BFF28E236E000107D004D00101000128
:1005600018DF0ED016DF0CD00401175305E123501D
:10057000165D02E216C423F0010E176E00010CDFB7
:10058000000C0101F35306E1040E1F6E0001BEDEF4
:10059000DED00101050E1F6E040EF66F900EF56F92
:1005A000010EF46FF4510F08D8A0D1D0F4C1FCF1C2
:1005B000000182DE0101F76B036AF451F2CFFBF117
:1005C000F29E00016EDD0101FBBFF28EFF085BE0D1
:1005D000040EF76FD890F435036AF2CFFBF1F29E68
:1005E00000016FDD0900F5CF03F00101FBBFF28EC2
:1005F000F86F03C0F9F1F451080DF350FC6BFB6F79
:10060000010EFB25016E000EFC21036E01C0E9FF07
:10061000040E0324EA6EF8C1EFFFF451080DF35005
:10062000FC6BFB6F020EFB25016E000EFC21036EBE
:1006300001C0E9FF040E0324EA6EF6C1ECFFED529F
:10064000F5C1EFFFD890F435036AF2CFFBF1F29ECB
:10065000000137DD0900F5CF03F00101FBBFF28E89
:10066000F5270350F623880EFA6FF9B1FA81F9B332
:10067000FA83F451080DF350FC6BE96E040EFC256F
:10068000EA6EFAC1EFFF036AF451F2CFFBF1F29E7A
:10069000000107DD0101FBBFF28EFF083BE0F7839D
:1006A000F451080DF350FC6BFB6F040EFB27000E9A
:1006B000FC23020EFB25016E000EFC21036E01C01F
:1006C000E9FF040E0324EA6EF6C1ECFFED52F5C11A
:1006D000EFFFD890F435036AF2CFFBF1F29E0001F0
:1006E000F0DC0900F5CF03F00101FBBFF28EF52726
:1006F0000350F623F451080DF350FC6BFB6F040E0E
:10070000FB27000EFC23FBC1E9FF040EFC25EA6E6B
:10071000400EEF6EF751060802E10E0EF76F036A06
:10072000F451F2CFFBF1F29E0001BBDC0101FBBFF3
:10073000F28E0108D8A4F789036AF451700FE96EAC
:100740000F0E0320EA6EF7C1EFFFF42B2BD7000149
:10075000FCEF03F004011151000A00010DE0010A51
:1007600015E0020A20E0060A2AE0030A31E00E0A38
:1007700031E0010A37E046D019C050F40401516B52
:10078000020E0101F66F000101DE3ED00401122DC0
:1007900007D0010E19160101F66B0001F7DD02D03A
:1007A0000001F7DD31D00401122D06D019820101BC
:1007B000F66B0001EBDD02D00001EBDD25D0020E6F
:1007C000176E12C421F00101F66B0001DFDD1CD0B1
:1007D00047DE1AD018C050F4010E0101F66F000177
:1007E000D5DD12D00401125101080AE312C418F039
:1007F00012C4F3F10001C5D60101F66B0001C6DD9C
:10080000000102D0C6DD00D02AEF05F018C0F3F1D8
:1008100004011151000A000107E00A0A0EE0010A72
:1008200033E00D0A46E047D00401506B516B020ED5
:100830000101F66F0001AADD40D00101F35321E070
:10084000010EF35D036AF2CFF4F1F29E0001A1DC28
:100850000101F4BFF28E016E0401145DD8A002D034
:1008600001010FD0036A1451240FE96E000E03201A
:10087000EA6EEFCF50F4010E0101F66F000186DD44
:1008800002D0000186DD19D00101F3530FE0036AA5
:1008900004011451240FE96E000E0320EA6E12C405
:1008A000EFFF0101F66B000171DD02D0000171DD87
:1008B00004D0D6DD02D06DDD00D02AEF05F00101B5
:1008C000F491F3BFF481F39FF4A111D0F351080D1B
:1008D000F350F66BF56F040EF527000EF623F5C105
:1008E000E9FF040EF625EA6E880EEF6E09D0F3518B
:1008F000080DF350F66BE96E040EF625EA6EEF6A0A
:100900000001E7EF04F00101F491F3BFF481F39FDC
:10091000F4A111D0F351080DF350F66BF56F040EEE
:10092000F527000EF623F5C1E9FF040EF625EA6E61
:10093000840EEF6E0AD0F351080DF350F66BE96E9A
:10094000040EF625EA6E840EEF6E0001EFEF04F060
:100950000101F491F3BFF481F39FF4A111D0F3519D
:10096000080DF350F76BF66F040EF627000EF72311
:10097000F6C1E9FF040EF725EA6EEFCFF5F10AD0D4
:10098000F351080DF350F76BE96E040EF725EA6E8C
:10099000EFCFF5F1F5AF02D0F5B502D0000E01D0E2
:1009A000010E016E0001FBEF04F014C4FDF152DCF6
:1009B00001522EE004011151010A000105E0020A72
:1009C0000BE0030A11E022D014C4F3F178D701013F
:1009D000F66B0001DBDC1CD014C4F3F194D70101E9
:1009E000F66B0001D3DC14D00401506B516B14C4BE
:1009F000F3F10001ADD7015203E0010E0401506F85
:100A0000020E0101F66F0001C1DC02D0C2DC00D091
:100A10002AEF05F00401115100D00001BADC00D02A
:100A20002AEF05F0176A040110517F0B000A00013C
:100A300007E0010A07E0030A07E0230A07E008D0FD
:100A400089D608D0E3D606D0B0D704D0E3D702D0F9
:100A5000A0DC00D068EF06F00101F351080DF3505F
:100A6000F96BE96E040EF925EA6EEFCFF5F1F4515A
:100A7000020806E1F5AD02D0F46B02D0010EF46F6E
:100A8000F451030813E1840EF56FF351080DF35090
:100A9000F96BF86F040EF827000EF923F8C1E9FF8F
:100AA000040EF925EA6E840EEF6E07D0F42D03D004
:100AB000C80EF56F02D0880EF56FD890F335036A33
:100AC000F2CFF8F1F29E000161EC00F00900F5CFE1
:100AD00003F00101F8BFF28EF66F03C0F7F1F35196
:100AE000080DF350F96BF86F010EF825016E000E3A
:100AF000F921036E01C0E9FF040E0324EA6EF6C17A
:100B0000EFFFF7B1F581F7B3F583F351080DF3501B
:100B1000F96BE96E040EF925EA6EF5C1EFFF0001ED
:100B2000000C036A0101F851700FE96E0F0E0320EB
:100B3000EA6EEF5212E0F851080DF350FA6BF96FBC
:100B4000040EF927000EFA23F9C1E9FF040EFA2575
:100B5000EA6EEFCFF9F1F9AF02D0000E01D0010E2D
:100B6000016E0001000CF3C1F8F1DBDF015264E01B
:100B70000101F351080DF350F96BF86F040EF827DB
:100B8000000EF923010EF825016E000EF921036E07
:100B900001C0E9FF040E0324EA6EF4C1EFFFF65131
:100BA000020817E1F351080DF350F96BF86F040ECA
:100BB000F827000EF923F8C1E9FF040EF925EA6EC3
:100BC000EFCFF7F1F7AD02D0F66B02D0010EF66F62
:100BD00013D0F651040810E1F351080DF350F96BEE
:100BE000E96E040EF925EA6EEFCFF7F1F7AD03D009
:100BF000010EF66F01D0F66BF62D03D0C80EF76F1D
:100C000002D0880EF76FF5B1F781F5B3F783F35192
:100C1000080DF350F96BF86F040EF827000EF92356
:100C2000F8C1E9FF040EF925EA6EF7C1EFFF010EE6
:100C3000016E05D000D00001000E016E010100011F
:100C4000000C0101F35300E10001000CF4C16EFF40
:100C50000101F45303E0040E1F6E02D0020E1F6E5A
:100C6000000138EF06F0186A176A21C0F4F1EED7D8
:100C700049EF06F00101F3530DE1172C05D00001F7
:100C8000CCEC01F006D001011750020803E100018D
:100C9000EAD701010001000C1E300101F16FF133B0
:100CA000F1331F0EF1171E524FE1040100513C0BAE
:100CB0000101F26F430E040100170101F2513408E3
:100CC00025E104010451800B01E0046B0001AAD668
:100CD0006D98203C07D00101F36B030EF46F000107
:100CE000BBDE12D00101F36B020EF46F0001B4DE23
:100CF0002050FE0809E00101F36BF56B20C0F4F110
:100D0000040EF66F00012FDF1DD00101F25104081F
:100D10001AE1F36B000195DF0101F36B020EF46F32
:100D200000019ADE2050FE080CE0203C01D009D0E2
:100D30000101F36BF56B20C0F4F1010EF66F0001B9
:100D400012DF00D0010162D01E50040818E1430EEA
:100D500004010417FF0E206E0101F36B00018ADF0E
:100D6000203C01D00AD00101F36BF56B20C0F4F1F7
:100D7000020EF66F0001F7DE00D047D001011EB46D
:100D80001DD0F151080DF350F46B016E040EF425E3
:100D9000036EF151080DF350F66BE96E040EF62563
:100DA000EA6EEF50430B03C0EAFF01C0E9FFEF6EAC
:100DB000F1C1F3F1000145DF28D00101F151080D27
:100DC000F350F46BF36F040EF327000EF423F3C11A
:100DD00001F0040EF425036EF151080DF350F66B8B
:100DE000F56F040EF527000EF623F5C1E9FF040E9A
:100DF000F625EA6EEF50430B03C0EAFFF3C1E9FFAB
:100E0000EF6EF1C1F3F1000135DF0101000142EFA6
:100E100007F0A19A1F5201E13ED068523CE068A45D
:100E200004D069A402D007EF01F06DA201D033D045
:100E300068AA04D069AA02D01FEF01F068A204D00A
:100E400069A202D026EF01F068A004D069A002D008
:100E5000A9EF01F068A804D069A802D0BEEF01F0A4
:100E600068AC04D069AC02D0C3EF01F00101F06BB3
:100E700068A60AD069A608D06CCF1EF0000102EC6B
:100E800000F00AD702D0010105D00101F051F02B8A
:100E90000308EEE2000130EF00F0150ECF6EA00E59
:100EA000CE6E4E2AD8B44F2A4F5203E14E5013084B
:100EB00003E24C824F6A4E6A9E9030EF00F0010EC2
:100EC000EA6EE20EE96EEF500EE00F0E016E006A60
:100ED000002EFED7012EFBD78F0E006E002EFED700
:100EE0000000EF2EF2D7000C6D6A696A080E6F6E73
:100EF000945030090101946E1F6A166AF2BE168E74
:100F0000F29E000195EC01F016BEF28E89EF07F01B
:100F1000EBD74EEF0BF0166AF2BE168EF29E95ECF2
:100F200001F016BEF28E6D6A140E6F6E696A6D86E0
:100F3000010E1F6E9FEF07F06DB601D0ECD71F2C8E
:100F40000BD06DBA09D0686A696AA08AC00EF21225
:100F5000110E696E020E1F6E5DEF0BF01850016EE0
:100F6000000CFCDF01C026F05EEF0BF0036A01010C
:100F7000DF51700FE96E0F0E0320EA6EEF520DE0A5
:100F8000DF51080DF350E16BE06FE96E040EE125CF
:100F9000EA6EEFCFE0F1E0AF02D0000E01D0010E1B
:100FA000016E000162EF08F00101E451080DF350F9
:100FB000EF6BEE6F020EEE25016E000EEF21036E59
:100FC00001C0E9FF040E0324EA6EECCF03F0ED52FA
:100FD000EFCFE9F103C0EAF1E451080DF350EF6BF4
:100FE000EE6F010EEE25016E000EEF21036E01C0C3
:100FF000E9FF040E0324EA6EEF50036AEC6F03C0AE
:10100000EDF1E451080DF350EF6BE96E040EEF259E
:10101000EA6EEFCFEBF1EBB1ED81EBB3ED83ED5188
:10102000E85D08E303E1E751EC5D04E2EDC1E8F1BE
:10103000ECC1E7F1E6C1EAFFE5C1E9FFEAC1E2FF81
:10104000E9C1E1FFE8C102F0E7C101F0015202E0AD
:10105000022A02D0025206E0E6CFEEFF012EFCD7B4
:10106000022EFAD7E7C101F0E8C102F0000144EF17
:1010700008F0DFC1E4F1E1C1E6F1E0C1E5F1E3C16F
:10108000E8F1E2C1E7F190D702C0E3F101C0E2F17B
:10109000166AF2BE168EF29EDFC1F3F1020E010156
:1010A000F46F0001D9DC16BEF28E0101E2C101F03D
:1010B000E3C102F000016FEF08F0010E0101DF6FE4
:1010C000000154D701520BE0010E0101DF6FE16B0B
:1010D000270EE06FE36B120EE26F0001CAD762EFDA
:1010E0000BF0958883A802D00A0E466E958A83AAD3
:1010F00002D0140E466E958C83AC02D01E0E466E46
:10110000958E83AE02D0280E466E958883B80BD09C
:10111000958A83BA08D0958C83BC05D0958E83BE02
:1011200002D02C0E466EA8EF0BF00101DF35006EE9
:101130000036FC0E001600C001F0C250C30B0010B8
:10114000C26E0A0EE26F0001BADEC282C2B2FED7E0
:10115000C4500101E16BE06F016EE1C102F00001DA
:10116000000C020E0101DF6F0001DFDF02C0DAF1C7
:1011700001C0D9F1D9C1CFF1DAC1D0F1CFC140F06E
:10118000D0C141F0A9EF0BF0070E0101DF6F0001A4
:10119000CCDF02C0DEF101C0DDF1DDC1D5F1DEC181
:1011A000D6F1D5C13CF0D6C13DF0AAEF0BF0060E4A
:1011B0000101DF6F0001B9DF02C0DCF101C0DBF12A
:1011C000DBC1D3F1DCC1D4F1D3C13EF0D4C13FF0D7
:1011D000ABEF0BF00101DF6B0001A7DF02C0D8F11C
:1011E00001C0D7F1D7C1CDF1D8C1CEF1CDC142F008
:1011F000CEC143F0ACEF0BF0040E0101DF6F000134
:1012000094DF02C0E0F101C0DFF1010102500308E8
:1012100007E303E1DF511F0803E3050E456E02D02B
:101220000A0E456E0001ADEF0BF0050E0101DF6FF8
:1012300000017BDF02C0E0F101C0DFF101010250DB
:10124000030807E303E1DF511F0803E3050E446EC3
:1012500002D00A0E446E0001AEEF0BF0166AF2BE29
:10126000168EF29EDFC1F8F15CDC16BEF28E0152E2
:1012700047E00101DF51080DF350E86BE76F040E02
:10128000E727000EE823020EE725016E000EE82195
:10129000036E01C0E9FF040E0324EA6EECCF03F0F5
:1012A000ED52EFCFE5F103C0E6F1E6C1EAFFE5C19B
:1012B000E9FFE1C1E2FFE0C1E1FFE3C102F0E2C109
:1012C00001F0015202E0022A02D0025206E0E6CF0B
:1012D000EEFF012EFCD7022EFAD7166AF2BE168E4A
:1012E000F29EDFC1F3F1E3C1F5F1E2C1F4F1E4C133
:1012F000F6F1000138DC16BEF28E015003D000D0AA
:10130000000E016EBBEF0BF0F86AD09E078EEA6A02
:10131000E96A1F6A236A300E4B6E4C904F6A4E6A20
:101320004C92506A516A526A536A546A586A576AB0
:10133000566A556A5C6A5B6A5A6A596A606B5F6A88
:101340005E6A5D6A646B636B626B616B686B676B33
:10135000666B656B6C6B6B6B6A6B696B706BC00EED
:101360006F6F410E6E6F8B0E6D6F786B776B766B58
:10137000756B7C6B7B6B7A6B796B0101C06BBF6BA0
:10138000BE6BBD6BC46BC36BC26BC16BC86BC76BF1
:10139000C66B880EC56FCA6BC96BCC6BCB6BCD6B44
:1013A000CE6BCF6BD06BD16BD26BD36BD46BD56B59
:1013B000D66BD86BD76BDA6BD96BDC6BDB6BDE6B08
:1013C000DD6BC150C00B0F09C16E070EB46E1B6AF6
:1013D000040E1C6E0C0E1D6EFF0E396E3A6E3B6EC7
:1013E0003C6A3D6A3E6A3F6A406A416A426A436AB1
:1013F000446A456A466A476A486E496E800E4A6E7C
:1014000000017D6B7E6B7F6B806B816B826B836B6E
:10141000846B856B866B876B886B896B8A6B8B6B38
:101420008C6B8D6B8E6B8F6B906B916B926B936BE8
:10143000946B956B966B976B986B996B9A6B9B6B98
:101440009C6B9D6B9E6B9F6BA06BA16BA26BA36B48
:10145000A46BA56BA66BA76BA86BA96BAA6BAB6BF8
:10146000AC6BAD6BAE6BAF6BB06BB16BB26BB36BA8
:10147000B46BB56BB66BB76BB86BB96BBA6BBB6B58
:10148000BC6BBD6BBE6BBF6BC06BC16BC26BC36B08
:10149000C46BC56BC66BC76BC86BC96BCA6BCB6BB8
:1014A000CC6BCD6BCE6BCF6BD06BD16BD26BD36B68
:1014B000D46BD56BD66BD76BD86BD96BDA6BDB6B18
:1014C000DC6BDD6BDE6BDF6BE06BE16BE26BE36BC8
:1014D000E46BE56BE66BE76BE86BE96BEA6BEB6B78
:1014E000EC6BED6BEE6BEF6BF06BF16BF26BF36B28
:1014F000F46BF56BF66BF76BF86BF96BFA6BFB6BD8
:10150000FC6BFD6BFE6BFF6B0101006B016B026BF3
:10151000036B046B056B066B076B086B096B0A6B3F
:101520000B6B0C6B0D6B0E6B0F6B106B116B126BEF
:10153000136B146B156B166B176B186B196B1A6B9F
:101540001B6B1C6B1D6B1E6B1F6B206B216B226B4F
:10155000236B246B256B266B276B286B296B2A6BFF
:101560002B6B2C6B2D6B2E6B2F6B306B316B326BAF
:10157000336B346B356B366B376B386B396B3A6B5F
:101580003B6B3C6B3D6B3E6B3F6B406B416B426B0F
:10159000436B446B456B466B476B486B496B4A6BBF
:1015A0004B6B4C6B4D6B4E6B4F6B506B516B526B6F
:1015B000536B546B556B566B576B586B596B5A6B1F
:1015C0005B6B5C6B5D6B5E6B5F6B606B616B626BCF
:1015D000636B646B656B666B676B686B696B6A6B7F
:1015E0006B6B6C6B6D6B6E6B6F6B706B716B726B2F
:1015F000736B746B756B766B776B786B796B7A6BDF
:101600007B6B7C6B7D6B7E6B7F6B806B816B826B8E
:10161000836B846B856B866B876B886B896B8A6B3E
:101620008B6B8C6B8D6B8E6B8F6B906B916B926BEE
:10163000936B946B956B966B976B986B996B9A6B9E
:101640009B6B9C6B9D6B9E6B9F6BA06BA16BA26B4E
:10165000A36BA46BA56BA66BA76BA86BA96BAA6BFE
:10166000AB6BAC6BAD6BAE6BAF6BB06BB16BB26BAE
:10167000B36BB46BB56BB66BB76BB86BB96BBA6B5E
:10168000BB6BBC6B4C90020EDF6FFA0EE26F000179
:1016900016DC0101DF2FF9D700013AD4850ECD6E9B
:1016A0009D80C150C00B0709C16EC090C082C0941C
:1016B000C09EC280C00EF2123FD453D44FDC015200
:1016C00007E0FBD4050E0101E26F00015FEC07F0BB
:1016D0002A50050802E18B8094902A500A0802E102
:1016E0008B9094902B50050802E18B8294922B50A2
:1016F0000A0802E18B9294922C50050802E18B8437
:1017000094942C500A0802E18B9494942D5005086F
:1017100002E18C8895982D500A0802E18C989598E2
:101720002E50050802E18C8A959A2E500A0802E193
:101730008C9A959A2F50050802E18B8C949C2F501F
:101740000A0802E18B9C949C4CA215D04C92C9D4FF
:1017500008D51AD52CD53ED54FD567D5010E010138
:10176000DF6FE16B390EE06FE36B120EE26F020E7A
:0A177000E46F000173D5A0D7030059
:020000040030CA
:0E00000024CE3E1E008781000FC00FE00F408F
:00000001FF
;PIC18F4550
;CRC=D99B  CREATED="07-abr.-17 13:18"
