:06000000C0EF11F0000C3E
:0800080053EF00F000000000BE
:100010000000000000000000046ED8CF05F0E0CF23
:1000200006F00001E9CF0CF0EACF07F0E1CF08F0CD
:10003000E2CF09F0D9CF0AF0DACF0BF0F3CF12F00C
:10004000F4CF13F0FACF14F000C00EF001C00FF09F
:1000500002C010F003C011F09DA032EF00F09EB07E
:1000600079EF01F00EC000F00FC001F010C002F0F7
:1000700011C003F00CC0E9FF07C0EAFF078E08C0FB
:10008000E1FF09C0E2FF0AC0D9FF0BC0DAFF12C0CE
:10009000F3FF13C0F4FF14C0FAFF045006C0E0FFE2
:1000A00005C0D8FF1000166ED8CF17F0E0CF18F0BB
:1000B0000001E9CF1EF0EACF19F0E1CF1AF0E2CF4C
:1000C0001BF0D9CF1CF0DACF1DF0F3CF24F0F4CF22
:1000D00025F0FACF26F000C020F001C021F002C0C8
:1000E00022F003C023F0F2AA79EF00F0F2B460EF3F
:1000F00001F0F2A87FEF00F0F2B224EF01F020C08F
:1001000000F021C001F022C002F023C003F01EC0A5
:10011000E9FF19C0EAFF198E1AC0E1FF1BC0E2FF18
:100120001CC0D9FF1DC0DAFF24C0F3FF25C0F4FFB7
:1001300026C0FAFF165018C0E0FF17C0D8FF100005
:10014000F2CF0DF0F29CF29EF76A600FF66E010E90
:10015000F7220900F5500DBCF28C0DBEF28E120094
:10016000280C010654656D706F72697A61646F7254
:10017000205556202020200043616D62696F204386
:100180006F6E7472617365F1612020005469656D52
:10019000706F2054726162616A6F20555620200092
:1001A00050756E746F204365726F202020202020D0
:1001B00020202000416C61726D61202020202020D1
:1001C000202020204F464600416C61726D61202046
:1001D0002020202020202020204F4E0056656C6FCC
:1001E00063696461642020202020202020202000DA
:1001F000434142494E4120464C554A4F204C414DC7
:10020000494E4152000020202020202056455254C3
:100210004943414C20202020202000002020202085
:100220004A502020494E474C4F42414C202020202C
:10023000000020202020205245463A4A50435634A0
:1002400038202020202000002B8AC851050808E112
:10025000D76AE40ED66E8B9494948B9294922AD0A3
:10026000C851040808E1D76AC90ED66E8B949494DD
:100270008B9294921FD0C851030808E1D76AC40E2C
:10028000D66E8B9494948B92949214D0C851020899
:1002900008E1D76ABC0ED66E8B9494948B9294929C
:1002A00009D0C82D07D0D76AB40ED66E8B9494941B
:1002B0008B929492C12BD8B4C22BF2927FEF00F0B4
:1002C000C85314E0C851050811E32BAA09D08B8448
:1002D00094948B829492D76AFD0ED66E2B9A06D098
:1002E0008B9494948B929492D76AD66AF2947FEF0F
:1002F00000F0B10ECF6EE00ECE6E572AD8B4582A59
:10030000585203E15750C70829E292968976586AF5
:10031000576A432A2A80512C0AD02AB603D08B90E0
:10032000949004D02AA802D08B8094902A7629A099
:1003300015D0352A29BE12D03C5202E03C060ED020
:100340003B5204E03B063B0E3C6E08D0298E2990C0
:100350008A8693963DC03BF03EC03CF09E9032EFC3
:1003600000F02020202020496E67726573652020F0
:10037000202020202020000020202020436F6E74A9
:1003800072617365F1612020202020200000202070
:100390002020434C4156453D25692569256925693D
:1003A000202000002020202020202020202020208D
:1003B00020202020202020002020202020436F6E9D
:1003C0007472617365F161202020200020202020BC
:1003D0002020436F7272656374612020202020000A
:1003E000202020202020202020202020202020200D
:1003F000202020002020202020436F6E7472617323
:1004000065F16120202020002020202020496E63FB
:100410006F727265637461202020200020202020EC
:1004200020202020202020202020202020202000EC
:100430002D2D2D4D454E55205052494E434950418A
:100440004C2D2D2D00002020202054656D706F72E2
:10045000697A61646F7220202020200020202020F3
:100460002020204C757A2055562020202020202046
:100470002000253033753A2530327520284D3A5307
:10048000292020005469656D706F20416C6D616397
:10049000656E61646F002020436F727265637461E2
:1004A0006D656E74652020002020202020496E6735
:1004B000726573652020202020202020000020204D
:1004C0002020436F6E7472617365F16120202020DB
:1004D0002020000020202020434C4156453D256926
:1004E0002569256925692020000020202020202062
:1004F000202020202020202020202020202000003C
:100500002020202020436F6E7472617365F161209A
:10051000202020200000202020202020436F727205
:1005200065637461202020202020000020202020EE
:1005300020202020202020202020202020202020BB
:1005400000002020202020202020202020202020EB
:1005500020202020202000002020202020436F6E1B
:100560007472617365F1612020202020000020203A
:10057000202020496E636F727265637461202020B1
:1005800020200000202020202020202020202020AB
:1005900020202020202020200000202020496E67DD
:1005A00072657365204E75657661202020200000FD
:1005B0002020202020436F6E7472617365F16120EA
:1005C00020202020000020202020434C4156453D83
:1005D0002569256925692569202000002020202023
:1005E000202020202020202020202020202020200B
:1005F00000002020202020436F6E7472617365F12B
:1006000061202020202000002020202020416C6D2F
:100610006163656E6164612020202020000020203D
:1006200020202020202020202020202020202020CA
:100630002020000020204475726163696F6E2041A4
:10064000637475616C2020200000202020546965AF
:100650006D706F3D202530354C75202020002052D4
:10066000455345543D204F7072696D61205E20797D
:10067000203E2000205265736574206465207469F3
:10068000656D706F20002020202020457869746FF0
:10069000736F20202020200020205A65726F205088
:1006A0006F696E7420436F6E666967200000507238
:1006B0006573696F6E3D2025332E326620696E4862
:1006C000324F2000202020204144433D25322E304F
:1006D0006600202020205A463D25322E306600003C
:1006E000202020202020202020202020202020200A
:1006F00020202020000020202020202020204163D6
:100700007469766F202020202020000020202020E7
:1007100020202020416C61726D612020202020204B
:100720000000202020202020202020202020202009
:1007300020202020202000002020202020202020F9
:1007400020202020202020202020202000002020E9
:100750002020202044657361637469766F20202017
:100760002020000020202020202020416C61726D7C
:100770006120202020202020000020202020202078
:1007800020202020202020202020202020200000A9
:1007900053656C656363696F6E652056656C6F6346
:1007A00069646164000020202064656C2056656ED9
:1007B00074696C61646F722020200000202020206A
:1007C0002056656C3A20257520202020202020000E
:1007D0002020202020202020202020202020202019
:1007E0002020202000002020202020202020202049
:1007F0002020202020202020202000002020202039
:100800002056656C6F63696461642020202020207D
:100810000000202020202020416C6D6163656E6106
:100820006461202020200000202020202020202083
:1008300020202020202020202020202000004A509E
:1008400043522044503A25332E326620696E483296
:100850004F20000054656D706F3A253033753A258E
:1008600030327500202054656D706F72697A616452
:100870006F722020646520200000204C757A20557E
:1008800056202046696E616C697A61646F200000B1
:100890002020202020202020202020202020202058
:1008A0002020202000002020202020202020202088
:1008B00020202020202020202020000046696C7469
:1008C000726F3A004D6F746F723A4F4E20004D6F49
:1008D000746F723A4F46460055563A4F4E2000000C
:1008E00055563A4F464600004C757A3A4F4E200016
:1008F0004C757A3A4F464600EA6AF70EE96EEF50B9
:100900000EE0050E016E006A002EFED7012EFBD709
:100910002E0E006E002EFED700D0EF2EF2D7000C68
:10092000F839F00B006E0F0E83140010836E090E61
:10093000006E002EFED700D08386490E006E002E7A
:10094000FED78396000C8392010EF76FD5DFF5A1D9
:100950008392F5B18382090E006E002EFED700D07F
:100960008394090E006E002EFED700D08396F639D0
:10097000F76F0F0EF717F7C0F8F0D2DFF6510F0B35
:10098000F76FF86FCDDF000C000E956E83928394A5
:1009900083960F0EF76FB0DF010EE06FE051030892
:1009A00008E3030EF86FBCDF050EF76FA5DFE02B41
:1009B000F5D7020EF86FB4DFE06BE051030812E3E5
:1009C000036AE051F2CFE1F0F29CF29EA0EC00F05D
:1009D000E1BDF28CE1BFF28EE16FF56BF66FB3DF34
:1009E000E02BEBD7000CC80EF76F86DFCDDFFF0ED4
:1009F000926E966EC00EF212F288F18CC70ED56E12
:100A0000F28A850ECD6E9D80C150C00B0E09C16E5D
:100A1000C090C082C094C08EC280C00EF2129CEF03
:100A200012F0010EF35DFC0F0FE2040F2CEF05F046
:100A3000800EF46F09D0C00EF46F06D0940EF46FE0
:100A400003D0D40EF46F00D0010EF25DF427F56BE5
:100A5000F4C0F6F078DF000CF2CF0DF0F29CF29EBD
:100A6000E824F76AF736830FF66E0A0EF7220A00BB
:100A7000F550FA6E0800F5500DBCF28C0DBEF28EEA
:100A8000F96E300A360A3C0A420AF151F10802E1D5
:100A9000EE0EF16FF151D10802E1FF0EF16FF1514D
:100AA0000C0A05E0060A0DE0020A12E016D0F56B0A
:100AB000010EF66F48DF010E286E020EF76F1CDF85
:100AC00012D0282A010EF26F28C0F3F0AADF0BD053
:100AD000F56B100EF66F37DF06D0010EF56FF1C023
:100AE000F6F031DF00D0000C0900F5520CE0F6CF33
:100AF000E3F0F7CFE4F0F5CFF1F0C7DFE3C0F6FFA6
:100B0000E4C0F7FFF1D7000C010EF26FF36F89DF3D
:100B1000F00EF66E010EF76EE7DF010EF26F020EB9
:100B2000F36F7FDF060EF66E020EF76EDDDF010E4D
:100B3000F26F030EF36F75DF1C0EF66E020EF76E8A
:100B4000D3DF010EF26F040EF36F6BDF320EF66E21
:100B5000020EF76EC9DF080EE06FFA0EF76FCCDEFB
:100B6000E02FFBD70C0EF16F90DF9EEF12F08E0E90
:100B7000006EF9C001F0F8C002F0036A015209E109
:100B800002C001F0026A080E005E015202E1006A32
:100B900008D0D89001BE04D0023601360006F9D73D
:100BA000019E000CF2CFE0F0F29CF29EA96AA69C96
:100BB000A69EA680A850E0BDF28CE0BFF28E4D6EDE
:100BC000140EF76F99DEF2CFE0F0F29CF29E010E68
:100BD000A96EA69CA69EA680A850E0BDF28CE0BFA0
:100BE000F28E4E6E140EF76F87DEF2CFE0F0F29CBD
:100BF000F29E020EA96EA69CA69EA680A850E0BDFD
:100C0000F28CE0BFF28E4F6E140EF76F75DEF2CFEE
:100C1000E0F0F29CF29E030EA96EA69CA69EA68012
:100C2000A850E0BDF28CE0BFF28E506E140EF76F4C
:100C300063DEF2CFE0F0F29CF29E040EA96EA69C59
:100C4000A69EA680A850E0BDF28CE0BFF28E016E99
:100C50002A9801B02A88140EF76F4EDEF2CFE0F02A
:100C6000F29CF29E050EA96EA69CA69EA680A85098
:100C7000E0BDF28CE0BFF28E3B6E140EF76F3CDEEF
:100C8000F2CFE0F0F29CF29E060EA96EA69CA69E04
:100C9000A680A850E0BDF28CE0BFF28E3C6E140E30
:100CA000F76F2ADEF2CFE0F0F29CF29E070EA96EFB
:100CB000A69CA69EA680A850E0BDF28CE0BFF28E56
:100CC000356E140EF76F18DEF2CFE0F0F29CF29E54
:100CD000080EA96EA69CA69EA680A850E0BDF28C28
:100CE000E0BFF28E366E140EF76F06DEF2CFE0F044
:100CF000F29CF29E090EA96EA69CA69EA680A85004
:100D0000E0BDF28CE0BFF28E376E140EF76FF4DDAB
:100D1000F2CFE0F0F29CF29E0A0EA96EA69CA69E6F
:100D2000A680A850E0BDF28CE0BFF28E386E140EA3
:100D3000F76FE2DDF2CFE0F0F29CF29E0B0EA96EAF
:100D4000A69CA69EA680A850E0BDF28CE0BFF28EC5
:100D5000396E140EF76FD0DDF2CFE0F0F29CF29E08
:100D60000C0EA96EA69CA69EA680A850E0BDF28C93
:100D7000E0BFF28E3A6E140EF76FBEDDF2CFE0F0F8
:100D8000F29CF29E0D0EA96EA69CA69EA680A8506F
:100D9000E0BDF28CE0BFF28E566E140EF76FACDD44
:100DA000F2CFE0F0F29CF29E0F0EA96EA69CA69EDA
:100DB000A680A850E0BDF28CE0BFF28E526E140EF9
:100DC000F76F9ADDF2CFE0F0F29CF29E100EA96E62
:100DD000A69CA69EA680A850E0BDF28CE0BFF28E35
:100DE000536E140EF76F88DDF2CFE0F0F29CF29EA6
:100DF000110EA96EA69CA69EA680A850E0BDF28CFE
:100E0000E0BFF28E546E140EF76F76DD3AC05CF0E0
:100E100039C05BF05CC0F9F05BC0F8F0A8DE03C03D
:100E2000C0F002C0BFF001C0BEF000C0BDF038C0CD
:100E30005AF037C059F03BC03DF03CC03EF0A0EF47
:100E400012F0F5C0FCF0F951FC1BFCAF05D0D894B2
:100E5000D890F5BFD8802FD0F5C0FCF0F8C0FDF0D9
:100E6000F451FD5F06E0FCAF26D0D850010AD86EE1
:100E700022D0F9C0FDF0F551FD5F06E0FCAF1BD0BC
:100E8000D850010AD86E17D0FAC0FDF0F651FD5FB8
:100E900006E0FCAF10D0D850010AD86E0CD0FBC0D1
:100EA000FDF0F751FD5F06E0FCAF05D0D850010A18
:100EB000D86E01D0D890000C4DBE03D04D5009081B
:100EC00003E34DBE01D019D04D6AA96AA86AA69C59
:100ED000A69EA684F250006EF29CF29E0F01550E63
:100EE000A76EAA0EA76EA682A6B2FED7A694005041
:100EF000F212140E0001F76FFFDC4EBE03D04E500D
:100F0000090803E34EBE01D01AD04E6A010EA96E45
:100F1000A86AA69CA69EA684F250006EF29CF29E41
:100F20000F01550EA76EAA0EA76EA682A6B2FED717
:100F3000A6940050F212140E0001F76FDDDC4FBED4
:100F400003D04F50090803E34FBE01D01AD04F6AB7
:100F5000020EA96EA86AA69CA69EA684F250006EF8
:100F6000F29CF29E0F01550EA76EAA0EA76EA682E6
:100F7000A6B2FED7A6940050F212140E0001F76F2D
:100F8000BBDC50BE03D05050090803E350BE01D073
:100F90001AD0506A030EA96EA86AA69CA69EA684C3
:100FA000F250006EF29CF29E0F01550EA76EAA0E33
:100FB000A76EA682A6B2FED7A6940050F212140E17
:100FC0000001F76F99DC000E2AB8010E01081BE240
:100FD0002A88040EA96E010EA86EA69CA69EA68461
:100FE000F250006EF29CF29E0F01550EA76EAA0EF3
:100FF000A76EA682A6B2FED7A6940050F212140ED7
:101000000001F76F79DC3B50C8081CE2140E3B6E00
:10101000050EA96E140EA86EA69CA69EA684F2507C
:10102000006EF29CF29E0F01550EA76EAA0EA76EDF
:10103000A682A6B2FED7A6940050F212140E0001AA
:10104000F76F5ADC3C503B081AE23C6A060EA96E68
:10105000A86AA69CA69EA684F250006EF29CF29E00
:101060000F01550EA76EAA0EA76EA682A6B2FED7D6
:10107000A6940050F212140E0001F76F3DDC3550BB
:101080003C081AE2356A070EA96EA86AA69CA69EBD
:10109000A684F250006EF29CF29E0F01550EA76ED0
:1010A000AA0EA76EA682A6B2FED7A6940050F21290
:1010B000140E0001F76F20DC36503C081AE2366A45
:1010C000080EA96EA86AA69CA69EA684F250006E81
:1010D000F29CF29E0F01550EA76EAA0EA76EA68275
:1010E000A6B2FED7A6940050F212140E0001F76FBC
:1010F00003DC5A5026083CE2FF0A03E1595010086D
:1011000037E25A6A596A090EA96E0A0EA86EA69CA1
:10111000A69EA684F250006EF29CF29E0F01550E20
:10112000A76EAA0EA76EA682A6B2FED7A6940050FE
:10113000F212140E0001F76F7CEC04F00A0EA96E97
:10114000A86AA69CA69EA684F250006EF29CF29E0F
:101150000F01550EA76EAA0EA76EA682A6B2FED7E5
:10116000A6940050F212140E0001F76F7CEC04F00C
:10117000C0C0F7F0BFC0F6F0BEC0F5F0BDC0F4F0DF
:10118000FB6BFA6B610EF96F870EF86F5ADE10E297
:10119000F76BF66B160EF56F880EF46FC0C0FBF0A0
:1011A000BFC0FAF0BEC0F9F0BDC0F8F04ADE3DE3C2
:1011B000C06B800EBF6F7F0EBE6F870EBD6F0B0EB4
:1011C000A96EFF0EA86EA69CA69EA684F250006E85
:1011D000F29CF29E0F01550EA76EAA0EA76EA68274
:1011E000A6B2FED7A6940050F212140E0001F76FBB
:1011F0007CEC04F00C0EA96E010EA86EA69CA69EB7
:10120000A684F250006EF29CF29E0F01550EA76E5E
:10121000AA0EA76EA682A6B2FED7A6940050F2121E
:10122000140E0001F76F7CEC04F0565006081DE226
:10123000040E566E0D0EA96E040EA86EA69CA69EF8
:10124000A684F250006EF29CF29E0F01550EA76E1E
:10125000AA0EA76EA682A6B2FED7A6940050F212DE
:10126000140E0001F76F7CEC04F0A2EF12F00900FD
:10127000F6CFE5F0F7CFE6F0F5CFF1F006DCE5C00C
:10128000F6FFE6C0F7FFE42FF2D7000CE751016A42
:10129000E65D03E2E6C000F00CD0006A080EE86FDD
:1012A000E6370036E751005CD8B0006E0136E82F13
:1012B000F7D7000C200EE1A9300EE26FE0C000F07D
:1012C000E0AF07D0001E002A00C0E0F02D0EE26F54
:1012D000E18F0150E0C0E6F0640EE76FD7DF00C099
:1012E000E0F0300E0124E36FE0C0E6F00A0EE76F95
:1012F000CDDF300E0024E56F300E0124E46FE2C034
:1013000000F0E1A702D0E1AFE195E1B90BD0E1AF88
:1013100022D0E1B520D000C0E3F0E1B31CD000C082
:10132000E4F019D0300EE35D16E100C0E3F0200ECA
:10133000E26FE1A704D0E195E183E1AFE193300EE4
:10134000E45D09E100C0E4F0200EE36FE1A7F7D708
:10135000E193E1AFE191E1A504D0E2C0F1F045EC09
:1013600005F0E1A304D0E3C0F1F045EC05F0E1A104
:1013700004D0E4C0F1F045EC05F0E5C0F1F045EC37
:1013800005F0000CE12D0CD0020EF26FE2C0F3F07C
:1013900011EC05F0640EF66E010EF76E74EC05F0BC
:1013A000E15102080CE1020EF26FE2C0F3F011EC21
:1013B00005F0780EF66E010EF76E74EC05F0E15153
:1013C00003080CE1020EF26FE2C0F3F011EC05F03D
:1013D0008C0EF66E010EF76E74EC05F0E151040808
:1013E0000CE1020EF26FE2C0F3F011EC05F0A00E7A
:1013F000F66E010EF76E74EC05F0E15105081CE184
:101400002AB80CD0020EF26FE2C0F3F011EC05F036
:10141000B40EF66E010EF76E74EC05F02AA80CD02F
:10142000020EF26FE2C0F3F011EC05F0C80EF66E9A
:10143000010EF76E74EC05F0E15106080CE1020EA6
:10144000F26FE2C0F3F011EC05F0DC0EF66E010E67
:10145000F76E74EC05F0000C0150E0C0E6F0640E8D
:10146000E76F14DF00C0E0F00150300E07E1E1A3A8
:101470000DD0E1B70BD0E1B9200E03D0E197E1998F
:10148000E181012601C0F1F045EC05F0E0C0E6F095
:101490000A0EE76FFBDE00C0E0F00150300E06E1FF
:1014A000E1B709D0E1A107D0E1B9200E012601C0C2
:1014B000F1F045EC05F0300EE027E0C0F1F045EC2E
:1014C00005F0000CEACFE8F0E9CFE7F0E139F009E8
:1014D000E36FE327E20FE46F320FE66FE1510F0B8A
:1014E000E427E427E627E90FE56FE527E527E0395C
:1014F0000F0BE527E627E537E637E61FE637E0512D
:101500000F0BE627E337070EE26F0A0EE507E62723
:10151000FDE3E407E527FDE3E307E427FDE3E20756
:10152000E327FDE3EA6AE20EE96E070EE715E79DA1
:10153000E926E60EE95CD8B4E78DEF50006E08E1CD
:10154000E7BD06D0E7B914D0E7B702D0200E03D02C
:10155000E787E799300E0026EACFE1F0E9CFE0F027
:1015600000C0F1F045EC05F0E1C0EAFFE0C0E9FFA2
:10157000EE50E7ADDED7A8EF1AF0F135006E003679
:10158000FC0E001600C001F0C250C30B0010C26E6A
:101590000A0EF76F7CEC04F0C282C2B2FED7C4CF51
:1015A00003F0C3CFF8F0C4CFF9F0B7EC05F003C0F7
:1015B000F5F002C0F4F001C0F3F000C0F2F0F2C0A8
:1015C00000F0F3C001F0F4C002F0F5C003F0000C2D
:1015D000F451D8B471D0006EF851D8B46DD0002653
:1015E00004E3810E002668E204D07F0E005E64E30F
:1015F00063E0F5C0FCF0F951FC1BF58FF98FF75152
:10160000FB03F4CFFEF0F651FA03F4CF03F0F3CF6F
:10161000FDF0FB03F350FE27F450FD23000E0322E0
:10162000F751FA03F350FE27F450FD23000E026A2F
:1016300003220222F551FB03F350FD27F45003224D
:10164000000E0222F551FA03F3500326F450022251
:10165000000E016A0122F751F903F350FD27F450FF
:101660000322000E02220122F651F903F350032651
:10167000F4500222000E0122F551F903F350022624
:10168000F4500122002A01BE05D0FD370336023690
:1016900001360006000EFDAF0AD0032A0222012205
:1016A000015005E1025003E1035001E1002AFCBFB3
:1016B000018EFCAF019E04D0006A016A026A036ACF
:1016C000000CF551D8B4DAD00101016F0001F951D5
:1016D000D8B4D4D00101015F07E37F0E0127D8A061
:1016E00002D00001CBD00AD0810E015FD8B002D069
:1016F0000001C4D0D8A402D00001C0D001C100F0C4
:10170000016A026A036A006BF6C0FFF00001FF8FF6
:10171000F7C0FEF0F8C0FDF0190E0101016F0001E5
:10172000FC51FD5F12E2010EFE5F0FE2FF5F0DE272
:101730000101005FD8A002D0000107D0002B0001FA
:10174000FF2BFE2BFC51FD2736D0FB51FE5F19E22B
:10175000010EFF5F16E20101005FD8A002D0000178
:1017600010D0002B0001FF2BFB51FE27FC51FD2761
:1017700022E3FE2B20E1FF2B1EE10101002B0001E3
:101780001AD0FA518009FF5F15E2010E0101005FD6
:10179000D8A002D000010ED0002B0001FA51800920
:1017A000FF27FB51FE27E2E3FF2BE0E10101002BC5
:1017B0000001DCD703800101012F01D00DD0D890AA
:1017C0000001FD37FE37FF3701010037D89003369F
:1017D000023601360237A3D702A106D0D8900132D3
:1017E00002320332023304D0002E02D0000146D070
:1017F00002BF29D0D8900001FD37FE37FF37010125
:1018000000370001FC51FD5F09E2010EFE5F06E2B8
:10181000FF5F04E20101005F24E30001FB51FE5F72
:1018200007E2010EFF5F04E20101005F1AE300011D
:10183000FA518009FF5FD8A002D0010104D0010E47
:101840000101005F0EE3032A0CE1022A0AE1012AEA
:1018500008E1002AD8A402D0000110D001320232DF
:101860000332F6C001F10001FA510101011B01AF81
:1018700002D0018E08D0019E06D00001006A016AE4
:10188000026A036A01010001000C800ED8B2FD1B40
:101890000101026B036BF9C001F10001FD5101016F
:1018A000011B0001F851D8B4E1D00101006F006EB6
:1018B0000001FC51D8B4E4D00101005FD8B483D05A
:1018C0003DE3FDC006F1068FFEC005F1FFC004F147
:1018D000036BD8900633053304330333002FF8D756
:1018E00001AF03D00281E1D0029100910289EA6A3E
:1018F000FB0EE96EEDD0029901BF0AD000A113D012
:101900000633053304330333002AD8B4C9D00BD0CF
:1019100006BF0CD0D89003370437053706370006CA
:10192000D8B4BED0F5D7028D6DD0029DF9C001F1BB
:1019300001AF02D0068FADD0069FABD0FCC000F146
:10194000FCC000F00001F8510101005FF9C006F190
:10195000068FFAC005F1FBC004F1036BD890063383
:10196000053304330333002FF8D701AF03D00283CC
:101970009CD002930091028BEA6AFF0EE96EA8D018
:10198000029B01BF0AD000A113D0063305330433F4
:101990000333002AD8B484D00BD006BF0CD0D89023
:1019A00003370437053706370006D8B479D0F5D7A2
:1019B000028F28D0029FFDC001F101AF02D0068F37
:1019C00068D0069F66D0FDC006F1068FFEC005F107
:1019D000FFC004F101AF04D0069F028566D00295D6
:1019E000036B0091EA6AFB0EE96E72D001BF1CD056
:1019F000F9C001F100A106D00633053304330333E7
:101A0000002A4EE003AF0BD0042B09E1052B07E1C0
:101A1000062B05E1063305330433002A41E002BDFD
:101A200084D702BFC7D71CD0800E061B06AF04D0D8
:101A30003CD0FDC001F10AD0F9C001F1065306E126
:101A4000055304E1045302E1006A23D006BF08D025
:101A5000D8900337043705370637002EF7D720D044
:101A600001AF02D0068F15D0069F13D0FCC000F046
:101A7000FDC006F1FEC005F1FFC004F1010109D06F
:101A8000F8C000F0F9C006F1FAC005F1FBC004F19E
:101A9000010106C101F005C102F004C103F034D018
:101AA000006A016A026A036A2FD0036B041F051FD4
:101AB000061F031F032B05E1042B03E1052B01E1A6
:101AC000062B02B111D702B354D702B588D7B1D7CC
:101AD000EF50042705E3052B03E1062BD8B4008162
:101AE000ED52EF50052703E3062BD8B40081ED52E9
:101AF000EF50EFBE01D0800A0627D8B0008102B9AE
:101B0000FAD602BB3DD772D70001000CE46BE36B41
:101B1000E26BE16BE86BE76BE66BE56BEC6BEB6B39
:101B2000EA6BE96BF06BEF6BEE6BED6BF16B25DD48
:101B300003C0B0F002C0AFF001C0AEF000C0ADF025
:101B4000B0C0F7F0AFC0F6F0AEC0F5F0ADC0F4F045
:101B5000FB6BFA6B200EF96F810EF86F39DD00C058
:101B6000F1F001C0F2F002C0F3F003C0F4F003C0E2
:101B7000F8F002C0F7F001C0F6F000C0F5F0FC6B21
:101B8000C00EFB6F7F0EFA6F880EF96F9ADD03C0EF
:101B9000ECF002C0EBF001C0EAF000C0E9F0C0C018
:101BA000F0F0BFC0EFF0BEC0EEF0BDC0EDF0F0C091
:101BB000F7F0EFC0F6F0EEC0F5F0EDC0F4F0FB6B1F
:101BC000FA6B200EF96F810EF86F02DD00C0F1F0A4
:101BD00001C0F2F002C0F3F003C0F4F003C0F8F06B
:101BE00002C0F7F001C0F6F000C0F5F0FC6BC00ECB
:101BF000FB6F7F0EFA6F880EF96F63DD03C0E8F0AC
:101C000002C0E7F001C0E6F000C0E5F0D882ECC009
:101C1000FBF0EBC0FAF0EAC0F9F0E9C0F8F0E8C078
:101C2000FFF0E7C0FEF0E6C0FDF0E5C0FCF02DDE01
:101C300003C0B4F002C0B3F001C0B2F000C0B1F014
:101C4000B4C0F7F0B3C0F6F0B2C0F5F0B1C0F4F034
:101C5000FB6BFA6BF96BF86B21EC07F004E3B46BE8
:101C6000B36BB26BB16B010EE05D3F5C02E001E370
:101C70003F6A3F50040DF350036A5D0FE96E000E9A
:101C80000320EA6EB1C0EFFFB2C0ECFFB3C0ECFFBF
:101C9000B4C0ECFF3F2A406A010EE05D405C01E009
:101CA00035E24050040DF350036A5D0FE96E000EFB
:101CB0000320EA6EEFCF00F0ECCF01F0ECCF02F0A2
:101CC000ECCF03F0EACFF2F0E9CFF1F0D892E4C024
:101CD000FBF0E3C0FAF0E2C0F9F0E1C0F8F003C0B5
:101CE000FFF002C0FEF001C0FDF000C0FCF0CDDD51
:101CF000F2C0EAFFF1C0E9FF03C0E4F002C0E3F084
:101D000001C0E2F000C0E1F0402AC6D7F96BE0C0A4
:101D1000F8F0B7EC05F0E4C0F8F0E3C0F7F0E2C08B
:101D2000F6F0E1C0F5F003C0FCF002C0FBF001C02A
:101D3000FAF000C0F9F0C5DC03C0E4F002C0E3F043
:101D400001C0E2F000C0E1F0E1C000F0E2C001F04B
:101D5000E3C002F0E4C003F0000CF151B608F16FEB
:101D6000036AF2C0F5F0F28FD890F233F333F43314
:101D70000332023201320032F12FF6D7F5AF0BD029
:101D8000001E011E021E031E002AD8B4012AD8B468
:101D9000022AD8B4032A32EF0FF0006A016A026AFD
:101DA000036AF96BFA6BFB6BFC6BF851F711F611D8
:101DB000F5112CE0200EFD6FD890F137F237F33794
:101DC000F437F937FA37FB37FC37F851FC5D08E197
:101DD000F751FB5D05E1F651FA5D02E1F551F95D60
:101DE0000FE3F551F95FF651D8A0F63DFA5FF751D0
:101DF000D8A0F73DFB5FF851D8A0F83DFC5FD88034
:101E00000036013602360336FD2FD6D7EA6AF90EC0
:101E1000E96E000CE950E96FE851EB6F1AE0E7C09A
:101E2000F7F0E6C0F6F0E5C0F5F0E4C0F4F0FB6BC7
:101E3000FA6B200EF96F820EF86FE8EC0AF003C01F
:101E4000E7F002C0E6F001C0E5F000C0E4F0EB2FDF
:101E5000E6D7E7C0F4F0E6C0F3F0E5C0F2F0E4C086
:101E6000F1F07BD703C0E7F002C0E6F001C0E5F077
:101E700000C0E4F0E7AF0DD0E907E98BE41FE51FF0
:101E8000E61FE71FE42BD8B4E52BD8B4E62BD8B473
:101E9000E72B3B0EF06F9A0EEF6FCA0EEE6FED6BF5
:101EA0000A0EEB6FE851D8B4E92BE7C0F4F0E6C0B6
:101EB000F3F0E5C0F2F0E4C0F1F0F0C0F8F0EFC0EC
:101EC000F7F0EEC0F6F0EDC0F5F067DF0150EFCFB0
:101ED000E4F0ECCFE5F0ECCFE6F0ECCFE7F0005229
:101EE0000FE1E829EB5D0CE0E9510CE00F0BEB5D35
:101EF00001E03BE2E9BF39D0E9BD04D0200E30D08B
:101F0000200EE917E9AB0DD0E99BE851D8A4E90709
:101F10000050E96F2D0EF16F45EC05F0E951006EB0
:101F2000E96BE851EB5D0BE10050E96F2E0EF16FAC
:101F300045EC05F0E951006E200EE917000E300E59
:101F4000E9AB0ED0E99BE851D8A4E9070050E96F4E
:101F50002D0EF16F45EC05F0E951006EE96B300E86
:101F6000002600C0F1F045EC05F0F0C0F4F0EFC041
:101F7000F3F0EEC0F2F0EDC0F1F0F86BF76BF66B3A
:101F80000A0EF56F0ADF03C0F0F002C0EFF001C0E7
:101F9000EEF000C0EDF0EB2F88D7000C8E0E006E37
:101FA000F451005EF5C002F0F6C001F0028E00525E
:101FB00009E0D890025202E1015204E002320132FB
:101FC000002EF7D7F5AF05D0011E021E012AD8B4A6
:101FD000022A000CF391E7C0ECF0E6C0EBF0E5C09C
:101FE000EAF0E4C0E9F0E7C0F7F0E6C0F6F0E5C0DB
:101FF000F5F0E4C0F4F0FB6BFA6BF96BF86B21ECD5
:1020000007F004E3F381EA51800AEA6FECC0F7F0CD
:10201000EBC0F6F0EAC0F5F0E9C0F4F0FB6BFA6B48
:10202000F96B8E0EF86F21EC07F001E218E1ECC0BD
:10203000F7F0EBC0F6F0EAC0F5F0E9C0F4F0AEDF7F
:1020400002C0F9F001C0F8F0B7EC05F003C0F0F001
:1020500002C0EFF001C0EEF000C0EDF0C7D0ECC060
:10206000F7F0EBC0F6F0EAC0F5F0E9C0F4F0800E4E
:10207000FB6F960EFA6F180EF96F960EF86F21EC43
:1020800007F0D8A0ABD0ECC0F8F0EBC0F7F0EAC096
:10209000F6F0E9C0F5F0FC6BFB6BFA6B8E0EF96F96
:1020A00061EC0BF003C0F7F002C0F6F001C0F5F0F0
:1020B00000C0F4F073DF02C0F2F001C0F1F0ECC038
:1020C000F8F0EBC0F7F0EAC0F6F0E9C0F5F0FC6B11
:1020D000FB6BFA6B8E0EF96F61EC0BF000C0F4F045
:1020E00001C0F5F002C0F6F003C0F7F0F2C0F9F05D
:1020F000F1C0F8F0B7EC05F0D882F7C0FBF0F6C0FD
:10210000FAF0F5C0F9F0F4C0F8F003C0FFF002C037
:10211000FEF001C0FDF000C0FCF045EC0CF0F76BE8
:10212000F66BF56B8E0EF46F03C0FBF002C0FAF095
:1021300001C0F9F000C0F8F0E8EC0AF003C0ECF0E0
:1021400002C0EBF001C0EAF000C0E9F0F2C0F9F023
:10215000F1C0F8F0B7EC05F0F76BF66BF56B8E0E8F
:10216000F46F03C0FBF002C0FAF001C0F9F000C048
:10217000F8F0E8EC0AF003C0F0F002C0EFF001C0A4
:10218000EEF000C0EDF0ECC0F7F0EBC0F6F0EAC006
:10219000F5F0E9C0F4F002DF02C0F9F001C0F8F098
:1021A000B7EC05F0D892F0C0FBF0EFC0FAF0EEC04B
:1021B000F9F0EDC0F8F003C0FFF002C0FEF001C07E
:1021C000FDF000C0FCF045EC0CF003C0F0F002C0E4
:1021D000EFF001C0EEF000C0EDF008D0ECC0F0F080
:1021E000EBC0EFF0EAC0EEF0E9C0EDF0ECC0F7F0C4
:1021F000EBC0F6F0EAC0F5F0E9C0F4F0CFDE02C0C3
:10220000F9F001C0F8F0B7EC05F0D882ECC0FBF0B3
:10221000EBC0FAF0EAC0F9F0E9C0F8F003C0FFF053
:1022200002C0FEF001C0FDF000C0FCF045EC0CF077
:1022300003C0ECF002C0EBF001C0EAF000C0E9F02E
:10224000F3A103D0EE51800AEE6FECC0F7F0EBC0C3
:10225000F6F0EAC0F5F0E9C0F4F0FB6BFA6BF96B4D
:10226000F86B21EC07F038E0F3A11AD0E85318E13D
:10227000D882F0C0FBF0EFC0FAF0EEC0F9F0EDC08C
:10228000F8F0FF6BFE6BFD6B7F0EFC6F45EC0CF006
:1022900003C0F0F002C0EFF001C0EEF000C0EDF0BE
:1022A000F3B11AD0E82D18D0D892F0C0FBF0EFC0EF
:1022B000FAF0EEC0F9F0EDC0F8F0FF6BFE6BFD6BCD
:1022C0007F0EFC6F45EC0CF003C0F0F002C0EFF0A5
:1022D00001C0EEF000C0EDF0E7C0F7F0E6C0F6F0A8
:1022E000E5C0F5F0E4C0F4F0FB6BFA6BF96BF86B4A
:1022F00021EC07F004E1F06BEF6BEE6BED6BEDC0E2
:1023000000F0EEC001F0EFC002F0F0C003F093EF78
:1023100011F0E3C0E7F0E2C0E6F0E1C0E5F0E0C0B4
:10232000E4F0E86B57D6000C2A9C928280B203D06E
:10233000928480B405D08A9C939C8A8E939E05D00B
:102340008A9C939C8A9E939E2A9AEEEF20F02A9A6A
:10235000928280A203D0928480A405D08A8C939C20
:102360008A9E939E05D08A9C939C8A9E939E2A9CCB
:10237000F3EF20F08A9C939C8A9E939EF6EF20F0C8
:10238000F86AF1849F90D08E078EEA6AE96A2990F4
:102390002992299429962998299A299C299E2A903C
:1023A0002A922A942A962A982A9A2A9C2A9E2B9024
:1023B0002B922B942C6A070E2D6E020E2E6E0B0E96
:1023C0002F6E020E306E030E316E020E326E336EC1
:1023D000040E346E356A366A376A386A396A3A6A80
:1023E0003B6A3C6A3D6A3E6A3F6A406A416A010E46
:1023F000426E436A446A456A516A526A536A546A31
:10240000556A040E566E5A6A596A5C6A5B6AB06B0A
:10241000AF6BAE6BAD6BB46BB36BB26BB16BB86BD8
:10242000B76BB66BB56BBC6BBB6BBA6BB96BC06B88
:10243000BF6BBE6B800EBD6F2B862B98C26BC16BC2
:10244000C46BC36B2B9A2B9CC66BC56BC76BC86BDD
:10245000CC6BCB6BCA6BC96BD06BCF6BCE6BCD6BC0
:10246000DA6BD96BC150C00B0F09C16E070EB46E89
:102470003E0E466E200E476E5E0E486E496A4A6AF0
:102480004B6A4C6A4D6A4E6A4F6A506A5D6A5E6A70
:102490005F6A606B616B626B636B646B656B666BD1
:1024A000676B686B696B6A6B6B6B6C6B6D6B6E6B80
:1024B0006F6B706B716B726B736B746B756B766B30
:1024C000776B786B796B7A6B7B6B7C6B7D6B7E6BE0
:1024D0007F6B806B816B826B836B846B856B866B90
:1024E000876B886B896B8A6B8B6B8C6B8D6B8E6B40
:1024F0008F6B906B916B926B936B946B956B966BF0
:10250000976B986B996B9A6B9B6B9C6B9D6B9E6B9F
:102510009F6BA06BA16BA26BA36BA46BA56BA66B4F
:10252000A76BA86BA96BAA6BAB6BAC6B8B949494E9
:102530008B929492F3EF04F084EF05F0D2EF05F064
:102540005CEF07F08B9494948B929492C851060898
:1025500006E18B8494948B829492D76AD66AC8538E
:1025600006E18B9494948B929492D76AD66A2C52FB
:10257000D8A405D2010EF26FF36F11EC05F0620ED4
:10258000F66E030EF76E74EC05F0010EF26F020E9C
:10259000F36F11EC05F0780EF66E030EF76E74EC27
:1025A00005F0010EF26F030EF36F11EC05F08E0EC5
:1025B000F66E030EF76E0A0EE46F37EC09F049C0B1
:1025C000E0F01F0EE16F5AEC09F04AC0E0F01F0E78
:1025D000E16F5AEC09F04BC0E0F01F0EE16F5AECCE
:1025E00009F04CC0E0F01F0EE16F5AEC09F0200E2C
:1025F000F16F45EC05F0200EF16F45EC05F02FC0B2
:10260000F2F0040EF36F11EC05F048C0F1F045EC68
:1026100005F02F500B080FE22F500D080CE3010EB0
:102620002F5CE06FF26F040EF36F11EC05F047C002
:10263000F1F045EC05F02B96928A80BA19D0140E71
:10264000F76F7CEC04F0928A80BA11D029B60FD0D3
:102650000B0E2F5C036A490FE96E000E0320EA6E31
:10266000EF2A29861E0EF76F7CEC04F02B8601D032
:102670002996968084B019D0140EF76F7CEC04F084
:10268000968084B011D029BA0FD00B0E2F5C036A4C
:10269000490FE96E000E0320EA6EEF06298A1E0E2E
:1026A000F76F7CEC04F02B8601D0299A968284B2D5
:1026B00015D0140EF76F7CEC04F0968284B20DD026
:1026C00029B80BD029882F2A1E0EF76F7CEC04F056
:1026D0000C0EF16F45EC05F02B8601D029989684FD
:1026E00084B415D0960EF76F7CEC04F0968484B415
:1026F0000DD029BC0BD0298C2F061E0EF76F7CEC59
:1027000004F00C0EF16F45EC05F02B8601D0299CEE
:102710000B0E2F5C036A490FE96E000E0320EA6E70
:10272000EFBE01D00AD00B0E2F5C036A490FE96E91
:10273000000E0320EA6E090EEF6E0B0E2F5C036A8B
:10274000490FE96E000E0320EA6EEFBE0CD0EF5089
:10275000090809E20B0E2F5C036A490FE96E000EAF
:102760000320EA6EEF6A2F500A0802E30B0E2F6E69
:102770002F500E08D8B003D14950030871E14A50D8
:1027800008086EE14B5009086BE14C50020868E103
:10279000A96AA86AA69CA69EA684F250006EF29C26
:1027A000F29E0F01550EA76EAA0EA76EA682A6B2C4
:1027B000FED7A6940050F212140E0001F76F7CECC5
:1027C00004F0010EA96EA86AA69CA69EA684F250EB
:1027D000006EF29CF29E0F01550EA76EAA0EA76E18
:1027E000A682A6B2FED7A6940050F212140E0001E3
:1027F000F76F7CEC04F0020EA96EA86AA69CA69E58
:10280000A684F250006EF29CF29E0F01550EA76E48
:10281000AA0EA76EA682A6B2FED7A6940050F21208
:10282000140E0001F76F7CEC04F0030EA96EA86A89
:10283000A69CA69EA684F250006EF29CF29E0F010A
:10284000550EA76EAA0EA76EA682A6B2FED7A694B4
:102850000050F212140E0001F76F7CEC04F0FF0040
:102860004D50495C4FE14E504A5C4CE14F504B5C3F
:1028700049E150504C5C46E1010EF26FF36F11ECF0
:1028800005F0A40EF66E030EF76E74EC05F0010E63
:10289000F26F020EF36F11EC05F0B80EF66E030E38
:1028A000F76E74EC05F0010EF26F030EF36F11EC8E
:1028B00005F0CC0EF66E030EF76E74EC05F0010E0B
:1028C000F26F040EF36F11EC05F0E00EF66E030EDE
:1028D000F76E74EC05F0040EE06FFA0EF76F7CEC07
:1028E00004F0E02FFAD7320E2C6E0B0E2F6E0C0E6A
:1028F000F16F45EC05F02B86496A4A6A4B6A4C6ACF
:102900002B863DD0010EF26FF36F11EC05F0010E36
:10291000F26F020EF36F11EC05F0F40EF66E030E7B
:10292000F76E74EC05F0010EF26F030EF36F11EC0D
:1029300005F0080EF66E040EF76E74EC05F0010E4D
:10294000F26F040EF36F11EC05F01C0EF66E040E20
:10295000F76E74EC05F0040EE06FFA0EF76F7CEC86
:1029600004F0E02FFAD70B0E2F6E0C0EF16F45EC32
:1029700005F02B86496A4A6A4B6A4C6A2B862C2CD6
:102980001BD102EC00F0010EF26FF36F11EC05F0B9
:10299000300EF66E040EF76E74EC05F0010E452451
:1029A000E06FE16F020EE26FC2EC09F0020E452407
:1029B000E06FE16F030EE26FC2EC09F0030E4524F5
:1029C000E06FE16F040EE26FC2EC09F0010EF26FEE
:1029D00030C0F3F011EC05F046C0F1F045EC05F025
:1029E0003050020814E1010EF26F040EF36F11EC87
:1029F00005F047C0F1F045EC05F0010EF26F030E53
:102A0000F36F11EC05F047C0F1F045EC05F03050E4
:102A1000040814E1010EF26F020EF36F11EC05F0E1
:102A200047C0F1F045EC05F0010EF26F030EF36FB5
:102A300011EC05F047C0F1F045EC05F0305003080B
:102A400014E1010EF26F040EF36F11EC05F047C0B4
:102A5000F1F045EC05F0010EF26F020EF36F11EC90
:102A600005F047C0F1F045EC05F02B96928A80BA4C
:102A700015D0140EF76F7CEC04F0928A80BA0DD05A
:102A800029B60BD032063006010E3024316E29866D
:102A90001E0EF76F7CEC04F02B8601D029969680F1
:102AA00084B015D0140EF76F7CEC04F0968084B0DF
:102AB0000DD029BA0BD0322A302A010E305C316E8B
:102AC000298A1E0EF76F7CEC04F02B8601D0299A20
:102AD0003250345C08E2452A32C034F0020E345CD5
:102AE000336E040E306E3350325C08E2450632C05D
:102AF00033F0020E3324346E020E306E32502D5CF1
:102B000009E22EC032F0020E306E456A32C033F058
:102B10003324346E2E50325C0BE22DC032F0040EA2
:102B2000306E2D5C456E32C034F0020E345C336E74
:102B300045BE01D001D0456A968284B223D0140EDE
:102B4000F76F7CEC04F0968284B21AD029B818D0C2
:102B5000298832C02CF0030E306E020EE06F960E04
:102B6000F76F7CEC04F0E02FFAD70C0EF16F45EC18
:102B700005F02C50060804E1496A4A6A4B6A4C6A1F
:102B80002B8601D02998968484B416D0140EF76F42
:102B90007CEC04F0968484B40FD0020EE06FFA0E41
:102BA000F76F7CEC04F0E02FFAD7320E2C6E0C0E8F
:102BB000F16F45EC05F02B862C500208D8A42CD1DF
:102BC00002EC00F0010EF26FF36F11EC05F0460E0F
:102BD000F66E040EF76E74EC05F0010EF26F020E45
:102BE000F36F11EC05F05C0EF66E040EF76E74ECEC
:102BF00005F0060EF26F030EF36F11EC05F03DC009
:102C0000E0F0030EE16F2CEC0AF03A0EF16F45ECA8
:102C100005F03EC0E0F0010EE16F2CEC0AF07B0EF7
:102C2000F66E040EF76E080EE46F37EC09F0060E30
:102C30004224E06FF26F040EF36F11EC05F048C010
:102C4000F1F045EC05F02B96928A80BA26D0140E4E
:102C5000F76F7CEC04F0928A80BA1FD0422C0DD022
:102C60003D50EF080AE3050E3D26020EE06F960E7A
:102C7000F76F7CEC04F0E02FFAD7425004080CE127
:102C80003E503A0809E33E2A020EE06F960EF76FB7
:102C90007CEC04F0E02FFAD72B86968084B024D009
:102CA000140EF76F7CEC04F0968084B01DD0422C9B
:102CB0000CD03D520AE0050E3D5E020EE06F960E0E
:102CC000F76F7CEC04F0E02FFAD7425004080BE1D8
:102CD0003E5209E03E06020EE06F960EF76F7CEC66
:102CE00004F0E02FFAD72B86968284B21ED0140E01
:102CF000F76F7CEC04F0968284B217D0422C03D09C
:102D0000040E426E05D04250040802E1010E426EEC
:102D1000020EE06FFA0EF76F7CEC04F0E02FFAD7AA
:102D20000C0EF16F45EC05F02B86968484B474D0BC
:102D3000968484B471D0C80EF76F7CEC04F00C0E4E
:102D4000F16F45EC05F0010EF26F020EF36F11EC1E
:102D500005F0840EF66E040EF76E74EC05F0010EAD
:102D6000F26F030EF36F11EC05F0960EF66E040E83
:102D7000F76E74EC05F0050EA96E3DC0A8FFA69C89
:102D8000A69EA684F250006EF29CF29E0F01550E94
:102D9000A76EAA0EA76EA682A6B2FED7A694005072
:102DA000F212140E0001F76F7CEC04F0060EA96E0F
:102DB0003EC0A8FFA69CA69EA684F250006EF29C80
:102DC000F29E0F01550EA76EAA0EA76EA682A6B29E
:102DD000FED7A6940050F212140E0001F76F7CEC9F
:102DE00004F03DC03BF03EC03CF0040EE06FAF0E7F
:102DF000F76F7CEC04F0E02FFAD71E0EF76F7CEC37
:102E000004F0010E2C6E456A020E306E326E0C0E0E
:102E1000F16F45EC05F02B862C500308D8A4A5D102
:102E200002EC00F0010EF26FF36F11EC05F0A80E4A
:102E3000F66E040EF76E74EC05F0010EF26F020EE2
:102E4000F36F11EC05F0BE0EF66E040EF76E74EC27
:102E500005F0010EF26F030EF36F11EC05F0D40EC6
:102E6000F66E040EF76E0A0EE46F37EC09F049C0F7
:102E7000E0F01F0EE16F5AEC09F04AC0E0F01F0EBF
:102E8000E16F5AEC09F04BC0E0F01F0EE16F5AEC15
:102E900009F04CC0E0F01F0EE16F5AEC09F0200E73
:102EA000F16F45EC05F0200EF16F45EC05F02FC0F9
:102EB000F2F0040EF36F11EC05F048C0F1F045ECB0
:102EC00005F02F500B080FE22F500D080CE3010EF8
:102ED0002F5CE06FF26F040EF36F11EC05F047C04A
:102EE000F1F045EC05F02B96928A80BA19D0140EB9
:102EF000F76F7CEC04F0928A80BA11D029B60FD01B
:102F00000B0E2F5C036A490FE96E000E0320EA6E78
:102F1000EF2A29861E0EF76F7CEC04F02B8601D079
:102F20002996968084B019D0140EF76F7CEC04F0CB
:102F3000968084B011D029BA0FD00B0E2F5C036A93
:102F4000490FE96E000E0320EA6EEF06298A1E0E75
:102F5000F76F7CEC04F02B8601D0299A968284B21C
:102F600015D0140EF76F7CEC04F0968284B20DD06D
:102F700029B80BD029882F2A1E0EF76F7CEC04F09D
:102F80000C0EF16F45EC05F02B8601D02998968444
:102F900084B415D0960EF76F7CEC04F0968484B45C
:102FA0000DD029BC0BD0298C2F061E0EF76F7CECA0
:102FB00004F00C0EF16F45EC05F02B8601D0299C36
:102FC0000B0E2F5C036A490FE96E000E0320EA6EB8
:102FD000EFBE01D00AD00B0E2F5C036A490FE96ED9
:102FE000000E0320EA6E090EEF6E0B0E2F5C036AD3
:102FF000490FE96E000E0320EA6EEFBE0CD0EF50D1
:10300000090809E20B0E2F5C036A490FE96E000EF6
:103010000320EA6EEF6A2F500A0810E30B0E2F6EA2
:10302000010E2C6E456A496A4A6A4B6A4C6A2B86C5
:103030000B0E2F6E0C0EF16F45EC05F02F500E08A5
:10304000D8B093D04D50495C4EE14E504A5C4BE1B4
:103050004F504B5C48E150504C5C45E1010EF26F23
:10306000F36F11EC05F0EA0EF66E040EF76E74ECD9
:1030700005F0010EF26F020EF36F11EC05F0000E79
:10308000F66E050EF76E74EC05F0010EF26F030E8E
:10309000F36F11EC05F0160EF66E050EF76E74EC7C
:1030A00005F0010EF26F040EF36F11EC05F02C0E1B
:1030B000F66E050EF76E74EC05F0020EE06FFA0E78
:1030C000F76F7CEC04F0E02FFAD73D0E2C6E0B0E60
:1030D0002F6E0C0EF16F45EC05F0496A4A6A4B6A97
:1030E0004C6A2B8642D0010EF26FF36F11EC05F0A3
:1030F000420EF66E050EF76E74EC05F0010EF26FDF
:10310000020EF36F11EC05F0580EF66E050EF76E19
:1031100074EC05F0010EF26F030EF36F11EC05F085
:103120006E0EF66E050EF76E74EC05F0010EF26F82
:10313000040EF36F11EC05F0840EF66E050EF76EBB
:1031400074EC05F0020EE06FFA0EF76F7CEC04F001
:10315000E02FFAD70B0E2F6E0C0EF16F45EC05F039
:103160002B86496A4A6A4B6A4C6A2C503D08D8A49F
:10317000C8D102EC00F0010EF26FF36F11EC05F014
:103180009A0EF66E050EF76E74EC05F0010EF26FF6
:10319000020EF36F11EC05F0B00EF66E050EF76E31
:1031A00074EC05F0010EF26F030EF36F11EC05F0F5
:1031B000C60EF66E050EF76E0A0EE46F37EC09F0D8
:1031C00049C0E0F01F0EE16F5AEC09F04AC0E0F090
:1031D0001F0EE16F5AEC09F04BC0E0F01F0EE16FDB
:1031E0005AEC09F04CC0E0F01F0EE16F5AEC09F008
:1031F000200EF16F45EC05F0200EF16F45EC05F067
:103200002FC0F2F0040EF36F11EC05F048C0F1F09E
:1032100045EC05F02F500B080FE22F500D080CE382
:10322000010E2F5CE06FF26F040EF36F11EC05F0EE
:1032300047C0F1F045EC05F02B96928A80BA19D080
:10324000140EF76F7CEC04F0928A80BA11D029B684
:103250000FD00B0E2F5C036A490FE96E000E03209E
:10326000EA6EEF2A29861E0EF76F7CEC04F02B869F
:1032700001D02996968084B019D0140EF76F7CEC9B
:1032800004F0968084B011D029BA0FD00B0E2F5CB9
:10329000036A490FE96E000E0320EA6EEF06298AE1
:1032A0001E0EF76F7CEC04F02B8601D0299A9682D3
:1032B00084B211D0968284B20DD029B80BD029885F
:1032C0002F2A1E0EF76F7CEC04F00C0EF16F45EC0C
:1032D00005F02B8601D02998968484B415D0960EDB
:1032E000F76F7CEC04F0968484B40DD029BC0BD02D
:1032F000298C2F061E0EF76F7CEC04F00C0EF16F7C
:1033000045EC05F02B8601D0299C0B0E2F5C036A3F
:10331000490FE96E000E0320EA6EEFBE01D00AD01D
:103320000B0E2F5C036A490FE96E000E0320EA6E54
:10333000090EEF6E0B0E2F5C036A490FE96E000E4B
:103340000320EA6EEFBE0CD0EF50090809E20B0E25
:103350002F5C036A490FE96E000E0320EA6EEF6AE4
:103360002F500A080FE30B0E2F6E010E2C6E496AC8
:103370004A6A4B6A4C6A2B860B0E2F6E0C0EF16F4D
:1033800045EC05F02F500E08D8B0BBD0010EF26FFF
:10339000F36F11EC05F0DC0EF66E050EF76E74ECB3
:1033A00005F0010EF26F020EF36F11EC05F0F20E54
:1033B000F66E050EF76E74EC05F0010EF26F030E5B
:1033C000F36F11EC05F0080EF66E060EF76E74EC56
:1033D00005F0010EF26F040EF36F11EC05F01E0EF6
:1033E000F66E060EF76E74EC05F0A96A49C0A8FFE8
:1033F000A69CA69EA684F250006EF29CF29E0F013F
:10340000550EA76EAA0EA76EA682A6B2FED7A694E8
:103410000050F212140E0001F76F7CEC04F0010E64
:10342000A96E4AC0A8FFA69CA69EA684F250006E74
:10343000F29CF29E0F01550EA76EAA0EA76EA682F1
:10344000A6B2FED7A6940050F212140E0001F76F38
:103450007CEC04F0020EA96E4BC0A8FFA69CA69EB1
:10346000A684F250006EF29CF29E0F01550EA76EDC
:10347000AA0EA76EA682A6B2FED7A6940050F2129C
:10348000140E0001F76F7CEC04F0030EA96E4CC023
:10349000A8FFA69CA69EA684F250006EF29CF29E07
:1034A0000F01550EA76EAA0EA76EA682A6B2FED772
:1034B000A6940050F212140E0001F76F7CEC04F099
:1034C000020EE06FFA0EF76F7CEC04F0E02FFAD7F3
:1034D000010E2C6E456A020E306E326E49C04DF000
:1034E0004AC04EF04BC04FF04CC050F0496A4A6A97
:1034F0004B6A4C6A2B860B0E2F6E0C0EF16F45EC4F
:1035000005F02C500408D8A40DD102EC00F0010EF7
:10351000F26FF36F11EC05F0340EF66E060EF76ED7
:1035200074EC05F0010EF26F020EF36F11EC05F072
:103530004A0EF66E060EF76E0B0EE46F37EC09F0CE
:10354000080EE96E5AC0E1F059C0E0F062EF0AF0EF
:10355000200EF16F45EC05F0200EF16F45EC05F003
:10356000200EF16F45EC05F0010EF26F040EF36FC3
:1035700011EC05F05E0EF66E060EF76E74EC05F0BB
:103580002B96928A80BAACD0968284B2A9D0140EBF
:10359000F76F7CEC04F0928A80BAA2D0968284B253
:1035A0009FD0C80EF76F7CEC04F00C0EF16F45EC69
:1035B00005F0010EF26F020EF36F11EC05F0740EC0
:1035C000F66E060EF76E74EC05F0010EF26F030E48
:1035D000F36F11EC05F0860EF66E060EF76E74ECC6
:1035E00005F0070EA96EA86AA69CA69EA684F250B6
:1035F000006EF29CF29E0F01550EA76EAA0EA76EEA
:10360000A682A6B2FED7A6940050F212140E0001B4
:10361000F76F7CEC04F0080EA96EA86AA69CA69E23
:10362000A684F250006EF29CF29E0F01550EA76E1A
:10363000AA0EA76EA682A6B2FED7A6940050F212DA
:10364000140E0001F76F7CEC04F0090EA96EA86A55
:10365000A69CA69EA684F250006EF29CF29E0F01DC
:10366000550EA76EAA0EA76EA682A6B2FED7A69486
:103670000050F212140E0001F76F7CEC04F00A0EF9
:10368000A96EA86AA69CA69EA684F250006EF29C23
:10369000F29E0F01550EA76EAA0EA76EA682A6B2C5
:1036A000FED7A6940050F212040E0001E06FAF0E98
:1036B000F76F7CEC04F0E02FFAD7356A366A5A6A65
:1036C000596A1E0EF76F7CEC04F0010E2C6E456AF1
:1036D000020E306E326E0C0EF16F45EC05F02B864B
:1036E000968484B41ED0140EF76F7CEC04F096849C
:1036F00084B416D029BC14D0298C020EE06FFA0EC7
:10370000F76F7CEC04F0E02FFAD7010E2C6E456ABF
:10371000020E306E326E0C0EF16F45EC05F02B860A
:1037200001D0299C2C500508D8A42CD102EC00F023
:10373000010EF26FF36F11EC05F0980EF66E060EA7
:10374000F76E74EC05F0010EF26F020EF36F11ECE0
:1037500005F0050EE06F86EC0DF000C0E0F001C052
:10376000E1F002C0E2F003C0E3F003C0F7F002C0F2
:10377000F6F001C0F5F000C0F4F0D70EFB6FA30E19
:10378000FA6FF96B810EF86FE8EC0AF000C0E0F018
:1037900001C0E1F002C0E2F003C0E3F0AE0EF66E4D
:1037A000060EF76E090EE46F37EC09F0020EE96EB3
:1037B000E3C0E7F0E2C0E6F0E1C0E5F0E0C0E4F02D
:1037C000E86F0AEC0FF0BC0EF66E060EF76E070EF1
:1037D000E46F37EC09F0010EF26F030EF36F11EC9A
:1037E00005F0F16BBDEC0AF000C0E0F001C0E1F0C3
:1037F00002C0E2F003C0E3F0C40EF66E060EF76EF0
:10380000080EE46F37EC09F0010EE96EE3C0E7F053
:10381000E2C0E6F0E1C0E5F0E0C0E4F0E86B0AECFD
:103820000FF0010EF26F040EF36F11EC05F0D20EE3
:10383000F66E060EF76E070EE46F37EC09F0010E18
:10384000E96EC0C0E7F0BFC0E6F0BEC0E5F0BDC0A5
:10385000E4F0E86B0AEC0FF02B96968284B272D0FB
:10386000140EF76F7CEC04F0968284B26AD029B80B
:1038700068D0010E2C6E456A020E306E326E0B0E51
:103880002F6E020EE06FFA0EF76F7CEC04F0E02F63
:10389000FAD70C0EF16F45EC05F0F16BBDEC0AF0B8
:1038A00003C0C0F002C0BFF001C0BEF000C0BDF058
:1038B000C0C0F7F0BFC0F6F0BEC0F5F0BDC0F4F078
:1038C000CEEC0FF002C05CF001C05BF05BC039F0E1
:1038D0005CC03AF00B0EA96E39C0A8FFA69CA69E4C
:1038E000A684F250006EF29CF29E0F01550EA76E58
:1038F000AA0EA76EA682A6B2FED7A6940050F21218
:10390000140E0001F76F7CEC04F00C0EA96E3AC0A7
:10391000A8FFA69CA69EA684F250006EF29CF29E82
:103920000F01550EA76EAA0EA76EA682A6B2FED7ED
:10393000A6940050F212140E0001F76F7CEC04F014
:103940002B8601D02998968484B41BD0140EF76F6F
:103950007CEC04F0968484B413D029BC11D0010E01
:103960002C6E456A020E306E326E0B0E2F6E1E0EDE
:10397000F76F7CEC04F00C0EF16F45EC05F02B8634
:1039800001D0299C2C500608D8A494D02A782988E4
:10399000010E2C6E456A2AA830D02A88010EF26FDB
:1039A000F36F11EC05F0E00EF66E060EF76E74EC98
:1039B00005F0010EF26F020EF36F11EC05F0F60E3A
:1039C000F66E060EF76E74EC05F0010EF26F030E44
:1039D000F36F11EC05F00C0EF66E070EF76E74EC3B
:1039E00005F0010EF26F040EF36F11EC05F0220EDC
:1039F000F66E070EF76E74EC05F02AB830D02A98F0
:103A0000010EF26FF36F11EC05F0380EF66E070E33
:103A1000F76E74EC05F0010EF26F020EF36F11EC0D
:103A200005F04E0EF66E070EF76E74EC05F0010E03
:103A3000F26F030EF36F11EC05F0640EF66E070ED5
:103A4000F76E74EC05F0010EF26F040EF36F11ECDB
:103A500005F07A0EF66E070EF76E74EC05F0000EA8
:103A60002AB8010EE06F040EA96EE0C0A8FFA69C64
:103A7000A69EA684F250006EF29CF29E0F01550E97
:103A8000A76EAA0EA76EA682A6B2FED7A694005075
:103A9000F212040E0001E06FFA0EF76F7CEC04F0F6
:103AA000E02FFAD7020E306E326E0C0EF16F45EC3D
:103AB00005F02B862C500708D8A4CBD0565006080A
:103AC00002E2060E566E565202E1010E566E010ECD
:103AD000F26FF36F11EC05F0900EF66E070EF76EB5
:103AE00074EC05F0010EF26F020EF36F11EC05F0AD
:103AF000A60EF66E070EF76E74EC05F0010EF26F6F
:103B0000030EF36F11EC05F0BC0EF66E070EF76EA8
:103B10000A0EE46F37EC09F056C0E0F01B0EE16FBF
:103B20002CEC0AF0C80EF66E070EF76E070EE46F67
:103B300037EC09F0010EF26F040EF36F11EC05F093
:103B4000D00EF66E070EF76E74EC05F0928A80BA0E
:103B500008D05650050805E3C80EF76F7CEC04F05A
:103B6000562A968084B007D0565205E0C80EF76FEB
:103B70007CEC04F05606968284B202D056C0C8F09F
:103B8000968484B466D0640EF76F7CEC04F0020E69
:103B9000306E326E0C0EF16F45EC05F00D0EA96E15
:103BA00056C0A8FFA69CA69EA684F250006EF29C6A
:103BB000F29E0F01550EA76EAA0EA76EA682A6B2A0
:103BC000FED7A6940050F212140E0001F76F7CECA1
:103BD00004F0010EF26FF36F11EC05F0E60EF66ED5
:103BE000070EF76E74EC05F0010EF26F020EF36F24
:103BF00011EC05F0FC0EF66E070EF76E74EC05F096
:103C0000010EF26F030EF36F11EC05F0120EF66E5B
:103C1000080EF76E74EC05F0010EF26F040EF36FF0
:103C200011EC05F0280EF66E080EF76E74EC05F038
:103C3000040EE06FFA0EF76F7CEC04F0E02FFAD779
:103C40000C0EF16F45EC05F0C4EC04F0010E2C6E87
:103C5000456A2C503208D8A43CD32AA011D12A900E
:103C6000080EE06F86EC0DF003C0BCF002C0BBF0A4
:103C700001C0BAF000C0B9F0010EF26FF36F11ECA1
:103C800005F0BCC0F7F0BBC0F6F0BAC0F5F0B9C0A3
:103C9000F4F0D70EFB6FA30EFA6FF96B810EF86F7D
:103CA000E8EC0AF000C0E0F001C0E1F002C0E2F090
:103CB00003C0E3F03E0EF66E080EF76E080EE46FDA
:103CC00037EC09F0020EE96EE3C0E7F0E2C0E6F07F
:103CD000E1C0E5F0E0C0E4F0E86F0AEC0FF04B0E55
:103CE000F66E080EF76E070EE46F37EC09F0BCC0F5
:103CF000F8F0BBC0F7F0BAC0F6F0B9C0F5F08F0E1F
:103D0000FC6FC20EFB6F750EFA6F7C0EF96F61ECE3
:103D10000BF000C0E0F001C0E1F002C0E2F003C02F
:103D2000E3F003C0F7F002C0F6F001C0F5F000C008
:103D3000F4F0FB6BFA6B300EF96F820EF86FE8EC63
:103D40000AF003C0B8F002C0B7F001C0B6F000C07E
:103D5000B5F0F76BF66B300EF56F820EF46FB8C0EE
:103D6000FBF0B7C0FAF0B6C0F9F0B5C0F8F021EC3E
:103D700007F006E3B86BB76B300EB66F820EB56F07
:103D8000416AB8C0E3F0B7C0E2F0B6C0E1F0B5C038
:103D9000E0F089EC11F000C0E0F001C0E1F002C0F9
:103DA000E2F003C0E3F0F96B41C0F8F0B7EC05F0C6
:103DB00003C0F7F002C0F6F001C0F5F000C0F4F067
:103DC000E3C0FBF0E2C0FAF0E1C0F9F0E0C0F8F0C7
:103DD00021EC07F00EE3080E4124E06FF26F020EB3
:103DE000F36F11EC05F0D10EF16F45EC05F0412AAF
:103DF000C8D7B8C0E3F0B7C0E2F0B6C0E1F0B5C0D4
:103E0000E0F089EC11F003C0F7F002C0F6F001C059
:103E1000F5F000C0F4F0CEEC0FF001C041F04150DD
:103E20000A080EE3080E4124E06FF26F020EF36FF2
:103E300011EC05F0200EF16F45EC05F0412AEFD7AB
:103E4000090EF26F030EF36F11EC05F0540EF66ECF
:103E5000080EF76E060EE46F37EC09F03BC0E0F099
:103E6000030EE16F2CEC0AF03A0EF16F45EC05F011
:103E70003CC0E0F0010EE16F2CEC0AF002EC00F027
:103E800029AE4CD02AA845D00C0EF16F45EC05F0B8
:103E9000010EF26F020EF36F11EC05F0640EF66E78
:103EA000080EF76E74EC05F0010EF26F030EF36F5F
:103EB00011EC05F07A0EF66E080EF76E74EC05F054
:103EC000010EF26F040EF36F11EC05F0900EF66E1A
:103ED000080EF76E74EC05F0010EF26FF36F11EC43
:103EE00005F0A60EF66E080EF76E74EC05F0416A4A
:103EF000415004080EE38B809490C80EF76F7CEC61
:103F000004F08B909490C80EF76F7CEC04F0412A7B
:103F1000EFD7299E0C0EF16F45EC05F01F0EF76FE1
:103F2000850EF66F6B0EF56F7C0EF46FBCC0FBF068
:103F3000BBC0FAF0BAC0F9F0B9C0F8F021EC07F054
:103F400001E203E1010E516E03D0516A8B9094900F
:103F5000010EF26F020EF36F11EC05F0BC0EF66E5F
:103F6000080EF76E74EC05F029A40DD0010EF26F67
:103F7000040EF36F11EC05F0C40EF66E080EF76E2A
:103F800074EC05F00CD0010EF26F040EF36F11EC1F
:103F900005F0CE0EF66E080EF76E74EC05F029A053
:103FA0000DD00D0EF26F040EF36F11EC05F0D80E6C
:103FB000F66E080EF76E74EC05F00CD00D0EF26F75
:103FC000040EF36F11EC05F0E00EF66E080EF76EBE
:103FD00074EC05F029A20DD0010EF26F030EF36F01
:103FE00011EC05F0E80EF66E080EF76E74EC05F0B5
:103FF0000CD0010EF26F030EF36F11EC05F0F00E12
:10400000F66E080EF76E74EC05F02B9629A415D009
:104010002BB810D0060EC86FC4EC04F0C80EF76FB2
:104020007CEC04F0C4EC04F02B882B86C80EF76FF0
:104030007CEC04F056C0C8F00DD0C86B2BA80AD099
:10404000C4EC04F0C80EF76F7CEC04F0C4EC04F090
:104050002B982B8629A20FD08A9893982AB40AD03D
:10406000C4EC04F0C80EF76F7CEC04F0C4EC04F070
:104070002A842B860ED08A8893982AA40AD0C4EC6E
:1040800004F0C80EF76F7CEC04F0C4EC04F02A9442
:104090002B8629A017D08A969396299E2994C86BBF
:1040A00029928A8893982AB20CD0C4EC04F0C80EE6
:1040B000F76F7CEC04F0C4EC04F02A82010E446E2D
:1040C0002B8611D029908A8693962AA20CD0C4EC14
:1040D00004F0C80EF76F7CEC04F0C4EC04F02A92F4
:1040E000010E446E2B86968084B01CD029862BB29C
:1040F00018D0020EE06FFA0EF76F7CEC04F0E02FA0
:10410000FAD7968084B002D02B820BD029722986F0
:10411000020EE06F960EF76F7CEC04F0E02FFAD7FA
:104120002B8602D02B922996968284B215D0140E3B
:10413000F76F7CEC04F0968284B20DD029BA0BD0D4
:1041400029742988020EE06F960EF76F7CEC04F05C
:10415000E02FFAD72B8601D0299A968484B40DD00B
:10416000140EF76F7CEC04F0968484B406D0960E9F
:10417000F76F7CEC04F029702B86928A80BA28D0E5
:1041800029882BB424D0020EE06FFA0EF76F7CEC76
:1041900004F0E02FFAD7928A80BA02D02B8417D08D
:1041A000C80EF76F7CEC04F00C0EF16F45EC05F0D7
:1041B000020EE06F960EF76F7CEC04F0E02FFAD75A
:1041C000010E2C6E456A020E306E326E2B8602D0C6
:1041D0002B9429982BA403D094EF11F007D02BA295
:1041E00003D0A7EF11F002D0BAEF11F0442C65D044
:1041F000070EA96E35C0A8FFA69CA69EA684F25005
:10420000006EF29CF29E0F01550EA76EAA0EA76ECD
:10421000A682A6B2FED7A6940050F212080EA96E8E
:1042200036C0A8FFA69CA69EA684F250006EF29C03
:10423000F29E550EA76EAA0EA76EA682A6B2FED754
:10424000A6940050F21259C037F05AC038F0090E47
:10425000A96E37C0A8FFA69CA69EA684F2CF00F048
:10426000F29CF29E550EA76EAA0EA76EA682A6B26B
:10427000FED7A6940050F212140E0001F76F7CECEA
:1042800004F00A0EA96E38C0A8FFA69CA69EA684BC
:10429000F250006EF29CF29E0F01550EA76EAA0E10
:1042A000A76EA682A6B2FED7A6940050F212140EF4
:1042B0000001F76F7CEC04F0446A35503B0802E2E1
:1042C000356A362A36503C0804E1366A592AD8B491
:1042D0005A2A43503B080CE20C0EF16F45EC05F0F6
:1042E000C4EC04F0C80EF76F7CEC04F0436A2B8634
:0642F000A6EF12F003002E
:020000040030CA
:0E0000003C0E391E000180000FC00FE00F40C3
:00000001FF
;PIC18F4550
;CRC=0610  CREATED="07-sept.-20 15:30"
