:060000000AEF12F0000CF3
:0800080053EF00F000000000BE
:100010000000000000000000046ED8CF05F0E0CF23
:1000200006F00001E9CF0CF0EACF07F0E1CF08F0CD
:10003000E2CF09F0D9CF0AF0DACF0BF0F3CF12F00C
:10004000F4CF13F0FACF14F000C00EF001C00FF09F
:1000500002C010F003C011F09DA032EF00F09EB07E
:1000600079EF01F00EC000F00FC001F010C002F0F7
:1000700011C003F00CC0E9FF07C0EAFF078E08C0FB
:10008000E1FF09C0E2FF0AC0D9FF0BC0DAFF12C0CE
:10009000F3FF13C0F4FF14C0FAFF045006C0E0FFE2
:1000A00005C0D8FF1000166ED8CF17F0E0CF18F0BB
:1000B0000001E9CF1EF0EACF19F0E1CF1AF0E2CF4C
:1000C0001BF0D9CF1CF0DACF1DF0F3CF24F0F4CF22
:1000D00025F0FACF26F000C020F001C021F002C0C8
:1000E00022F003C023F0F2AA79EF00F0F2B460EF3F
:1000F00001F0F2A87FEF00F0F2B224EF01F020C08F
:1001000000F021C001F022C002F023C003F01EC0A5
:10011000E9FF19C0EAFF198E1AC0E1FF1BC0E2FF18
:100120001CC0D9FF1DC0DAFF24C0F3FF25C0F4FFB7
:1001300026C0FAFF165018C0E0FF17C0D8FF100005
:10014000F2CF0DF0F29CF29EF76A600FF66E010E90
:10015000F7220900F5500DBCF28C0DBEF28E120094
:10016000280C010654656D706F72697A61646F7254
:10017000205556202020200043616D62696F204386
:100180006F6E7472617365F1612020005469656D52
:10019000706F2054726162616A6F20555620200092
:1001A00050756E746F204365726F202020202020D0
:1001B00020202000416C61726D61202020202020D1
:1001C000202020204F464600416C61726D61202046
:1001D0002020202020202020204F4E0056656C6FCC
:1001E00063696461642020202020202020202000DA
:1001F000434142494E4120464C554A4F204C414DC7
:10020000494E4152000020202020202056455254C3
:100210004943414C20202020202000002020202085
:100220004A502020494E474C4F42414C202020202C
:10023000000020202020205245463A4A50435634A0
:1002400038202020202000002B8AD051050808E10A
:10025000D76AE40ED66E8B9494948B9294922AD0A3
:10026000D051040808E1D76AC90ED66E8B949494D5
:100270008B9294921FD0D051030808E1D76AC40E24
:10028000D66E8B9494948B92949214D0D051020891
:1002900008E1D76ABC0ED66E8B9494948B9294929C
:1002A00009D0D02D07D0D76AB40ED66E8B94949413
:1002B0008B929492C12BD8B4C22BF2927FEF00F0B4
:1002C000D05314E0D051050811E32BAA09D08B8438
:1002D00094948B829492D76AFD0ED66E2B9A06D098
:1002E0008B9494948B929492D76AD66AF2947FEF0F
:1002F00000F0B10ECF6EE00ECE6E572AD8B4582A59
:10030000585203E15750C7084DE2928A80BA04D090
:10031000C52BD8B4C62B02D0C66BC56B968084B0F3
:1003200004D0C72BD8B4C82B02D0C86BC76B968239
:1003300084B204D0C92BD8B4CA2B02D0CA6BC96B03
:10034000968484B404D0CB2BD8B4CC2B02D0CC6B05
:10035000CB6B92968976586A576A432A2A80512C29
:100360000AD02AB603D08B90949004D02AA802D049
:100370008B8094902A7629A015D0352A29BE12D0D8
:100380003C5202E03C060ED03B5204E03B063B0EE2
:100390003C6E08D0298E29908A8693963DC03BF00A
:1003A0003EC03CF09E9032EF00F0202020202049FB
:1003B0006E677265736520202020202020200000B9
:1003C00020202020436F6E7472617365F1612020DC
:1003D00020202020000020202020434C4156453D75
:1003E0002569256925692569202000002020202015
:1003F000202020202020202020202020202020001D
:100400002020202020436F6E7472617365F161209B
:1004100020202000202020202020436F727265635E
:100420007461202020202000202020202020202057
:1004300020202020202020202020200020202020DC
:1004400020436F6E7472617365F16120202020007B
:100450002020202020496E636F72726563746120D2
:1004600020202000202020202020202020202020AC
:1004700020202020202020002D2D2D4D454E5520C0
:100480005052494E434950414C2D2D2D0000202003
:10049000202054656D706F72697A61646F722020DC
:1004A00020202000202020202020204C757A20555C
:1004B00056202020202020202000253033753A258A
:1004C00030327520284D3A53292020005469656D3B
:1004D000706F20416C6D6163656E61646F002020F8
:1004E000436F7272656374616D656E746520200080
:1004F0002020202020496E6772657365202020200F
:1005000020202020000020202020436F6E74726184
:100510007365F16120202020202000002020202071
:10052000434C4156453D25692569256925692020AB
:1005300000002020202020202020202020202020FB
:1005400020202020202000002020202020436F6E2B
:100550007472617365F1612020202020000020204A
:1005600020202020436F7272656374612020202058
:1005700020200000202020202020202020202020BB
:1005800020202020202020200000202020202020AB
:10059000202020202020202020202020202000009B
:1005A0002020202020436F6E7472617365F16120FA
:1005B0002020202000002020202020496E636F7220
:1005C00072656374612020202020000020202020FC
:1005D000202020202020202020202020202020201B
:1005E0000000202020496E6772657365204E756596
:1005F00076612020202000002020202020436F6EE4
:100600007472617365F16120202020200000202099
:100610002020434C4156453D2569256925692569BA
:10062000202000002020202020202020202020200A
:1006300020202020202020200000202020202043D7
:100640006F6E7472617365F16120202020200000BC
:100650002020202020416C6D6163656E6164612003
:1006600020202020000020202020202020202020CA
:100670002020202020202020202000002020447541
:10068000726163696F6E2041637475616C20202014
:1006900000002020205469656D706F3D20253035A5
:1006A0004C75202020002052455345543D204F706A
:1006B00072696D61205E2079203E200020526573B2
:1006C0006574206465207469656D706F200020205A
:1006D000202020457869746F736F2020202020002F
:1006E00020205A65726F20506F696E7420436F6EC0
:1006F00066696720000050726573696F6E3D202542
:10070000332E326620696E48324F20002020202090
:100710004144433D25322E306600202020205A4699
:100720003D25322E30660000202020202020202071
:1007300020202020202020202020202000002020F9
:1007400020202020202041637469766F2020202003
:10075000202000002020202020202020416C6172D9
:100760006D6120202020202000002020202020203B
:1007700020202020202020202020202020200000B9
:100780002020202020202020202020202020202069
:10079000202020200000202020202020446573619C
:1007A000637469766F202020202000002020202004
:1007B000202020416C61726D6120202020202020AB
:1007C0000000202020202020202020202020202069
:1007D000202020202020000053656C656363696F32
:1007E0006E652056656C6F6369646164000020204B
:1007F0002064656C2056656E74696C61646F72204C
:1008000020200000202020202056656C3A202575ED
:1008100020202020202020002020202020202020F8
:100820002020202020202020202020200000202008
:1008300020202020202020202020202020202020B8
:1008400020200000202020202056656C6F63696402
:100850006164202020202020000020202020202053
:10086000416C6D6163656E61646120202020000031
:100870002020202020202020202020202020202078
:100880002020202000004A5043522044503A253373
:100890002E326620696E48324F20000054656D701C
:1008A0006F3A253033753A25303275002020546573
:1008B0006D706F72697A61646F72202064652020A8
:1008C0000000204C757A205556202046696E616CD8
:1008D000697A61646F2000002020202020202020E1
:1008E0002020202020202020202020200000202048
:1008F00020202020202020202020202020202020F8
:100900002020000046696C74726F3A004D6F746F5E
:10091000723A4F4E20004D6F746F723A4F46460048
:1009200055563A4F4E20000055563A4F4646000065
:100930004C757A3A4F4E20004C757A3A4F46460035
:10094000EA6AFF0EE96EEF500EE0050E016E006AD6
:10095000002EFED7012EFBD72E0E006E002EFED7E6
:1009600000D0EF2EF2D7000C01010039F00B006E21
:100970000F0E83140010836E090E006E002EFED73A
:1009800000D08386490E006E002EFED783960001AC
:10099000000C8392010EFF6FD3DFFDA18392FDB1A6
:1009A0008382090E006E002EFED700D08394090EBC
:1009B000006E002EFED700D08396FE39FF6F0F0E1B
:1009C000FF17FFC000F1D0DFFE510F0BFF6FE8CF24
:1009D00000F1CADF000C000E956E8392839483961B
:1009E0000F0EFF6FADDF010EE86FE85103080AE359
:1009F000030E0101006F0001B7DF050EFF6FA0DFDE
:100A0000E82BF3D7020E0101006F0001ADDFE86BA8
:100A1000E851030812E3036AE851F2CFE9F0F29CCF
:100A2000F29EA0EC00F0E9BDF28CE9BFF28EE96F16
:100A3000FD6BFE6FAEDFE82BEBD7000CC80EFF6F2F
:100A40007FDFC9DFFF0E926E966EC00EF212F28843
:100A5000F18CC70ED56EF28A850ECD6E9D80C15089
:100A6000C00B0E09C16EC090C082C094C08EC280FF
:100A7000C00EF212EEEF12F0010EFB5DFC0F0FE262
:100A8000040F57EF05F0800EFC6F09D0C00EFC6F0D
:100A900006D0940EFC6F03D0D40EFC6F00D0010E74
:100AA000FA5DFC27FD6BFCC0FEF073DF000CF2CF9B
:100AB0000DF0F29CF29EE824F76AF736D90FF66E35
:100AC0000A0EF7220A00F550FA6E0800F5500DBC28
:100AD000F28C0DBEF28EF96E860A8C0A920A980A82
:100AE000F951F10802E1EE0EF96FF951D10802E176
:100AF000FF0EF96FF9510C0A05E0060A0DE0020A33
:100B000012E016D0FD6B010EFE6F43DF010E286E62
:100B1000020EFF6F15DF12D0282A010EFA6F28C0CF
:100B2000FBF0AADF0BD0FD6B100EFE6F32DF06D09C
:100B3000010EFD6FF9C0FEF02CDF00D0000C0900A3
:100B4000F5520CE0F6CFEBF0F7CFECF0F5CFF9F083
:100B5000C7DFEBC0F6FFECC0F7FFF1D7000C010ECA
:100B6000FA6FFB6F89DFF00EF66E010EF76EE7DFAE
:100B7000010EFA6F020EFB6F7FDF060EF66E020E9D
:100B8000F76EDDDF010EFA6F030EFB6F75DF1C0ED3
:100B9000F66E020EF76ED3DF010EFA6F040EFB6FD6
:100BA0006BDF320EF66E020EF76EC9DF080EE86FCD
:100BB000FA0EFF6FC5DEE82FFBD70C0EF96F90DF42
:100BC000F0EF12F08E0E006E01C101F000C102F0D4
:100BD000036A015209E102C001F0026A080E005ED8
:100BE000015202E1006A08D0D89001BE04D002365A
:100BF00001360006F9D7019E000CF2CFE8F0F29C16
:100C0000F29EA96AA69CA69EA680A850E8BDF28C7A
:100C1000E8BFF28E4D6E140EFF6F92DEF2CFE8F059
:100C2000F29CF29E010EA96EA69CA69EA680A850DC
:100C3000E8BDF28CE8BFF28E4E6E140EFF6F80DEC0
:100C4000F2CFE8F0F29CF29E020EA96EA69CA69E40
:100C5000A680A850E8BDF28CE8BFF28E4F6E140E4D
:100C6000FF6F6EDEF2CFE8F0F29CF29E030EA96EEB
:100C7000A69CA69EA680A850E8BDF28CE8BFF28E86
:100C8000506E140EFF6F5CDEF2CFE8F0F29CF29E25
:100C9000040EA96EA69CA69EA680A850E8BDF28C64
:100CA000E8BFF28E016E2A9801B02A88140EFF6FF9
:100CB00047DEF2CFE8F0F29CF29E050EA96EA69CEC
:100CC000A69EA680A850E8BDF28CE8BFF28E3B6ECF
:100CD000140EFF6F35DEF2CFE8F0F29CF29E060EA6
:100CE000A96EA69CA69EA680A850E8BDF28CE8BF7F
:100CF000F28E3C6E140EFF6F23DEF2CFE8F0F29C12
:100D0000F29E070EA96EA69CA69EA680A850E8BDDE
:100D1000F28CE8BFF28E356E140EFF6F11DEF2CF4B
:100D2000E8F0F29CF29E080EA96EA69CA69EA680F4
:100D3000A850E8BDF28CE8BFF28E366E140EFF6F3D
:100D4000FFDDF2CFE8F0F29CF29E090EA96EA69CA0
:100D5000A69EA680A850E8BDF28CE8BFF28E376E42
:100D6000140EFF6FEDDDF2CFE8F0F29CF29E0A0E5A
:100D7000A96EA69CA69EA680A850E8BDF28CE8BFEE
:100D8000F28E386E140EFF6FDBDDF2CFE8F0F29CCE
:100D9000F29E0B0EA96EA69CA69EA680A850E8BD4A
:100DA000F28CE8BFF28E396E140EFF6FC9DDF2CF00
:100DB000E8F0F29CF29E0C0EA96EA69CA69EA68060
:100DC000A850E8BDF28CE8BFF28E3A6E140EFF6FA9
:100DD000B7DDF2CFE8F0F29CF29E0D0EA96EA69C54
:100DE000A69EA680A850E8BDF28CE8BFF28E566E93
:100DF000140EFF6FA5DDF2CFE8F0F29CF29E0F0E0D
:100E0000A96EA69CA69EA680A850E8BDF28CE8BF5D
:100E1000F28E526E140EFF6F93DDF2CFE8F0F29C6B
:100E2000F29E100EA96EA69CA69EA680A850E8BDB4
:100E3000F28CE8BFF28E536E140EFF6F81DDF2CF9D
:100E4000E8F0F29CF29E110EA96EA69CA69EA680CA
:100E5000A850E8BDF28CE8BFF28E546E140EFF6FFE
:100E60006FDD3AC05CF039C05BF05CC001F15BC083
:100E700000F1A8DE03C0C0F002C0BFF001C0BEF0A8
:100E800000C0BDF038C05AF037C059F03BC03DF04B
:100E90003CC03EF0F2EF12F0FDC004F1010101513F
:100EA000041B04AF06D0D894D8900001FDBFD880B1
:100EB00044D0FDC004F100C105F10001FC51010165
:100EC000055F09E004BF02D0000137D0D850010A05
:100ED000D86E000132D001C105F10001FD510101C0
:100EE000055F09E004BF02D0000127D0D850010AF5
:100EF000D86E000122D002C105F10001FE510101AE
:100F0000055F09E004BF02D0000117D0D850010AE4
:100F1000D86E000112D003C105F10001FF5101019B
:100F2000055F0AE004BF02D0000107D0D850010AD3
:100F3000D86E000102D00101D8900001000C4DBE16
:100F400003D04D50090802E34DAE19D04D6AA96A8D
:100F5000A86AA69CA69EA684F250006EF29CF29E01
:100F60000F01550EA76EAA0EA76EA682A6B2FED7D7
:100F7000A6940050F212140E0001FF6FE1DC4EBE89
:100F800003D04E50090803E34EBE01D01AD04E6A7A
:100F9000010EA96EA86AA69CA69EA684F250006EB9
:100FA000F29CF29E0F01550EA76EAA0EA76EA682A6
:100FB000A6B2FED7A6940050F212140E0001FF6FE5
:100FC000BFDC4FBE03D04F50090803E34FBE01D032
:100FD0001AD04F6A020EA96EA86AA69CA69EA68485
:100FE000F250006EF29CF29E0F01550EA76EAA0EF3
:100FF000A76EA682A6B2FED7A6940050F212140ED7
:101000000001FF6F9DDC50BE03D05050090803E380
:1010100050BE01D01AD0506A030EA96EA86AA69CD1
:10102000A69EA684F250006EF29CF29E0F01550E11
:10103000A76EAA0EA76EA682A6B2FED7A6940050EF
:10104000F212140E0001FF6F7BDC000E2AB8010EB5
:1010500001081BE22A88040EA96E010EA86EA69C48
:10106000A69EA684F250006EF29CF29E0F01550ED1
:10107000A76EAA0EA76EA682A6B2FED7A6940050AF
:10108000F212140E0001FF6F5BDC3B50C8081CE23B
:10109000140E3B6E050EA96E140EA86EA69CA69E9D
:1010A000A684F250006EF29CF29E0F01550EA76EC0
:1010B000AA0EA76EA682A6B2FED7A6940050F21280
:1010C000140E0001FF6F3CDC3C503B081AE23C6A06
:1010D000060EA96EA86AA69CA69EA684F250006E73
:1010E000F29CF29E0F01550EA76EAA0EA76EA68265
:1010F000A6B2FED7A6940050F212140E0001FF6FA4
:101100001FDC35503C081AE2356A070EA96EA86A42
:10111000A69CA69EA684F250006EF29CF29E0F0141
:10112000550EA76EAA0EA76EA682A6B2FED7A694EB
:101130000050F212140E0001FF6F02DC36503C0822
:101140001BE2366A080EA96EA86AA69CA69EA68413
:10115000F250006EF29CF29E0F01550EA76EAA0E81
:10116000A76EA682A6B2FED7A6940050F212140E65
:101170000001FF6FA0EC04F05A5026083CE2FF0A81
:1011800003E15950100837E25A6A596A090EA96EEC
:101190000A0EA86EA69CA69EA684F250006EF29C33
:1011A000F29E0F01550EA76EAA0EA76EA682A6B2DA
:1011B000FED7A6940050F212140E0001FF6FA0ECAF
:1011C00004F00A0EA96EA86AA69CA69EA684F250F8
:1011D000006EF29CF29E0F01550EA76EAA0EA76E2E
:1011E000A682A6B2FED7A6940050F212140E0001F9
:1011F000FF6FA0EC04F0C0C0FFF0BFC0FEF0BEC0A7
:10120000FDF0BDC0FCF00101036B026B610E016FCC
:10121000870E006F000140DE10E2FF6BFE6B160EC2
:10122000FD6F880EFC6FC0C003F1BFC002F1BEC0ED
:1012300001F1BDC000F130DE3DE3C06B800EBF6F39
:101240007F0EBE6F870EBD6F0B0EA96EFF0EA86ED0
:10125000A69CA69EA684F250006EF29CF29E0F0100
:10126000550EA76EAA0EA76EA682A6B2FED7A694AA
:101270000050F212140E0001FF6FA0EC04F00C0EEF
:10128000A96E010EA86EA69CA69EA684F250006EC2
:10129000F29CF29E0F01550EA76EAA0EA76EA682B3
:1012A000A6B2FED7A6940050F212140E0001FF6FF2
:1012B000A0EC04F0565006081DE2040E566E0D0E0A
:1012C000A96E040EA86EA69CA69EA684F250006E7F
:1012D000F29CF29E0F01550EA76EAA0EA76EA68273
:1012E000A6B2FED7A6940050F212140E0001FF6FB2
:1012F000A0EC04F0F4EF12F00900F6CFEDF0F7CF18
:10130000EEF0F5CFF9F070EC05F0EDC0F6FFEEC0B1
:10131000F7FFEC2FF1D7000CEF51016AEE5D03E20D
:10132000EEC000F00CD0006A080EF06FEE37003609
:10133000EF51005CD8B0006E0136F02FF7D7000CEB
:10134000200EE9A9300EEA6FE8C000F0E8AF07D040
:10135000001E002A00C0E8F02D0EEA6FE98F015050
:10136000E8C0EEF0640EEF6FD7DF00C0E8F0300E9B
:101370000124EB6FE8C0EEF00A0EEF6FCDDF300E08
:101380000024ED6F300E0124EC6FEAC000F0E9A7F5
:1013900002D0E9AFE995E9B90BD0E9AF22D0E9B5C0
:1013A00020D000C0EBF0E9B31CD000C0ECF019D0A5
:1013B000300EEB5D16E100C0EBF0200EEA6FE9A7FE
:1013C00004D0E995E983E9AFE993300EEC5D09E1DA
:1013D00000C0ECF0200EEB6FE9A7F7D7E993E9AF77
:1013E000E991E9A504D0EAC0F9F070EC05F0E9A3B1
:1013F00004D0EBC0F9F070EC05F0E9A104D0ECC02A
:10140000F9F070EC05F0EDC0F9F070EC05F0000CAF
:10141000E92D0CD0020EFA6FEAC0FBF03CEC05F0AF
:10142000640EF66E010EF76E9FEC05F0E9510208AE
:101430000CE1020EFA6FEAC0FBF03CEC05F0780E0E
:10144000F66E010EF76E9FEC05F0E95103080CE112
:10145000020EFA6FEAC0FBF03CEC05F08C0EF66E63
:10146000010EF76E9FEC05F0E95104080CE1020E45
:10147000FA6FEAC0FBF03CEC05F0A00EF66E010E30
:10148000F76E9FEC05F0E95105081CE12AB80CD075
:10149000020EFA6FEAC0FBF03CEC05F0B40EF66EFB
:1014A000010EF76E9FEC05F02AA80CD0020EFA6F21
:1014B000EAC0FBF03CEC05F0C80EF66E010EF76ECC
:1014C0009FEC05F0E95106080CE1020EFA6FEAC044
:1014D000FBF03CEC05F0DC0EF66E010EF76E9FECB7
:1014E00005F0000C0150E8C0EEF0640EEF6F14DF61
:1014F00000C0E8F00150300E07E1E9A30DD0E9B7D4
:101500000BD0E9B9200E03D0E997E999E9810126CA
:1015100001C0F9F070EC05F0E8C0EEF00A0EEF6FD4
:10152000FBDE00C0E8F00150300E06E1E9B709D05B
:10153000E9A107D0E9B9200E012601C0F9F070EC4D
:1015400005F0300EE827E8C0F9F070EC05F0000C6B
:10155000EACFF0F0E9CFEFF0E939F009EB6FEB27D4
:10156000E20FEC6F320FEE6FE9510F0BEC27EC2717
:10157000EE27E90FED6FED27ED27E8390F0BED278B
:10158000EE27ED37EE37EE1FEE37E8510F0BEE2763
:10159000EB37070EEA6F0A0EED07EE27FDE3EC07C7
:1015A000ED27FDE3EB07EC27FDE3EA07EB27FDE37F
:1015B000EA6AEA0EE96E070EEF15EF9DE926EE0ED8
:1015C000E95CD8B4EF8DEF50006E08E1EFBD06D0B6
:1015D000EFB914D0EFB702D0200E03D0EF87EF9908
:1015E000300E0026EACFE9F0E9CFE8F000C0F9F0CC
:1015F00070EC05F0E9C0EAFFE8C0E9FFEE50EFAD9E
:10160000DED7FAEF1AF0F935006E0036FC0E001640
:1016100000C001F0C250C30B0010C26E0A0EFF6F73
:10162000A0EC04F0C282C2B2FED7C4CF01F1C3CF96
:1016300000F10001E2EC05F003C0FDF002C0FCF097
:1016400001C0FBF000C0FAF0FAC000F0FBC001F0EE
:10165000FCC002F0FDC003F0000CFC51D8B490D0E7
:10166000006E01010051D8A402D0000189D00026EB
:1016700007E3810E0026D8A002D0000181D00AD055
:101680007F0E005ED8B002D000017AD0D8A402D07C
:10169000000176D0FDC004F10151041B0001FD8F53
:1016A0000101018F0001FF5101010303F4CF06F195
:1016B0000001FE5101010203F4CF03F0F3CF05F165
:1016C0000303F3500627F4500523000E0322000104
:1016D000FF5101010203F3500627F4500523000EC9
:1016E000026A032202220001FD5101010303F350AB
:1016F0000527F4500322000E02220001FD510101D2
:101700000203F3500326F4500222000E016A012264
:101710000001FF5101010103F3500527F45003229A
:10172000000E022201220001FE5101010103F350CB
:101730000326F4500222000E01220001FD51010196
:101740000103F3500226F4500122002A01BE05D005
:1017500005370336023601360006000E05AF0AD003
:10176000032A02220122015005E1025003E1035045
:1017700001E1002A04BF018E04AF019E06D00001E2
:10178000006A016A026A036A01010001000CFD514E
:10179000D8B4B4D00101096F0151D8A402D000011E
:1017A000ADD0095F07E37F0E0927D8A002D0000162
:1017B000A5D00AD0810E095FD8B002D000019ED01A
:1017C000D8A402D000019AD009C100F0016A026ACF
:1017D000036A086BFEC007F1078FFFC006F100C166
:1017E00005F1190E096F0451055F0DE2010E065F48
:1017F0000AE2075F08E2085F06E2082B072B062BC8
:101800000451052728D00351065F12E2010E075F3D
:101810000FE2085F0DE2082B072B03510627045146
:10182000052719E3062B17E1072B15E1082B13D029
:1018300002518009075F0EE2010E085F0BE2082BE0
:1018400002518009072703510627E9E3072BE7E147
:10185000082BE5D70380092F01D00BD0D89005378E
:10186000063707370837D8900336023601360A376D
:10187000BAD70AA106D0D8900132023203320A3315
:1018800004D0002E02D0000139D00ABF1ED0D8905B
:1018900005370637073708370451055F07E2010EA1
:1018A000065F04E2075F02E2085F1DE30351065F83
:1018B00005E2010E075F02E2085F15E302518009AD
:1018C000075F03E2010E085F0EE3032A0CE1022A20
:1018D0000AE1012A08E1002AD8A402D000010ED0B2
:1018E000013202320332FEC009F10251091B09AF75
:1018F00002D0018E08D0019E06D00001006A016A64
:10190000026A036A01010001000C800ED8A202D015
:101910000101051B01010A6B0B6B01C109F10551A6
:10192000091B0051D8B4DFD0086F006E0451D8B441
:10193000E3D0085FD8B483D03EE305C10EF10E8F2B
:1019400006C10DF107C10CF10B6BD8900E330D33AE
:101950000C330B33082FF8D709AF03D00A81E0D03E
:101960000A9108910A89010EEA6E030EE96EEBD026
:101970000A9909BF0AD008A113D00E330D330C33D6
:101980000B33002AD8B4C7D00BD00EBF0CD0D890E0
:101990000B370C370D370E370006D8B4BCD0F5D74F
:1019A0000A8D6DD00A9D01C109F101AF02D00E8FE1
:1019B000ABD00E9FA9D004C108F104C100F00051C2
:1019C000085F01C10EF10E8F02C10DF103C10CF1D0
:1019D0000B6BD8900E330D330C330B33082FF8D725
:1019E00009AF03D00A839CD00A9308910A8B010E99
:1019F000EA6E070EE96EA7D00A9B09BF0AD008A1BC
:101A000013D00E330D330C330B33002AD8B483D0EC
:101A10000BD00EBF0CD0D8900B370C370D370E37CC
:101A20000006D8B478D0F5D70A8F29D00A9F05C10F
:101A300009F105AF02D00E8F67D00E9F65D005C1AA
:101A40000EF10E8F06C10DF107C10CF109AF04D0E4
:101A50000E9F0A8565D00A950B6B0891010EEA6E00
:101A6000030EE96E70D009BF1CD001C109F108A1B5
:101A700006D00E330D330C330B33002A4CE00BAF82
:101A80000BD00C2B09E10D2B07E10E2B05E10E33DA
:101A90000D330C33002A3FE00ABD84D70ABFC6D7F6
:101AA0001CD0800E0E1B0EAF04D03AD005C109F138
:101AB0000AD001C109F10E5306E10D5304E10C53A4
:101AC00002E1006A21D00EBF08D0D8900B370C3746
:101AD0000D370E37002EF7D71ED009AF02D00E8F6C
:101AE00013D00E9F11D004C100F005C10EF106C144
:101AF0000DF107C10CF108D000C100F001C10EF1D9
:101B000002C10DF103C10CF10EC101F00DC102F0D3
:101B10000CC103F034D0006A016A026A036A2FD054
:101B20000B6B0C1F0D1F0E1F0B1F0B2B05E10C2B3E
:101B300003E10D2B01E10E2B0AB112D70AB354D7E2
:101B40000AB589D7B3D7EF500C2705E30D2B03E176
:101B50000E2BD8B40881ED52EF500D2703E30E2B66
:101B6000D8B40881ED52EF50EFBE01D0800A0E27A5
:101B7000D8B008810AB9FCD60ABB3ED774D7000199
:101B8000000CEC6BEB6BEA6BE96BF06BEF6BEE6BE5
:101B9000ED6BF46BF36BF26BF16BF86BF76BF66B51
:101BA000F56BF96B30DD03C0B0F002C0AFF001C0DF
:101BB000AEF000C0ADF0B0C0FFF0AFC0FEF0AEC000
:101BC000FDF0ADC0FCF00101036B026B200E016F54
:101BD000810E006F000141DD00C0F9F001C0FAF094
:101BE00002C0FBF003C0FCF003C000F102C0FFF034
:101BF00001C0FEF000C0FDF00101046BC00E036FD8
:101C00007F0E026F880E016F0001C1DD03C0F4F08A
:101C100002C0F3F001C0F2F000C0F1F0C0C0F8F073
:101C2000BFC0F7F0BEC0F6F0BDC0F5F0F8C0FFF0E1
:101C3000F7C0FEF0F6C0FDF0F5C0FCF00101036B4B
:101C4000026B200E016F810E006F000106DD00C0E7
:101C5000F9F001C0FAF002C0FBF003C0FCF003C0D1
:101C600000F102C0FFF001C0FEF000C0FDF0010174
:101C7000046BC00E036F7F0E026F880E016F0001B0
:101C800086DD03C0F0F002C0EFF001C0EEF000C04E
:101C9000EDF0D882F4C003F1F3C002F1F2C001F11B
:101CA000F1C000F1F0C007F1EFC006F1EEC005F1A0
:101CB000EDC004F12ADE03C0B4F002C0B3F001C0ED
:101CC000B2F000C0B1F0B4C0FFF0B3C0FEF0B2C0DB
:101CD000FDF0B1C0FCF00101036B026B016B006B06
:101CE00000014CEC07F004E3B46BB36BB26BB16B67
:101CF000010EE85D3F5C02E001E33F6A3F50040DE6
:101D0000F350036A5D0FE96E000E0320EA6EB1C066
:101D1000EFFFB2C0ECFFB3C0ECFFB4C0ECFF3F2A52
:101D2000406A010EE85D405C01E035E24050040D80
:101D3000F350036A5D0FE96E000E0320EA6EEFCFE9
:101D400000F0ECCF01F0ECCF02F0ECCF03F0EACFE3
:101D5000FAF0E9CFF9F0D892ECC003F1EBC002F150
:101D6000EAC001F1E9C000F103C007F102C006F1C9
:101D700001C005F100C004F1C8DDFAC0EAFFF9C0F6
:101D8000E9FF03C0ECF002C0EBF001C0EAF000C0D4
:101D9000E9F0402AC6D70101016BE8C000F100015B
:101DA000E2EC05F0ECC000F1EBC0FFF0EAC0FEF0A1
:101DB000E9C0FDF003C004F102C003F101C002F16B
:101DC00000C001F1E4DC03C0ECF002C0EBF001C0A4
:101DD000EAF000C0E9F0E9C000F0EAC001F0EBC0B1
:101DE00002F0ECC003F0000CF951B608F96F036A79
:101DF000FAC0FDF0FA8FD890FA33FB33FC3303328C
:101E0000023201320032F92FF6D7FDAF0BD0001E9F
:101E1000011E021E031E002AD8B4012AD8B4022AC9
:101E2000D8B4032A94EF0FF0006A016A026A036AC9
:101E30000101016B026B036B046B00510001FF1188
:101E4000FE11FD1142E0200E0101056FD890000146
:101E5000F937FA37FB37FC3701010137023703370F
:101E600004370051045D0EE10001FF510101035DE3
:101E700009E10001FE510101025D04E10001FD5193
:101E80000101015D1BE30001FD510101015F000142
:101E9000FE51D8A0FE3D01D003D00101025F000138
:101EA000FF51D8A0FF3D01D003D00101035F000125
:101EB00001010051D8A0003D045FD88000360136F2
:101EC00002360336052FC2D70001010EEA6E010E5D
:101ED000E96E000CE950F16FF051F36F1CE0EFC0B8
:101EE000FFF0EEC0FEF0EDC0FDF0ECC0FCF0010133
:101EF000036B026B200E016F820E006F00012DEC50
:101F00000BF003C0EFF002C0EEF001C0EDF000C036
:101F1000ECF0F32FE4D7EFC0FCF0EEC0FBF0EDC027
:101F2000FAF0ECC0F9F060D703C0EFF002C0EEF0B9
:101F300001C0EDF000C0ECF0EFAF0DD0F107F18B78
:101F4000EC1FED1FEE1FEF1FEC2BD8B4ED2BD8B418
:101F5000EE2BD8B4EF2B3B0EF86F9A0EF76FCA0E2C
:101F6000F66FF56B0A0EF36FF051D8B4F12BEFC09A
:101F7000FCF0EEC0FBF0EDC0FAF0ECC0F9F0F8C0F8
:101F800000F1F7C0FFF0F6C0FEF0F5C0FDF04CDF49
:101F90000150EFCFECF0ECCFEDF0ECCFEEF0ECCF6A
:101FA000EFF000520FE1F029F35D0CE0F1510CE08D
:101FB0000F0BF35D01E03BE2F1BF39D0F1BD04D07E
:101FC000200E30D0200EF117F1AB0DD0F19BF05167
:101FD000D8A4F1070050F16F2D0EF96F70EC05F0E9
:101FE000F151006EF16BF051F35D0BE10050F16FB8
:101FF0002E0EF96F70EC05F0F151006E200EF11706
:10200000000E300EF1AB0ED0F19BF051D8A4F107C9
:102010000050F16F2D0EF96F70EC05F0F151006E6C
:10202000F16B300E002600C0F9F070EC05F0F8C03E
:10203000FCF0F7C0FBF0F6C0FAF0F5C0F9F00101D2
:10204000006B0001FF6BFE6B0A0EFD6FEDDE03C03F
:10205000F8F002C0F7F001C0F6F000C0F5F0F32F81
:1020600086D7000C8E0E006EFC51005EFDC002F0A3
:10207000FEC001F0028E005209E0D890025202E147
:10208000015204E002320132002EF7D7FDAF05D035
:10209000011E021E012AD8B4022A000CFB91EFC0D7
:1020A000F4F0EEC0F3F0EDC0F2F0ECC0F1F0EFC0F0
:1020B000FFF0EEC0FEF0EDC0FDF0ECC0FCF0010161
:1020C000036B026B016B006B00014CEC07F004E347
:1020D000FB81F251800AF26FF4C0FFF0F3C0FEF012
:1020E000F2C0FDF0F1C0FCF00101036B026B016B6B
:1020F0008E0E006F00014CEC07F001E218E1F4C015
:10210000FFF0F3C0FEF0F2C0FDF0F1C0FCF0AADF7A
:1021100002C001F101C000F1E2EC05F003C0F8F0EB
:1021200002C0F7F001C0F6F000C0F5F0CDD0F4C069
:10213000FFF0F3C0FEF0F2C0FDF0F1C0FCF0800E45
:102140000101036F960E026F180E016F960E006F5D
:1021500000014CEC07F0D8A0AFD0F4C000F1F3C000
:10216000FFF0F2C0FEF0F1C0FDF00101046B036B63
:10217000026B8E0E016F0001C7EC0BF003C0FFF085
:1021800002C0FEF001C0FDF000C0FCF06BDF02C039
:10219000FAF001C0F9F0F4C000F1F3C0FFF0F2C0B2
:1021A000FEF0F1C0FDF00101046B036B026B8E0EBB
:1021B000016F0001C7EC0BF000C0FCF001C0FDF0A6
:1021C00002C0FEF003C0FFF0FAC001F1F9C000F157
:1021D000E2EC05F0D882FFC003F1FEC002F1FDC0C1
:1021E00001F1FCC000F103C007F102C006F101C01B
:1021F00005F100C004F185EC0CF0FF6BFE6BFD6B8C
:102200008E0EFC6F03C003F102C002F101C001F1A8
:1022100000C000F12DEC0BF003C0F4F002C0F3F0AD
:1022200001C0F2F000C0F1F0FAC001F1F9C000F114
:10223000E2EC05F0FF6BFE6BFD6B8E0EFC6F03C0D6
:1022400003F102C002F101C001F100C000F12DEC68
:102250000BF003C0F8F002C0F7F001C0F6F000C0C8
:10226000F5F0F4C0FFF0F3C0FEF0F2C0FDF0F1C0F5
:10227000FCF0F8DE02C001F101C000F1E2EC05F073
:10228000D892F8C003F1F7C002F1F6C001F1F5C031
:1022900000F103C007F102C006F101C005F100C062
:1022A00004F185EC0CF003C0F8F002C0F7F001C0B7
:1022B000F6F000C0F5F008D0F4C0F8F0F3C0F7F085
:1022C000F2C0F6F0F1C0F5F0F4C0FFF0F3C0FEF09C
:1022D000F2C0FDF0F1C0FCF0C5DE02C001F101C0AA
:1022E00000F1E2EC05F0D882F4C003F1F3C002F192
:1022F000F2C001F1F1C000F103C007F102C006F124
:1023000001C005F100C004F185EC0CF003C0F4F04D
:1023100002C0F3F001C0F2F000C0F1F0FBA103D065
:10232000F651800AF66FF4C0FFF0F3C0FEF0F2C081
:10233000FDF0F1C0FCF00101036B026B016B006B5F
:1023400000014CEC07F03CE0FBA11CD0F0531AE17B
:10235000D882F8C003F1F7C002F1F6C001F1F5C070
:1023600000F10101076B066B056B7F0E046F000126
:1023700085EC0CF003C0F8F002C0F7F001C0F6F0F5
:1023800000C0F5F0FBB11CD0F02D1AD0D892F8C0E7
:1023900003F1F7C002F1F6C001F1F5C000F101014F
:1023A000076B066B056B7F0E046F000185EC0CF06C
:1023B00003C0F8F002C0F7F001C0F6F000C0F5F07D
:1023C000EFC0FFF0EEC0FEF0EDC0FDF0ECC0FCF0A1
:1023D0000101036B026B016B006B00014CEC07F019
:1023E00004E1F86BF76BF66BF56BF5C000F0F6C027
:1023F00001F0F7C002F0F8C003F009EF12F0EBC0F3
:10240000EFF0EAC0EEF0E9C0EDF0E8C0ECF0F06B00
:1024100045D6000CF86AF1849F90D08E078EEA6A48
:10242000E96A29902992299429962998299A299C20
:10243000299E2A902A922A942A962A982A9A2A9C95
:102440002A9E2B902B922B942C6A070E2D6E020E37
:102450002E6E0B0E2F6E020E306E030E316E020EBC
:10246000326E336E040E346E356A366A376A386AF5
:10247000396A3A6A3B6A3C6A3D6A3E6A3F6A406A28
:10248000416A010E426E436A446A456A516A526A61
:10249000536A546A556A040E566E5A6A596A5C6ADF
:1024A0005B6AB06BAF6BAE6BAD6BB46BB36BB26BA7
:1024B000B16BB86BB76BB66BB56BBC6BBB6BBA6B08
:1024C000B96BC06BBF6BBE6B800EBD6F2B862B983C
:1024D000C26BC16BC46BC36BC66BC56BC86BC76B80
:1024E000CA6BC96BCC6BCB6B2B9A2B9CCE6BCD6B19
:1024F000CF6BD06BD46BD36BD26BD16BD86BD76BEC
:10250000D66BD56BE26BE16BC150C00B0F09C16E8E
:10251000070EB46E3E0E466E200E476E5E0E486E7F
:10252000496A4A6A4B6A4C6A4D6A4E6A4F6A506AF7
:102530005D6A5E6A5F6A606B616B626B636B646B42
:10254000656B666B676B686B696B6A6B6B6B6C6BEF
:102550006D6B6E6B6F6B706B716B726B736B746B9F
:10256000756B766B776B786B796B7A6B7B6B7C6B4F
:102570007D6B7E6B7F6B806B816B826B836B846BFF
:10258000856B866B876B886B896B8A6B8B6B8C6BAF
:102590008D6B8E6B8F6B906B916B926B936B946B5F
:1025A000956B966B976B986B996B9A6B9B6B9C6B0F
:1025B0009D6B9E6B9F6BA06BA16BA26BA36BA46BBF
:1025C000A56BA66BA76BA86BA96BAA6BAB6BAC6B6F
:1025D0008B9494948B9294921EEF05F0AFEF05F0DC
:1025E000FDEF05F09FEF07F08B9494948B929492FB
:1025F000D051060806E18B8494948B829492D76A1A
:10260000D66AD05306E18B9494948B929492D76AB5
:10261000D66A2C52D8A405D2010EFA6FFB6F3CEC9F
:1026200005F0AA0EF66E030EF76E9FEC05F0010E94
:10263000FA6F020EFB6F3CEC05F0C00EF66E030E57
:10264000F76E9FEC05F0010EFA6F030EFB6F3CEC8A
:1026500005F0D60EF66E030EF76E0A0EEC6F7CECEC
:1026600009F049C0E8F01F0EE96FA0EC09F04AC07C
:10267000E8F01F0EE96FA0EC09F04BC0E8F01F0E68
:10268000E96FA0EC09F04CC0E8F01F0EE96FA0EC78
:1026900009F0200EF96F70EC05F0200EF96F70EC68
:1026A00005F02FC0FAF0040EFB6F3CEC05F048C0BB
:1026B000F9F070EC05F02F500B080FE22F500D08C9
:1026C0000CE3010E2F5CE86FFA6F040EFB6F3CEC1D
:1026D00005F047C0F9F070EC05F02B96928A80BAAD
:1026E00019D0140EFF6FA0EC04F0928A80BA11D0BA
:1026F00029B60FD00B0E2F5C036A490FE96E000E4E
:102700000320EA6EEF2A29861E0EFF6FA0EC04F06C
:102710002B8601D02996968084B019D0140EFF6FB5
:10272000A0EC04F0968084B011D029BA0FD00B0E23
:102730002F5C036A490FE96E000E0320EA6EEF0674
:10274000298A1E0EFF6FA0EC04F02B8601D0299A77
:10275000968284B215D0140EFF6FA0EC04F096821E
:1027600084B20DD029B80BD029882F2A1E0EFF6FF6
:10277000A0EC04F00C0EF96F70EC05F02B8601D084
:102780002998968484B415D0960EFF6FA0EC04F0BF
:10279000968484B40DD029BC0BD0298C2F061E0E34
:1027A000FF6FA0EC04F00C0EF96F70EC05F02B86B7
:1027B00001D0299C0B0E2F5C036A490FE96E000EB5
:1027C0000320EA6EEFBE01D00AD00B0E2F5C036A25
:1027D000490FE96E000E0320EA6E090EEF6E0B0E34
:1027E0002F5C036A490FE96E000E0320EA6EEFBE0C
:1027F0000CD0EF50090809E20B0E2F5C036A490F59
:10280000E96E000E0320EA6EEF6A2F500A0802E319
:102810000B0E2F6E2F500E08D8B003D1495003086D
:1028200071E14A5008086EE14B5009086BE14C50C9
:10283000020868E1A96AA86AA69CA69EA684F2502E
:10284000006EF29CF29E0F01550EA76EAA0EA76EA7
:10285000A682A6B2FED7A6940050F212140E000172
:10286000FF6FA0EC04F0010EA96EA86AA69CA69EBC
:10287000A684F250006EF29CF29E0F01550EA76ED8
:10288000AA0EA76EA682A6B2FED7A6940050F21298
:10289000140E0001FF6FA0EC04F0020EA96EA86AEE
:1028A000A69CA69EA684F250006EF29CF29E0F019A
:1028B000550EA76EAA0EA76EA682A6B2FED7A69444
:1028C0000050F212140E0001FF6FA0EC04F0030E92
:1028D000A96EA86AA69CA69EA684F250006EF29CE1
:1028E000F29E0F01550EA76EAA0EA76EA682A6B283
:1028F000FED7A6940050F212140E0001FF6FA0EC58
:1029000004F0FF004D50495C4FE14E504A5C4CE1F1
:102910004F504B5C49E150504C5C46E1010EFA6F60
:10292000FB6F3CEC05F0EC0EF66E030EF76E9FECC1
:1029300005F0010EFA6F020EFB6F3CEC05F0000E85
:10294000F66E040EF76E9FEC05F0010EFA6F030EA3
:10295000FB6F3CEC05F0140EF66E040EF76E9FEC68
:1029600005F0010EFA6F040EFB6F3CEC05F0280E2B
:10297000F66E040EF76E9FEC05F0040EE86FFA0E8B
:10298000FF6FA0EC04F0E82FFAD7320E2C6E0B0E7E
:102990002F6E0C0EF96F70EC05F02B86496A4A6AAF
:1029A0004B6A4C6A2B863DD0010EFA6FFB6F3CECF4
:1029B00005F0010EFA6F020EFB6F3CEC05F03C0EC9
:1029C000F66E040EF76E9FEC05F0010EFA6F030E23
:1029D000FB6F3CEC05F0500EF66E040EF76E9FECAC
:1029E00005F0010EFA6F040EFB6F3CEC05F0640E6F
:1029F000F66E040EF76E9FEC05F0040EE86FFA0E0B
:102A0000FF6FA0EC04F0E82FFAD70B0E2F6E0C0E20
:102A1000F96F70EC05F02B86496A4A6A4B6A4C6A7A
:102A20002B862C2C1BD102EC00F0010EFA6FFB6FF1
:102A30003CEC05F0780EF66E040EF76E9FEC05F098
:102A4000010E4524E86FE96F020EEA6F08EC0AF008
:102A5000020E4524E86FE96F030EEA6F08EC0AF0F6
:102A6000030E4524E86FE96F040EEA6F08EC0AF0E4
:102A7000010EFA6F30C0FBF03CEC05F046C0F9F0F7
:102A800070EC05F03050020814E1010EFA6F040EEC
:102A9000FB6F3CEC05F047C0F9F070EC05F0010E5F
:102AA000FA6F030EFB6F3CEC05F047C0F9F070ECD9
:102AB00005F03050040814E1010EFA6F020EFB6FAE
:102AC0003CEC05F047C0F9F070EC05F0010EFA6F30
:102AD000030EFB6F3CEC05F047C0F9F070EC05F01D
:102AE0003050030814E1010EFA6F040EFB6F3CEC4A
:102AF00005F047C0F9F070EC05F0010EFA6F020E18
:102B0000FB6F3CEC05F047C0F9F070EC05F02B963C
:102B1000928A80BA15D0140EFF6FA0EC04F0928A4E
:102B200080BA0DD029B60BD032063006010E302403
:102B3000316E29861E0EFF6FA0EC04F02B8601D0AB
:102B40002996968084B015D0140EFF6FA0EC04F087
:102B5000968084B00DD029BA0BD0322A302A010ECB
:102B6000305C316E298A1E0EFF6FA0EC04F02B86BC
:102B700001D0299A3250345C08E2452A32C034F040
:102B8000020E345C336E040E306E3350325C08E259
:102B9000450632C033F0020E3324346E020E306E1E
:102BA00032502D5C09E22EC032F0020E306E456AC2
:102BB00032C033F03324346E2E50325C0BE22DC021
:102BC00032F0040E306E2D5C456E32C034F0020ED1
:102BD000345C336E45BE01D001D0456A968284B222
:102BE00023D0140EFF6FA0EC04F0968284B21AD0AA
:102BF00029B818D0298832C02CF0030E306E020E8E
:102C0000E86F960EFF6FA0EC04F0E82FFAD70C0ED9
:102C1000F96F70EC05F02C50060804E1496A4A6A25
:102C20004B6A4C6A2B8601D02998968484B416D0BE
:102C3000140EFF6FA0EC04F0968484B40FD0020E43
:102C4000E86FFA0EFF6FA0EC04F0E82FFAD7320E0F
:102C50002C6E0C0EF96F70EC05F02B862C500208D0
:102C6000D8A42CD102EC00F0010EFA6FFB6F3CEC03
:102C700005F08E0EF66E040EF76E9FEC05F0010E59
:102C8000FA6F020EFB6F3CEC05F0A40EF66E040E1C
:102C9000F76E9FEC05F0060EFA6F030EFB6F3CEC2F
:102CA00005F03DC0E8F0030EE96F72EC0AF03A0E51
:102CB000F96F70EC05F03EC0E8F0010EE96F72ECC0
:102CC0000AF0C30EF66E040EF76E080EEC6F7CEC85
:102CD00009F0060E4224E86FFA6F040EFB6F3CEC1D
:102CE00005F048C0F9F070EC05F02B96928A80BA96
:102CF00026D0140EFF6FA0EC04F0928A80BA1FD089
:102D0000422C0DD03D50EF080AE3050E3D26020E81
:102D1000E86F960EFF6FA0EC04F0E82FFAD7425050
:102D200004080CE13E503A0809E33E2A020EE86F1F
:102D3000960EFF6FA0EC04F0E82FFAD72B86968052
:102D400084B024D0140EFF6FA0EC04F0968084B001
:102D50001DD0422C0CD03D520AE0050E3D5E020E05
:102D6000E86F960EFF6FA0EC04F0E82FFAD7425000
:102D700004080BE13E5209E03E06020EE86F960E93
:102D8000FF6FA0EC04F0E82FFAD72B86968284B26E
:102D90001ED0140EFF6FA0EC04F0968284B217D000
:102DA000422C03D0040E426E05D04250040802E1CA
:102DB000010E426E020EE86FFA0EFF6FA0EC04F0F7
:102DC000E82FFAD70C0EF96F70EC05F02B8696847D
:102DD00084B474D0968484B471D0C80EFF6FA0EC14
:102DE00004F00C0EF96F70EC05F0010EFA6F020E94
:102DF000FB6F3CEC05F0CC0EF66E040EF76E9FEC0C
:102E000005F0010EFA6F030EFB6F3CEC05F0DE0ED1
:102E1000F66E040EF76E9FEC05F0050EA96E3DC030
:102E2000A8FFA69CA69EA684F250006EF29CF29E7D
:102E30000F01550EA76EAA0EA76EA682A6B2FED7E8
:102E4000A6940050F212140E0001FF6FA0EC04F0E3
:102E5000060EA96E3EC0A8FFA69CA69EA684F250B0
:102E6000006EF29CF29E0F01550EA76EAA0EA76E81
:102E7000A682A6B2FED7A6940050F212140E00014C
:102E8000FF6FA0EC04F03DC03BF03EC03CF0040EF0
:102E9000E86FAF0EFF6FA0EC04F0E82FFAD71E0E1C
:102EA000FF6FA0EC04F0010E2C6E456A020E306E2E
:102EB000326E0C0EF96F70EC05F02B862C50030867
:102EC000D8A4A5D102EC00F0010EFA6FFB6F3CEC28
:102ED00005F0F00EF66E040EF76E9FEC05F0010E95
:102EE000FA6F020EFB6F3CEC05F0060EF66E050E57
:102EF000F76E9FEC05F0010EFA6F030EFB6F3CECD2
:102F000005F01C0EF66E050EF76E0A0EEC6F7CECEB
:102F100009F049C0E8F01F0EE96FA0EC09F04AC0C3
:102F2000E8F01F0EE96FA0EC09F04BC0E8F01F0EAF
:102F3000E96FA0EC09F04CC0E8F01F0EE96FA0ECBF
:102F400009F0200EF96F70EC05F0200EF96F70ECAF
:102F500005F02FC0FAF0040EFB6F3CEC05F048C002
:102F6000F9F070EC05F02F500B080FE22F500D0810
:102F70000CE3010E2F5CE86FFA6F040EFB6F3CEC64
:102F800005F047C0F9F070EC05F02B96928A80BAF4
:102F900019D0140EFF6FA0EC04F0928A80BA11D001
:102FA00029B60FD00B0E2F5C036A490FE96E000E95
:102FB0000320EA6EEF2A29861E0EFF6FA0EC04F0B4
:102FC0002B8601D02996968084B019D0140EFF6FFD
:102FD000A0EC04F0968084B011D029BA0FD00B0E6B
:102FE0002F5C036A490FE96E000E0320EA6EEF06BC
:102FF000298A1E0EFF6FA0EC04F02B8601D0299ABF
:10300000968284B215D0140EFF6FA0EC04F0968265
:1030100084B20DD029B80BD029882F2A1E0EFF6F3D
:10302000A0EC04F00C0EF96F70EC05F02B8601D0CB
:103030002998968484B415D0960EFF6FA0EC04F006
:10304000968484B40DD029BC0BD0298C2F061E0E7B
:10305000FF6FA0EC04F00C0EF96F70EC05F02B86FE
:1030600001D0299C0B0E2F5C036A490FE96E000EFC
:103070000320EA6EEFBE01D00AD00B0E2F5C036A6C
:10308000490FE96E000E0320EA6E090EEF6E0B0E7B
:103090002F5C036A490FE96E000E0320EA6EEFBE53
:1030A0000CD0EF50090809E20B0E2F5C036A490FA0
:1030B000E96E000E0320EA6EEF6A2F500A0810E353
:1030C0000B0E2F6E010E2C6E456A496A4A6A4B6AD6
:1030D0004C6A2B860B0E2F6E0C0EF96F70EC05F000
:1030E0002F500E08D8B093D04D50495C4EE14E5051
:1030F0004A5C4BE14F504B5C48E150504C5C45E121
:10310000010EFA6FFB6F3CEC05F0320EF66E050E09
:10311000F76E9FEC05F0010EFA6F020EFB6F3CECB0
:1031200005F0480EF66E050EF76E9FEC05F0010EE9
:10313000FA6F030EFB6F3CEC05F05E0EF66E050EAB
:10314000F76E9FEC05F0010EFA6F040EFB6F3CEC7E
:1031500005F0740EF66E050EF76E9FEC05F0020E8C
:10316000E86FFA0EFF6FA0EC04F0E82FFAD73D0EDF
:103170002C6E0B0E2F6E0C0EF96F70EC05F0496A79
:103180004A6A4B6A4C6A2B8642D0010EFA6FFB6F7B
:103190003CEC05F08A0EF66E050EF76E9FEC05F01E
:1031A000010EFA6F020EFB6F3CEC05F0A00EF66EFE
:1031B000050EF76E9FEC05F0010EFA6F030EFB6F24
:1031C0003CEC05F0B60EF66E050EF76E9FEC05F0C2
:1031D000010EFA6F040EFB6F3CEC05F0CC0EF66EA0
:1031E000050EF76E9FEC05F0020EE86FFA0EFF6F0A
:1031F000A0EC04F0E82FFAD70B0E2F6E0C0EF96F2F
:1032000070EC05F02B86496A4A6A4B6A4C6A2C506E
:103210003D08D8A4C8D102EC00F0010EFA6FFB6F94
:103220003CEC05F0E20EF66E050EF76E9FEC05F035
:10323000010EFA6F020EFB6F3CEC05F0F80EF66E15
:10324000050EF76E9FEC05F0010EFA6F030EFB6F93
:103250003CEC05F00E0EF66E060EF76E0A0EEC6FE5
:103260007CEC09F049C0E8F01F0EE96FA0EC09F012
:103270004AC0E8F01F0EE96FA0EC09F04BC0E8F07F
:103280001F0EE96FA0EC09F04CC0E8F01F0EE96FCB
:10329000A0EC09F0200EF96F70EC05F0200EF96F2C
:1032A00070EC05F02FC0FAF0040EFB6F3CEC05F05B
:1032B00048C0F9F070EC05F02F500B080FE22F50CA
:1032C0000D080CE3010E2F5CE86FFA6F040EFB6F24
:1032D0003CEC05F047C0F9F070EC05F02B96928AB3
:1032E00080BA19D0140EFF6FA0EC04F0928A80BA55
:1032F00011D029B60FD00B0E2F5C036A490FE96E6F
:10330000000E0320EA6EEF2A29861E0EFF6FA0EC46
:1033100004F02B8601D02996968084B019D0140E23
:10332000FF6FA0EC04F0968084B011D029BA0FD0C2
:103330000B0E2F5C036A490FE96E000E0320EA6E44
:10334000EF06298A1E0EFF6FA0EC04F02B8601D039
:10335000299A968284B211D0968284B20DD029B86F
:103360000BD029882F2A1E0EFF6FA0EC04F00C0E44
:10337000F96F70EC05F02B8601D02998968484B4FF
:1033800015D0960EFF6FA0EC04F0968484B40DD097
:1033900029BC0BD0298C2F061E0EFF6FA0EC04F069
:1033A0000C0EF96F70EC05F02B8601D0299C0B0EEA
:1033B0002F5C036A490FE96E000E0320EA6EEFBE30
:1033C00001D00AD00B0E2F5C036A490FE96E000E84
:1033D0000320EA6E090EEF6E0B0E2F5C036A490F95
:1033E000E96E000E0320EA6EEFBE0CD0EF50090824
:1033F00009E20B0E2F5C036A490FE96E000E0320F1
:10340000EA6EEF6A2F500A080FE30B0E2F6E010EC3
:103410002C6E496A4A6A4B6A4C6A2B860B0E2F6ED9
:103420000C0EF96F70EC05F02F500E08D8B0BBD021
:10343000010EFA6FFB6F3CEC05F0240EF66E060EE3
:10344000F76E9FEC05F0010EFA6F020EFB6F3CEC7D
:1034500005F03A0EF66E060EF76E9FEC05F0010EC3
:10346000FA6F030EFB6F3CEC05F0500EF66E060E85
:10347000F76E9FEC05F0010EFA6F040EFB6F3CEC4B
:1034800005F0660EF66E060EF76E9FEC05F0A96A63
:1034900049C0A8FFA69CA69EA684F250006EF29C8E
:1034A000F29E0F01550EA76EAA0EA76EA682A6B2B7
:1034B000FED7A6940050F212140E0001FF6FA0EC8C
:1034C00004F0010EA96E4AC0A8FFA69CA69EA68481
:1034D000F250006EF29CF29E0F01550EA76EAA0EDE
:1034E000A76EA682A6B2FED7A6940050F212140EC2
:1034F0000001FF6FA0EC04F0020EA96E4BC0A8FF04
:10350000A69CA69EA684F250006EF29CF29E0F012D
:10351000550EA76EAA0EA76EA682A6B2FED7A694D7
:103520000050F212140E0001FF6FA0EC04F0030E25
:10353000A96E4CC0A8FFA69CA69EA684F250006E61
:10354000F29CF29E0F01550EA76EAA0EA76EA682E0
:10355000A6B2FED7A6940050F212140E0001FF6F1F
:10356000A0EC04F0020EE86FFA0EFF6FA0EC04F07E
:10357000E82FFAD7010E2C6E456A020E306E326EBD
:1035800049C04DF04AC04EF04BC04FF04CC050F017
:10359000496A4A6A4B6A4C6A2B860B0E2F6E0C0ED8
:1035A000F96F70EC05F02C500408D8A40DD102EC92
:1035B00000F0010EFA6FFB6F3CEC05F07C0EF66E2E
:1035C000060EF76E9FEC05F0010EFA6F020EFB6F10
:1035D0003CEC05F0920EF66E060EF76E0B0EEC6FDD
:1035E0007CEC09F0080EE96E5AC0E9F059C0E8F029
:1035F000A8EF0AF0200EF96F70EC05F0200EF96FBD
:1036000070EC05F0200EF96F70EC05F0010EFA6F0A
:10361000040EFB6F3CEC05F0A60EF66E060EF76E80
:103620009FEC05F02B96928A80BAACD0968284B239
:10363000A9D0140EFF6FA0EC04F0928A80BAA2D039
:10364000968284B29FD0C80EFF6FA0EC04F00C0EDF
:10365000F96F70EC05F0010EFA6F020EFB6F3CEC97
:1036600005F0BC0EF66E060EF76E9FEC05F0010E2F
:10367000FA6F030EFB6F3CEC05F0CE0EF66E060EF5
:10368000F76E9FEC05F0070EA96EA86AA69CA69E91
:10369000A684F250006EF29CF29E0F01550EA76EAA
:1036A000AA0EA76EA682A6B2FED7A6940050F2126A
:1036B000140E0001FF6FA0EC04F0080EA96EA86ABA
:1036C000A69CA69EA684F250006EF29CF29E0F016C
:1036D000550EA76EAA0EA76EA682A6B2FED7A69416
:1036E0000050F212140E0001FF6FA0EC04F0090E5E
:1036F000A96EA86AA69CA69EA684F250006EF29CB3
:10370000F29E0F01550EA76EAA0EA76EA682A6B254
:10371000FED7A6940050F212140E0001FF6FA0EC29
:1037200004F00A0EA96EA86AA69CA69EA684F25072
:10373000006EF29CF29E0F01550EA76EAA0EA76EA8
:10374000A682A6B2FED7A6940050F212040E000183
:10375000E86FAF0EFF6FA0EC04F0E82FFAD7356AE0
:10376000366A5A6A596A1E0EFF6FA0EC04F0010E09
:103770002C6E456A020E306E326E0C0EF96F70ECD4
:1037800005F02B86968484B41ED0140EFF6FA0EC37
:1037900004F0968484B416D029BC14D0298C020E6F
:1037A000E86FFA0EFF6FA0EC04F0E82FFAD7010ED5
:1037B0002C6E456A020E306E326E0C0EF96F70EC94
:1037C00005F02B8601D0299C2C500508D8A42ED1B9
:1037D00002EC00F0010EFA6FFB6F3CEC05F0E00E1E
:1037E000F66E060EF76E9FEC05F0010EFA6F020EF4
:1037F000FB6F3CEC05F0050EE86FC1EC0DF000C06E
:10380000E8F001C0E9F002C0EAF003C0EBF003C049
:10381000FFF002C0FEF001C0FDF000C0FCF0D70ECA
:103820000101036FA30E026F016B810E006F000197
:103830002DEC0BF000C0E8F001C0E9F002C0EAF0A6
:1038400003C0EBF0F60EF66E060EF76E090EEC6F87
:103850007CEC09F0020EE96EEBC0EFF0EAC0EEF08E
:10386000E9C0EDF0E8C0ECF0F06F6AEC0FF0040E88
:10387000F66E070EF76E070EEC6F7CEC09F0010E8A
:10388000FA6F030EFB6F3CEC05F0F96B03EC0BF0E9
:1038900000C0E8F001C0E9F002C0EAF003C0EBF0BC
:1038A0000C0EF66E070EF76E080EEC6F7CEC09F04E
:1038B000010EE96EEBC0EFF0EAC0EEF0E9C0EDF00A
:1038C000E8C0ECF0F06B6AEC0FF0010EFA6F040E3A
:1038D000FB6F3CEC05F01A0EF66E070EF76E070E46
:1038E000EC6F7CEC09F0010EE96EC0C0EFF0BFC0D8
:1038F000EEF0BEC0EDF0BDC0ECF0F06B6AEC0FF086
:103900002B96968284B272D0140EFF6FA0EC04F056
:10391000968284B26AD029B868D0010E2C6E456AAE
:10392000020E306E326E0B0E2F6E020EE86FFA0E24
:10393000FF6FA0EC04F0E82FFAD70C0EF96F70ECD3
:1039400005F0F96B03EC0BF003C0C0F002C0BFF050
:1039500001C0BEF000C0BDF0C0C0FFF0BFC0FEF0AF
:10396000BEC0FDF0BDC0FCF032EC10F002C05CF057
:1039700001C05BF05BC039F05CC03AF00B0EA96E81
:1039800039C0A8FFA69CA69EA684F250006EF29CA9
:10399000F29E0F01550EA76EAA0EA76EA682A6B2C2
:1039A000FED7A6940050F212140E0001FF6FA0EC97
:1039B00004F00C0EA96E3AC0A8FFA69CA69EA68491
:1039C000F250006EF29CF29E0F01550EA76EAA0EE9
:1039D000A76EA682A6B2FED7A6940050F212140ECD
:1039E0000001FF6FA0EC04F02B8601D0299896848B
:1039F00084B41BD0140EFF6FA0EC04F0968484B442
:103A000013D029BC11D0010E2C6E456A020E306E07
:103A1000326E0B0E2F6E1E0EFF6FA0EC04F00C0E1C
:103A2000F96F70EC05F02B8601D0299C2C5006080C
:103A3000D8A494D02A782988010E2C6E456A2AA829
:103A400030D02A88010EFA6FFB6F3CEC05F0280E8F
:103A5000F66E070EF76E9FEC05F0010EFA6F020E80
:103A6000FB6F3CEC05F03E0EF66E070EF76E9FEC1A
:103A700005F0010EFA6F030EFB6F3CEC05F0540EDF
:103A8000F66E070EF76E9FEC05F0010EFA6F040E4E
:103A9000FB6F3CEC05F06A0EF66E070EF76E9FECBE
:103AA00005F02AB830D02A98010EFA6FFB6F3CEC73
:103AB00005F0800EF66E070EF76E9FEC05F0010E16
:103AC000FA6F020EFB6F3CEC05F0960EF66E070ED9
:103AD000F76E9FEC05F0010EFA6F030EFB6F3CECE6
:103AE00005F0AC0EF66E070EF76E9FEC05F0010EBA
:103AF000FA6F040EFB6F3CEC05F0C20EF66E070E7B
:103B0000F76E9FEC05F0000E2AB8010EE86F040E68
:103B1000A96EE8C0A8FFA69CA69EA684F250006EDF
:103B2000F29CF29E0F01550EA76EAA0EA76EA682FA
:103B3000A6B2FED7A6940050F212040E0001E86F60
:103B4000FA0EFF6FA0EC04F0E82FFAD7020E306EE9
:103B5000326E0C0EF96F70EC05F02B862C500708B6
:103B6000D8A4CBD05650060802E2060E566E565226
:103B700002E1010E566E010EFA6FFB6F3CEC05F090
:103B8000D80EF66E070EF76E9FEC05F0010EFA6F79
:103B9000020EFB6F3CEC05F0EE0EF66E070EF76EB4
:103BA0009FEC05F0010EFA6F030EFB6F3CEC05F085
:103BB000040EF66E080EF76E0A0EEC6F7CEC09F040
:103BC00056C0E8F01B0EE96F72EC0AF0100EF66EAC
:103BD000080EF76E070EEC6F7CEC09F0010EFA6F21
:103BE000040EFB6F3CEC05F0180EF66E080EF76E37
:103BF0009FEC05F0928A80BA08D05650050805E37C
:103C0000C80EFF6FA0EC04F0562A968084B007D04F
:103C1000565205E0C80EFF6FA0EC04F056069682DF
:103C200084B202D056C0D0F0968484B466D0640EBC
:103C3000FF6FA0EC04F0020E306E326E0C0EF96FC6
:103C400070EC05F00D0EA96E56C0A8FFA69CA69EAE
:103C5000A684F250006EF29CF29E0F01550EA76EE4
:103C6000AA0EA76EA682A6B2FED7A6940050F212A4
:103C7000140E0001FF6FA0EC04F0010EFA6FFB6F51
:103C80003CEC05F02E0EF66E080EF76E9FEC05F07C
:103C9000010EFA6F020EFB6F3CEC05F0440EF66E5F
:103CA000080EF76E9FEC05F0010EFA6F030EFB6F26
:103CB0003CEC05F05A0EF66E080EF76E9FEC05F020
:103CC000010EFA6F040EFB6F3CEC05F0700EF66E01
:103CD000080EF76E9FEC05F0040EE86FFA0EFF6F0A
:103CE000A0EC04F0E82FFAD70C0EF96F70EC05F099
:103CF000EBEC04F0010E2C6E456A2C503208D8A46F
:103D00001AD32AA019D12A90080EE86FC1EC0DF041
:103D100003C0BCF002C0BBF001C0BAF000C0B9F0F3
:103D2000010EFA6FFB6F3CEC05F0BCC0FFF0BBC0AE
:103D3000FEF0BAC0FDF0B9C0FCF0D70E0101036F70
:103D4000A30E026F016B810E006F00012DEC0BF0D2
:103D500000C0E8F001C0E9F002C0EAF003C0EBF0F7
:103D6000860EF66E080EF76E080EEC6F7CEC09F00E
:103D7000020EE96EEBC0EFF0EAC0EEF0E9C0EDF044
:103D8000E8C0ECF0F06F6AEC0FF0930EF66E080EE0
:103D9000F76E070EEC6F7CEC09F0BCC000F1BBC005
:103DA000FFF0BAC0FEF0B9C0FDF08F0E0101046F44
:103DB000C20E036F750E026F7C0E016F0001C7EC1F
:103DC0000BF000C0E8F001C0E9F002C0EAF003C067
:103DD000EBF003C0FFF002C0FEF001C0FDF000C038
:103DE000FCF00101036B026B300E016F820E006F5D
:103DF00000012DEC0BF003C0B8F002C0B7F001C019
:103E0000B6F000C0B5F0FF6BFE6B300EFD6F820E9A
:103E1000FC6FB8C003F1B7C002F1B6C001F1B5C084
:103E200000F14CEC07F006E3B86BB76B300EB66FE1
:103E3000820EB56F416AB8C0EBF0B7C0EAF0B6C009
:103E4000E9F0B5C0E8F0FFEC11F000C0E8F001C007
:103E5000E9F002C0EAF003C0EBF00101016B41C0E0
:103E600000F10001E2EC05F003C0FFF002C0FEF03B
:103E700001C0FDF000C0FCF0EBC003F1EAC002F1AC
:103E8000E9C001F1E8C000F14CEC07F00EE3080EC8
:103E90004124E86FFA6F020EFB6F3CEC05F0D10E87
:103EA000F96F70EC05F0412AC6D7B8C0EBF0B7C087
:103EB000EAF0B6C0E9F0B5C0E8F0FFEC11F003C0DD
:103EC000FFF002C0FEF001C0FDF000C0FCF032ECDB
:103ED00010F001C041F041500A080EE3080E4124E1
:103EE000E86FFA6F020EFB6F3CEC05F0200EF96FE5
:103EF00070EC05F0412AEFD7090EFA6F030EFB6F45
:103F00003CEC05F09C0EF66E080EF76E060EEC6F9C
:103F10007CEC09F03BC0E8F0030EE96F72EC0AF0AC
:103F20003A0EF96F70EC05F03CC0E8F0010EE96F55
:103F300072EC0AF002EC00F029AE4CD02AA845D071
:103F40000C0EF96F70EC05F0010EFA6F020EFB6FAC
:103F50003CEC05F0AC0EF66E080EF76E9FEC05F02B
:103F6000010EFA6F030EFB6F3CEC05F0C20EF66E0D
:103F7000080EF76E9FEC05F0010EFA6F040EFB6F52
:103F80003CEC05F0D80EF66E080EF76E9FEC05F0CF
:103F9000010EFA6FFB6F3CEC05F0EE0EF66E080EAC
:103FA000F76E9FEC05F0416A415004080EE38B80E8
:103FB0009490C80EFF6FA0EC04F08B909490C80E04
:103FC000FF6FA0EC04F0412AEFD7299E0C0EF96F89
:103FD00070EC05F01F0EFF6F850EFE6F6B0EFD6F10
:103FE0007C0EFC6FBCC003F1BBC002F1BAC001F192
:103FF000B9C000F14CEC07F001E203E1010E516E93
:1040000003D0516A8B909490010EFA6F020EFB6FF1
:104010003CEC05F0040EF66E090EF76E9FEC05F011
:1040200029A40DD0010EFA6F040EFB6F3CEC05F0D5
:104030000C0EF66E090EF76E9FEC05F00CD0010E1B
:10404000FA6F040EFB6F3CEC05F0160EF66E090ECF
:10405000F76E9FEC05F029A00DD00D0EFA6F040E3F
:10406000FB6F3CEC05F0200EF66E090EF76E9FEC30
:1040700005F00CD00D0EFA6F040EFB6F3CEC05F052
:10408000280EF66E090EF76E9FEC05F029A20DD0F2
:10409000010EFA6F030EFB6F3CEC05F0300EF66E6E
:1040A000090EF76E9FEC05F00CD0010EFA6F030EAF
:1040B000FB6F3CEC05F0380EF66E090EF76E9FECC8
:1040C00005F02B9629A415D02BB810D0060ED06F72
:1040D000EBEC04F0C80EFF6FA0EC04F0EBEC04F086
:1040E0002B882B86C80EFF6FA0EC04F056C0D0F0D2
:1040F0000DD0D06B2BA80AD0EBEC04F0C80EFF6FEC
:10410000A0EC04F0EBEC04F02B982B8629A20FD046
:104110008A9893982AB40AD0EBEC04F0C80EFF6F8B
:10412000A0EC04F0EBEC04F02A842B860ED08A88F5
:1041300093982AA40AD0EBEC04F0C80EFF6FA0EC11
:1041400004F0EBEC04F02A942B8629A017D08A9671
:104150009396299E2994D06B29928A8893982AB2A3
:104160000CD0EBEC04F0C80EFF6FA0EC04F0EBEC0D
:1041700004F02A82010E446E2B8611D029908A8683
:1041800093962AA20CD0EBEC04F0C80EFF6FA0ECC3
:1041900004F0EBEC04F02A92010E446E2B86C85317
:1041A00003E1C7513B080EE229B60BD029722986DC
:1041B000020EE86F960EFF6FA0EC04F0E82FFAD71E
:1041C0002B8601D02996CA5303E1C9513B080EE260
:1041D00029BA0BD02974298A020EE86F960EFF6F58
:1041E000A0EC04F0E82FFAD72B8601D0299ACC5303
:1041F00003E1CB513B080AE229BC07D0960EFF6FC2
:10420000A0EC04F029702B86298C01D0299CC65380
:1042100003E1C5513B081BE229B818D0C80EFF6F57
:10422000A0EC04F00C0EF96F70EC05F0020EE86FD4
:10423000960EFF6FA0EC04F0E82FFAD7010E2C6E5B
:10424000456A020E306E326E2B86298801D029987D
:10425000442C65D0070EA96E35C0A8FFA69CA69E6B
:10426000A684F250006EF29CF29E0F01550EA76ECE
:10427000AA0EA76EA682A6B2FED7A6940050F2128E
:10428000080EA96E36C0A8FFA69CA69EA684F25072
:10429000006EF29CF29E550EA76EAA0EA76EA68225
:1042A000A6B2FED7A6940050F21259C037F05AC0F9
:1042B00038F0090EA96E37C0A8FFA69CA69EA6845A
:1042C000F2CF00F0F29CF29E550EA76EAA0EA76EDA
:1042D000A682A6B2FED7A6940050F212140E0001D8
:1042E000FF6FA0EC04F00A0EA96E38C0A8FFA69CD0
:1042F000A69EA684F250006EF29CF29E0F01550E0F
:10430000A76EAA0EA76EA682A6B2FED7A6940050EC
:10431000F212140E0001FF6FA0EC04F0446A355055
:104320003B0802E2356A362A36503C0804E1366A18
:10433000592AD8B45A2A43503B080CE20C0EF96FA4
:1043400070EC05F0EBEC04F0C80EFF6FA0EC04F08D
:0A435000436A2B86F8EF12F0030019
:020000040030CA
:0E0000003C0E391E000180000FC00FE00F40C3
:00000001FF
;PIC18F4550
;CRC=29B5  CREATED="13-oct.-20 15:23"
