:0400000063EF0CF0AE
:08000800046ED8CF05F0E0CF33
:1000100006F00001E9CF0CF0EACF07F0E1CF08F0DD
:10002000E2CF09F0D9CF0AF0DACF0BF0F3CF12F01C
:10003000F4CF13F0FACF14F000C00EF001C00FF0AF
:1000400002C010F003C011F09DA02AEF00F09EB096
:100050005AEF00F00EC000F00FC001F010C002F027
:1000600011C003F00CC0E9FF07C0EAFF078E08C00B
:10007000E1FF09C0E2FF0AC0D9FF0BC0DAFF12C0DE
:10008000F3FF13C0F4FF14C0FAFF045006C0E0FFF2
:1000900005C0D8FF1000F2CF0DF0F29EF76AB00F46
:1000A000F66E000EF7220900F5500DBEF28E12001A
:1000B000280C0106150ECF6EA00ECE6E3F2AD8B4C6
:1000C000402A405203E13F50C70827E2406A3F6A96
:1000D000302A18803E2C0AD018B603D08C90959008
:1000E00004D018A802D08C809590187617A015D04F
:1000F000222A17BE12D0295202E029060ED0285219
:1001000004E028063B0E296E08D0178E17908C92BB
:1001100095922AC028F02BC029F09E902AEF00F07B
:1001200054656D706F72697A61646F7220555620E4
:100130002020200043616D62696F20436F6E7472EE
:10014000617365F1612020005469656D706F205402
:10015000726162616A6F20555620200050756E747E
:100160006F204365726F2020202020202020200057
:10017000416C61726D6120202020202020202020F1
:100180004F464600416C61726D6120202020202086
:1001900020202020204F4E0020434142494E412044
:1001A000204445202020464C554A4F200000202066
:1001B0004C414D494E4152202056455254494341ED
:1001C0004C200000202020204A5020494E474C4F10
:1001D00042414C2020202020000020202052454673
:1001E0003A20204A5043464C5631323020200000FD
:1001F0002020202020496E67726573652020202012
:1002000020202020000020202020436F6E74726187
:100210007365F16120202020202000002020202074
:10022000434C4156453D25692569256925692020AE
:1002300000002020202020202020202020202020FE
:100240002020202020002020202020436F6E747268
:10025000617365F1612020202000202020202020D3
:10026000436F72726563746120202020200020207B
:10027000202020202020202020202020202020207E
:1002800020002020202020436F6E7472617365F17E
:100290006120202020002020202020496E636F72E2
:1002A00072656374612020202000202020202020FF
:1002B00020202020202020202020202020002D2D44
:1002C0002D4D454E55205052494E434950414C2DDD
:1002D0002D2D00002020202054656D706F72697AEA
:1002E00061646F7220202020200020202020202008
:1002F000204C757A205556202020202020202000D8
:10030000253033753A2530327520284D3A5329204F
:1003100020005469656D706F20416C6D6163656E7E
:1003200061646F002020436F7272656374616D6554
:100330006E7465202000202020202020496E6772E6
:1003400065736520202020202020000020436F6E50
:100350007472617365F1612041637475616C202072
:10036000000020202020434C4156453D2569256949
:100370002569256920200000202020202020202021
:1003800020202020202020202020202000002020AD
:10039000202020436F6E7472617365F1612020200C
:1003A00020200000202020202020436F72726563EF
:1003B00074612020202020200000202020202020E8
:1003C000202020202020202020202020202000006D
:1003D000202020202020202020202020202020201D
:1003E0002020202000002020202020436F6E7472E7
:1003F000617365F161202020202000002020202052
:1004000020496E636F727265637461202020202022
:10041000000020202020202020202020202020201C
:1004200020202020202000002020202020496E674E
:1004300072657365202020202020202000002020CD
:10044000436F6E7472617365F161204E75657661FC
:100450002020000020202020434C4156453D2569A6
:1004600025692569256920200000202020202020E2
:1004700020202020202020202020202020200000BC
:100480002020202020436F6E7472617365F161201B
:100490002020202000002020202020416C6D61635E
:1004A000656E616461202020202000002020202033
:1004B000202020202020202020202020202020203C
:1004C000000020204475726163696F6E204163747F
:1004D00075616C20202000002020205469656D701B
:1004E0006F3D202530354C7520202000205245538B
:1004F00045543D204F7072696D61205E2079203E29
:100500002000205265736574206465207469656DF0
:10051000706F20002020202020457869746F736F51
:1005200020202020200020205A65726F20506F6903
:100530006E7420436F6E66696720000050726573A9
:10054000696F6E3D2025332E326620696E48324F2A
:100550002000202020204144433D25322E306600DB
:10056000202020205A463D25322E306600002020D3
:10057000202020202020202020202020202020207B
:1005800020200000202020202020202041637469AA
:10059000766F2020202020200000202020202020F6
:1005A0002020416C61726D612020202020200000FD
:1005B000202020202020202020202020202020203B
:1005C000202020200000202020202020202020206B
:1005D000202020202020202020200000202020205B
:1005E000202044657361637469766F202020202089
:1005F000000020202020202020416C61726D6120AD
:10060000202020202020000020202020202020202A
:10061000202020202020202020202020000020201A
:1006200054656D706F72697A61646F7220206465C1
:1006300020200000204C757A205556202046696EF7
:10064000616C697A61646F200000202020202020E6
:1006500020202020202020202020202020200000DA
:10066000202020202020202020202020202020208A
:100670002020202000004A5043522044503A253385
:100680002E326620696E48324F20000046696C7435
:10069000726F3A0054656D706F3A253033753A25A4
:1006A000303275004D6F746F723A4F4E20004D6FAF
:1006B000746F723A4F46460055563A4F4E2000002E
:1006C00055563A4F464600004C757A3A4F4E200038
:1006D0004C757A3A4F464600EA6ABB0EE96EEF5017
:1006E0000EE00F0E016E006A002EFED7012EFBD722
:1006F0008F0E006E002EFED70000EF2EF2D7000CFA
:10070000C139F00B006E0F0E81140010816E090EBE
:10071000006E002EFED700D08186DB0E006E002E0C
:10072000FED700D08196000C010EC05F0CE3EA6A90
:10073000C00EE96EEF5007E0020E006E002EFED7ED
:1007400000D0EF2EF9D7A9EF03F08192B40EC06F5D
:10075000EBD7BEA18192BEB18182090E006E002E40
:10076000FED700D08194090E006E002EFED700D077
:100770008196BF39C06F0F0EC017C0C0C1F0C0DF77
:10078000BF510F0BC06FC16FBBDF000C000E936E2B
:10079000819281948196230EBB6F9EDF010EA96F1B
:1007A000A951030808E3030EC16FAADF050EBB6F52
:1007B00093DFA92BF5D7020EC16FA2DFA96BA95158
:1007C00003080EE3036AA951F2CFAAF0F29E63DC9C
:1007D000AABFF28EAA6FBE6BBF6FB7DFA92BEFD790
:1007E000000C8E0E006EC2C001F0C1C002F0036AA0
:1007F000015209E102C001F0026A080E005E0152D6
:1008000002E1006A08D0D89001BE04D00236013659
:100810000006F9D7019E000CAE35006E0036FC0EC6
:10082000001600C001F0C250C30B0010C26E0A0EC9
:10083000BB6F52DFC282C2B2FED7C4CF03F0C3CFB8
:10084000C1F0C4CFC2F0CDDF03C0B2F002C0B1F03E
:1008500001C0B0F000C0AFF0AFC000F0B0C001F018
:10086000B1C002F0B2C003F0000C010EBC5DFC0F81
:100870000FE2040F50EF04F0800EBD6F09D0C00EE0
:10088000BD6F06D0940EBD6F03D0D40EBD6F00D0E7
:10089000010EBB5DBD27BE6BBDC0BFF056DF000CB7
:1008A000F2CF0DF0F29EE824F76AF736C50FF66E28
:1008B000080EF7220A00F550FA6E0800F5500DBE3A
:1008C000F28EF96E78087E0884088A08BA51F10819
:1008D00002E1EE0EBA6FBA51D10802E1FF0EBA6F13
:1008E000BA510C0A05E0060A0DE0020A12E016D021
:1008F000BE6B010EBF6F29DF010E166E020EBB6FBD
:10090000EBDE12D0162A010EBB6F16C0BCF0ADDFB5
:100910000BD0BE6B100EBF6F18DF06D0010EBE6F7E
:10092000BAC0BFF012DF00D0000C0900F5520CE095
:10093000F6CFACF0F7CFADF0F5CFBAF0C7DFACC073
:10094000F6FFADC0F7FFF1D7000C3A50090801E2FD
:100950003A6A3B50090801E23B6A3C50090801E24F
:100960003C6A3D50090801E23D6A2CEF0EF0090097
:10097000F6CFAEF0F7CFAFF0F5CFBAF0A7DFAEC04D
:10098000F6FFAFC0F7FFAD2FF2D7000CB051016AF0
:10099000AF5D03E2AFC000F00CD0006A080EB16F8B
:1009A000AF370036B051005CD8B0006E0136B12FC1
:1009B000F7D7000C200EAAA9300EAB6FA9C000F02B
:1009C000A9AF07D0001E002A00C0A9F02D0EAB6F02
:1009D000AA8F0150A9C0AFF0640EB06FD7DF00C07E
:1009E000A9F0300E0124AC6FA9C0AFF00A0EB06FB1
:1009F000CDDF300E0024AE6F300E0124AD6FABC0E2
:100A000000F0AAA702D0AAAFAA95AAB90BD0AAAFA4
:100A100022D0AAB520D000C0ACF0AAB31CD000C030
:100A2000ADF019D0300EAC5D16E100C0ACF0200E78
:100A3000AB6FAAA704D0AA95AA83AAAFAA93300E37
:100A4000AD5D09E100C0ADF0200EAC6FAAA7F7D7ED
:100A5000AA93AAAFAA91AAA503D0ABC0BAF036DF79
:100A6000AAA303D0ACC0BAF031DFAAA103D0ADC0B5
:100A7000BAF02CDFAEC0BAF029DF000CAA2D0AD0E4
:100A8000020EBB6FABC0BCF0F0DE200EF66E010EA6
:100A9000F76E4BDFAA5102080AE1020EBB6FABC032
:100AA000BCF0E3DE340EF66E010EF76E3EDFAA51A7
:100AB00003080AE1020EBB6FABC0BCF0D6DE480EE5
:100AC000F66E010EF76E31DFAA5104080AE1020E3C
:100AD000BB6FABC0BCF0C9DE5C0EF66E010EF76EEC
:100AE00024DFAA51050818E118B80AD0020EBB6F1E
:100AF000ABC0BCF0BADE700EF66E010EF76E15DFFD
:100B000018A80AD0020EBB6FABC0BCF0AEDE840EDC
:100B1000F66E010EF76E09DF000C0150A9C0AFF0B0
:100B2000640EB06F33DF00C0A9F00150300E07E152
:100B3000AAA30CD0AAB70AD0AAB9200E03D0AA97AC
:100B4000AA99AA81012601C0BAF0C0DEA9C0AFF0FF
:100B50000A0EB06F1BDF00C0A9F00150300E06E195
:100B6000AAB708D0AAA106D0AAB9200E012601C0B2
:100B7000BAF0ACDE300EA927A9C0BAF0A7DE000C8F
:100B8000EACFB1F0E9CFB0F0AA39F009AC6FAC27E9
:100B9000E20FAD6F320FAF6FAA510F0BAD27AD272C
:100BA000AF27E90FAE6FAE27AE27A9390F0BAE27DF
:100BB000AF27AE37AF37AF1FAF37A9510F0BAF27F6
:100BC000AC37070EAB6F0A0EAE07AF27FDE3AD07DC
:100BD000AE27FDE3AC07AD27FDE3AB07AC27FDE394
:100BE000EA6AAB0EE96E070EB015B09DE926AF0EAE
:100BF000E95CD8B4B08DEF50006E08E1B0BD06D00E
:100C0000B0B913D0B0B702D0200E03D0B087B099DE
:100C1000300E0026EACFAAF0E9CFA9F000C0BAF062
:100C200055DEAAC0EAFFA9C0E9FFEE50B0ADDFD79C
:100C300044EF15F0BD51D8B4A5D0C96FC151D8B497
:100C4000A1D0C95F05E37F0EC927D8B09BD006D0DD
:100C5000810EC95FD8A096D0D8B494D0C9C000F096
:100C6000016A026A036AC86BBEC0C7F0C78FBFC003
:100C7000C6F0C0C0C5F0190EC96FC451C55F0DE202
:100C8000010EC65F0AE2C75F08E2C85F06E2C82B32
:100C9000C72BC62BC451C52728D0C351C65F12E24B
:100CA000010EC75F0FE2C85F0DE2C82BC72BC3510F
:100CB000C627C451C52719E3C62B17E1C72B15E179
:100CC000C82B13D0C2518009C75F0EE2010EC85F66
:100CD0000BE2C82BC2518009C727C351C627E9E3DD
:100CE000C72BE7E1C82BE5D70380C92F01D00BD074
:100CF000D890C537C637C737C837D89003360236BD
:100D00000136CA37BAD7CAA106D0D890013202320A
:100D10000332CA3302D0000635E0CABF1ED0D890D5
:100D2000C537C637C737C837C451C55F07E2010E9C
:100D3000C65F04E2C75F02E2C85F1AE3C351C65F41
:100D400005E2010EC75F02E2C85F12E3C2518009EB
:100D5000C75F03E2010EC85F0BE3032A09E1022A21
:100D600007E1012A05E1002A0DE0013202320332D7
:100D7000BEC0C9F0C251C91BC9AF02D0018E06D096
:100D8000019E04D0006A016A026A036A000C800EA8
:100D9000D8B2C61BCB6BCC6BC2C0CAF0C651CA1B43
:100DA000C151D8B4DCD0C96F006EC551D8B4E0D001
:100DB000C95FD8B481D03DE3C6C0CFF0CF8FC7C0E4
:100DC000CEF0C8C0CDF0CC6BD890CF33CE33CD337E
:100DD000CC33C92FF8D7CAAF03D0CB81DDD0CB91AC
:100DE000C991CB89EA6AC40EE96EE9D0CB99CABF32
:100DF0000AD0C9A113D0CF33CE33CD33CC33002AA0
:100E0000D8B4C5D00BD0CFBF0CD0D890CC37CD370D
:100E1000CE37CF370006D8B4BAD0F5D7CB8D6BD04C
:100E2000CB9DC2C0CAF0C2AF02D0CF8FA9D0CF9F96
:100E3000A7D0C5C0C9F0C5C000F0C151C95FC2C0CC
:100E4000CFF0CF8FC3C0CEF0C4C0CDF0CC6BD89064
:100E5000CF33CE33CD33CC33C92FF8D7CAAF03D07D
:100E6000CB839AD0CB93C991CB8BEA6AC80EE96E3B
:100E7000A6D0CB9BCABF0AD0C9A113D0CF33CE33E3
:100E8000CD33CC33002AD8B482D00BD0CFBF0CD016
:100E9000D890CC37CD37CE37CF370006D8B477D0FF
:100EA000F5D7CB8F28D0CB9FC6C0CAF0C6AF02D033
:100EB000CF8F66D0CF9F64D0C6C0CFF0CF8FC7C0D2
:100EC000CEF0C8C0CDF0CAAF04D0CF9FCB8564D0E0
:100ED000CB95CC6BC991EA6AC40EE96E70D0CABFDB
:100EE0001CD0C2C0CAF0C9A106D0CF33CE33CD3397
:100EF000CC33002A4CE0CCAF0BD0CD2B09E1CE2B6C
:100F000007E1CF2B05E1CF33CE33CD33002A3FE0CD
:100F1000CBBD86D7CBBFC7D71CD0800ECF1BCFAFE2
:100F200004D03AD0C6C0CAF00AD0C2C0CAF0CF536B
:100F300006E1CE5304E1CD5302E1006A21D0CFBFD8
:100F400008D0D890CC37CD37CE37CF37002EF7D753
:100F50001ED0CAAF02D0CF8F13D0CF9F11D0C5C043
:100F600000F0C6C0CFF0C7C0CEF0C8C0CDF008D0EA
:100F7000C1C000F0C2C0CFF0C3C0CEF0C4C0CDF03D
:100F8000CFC001F0CEC002F0CDC003F034D0006A73
:100F9000016A026A036A2FD0CC6BCD1FCE1FCF1F10
:100FA000CC1FCC2B05E1CD2B03E1CE2B01E1CF2BC8
:100FB000CBB115D7CBB356D7CBB58AD7B3D7EF5074
:100FC000CD2705E3CE2B03E1CF2BD8B4C981ED5259
:100FD000EF50CE2703E3CF2BD8B4C981ED52EF50A9
:100FE000EFBE01D0800ACF27D8B0C981CBB9FED6D9
:100FF000CBBB3FD774D7000CBEC0C5F0C251C51BD8
:10100000C5AF05D0D894D890BEBFD8802FD0BEC071
:10101000C5F0C1C0C6F0BD51C65F06E0C5AF26D061
:10102000D850010AD86E22D0C2C0C6F0BE51C65FE9
:1010300006E0C5AF1BD0D850010AD86E17D0C3C088
:10104000C6F0BF51C65F06E0C5AF10D0D850010A48
:10105000D86E0CD0C4C0C6F0C051C65F06E0C5AFA4
:1010600005D0D850010AD86E01D0D890000CAD6BD5
:10107000AC6BAB6BAA6BAE6B0CEC04F003C098F0DE
:1010800002C097F001C096F000C095F098C0C0F083
:1010900097C0BFF096C0BEF095C0BDF0A8C0C4F028
:1010A000A7C0C3F0A6C0C2F0A5C0C1F0C3DD00C098
:1010B000AEF001C0AFF002C0B0F003C0B1F0D88212
:1010C00003C0C4F002C0C3F001C0C2F000C0C1F050
:1010D000C86BC76BC66B7F0EC56F59DE03C09CF033
:1010E00002C09BF001C09AF000C099F09CC0C0F013
:1010F0009BC0BFF09AC0BEF099C0BDF0C46BC36B7B
:10110000C26BC16B79DF04E39C6B9B6B9A6B996B31
:10111000010EA95D2C5C02E001E32C6A2C50040D49
:10112000F350036A450FE96E000E0320EA6E99C082
:10113000EFFF9AC0ECFF9BC0ECFF9CC0ECFF2C2A99
:101140002D6A010EA95D2D5C01E035E22D50040DE4
:10115000F350036A450FE96E000E0320EA6EEFCFED
:1011600000F0ECCF01F0ECCF02F0ECCF03F0EACFCF
:10117000AFF0E9CFAEF0D892ADC0C4F0ACC0C3F0D0
:10118000ABC0C2F0AAC0C1F003C0C8F002C0C7F033
:1011900001C0C6F000C0C5F0FADDAFC0EAFFAEC0C6
:1011A000E9FF03C0ADF002C0ACF001C0ABF000C07D
:1011B000AAF02D2AC6D7C26BA9C0C1F0F1EC03F08A
:1011C000ADC0C0F0ACC0BFF0ABC0BEF0AAC0BDF0B7
:1011D00003C0C4F002C0C3F001C0C2F000C0C1F03F
:1011E00029DD03C0ADF002C0ACF001C0ABF000C01F
:1011F000AAF0AAC000F0ABC001F0ACC002F0ADC0D4
:1012000003F0000CBD51D8B471D0006EC151D8B4F8
:101210006DD0002604E3810E002668E204D07F0E24
:10122000005E64E363E0BEC0C5F0C251C51BBE8F63
:10123000C28FC051C403F4CFC7F0BF51C303F4CF72
:1012400003F0F3CFC6F0C403F350C727F450C6230E
:10125000000E0322C051C303F350C727F450C62326
:10126000000E026A03220222BE51C403F350C627B5
:10127000F4500322000E0222BE51C303F350032692
:10128000F4500222000E016A0122C051C203F35041
:10129000C627F4500322000E02220122BF51C203CE
:1012A000F3500326F4500222000E0122BE51C20365
:1012B000F3500226F4500122002A01BE05D0C637A1
:1012C0000336023601360006000EC6AF0AD0032AE6
:1012D00002220122015005E1025003E1035001E125
:1012E000002AC5BF018EC5AF019E04D0006A016A05
:1012F000026A036A000CBA51B608BA6F036ABBC02F
:10130000BEF0BB8FD890BB33BC33BD330332023247
:1013100001320032BA2FF6D7BEAF0BD0001E011E2D
:10132000021E031E002AD8B4012AD8B4022AD8B457
:10133000032AFFEF09F0006A016A026A036AC26BBE
:10134000C36BC46BC56BC151C011BF11BE112CE082
:10135000200EC66FD890BA37BB37BC37BD37C237FF
:10136000C337C437C537C151C55D08E1C051C45D3D
:1013700005E1BF51C35D02E1BE51C25D0FE3BE5145
:10138000C25FBF51D8A0BF3DC35FC051D8A0C03D10
:10139000C45FC151D8A0C13DC55FD88000360136B9
:1013A00002360336C62FD6D7EA6AC20EE96E000CA3
:1013B000E950B26FB151B46F19E0B0C0C0F0AFC026
:1013C000BFF0AEC0BEF0ADC0BDF0C46BC36B200EAD
:1013D000C26F820EC16F16DF03C0B0F002C0AFF063
:1013E00001C0AEF000C0ADF0B42FE7D7B0C0BDF083
:1013F000AFC0BCF0AEC0BBF0ADC0BAF07CD703C08C
:10140000B0F002C0AFF001C0AEF000C0ADF0B0AFC0
:101410000DD0B207B28BAD1FAE1FAF1FB01FAD2BEB
:10142000D8B4AE2BD8B4AF2BD8B4B02B3B0EB96F19
:101430009A0EB86FCA0EB76FB66B0A0EB46FB15181
:10144000D8B4B22BB0C0BDF0AFC0BCF0AEC0BBF0E2
:10145000ADC0BAF0B9C0C1F0B8C0C0F0B7C0BFF0FD
:10146000B6C0BEF068DF0150EFCFADF0ECCFAEF00C
:10147000ECCFAFF0ECCFB0F000520FE1B129B45D8A
:101480000CE0B2510CE00F0BB45D01E03BE2B2BFE7
:1014900039D0B2BD04D0200E30D0200EB217B2AB7E
:1014A0000DD0B29BB151D8A4B2070050B26F2D0E2F
:1014B000BA6F66EC04F0B251006EB26BB151B45D1C
:1014C0000BE10050B26F2E0EBA6F66EC04F0B25111
:1014D000006E200EB217000E300EB2AB0ED0B29BD3
:1014E000B151D8A4B2070050B26F2D0EBA6F66EC9E
:1014F00004F0B251006EB26B300E002600C0BAF09C
:1015000066EC04F0B9C0BDF0B8C0BCF0B7C0BBF029
:10151000B6C0BAF0C16BC06BBF6B0A0EBE6F0BDFFB
:1015200003C0B9F002C0B8F001C0B7F000C0B6F017
:10153000B42F88D7000C8E0E006EBD51005EBEC069
:1015400002F0BFC001F0028E005209E0D8900252B2
:1015500002E1015204E002320132002EF7D7BEAFA1
:1015600005D0011E021E012AD8B4022A000CBC912B
:10157000B0C0B5F0AFC0B4F0AEC0B3F0ADC0B2F023
:10158000B0C0C0F0AFC0BFF0AEC0BEF0ADC0BDF0E7
:10159000C46BC36BC26BC16B2FDD04E3BC81B35161
:1015A000800AB36FB5C0C0F0B4C0BFF0B3C0BEF026
:1015B000B2C0BDF0C46BC36BC26B8E0EC16F1CDDBD
:1015C00001E218E1B5C0C0F0B4C0BFF0B3C0BEF0D6
:1015D000B2C0BDF0B0DF02C0C2F001C0C1F0F1EC9A
:1015E00003F003C0B9F002C0B8F001C0B7F000C00A
:1015F000B6F0C4D0B5C0C0F0B4C0BFF0B3C0BEF048
:10160000B2C0BDF0800EC46F960EC36F180EC26FCD
:10161000960EC16FF1DCD8A0A9D0B5C0C0F0B4C09F
:10162000BFF0B3C0BEF0B2C0BDF0C46BC36BC26B41
:101630008E0EC16F1AEC06F003C0C0F002C0BFF0FE
:1016400001C0BEF000C0BDF076DF02C0BBF001C03B
:10165000BAF0B5C0C0F0B4C0BFF0B3C0BEF0B2C005
:10166000BDF0C46BC36BC26B8E0EC16F1AEC06F07B
:1016700000C0BDF001C0BEF002C0BFF003C0C0F0AA
:10168000BBC0C2F0BAC0C1F0F1EC03F0D882C0C058
:10169000C4F0BFC0C3F0BEC0C2F0BDC0C1F003C043
:1016A000C8F002C0C7F001C0C6F000C0C5F0C7EC6A
:1016B00006F0C06BBF6BBE6B8E0EBD6F03C0C4F077
:1016C00002C0C3F001C0C2F000C0C1F09BDD03C086
:1016D000B5F002C0B4F001C0B3F000C0B2F0BBC0BE
:1016E000C2F0BAC0C1F0F1EC03F0C06BBF6BBE6BCF
:1016F0008E0EBD6F03C0C4F002C0C3F001C0C2F0C3
:1017000000C0C1F07FDD03C0B9F002C0B8F001C075
:10171000B7F000C0B6F0B5C0C0F0B4C0BFF0B3C001
:10172000BEF0B2C0BDF007DF02C0C2F001C0C1F020
:10173000F1EC03F0D892B9C0C4F0B8C0C3F0B7C0A0
:10174000C2F0B6C0C1F003C0C8F002C0C7F001C00B
:10175000C6F000C0C5F0C7EC06F003C0B9F002C087
:10176000B8F001C0B7F000C0B6F008D0B5C0B9F00D
:10177000B4C0B8F0B3C0B7F0B2C0B6F0B5C0C0F0F6
:10178000B4C0BFF0B3C0BEF0B2C0BDF0D4DE02C082
:10179000C2F001C0C1F0F1EC03F0D882B5C0C4F0D2
:1017A000B4C0C3F0B3C0C2F0B2C0C1F003C0C8F04F
:1017B00002C0C7F001C0C6F000C0C5F0C7EC06F01B
:1017C00003C0B5F002C0B4F001C0B3F000C0B2F085
:1017D000BCA103D0B751800AB76FB5C0C0F0B4C088
:1017E000BFF0B3C0BEF0B2C0BDF0C46BC36BC26B80
:1017F000C16B02DC38E0BCA11AD0B15318E1D88229
:10180000B9C0C4F0B8C0C3F0B7C0C2F0B6C0C1F030
:10181000C86BC76BC66B7F0EC56FC7EC06F003C005
:10182000B9F002C0B8F001C0B7F000C0B6F0BCB16A
:101830001AD0B12D18D0D892B9C0C4F0B8C0C3F036
:10184000B7C0C2F0B6C0C1F0C86BC76BC66B7F0E25
:10185000C56FC7EC06F003C0B9F002C0B8F001C014
:10186000B7F000C0B6F0B0C0C0F0AFC0BFF0AEC0BF
:10187000BEF0ADC0BDF0C46BC36BC26BC16BFCEC02
:1018800007F004E1B96BB86BB76BB66BB6C000F08C
:10189000B7C001F0B8C002F0B9C003F05AEF0CF0C5
:1018A000ACC0B0F0ABC0AFF0AAC0AEF0A9C0ADF014
:1018B000B16B5DD6000CA95303E18C96959602D0CE
:1018C0008C869596000CF86AD09E078EEA6AE96AC3
:1018D00017901792179417961798179A179C179E98
:1018E00018901892189418961898196A060E1A6E7D
:1018F000020E1B6E0B0E1C6E020E1D6E030E1E6E74
:10190000020E1F6E206E040E216E226A236A246A64
:10191000256A266A276A286A296A2A6A2B6A2C6A33
:101920002D6A2E6A010E2F6E306A316A326A3E6A63
:10193000426A416A446A436A986B976B966B956BEF
:101940009C6B9B6B9A6B996BA06B9F6B9E6B9D6B5B
:10195000A46BA36BA26BA16BA86BA76BA66B800E8D
:10196000A56FC150C00B0F09C16E070EB46E3E0EBD
:10197000336E200E346E5E0E356E366A376A386A04
:10198000396A3A6A3B6A3C6A3D6A456A466A476A0E
:10199000486A496A4A6A4B6A4C6A4D6A4E6A4F6A9B
:1019A000506A516A526A536A546A556A566A576A4B
:1019B000586A596A5A6A5B6A5C6A5D6A5E6A5F6AFB
:1019C000606B616B626B636B646B656B666B676BA3
:1019D000686B696B6A6B6B6B6C6B6D6B6E6B6F6B53
:1019E000706B716B726B736B746B756B766B776B03
:1019F000786B796B7A6B7B6B7C6B7D6B7E6B7F6BB3
:101A0000806B816B826B836B846B856B866B876B62
:101A1000886B896B8A6B8B6B8C6B8D6B8E6B8F6B12
:101A2000906B916B926B936B946BC6EC03F0FF0E13
:101A3000926E966E000E956E956A8C6A850ECD6ECE
:101A40009D80C150C00B0E09C16EC090C082C09471
:101A5000C08EC280C00EF212AE6B0CEC04F0010E10
:101A6000BB6FBC6F35EC04F0980EF66E010EF76E8E
:101A700095EC04F0010EBB6F020EBC6F35EC04F068
:101A8000AE0EF66E010EF76E95EC04F0010EBB6F14
:101A9000030EBC6F35EC04F0C40EF66E010EF76E4B
:101AA00095EC04F0010EBB6F040EBC6F35EC04F036
:101AB000DA0EF66E010EF76E95EC04F0080EA96FC3
:101AC000FA0EBB6F6CEC03F0A92FFAD70C0EBA6FAD
:101AD00066EC04F0F2CFA9F0F29EA96AA69CA69E3D
:101AE000A680A850A9BFF28E3A6E140EBB6F6CECA4
:101AF00003F0F2CFA9F0F29E010EA96EA69CA69E5D
:101B0000A680A850A9BFF28E3B6E140EBB6F6CEC82
:101B100003F0F2CFA9F0F29E020EA96EA69CA69E3B
:101B2000A680A850A9BFF28E3C6E140EBB6F6CEC61
:101B300003F0F2CFA9F0F29E030EA96EA69CA69E1A
:101B4000A680A850A9BFF28E3D6E140EBB6F6CEC40
:101B500003F0F2CFA9F0F29E050EA96EA69CA69EF8
:101B6000A680A850A9BFF28E016E189801B01888FF
:101B7000F2CFA9F0F29E140EA96EA69CA69EA68096
:101B8000A850A9BFF28E286EF2CFA9F0F29E1E0EC9
:101B9000A96EA69CA69EA680A850A9BFF28E296E0B
:101BA000F2CFA9F0F29E320EA96EA69CA69EA68048
:101BB000A850A9BFF28E226EF2CFA9F0F29E330E8A
:101BC000A96EA69CA69EA680A850A9BFF28E236EE1
:101BD000F2CFA9F0F29E340EA96EA69CA69EA68016
:101BE000A850A9BFF28E246EF2CFA9F0F29E350E56
:101BF000A96EA69CA69EA680A850A9BFF28E256EAF
:101C0000F2CFA9F0F29E3C0EA96EA69CA69EA680DD
:101C1000A850A9BFF28E266EF2CFA9F0F29E3D0E1B
:101C2000A96EA69CA69EA680A850A9BFF28E276E7C
:101C300027C044F026C043F044C0C2F043C0C1F006
:101C4000F1EC03F003C0A8F002C0A7F001C0A6F0B9
:101C500000C0A5F0A5EF04F025C042F024C041F07B
:101C600028C02AF029C02BF01952D8A4D8D1010ECF
:101C7000BB6FBC6F35EC04F0F00EF66E010EF76E24
:101C800095EC04F0010EBB6F020EBC6F35EC04F056
:101C9000060EF66E020EF76E95EC04F0010EBB6FA9
:101CA000030EBC6F35EC04F01C0EF66E020EF76EE0
:101CB0000A0EAD6FB7EC04F036C0A9F01F0EAA6F84
:101CC000DAEC04F037C0A9F01F0EAA6FDAEC04F0CA
:101CD00038C0A9F01F0EAA6FDAEC04F039C0A9F0E1
:101CE0001F0EAA6FDAEC04F0200EBA6F66EC04F057
:101CF000200EBA6F66EC04F0928A80AA11D017B653
:101D00000ED00B0E1C5C036A360FE96E000E03202A
:101D1000EA6EEF2A17861E0EBB6F6CEC03F001D043
:101D20001796968084A011D017BA0ED00B0E1C5CAB
:101D3000036A360FE96E000E0320EA6EEF06178A7B
:101D40001E0EBB6F6CEC03F001D0179A968284A232
:101D50000DD017B80AD017881C2A1E0EBB6F6CEC6A
:101D600003F00C0EBA6F66EC04F001D0179896845D
:101D700084A411D0960EBB6F6CEC03F017BC0AD094
:101D8000178C1C061E0EBB6F6CEC03F00C0EBA6FAA
:101D900066EC04F001D0179C0B0E1C5C036A360F36
:101DA000E96E000E0320EA6EEFBE01D00AD00B0EE2
:101DB0001C5C036A360FE96E000E0320EA6E090E02
:101DC000EF6E0B0E1C5C036A360FE96E000E0320EB
:101DD000EA6EEFBE0CD0EF50090809E20B0E1C5C56
:101DE000036A360FE96E000E0320EA6EEF6A1C509C
:101DF0000A0802E30B0E1C6E1CC0BBF0040EBC6F85
:101E000035EC04F035C0BAF066EC04F01C500E0856
:101E1000D8B0F3D0365003086DE1375008086AE1B6
:101E20003850090867E13950020864E1A96AA86AD4
:101E3000A69CA69EA684F250006EF29E0F01550E3F
:101E4000A76EAA0EA76EA682A6B2FED7A6940050D1
:101E5000F212140E0001BB6F6CEC03F0010EA96EC0
:101E6000A86AA69CA69EA684F250006EF29E0F0160
:101E7000550EA76EAA0EA76EA682A6B2FED7A6948E
:101E80000050F212140E0001BB6F6CEC03F0020E56
:101E9000A96EA86AA69CA69EA684F250006EF29E29
:101EA0000F01550EA76EAA0EA76EA682A6B2FED788
:101EB000A6940050F212140E0001BB6F6CEC03F0FC
:101EC000030EA96EA86AA69CA69EA684F250006E78
:101ED000F29E0F01550EA76EAA0EA76EA682A6B29D
:101EE000FED7A6940050F212140E0001BB6F6CECEA
:101EF00003F0FF003A50365C49E13B50375C46E165
:101F00003C50385C43E13D50395C40E1010EBB6F11
:101F1000BC6F35EC04F0320EF66E020EF76E95ECE7
:101F200004F0010EBB6F020EBC6F35EC04F0460EE0
:101F3000F66E020EF76E95EC04F0010EBB6F030E09
:101F4000BC6F35EC04F05A0EF66E020EF76E95EC8F
:101F500004F0010EBB6F040EBC6F35EC04F06E0E86
:101F6000F66E020EF76E95EC04F0040EA96FFA0EF1
:101F7000BB6F6CEC03F0A92FFAD7320E196E0B0E63
:101F80001C6E0C0EBA6F66EC04F037D0010EBB6FFE
:101F9000BC6F35EC04F0010EBB6F020EBC6F35EC6C
:101FA00004F0820EF66E020EF76E95EC04F0010E50
:101FB000BB6F030EBC6F35EC04F0960EF66E020E8E
:101FC000F76E95EC04F0010EBB6F040EBC6F35ECA0
:101FD00004F0AA0EF66E020EF76E95EC04F0040EF5
:101FE000A96FFA0EBB6F6CEC03F0A92FFAD70B0E9A
:101FF0001C6E0C0EBA6F66EC04F01C500B080FE25E
:102000001C500D080CE3010E1C5CA96FBB6F040E85
:10201000BC6F35EC04F034C0BAF066EC04F0192C57
:10202000F8D0010EBB6FBC6F35EC04F0BE0EF66E3F
:10203000020EF76E95EC04F032BE01D001D0326A88
:10204000928A80AA0DD017B60AD01F061D06010E6F
:102050001D241E6E17861E0EBB6F6CEC03F001D0A4
:102060001796968084A00DD017BA0AD01F2A1D2A71
:10207000010E1D5C1E6E178A1E0EBB6F6CEC03F00A
:1020800001D0179A1F50215C08E2322A1FC021F0AC
:10209000020E215C206E040E1D6E20501F5C08E2B3
:1020A00032061FC020F0020E2024216E020E1D6E8B
:1020B0001F501A5C09E21BC01FF0020E1D6E326A2F
:1020C0001FC020F02024216E1B501F5C0BE21AC0A1
:1020D0001FF0040E1D6E1A5C326E1FC021F0020E3E
:1020E000215C206E010E3224A96FAA6F020EAB6F25
:1020F0003EEC05F0020E3224A96FAA6F030EAB6FFF
:102100003EEC05F0030E3224A96FAA6F040EAB6FEC
:102110003EEC05F0010EBB6F1DC0BCF035EC04F0C9
:1021200033C0BAF066EC04F01D50020814E1010E51
:10213000BB6F040EBC6F35EC04F034C0BAF066EC33
:1021400004F0010EBB6F030EBC6F35EC04F034C01D
:10215000BAF066EC04F01D50040814E1010EBB6FE8
:10216000020EBC6F35EC04F034C0BAF066EC04F03B
:10217000010EBB6F030EBC6F35EC04F034C0BAF037
:1021800066EC04F01D50030814E1010EBB6F040E51
:10219000BC6F35EC04F034C0BAF066EC04F0010E0C
:1021A000BB6F020EBC6F35EC04F034C0BAF066ECC5
:1021B00004F0968284A21BD017B818D017881FC0CD
:1021C00019F0030E1D6E020EA96F960EBB6F6CEC1C
:1021D00003F0A92FFAD70C0EBA6F66EC04F0195071
:1021E000060804E1366A376A386A396A01D01798F6
:1021F000968484A40ED0020EA96FFA0EBB6F6CEC0D
:1022000003F0A92FFAD7320E196E0C0EBA6F66ECD6
:1022100004F019500208D8A407D1010EBB6FBC6F9F
:1022200035EC04F0D40EF66E020EF76E95EC04F069
:10223000010EBB6F020EBC6F35EC04F0EA0EF66EB9
:10224000020EF76E95EC04F0060EBB6F030EBC6F2A
:1022500035EC04F02AC0A9F0030EAA6F8DEC05F04E
:102260003A0EBA6F66EC04F02BC0A9F0010EAA6F0B
:102270008DEC05F0090EF66E030EF76E080EAD6FCD
:10228000B7EC04F0060E2F24A96FBB6F040EBC6FD1
:1022900035EC04F035C0BAF066EC04F0928A80AAFE
:1022A0001ED02F2C0DD02A50EF080AE3050E2A2647
:1022B000020EA96F960EBB6F6CEC03F0A92FFAD734
:1022C0002F5004080CE12B503A0809E32B2A020E88
:1022D000A96F960EBB6F6CEC03F0A92FFAD796800E
:1022E00084A01CD02F2C0CD02A520AE0050E2A5EA6
:1022F000020EA96F960EBB6F6CEC03F0A92FFAD7F4
:102300002F5004080BE12B5209E02B06020EA96F97
:10231000960EBB6F6CEC03F0A92FFAD7968284A2BD
:1023200016D02F2C03D0040E2F6E05D02F5004088A
:1023300002E1010E2F6E020EA96FFA0EBB6F6CEC5C
:1023400003F0A92FFAD70C0EBA6F66EC04F096844E
:1023500084A46AD0C80EBB6F6CEC03F00C0EBA6F8D
:1023600066EC04F0010EBB6F020EBC6F35EC04F09E
:10237000120EF66E030EF76E95EC04F0010EBB6FB5
:10238000030EBC6F35EC04F0240EF66E030EF76EF0
:1023900095EC04F0140EA96E2AC0A8FFA69CA69E78
:1023A000A684F250006EF29E0F01550EA76EAA0E83
:1023B000A76EA682A6B2FED7A6940050F2121E0EF9
:1023C0000001BB6F6CEC03F01E0EA96E2BC0A8FFC2
:1023D000A69CA69EA684F250006EF29E0F01550E9A
:1023E000A76EAA0EA76EA682A6B2FED7A69400502C
:1023F000F2122AC028F02BC029F0040E0001A96FA8
:10240000AF0EBB6F6CEC03F0A92FFAD71E0EBB6F9B
:102410006CEC03F0010E196E326A020E1D6E1F6E17
:102420000C0EBA6F66EC04F019500308D8A47CD1E6
:10243000010EBB6FBC6F35EC04F0360EF66E030E6A
:10244000F76E95EC04F0010EBB6F020EBC6F35EC1D
:1024500004F04C0EF66E030EF76E95EC04F0010ED0
:10246000BB6F030EBC6F35EC04F0620EF66E030E0C
:10247000F76E0A0EAD6FB7EC04F036C0A9F01F0E70
:10248000AA6FDAEC04F037C0A9F01F0EAA6FDAECDD
:1024900004F038C0A9F01F0EAA6FDAEC04F039C0BE
:1024A000A9F01F0EAA6FDAEC04F0200EBA6F66ECEA
:1024B00004F0200EBA6F66EC04F0928A80AA11D064
:1024C00017B60ED00B0E1C5C036A360FE96E000EB9
:1024D0000320EA6EEF2A17861E0EBB6F6CEC03F02A
:1024E00001D01796968084A011D017BA0ED00B0E8B
:1024F0001C5C036A360FE96E000E0320EA6EEF06DD
:10250000178A1E0EBB6F6CEC03F001D0179A9682EF
:1025100084A20DD017B80AD017881C2A1E0EBB6FD4
:102520006CEC03F00C0EBA6F66EC04F001D0179857
:10253000968484A40DD017BC0AD0178C1C061E0EDE
:10254000BB6F6CEC03F00C0EBA6F66EC04F001D0BC
:10255000179C0B0E1C5C036A360FE96E000E0320FD
:10256000EA6EEFBE01D00AD00B0E1C5C036A360F78
:10257000E96E000E0320EA6E090EEF6E0B0E1C5C76
:10258000036A360FE96E000E0320EA6EEFBE0CD030
:10259000EF50090809E20B0E1C5C036A360FE96E66
:1025A000000E0320EA6EEF6A1C500A0810E3010EC9
:1025B000196E326A020E1D6E1F6E0B0E1C6E020E1D
:1025C000A96FFA0EBB6F6CEC03F0A92FFAD71CC0F1
:1025D000BBF0040EBC6F35EC04F035C0BAF066EC0D
:1025E00004F01C500E08D8B08DD03A50365C4DE146
:1025F0003B50375C4AE13C50385C47E13D50395C28
:1026000044E1010EBB6FBC6F35EC04F0780EF66E42
:10261000030EF76E95EC04F0010EBB6F020EBC6F5B
:1026200035EC04F08E0EF66E030EF76E95EC04F0AA
:10263000010EBB6F030EBC6F35EC04F0A40EF66EFA
:10264000030EF76E95EC04F0010EBB6F040EBC6F29
:1026500035EC04F0BA0EF66E030EF76E95EC04F04E
:10266000020EA96FFA0EBB6F6CEC03F0A92FFAD71C
:102670003D0E196E0B0E1C6E0C0EBA6F66EC04F05C
:10268000366A376A386A396A3DD0010EBB6FBC6F53
:1026900035EC04F0D00EF66E030EF76E95EC04F0F8
:1026A000010EBB6F020EBC6F35EC04F0E60EF66E49
:1026B000030EF76E95EC04F0010EBB6F030EBC6FBA
:1026C00035EC04F0FC0EF66E030EF76E95EC04F09C
:1026D000010EBB6F040EBC6F35EC04F0120EF66EEB
:1026E000040EF76E95EC04F0020EA96FFA0EBB6FA4
:1026F0006CEC03F0A92FFAD70B0E1C6E0C0EBA6F00
:1027000066EC04F01C500B080FE21C500D080CE3A3
:10271000010E1C5CA96FBB6F040EBC6F35EC04F09E
:1027200034C0BAF066EC04F019503D08D8A487D143
:10273000010EBB6FBC6F35EC04F0280EF66E040E74
:10274000F76E95EC04F0010EBB6F020EBC6F35EC1A
:1027500004F03E0EF66E040EF76E95EC04F0010EDA
:10276000BB6F030EBC6F35EC04F0540EF66E040E16
:10277000F76E0A0EAD6FB7EC04F036C0A9F01F0E6D
:10278000AA6FDAEC04F037C0A9F01F0EAA6FDAECDA
:1027900004F038C0A9F01F0EAA6FDAEC04F039C0BB
:1027A000A9F01F0EAA6FDAEC04F0200EBA6F66ECE7
:1027B00004F0200EBA6F66EC04F0928A80AA11D061
:1027C00017B60ED00B0E1C5C036A360FE96E000EB6
:1027D0000320EA6EEF2A17861E0EBB6F6CEC03F027
:1027E00001D01796968084A011D017BA0ED00B0E88
:1027F0001C5C036A360FE96E000E0320EA6EEF06DA
:10280000178A1E0EBB6F6CEC03F001D0179A9682EC
:1028100084A20DD017B80AD017881C2A1E0EBB6FD1
:102820006CEC03F00C0EBA6F66EC04F001D0179854
:10283000968484A40DD017BC0AD0178C1C061E0EDB
:10284000BB6F6CEC03F00C0EBA6F66EC04F001D0B9
:10285000179C0B0E1C5C036A360FE96E000E0320FA
:10286000EA6EEFBE01D00AD00B0E1C5C036A360F75
:10287000E96E000E0320EA6E090EEF6E0B0E1C5C73
:10288000036A360FE96E000E0320EA6EEFBE0CD02D
:10289000EF50090809E20B0E1C5C036A360FE96E63
:1028A000000E0320EA6EEF6A1C500A0804E3050ECE
:1028B000196E0B0E1C6E1CC0BBF0040EBC6F35EC09
:1028C00004F035C0BAF066EC04F01C500E08D8B025
:1028D000A4D0010EBB6FBC6F35EC04F06A0EF66E2F
:1028E000040EF76E95EC04F0010EBB6F020EBC6F88
:1028F00035EC04F0800EF66E040EF76E95EC04F0E5
:10290000010EBB6F030EBC6F35EC04F0960EF66E35
:10291000040EF76E95EC04F0010EBB6F040EBC6F55
:1029200035EC04F0AC0EF66E040EF76E95EC04F088
:10293000A96A36C0A8FFA69CA69EA684F250006E87
:10294000F29E0F01550EA76EAA0EA76EA682A6B222
:10295000FED7A6940050F212140E0001BB6F6CEC6F
:1029600003F0010EA96E37C0A8FFA69CA69EA68400
:10297000F250006EF29E0F01550EA76EAA0EA76EC2
:10298000A682A6B2FED7A6940050F212140E000141
:10299000BB6F6CEC03F0020EA96E38C0A8FFA69CBA
:1029A000A69EA684F250006EF29E0F01550EA76EF1
:1029B000AA0EA76EA682A6B2FED7A6940050F21267
:1029C000140E0001BB6F6CEC03F0030EA96E39C04E
:1029D000A8FFA69CA69EA684F250006EF29E0F0150
:1029E000550EA76EAA0EA76EA682A6B2FED7A69413
:1029F0000050F212140E0001BB6F6CEC03F0020EDB
:102A0000A96FFA0EBB6F6CEC03F0A92FFAD7010E79
:102A1000196E326A020E1D6E1F6E1C500B080FE2FB
:102A20001C500D080CE3010E1C5CA96FBB6F040E5B
:102A3000BC6F35EC04F034C0BAF066EC04F0195009
:102A40000408D8A4CED0010EBB6FBC6F35EC04F0E7
:102A5000C20EF66E040EF76E95EC04F0010EBB6F1D
:102A6000020EBC6F35EC04F0D80EF66E040EF76E55
:102A70000B0EAD6FB7EC04F0080EE96E42C0AAF081
:102A800041C0A9F0C0EF05F0200EBA6F66EC04F06B
:102A9000200EBA6F66EC04F0200EBA6F66EC04F0FC
:102AA000010EBB6F040EBC6F35EC04F0EC0EF66E3D
:102AB000040EF76E95EC04F0928A80AA78D0968284
:102AC00084A275D0C80EBB6F6CEC03F00C0EBA6F0D
:102AD00066EC04F0010EBB6F020EBC6F35EC04F027
:102AE000020EF66E050EF76E95EC04F0010EBB6F4C
:102AF000030EBC6F35EC04F0140EF66E050EF76E87
:102B000095EC04F0320EA96EA86AA69CA69EA68437
:102B1000F250006EF29E0F01550EA76EAA0EA76E20
:102B2000A682A6B2FED7A6940050F212330EA96E6A
:102B3000A86AA69CA69EA684F250006EF29E550E30
:102B4000A76EAA0EA76EA682A6B2FED7A6940050C4
:102B5000F212340EA96EA86AA69CA69EA684F25014
:102B6000006EF29E550EA76EAA0EA76EA682A6B2A2
:102B7000FED7A6940050F212040E0001A96FAF0E0A
:102B8000BB6F6CEC03F0A92FFAD7226A236A426A62
:102B9000416A1E0EBB6F6CEC03F0010E196E326AB7
:102BA000020E1D6E1F6E0C0EBA6F66EC04F096845A
:102BB00084A416D017BC13D0178C020EA96FFA0E7E
:102BC000BB6F6CEC03F0A92FFAD7010E196E326AB5
:102BD000020E1D6E1F6E0C0EBA6F66EC04F001D073
:102BE000179C19500508D8A40DD1010EBB6FBC6FFE
:102BF00035EC04F0260EF66E050EF76E95EC04F03B
:102C0000010EBB6F020EBC6F35EC04F0050EA96F10
:102C100037EC08F000C0A9F001C0AAF002C0ABF088
:102C200003C0ACF003C0C0F002C0BFF001C0BEF0F2
:102C300000C0BDF0D70EC46FA30EC36FC26B810E70
:102C4000C16F02EC09F000C0A9F001C0AAF002C0F7
:102C5000ABF003C0ACF03C0EF66E050EF76E090E3D
:102C6000AD6FB7EC04F0020EE96EACC0B0F0ABC0D3
:102C7000AFF0AAC0AEF0A9C0ADF0B16FD8EC09F0CA
:102C80004A0EF66E050EF76E070EAD6FB7EC04F048
:102C9000010EBB6F030EBC6F35EC04F0AE6B0CEC99
:102CA00004F000C0A9F001C0AAF002C0ABF003C05C
:102CB000ACF0520EF66E050EF76E080EAD6FB7EC67
:102CC00004F0010EE96EACC0B0F0ABC0AFF0AAC02A
:102CD000AEF0A9C0ADF0B16BD8EC09F0010EBB6F3E
:102CE000040EBC6F35EC04F0600EF66E050EF76E48
:102CF000070EAD6FB7EC04F0010EE96EA8C0B0F09E
:102D0000A7C0AFF0A6C0AEF0A5C0ADF0B16BD8ECD7
:102D100009F0968284A25ED017B85BD0010E196EBE
:102D2000326A020E1D6E1F6E0B0E1C6E020EA96F14
:102D3000FA0EBB6F6CEC03F0A92FFAD70C0EBA6F2A
:102D400066EC04F0AE6B0CEC04F003C0A8F002C01B
:102D5000A7F001C0A6F000C0A5F0A8C0C0F0A7C0B1
:102D6000BFF0A6C0BEF0A5C0BDF09BEC0AF002C04B
:102D700044F001C043F043C026F044C027F03C0EAD
:102D8000A96E26C0A8FFA69CA69EA684F250006E3F
:102D9000F29E0F01550EA76EAA0EA76EA682A6B2CE
:102DA000FED7A6940050F2123D0EA96E27C0A8FFD0
:102DB000A69CA69EA684F250006EF29E550EA76EAB
:102DC000AA0EA76EA682A6B2FED7A6940050F21253
:102DD000000101D01798968484A413D017BC10D09A
:102DE000010E196E326A020E1D6E1F6E0B0E1C6EE6
:102DF0001E0EBB6F6CEC03F00C0EBA6F66EC04F0A9
:102E000001D0179C19500608D8A492D018781788BA
:102E1000010E196E326A18A830D01888010EBB6FE7
:102E2000BC6F35EC04F06E0EF66E050EF76E95EC89
:102E300004F0010EBB6F020EBC6F35EC04F0840E83
:102E4000F66E050EF76E95EC04F0010EBB6F030EE7
:102E5000BC6F35EC04F09A0EF66E050EF76E95EC2D
:102E600004F0010EBB6F040EBC6F35EC04F0B00E25
:102E7000F66E050EF76E95EC04F018B830D0189881
:102E8000010EBB6FBC6F35EC04F0C60EF66E050E7E
:102E9000F76E95EC04F0010EBB6F020EBC6F35ECC3
:102EA00004F0DC0EF66E050EF76E95EC04F0010EE4
:102EB000BB6F030EBC6F35EC04F0F20EF66E050E20
:102EC000F76E95EC04F0010EBB6F040EBC6F35EC91
:102ED00004F0080EF66E060EF76E95EC04F0000E88
:102EE00018B8010EA96F050EA96EA9C0A8FFA69C6F
:102EF000A69EA684F250006EF29E0F01550EA76E9C
:102F0000AA0EA76EA682A6B2FED7A6940050F21211
:102F1000040E0001A96FFA0EBB6F6CEC03F0A92F31
:102F2000FAD7020E1D6E1F6E0C0EBA6F66EC04F01F
:102F300019503208D8A461D218A00DD01890050EEF
:102F4000A96F37EC08F003C0A4F002C0A3F001C0E1
:102F5000A2F000C0A1F017AE4CD018A845D00C0EBE
:102F6000BA6F66EC04F0010EBB6F020EBC6F35EC5D
:102F700004F01E0EF66E060EF76E95EC04F0010ED0
:102F8000BB6F030EBC6F35EC04F0340EF66E060E0C
:102F9000F76E95EC04F0010EBB6F040EBC6F35ECC0
:102FA00004F04A0EF66E060EF76E95EC04F0010E74
:102FB000BB6FBC6F35EC04F0600EF66E060EF76E5C
:102FC00095EC04F02E6A2E5004080EE38C80959048
:102FD000C80EBB6F6CEC03F08C909590C80EBB6F65
:102FE0006CEC03F02E2AEFD7179E0C0EBA6F66EC2E
:102FF00004F0A40EC06F700EBF6F3D0EBE6F7D0E4D
:10300000BD6FA4C0C4F0A3C0C3F0A2C0C2F0A1C0F1
:10301000C1F0FCEC07F001E203E1010E3E6E03D0CB
:103020003E6A8C909590010EBB6FBC6F35EC04F03E
:10303000A4C0C0F0A3C0BFF0A2C0BEF0A1C0BDF04C
:10304000D70EC46FA30EC36FC26B810EC16F02ECAB
:1030500009F000C0A9F001C0AAF002C0ABF003C0A3
:10306000ACF0760EF66E060EF76E080EAD6FB7EC8E
:1030700004F0020EE96EACC0B0F0ABC0AFF0AAC075
:10308000AEF0A9C0ADF0B16FD8EC09F0830EF66ECA
:10309000060EF76E070EAD6FB7EC04F0010EBB6FB6
:1030A000020EBC6F35EC04F08C0EF66E060EF76E59
:1030B00095EC04F0A4C0C0F0A3C0BFF0A2C0BEF065
:1030C000A1C0BDF0A40EC46F700EC36F3D0EC26FE1
:1030D0007D0EC16F1AEC06F000C0A9F001C0AAF085
:1030E00002C0ABF003C0ACF003C0C0F002C0BFF040
:1030F00001C0BEF000C0BDF0C46BC36B300EC26F28
:10310000820EC16F02EC09F003C0A0F002C09FF074
:1031100001C09EF000C09DF0C06BBF6B300EBE6F53
:10312000820EBD6FA0C0C4F09FC0C3F09EC0C2F0AD
:103130009DC0C1F0FCEC07F006E3A06B9F6B300E66
:103140009E6F820E9D6F2E6AA0C0ACF09FC0ABF048
:103150009EC0AAF09DC0A9F050EC0CF000C0A9F0F0
:1031600001C0AAF002C0ABF003C0ACF0C26B2EC02D
:10317000C1F0F1EC03F003C0C0F002C0BFF001C029
:10318000BEF000C0BDF0ACC0C4F0ABC0C3F0AAC07C
:10319000C2F0A9C0C1F0FCEC07F00EE3080E2E242B
:1031A000A96FBB6F020EBC6F35EC04F0D10EBA6F85
:1031B00066EC04F02E2AC8D7A0C0ACF09FC0ABF0DC
:1031C0009EC0AAF09DC0A9F050EC0CF003C0C0F066
:1031D00002C0BFF001C0BEF000C0BDF09BEC0AF021
:1031E00001C02EF02E500A080EE3080E2E24A96FFF
:1031F000BB6F020EBC6F35EC04F0200EBA6F66ECAC
:1032000004F02E2AEFD7090EBB6F030EBC6F35EC0E
:1032100004F0940EF66E060EF76E060EAD6FB7EC68
:1032200004F028C0A9F0030EAA6F8DEC05F03A0E49
:10323000BA6F66EC04F029C0A9F0010EAA6F8DECFC
:1032400005F017A411D0010EBB6F040EBC6F35EC56
:1032500004F0A40EF66E060EF76E95EC04F0010E67
:10326000A96F5BEC0CF00FD0010EBB6F040EBC6FAE
:1032700035EC04F0AE0EF66E060EF76E95EC04F02B
:10328000A96B5BEC0CF017A024D00D0EBB6F040EE5
:10329000BC6F35EC04F0B80EF66E060EF76E95ECCA
:1032A00004F01794A96B5BEC0CF017928C94959436
:1032B0008C829592179E18B20BD0C6EC03F0C80E04
:1032C000BB6F6CEC03F0C6EC03F01882010E316E9C
:1032D0001CD017900D0EBB6F040EBC6F35EC04F0C4
:1032E000C00EF66E060EF76E95EC04F08C92959279
:1032F00018A20BD0C6EC03F0C80EBB6F6CEC03F049
:10330000C6EC03F01892010E316E17A21AD0010E0E
:10331000BB6F030EBC6F35EC04F0C80EF66E060EE4
:10332000F76E95EC04F08C84959418B409D0C6EC33
:1033300003F0C80EBB6F6CEC03F0C6EC03F018840E
:1033400019D0010EBB6F030EBC6F35EC04F0D00E2C
:10335000F66E060EF76E95EC04F08C94959418A416
:1033600009D0C6EC03F0C80EBB6F6CEC03F0C6ECE2
:1033700003F01894968084A00DD017B60AD0177267
:103380001786020EA96F960EBB6F6CEC03F0A92F87
:10339000FAD701D01796968284A20DD017B80AD01A
:1033A00017741788020EA96F960EBB6F6CEC03F0B2
:1033B000A92FFAD701D01798968484A405D0960E29
:1033C000BB6F6CEC03F01770928A80AA16D0C80EFF
:1033D000BB6F6CEC03F00C0EBA6F66EC04F0020EDF
:1033E000A96F960EBB6F6CEC03F0A92FFAD7010EF4
:1033F000196E326A020E1D6E1F6E312C57D0320EBE
:10340000A96E22C0A8FFA69CA69EA684F250006EBC
:10341000F29E0F01550EA76EAA0EA76EA682A6B247
:10342000FED7A6940050F212330EA96E23C0A8FF57
:10343000A69CA69EA684F250006EF29E550EA76E24
:10344000AA0EA76EA682A6B2FED7A6940050F212CC
:1034500041C024F04250256E340EA96E24C0A8FF4E
:10346000A69CA69EA684F2CF00F0F29E550EA76EF3
:10347000AA0EA76EA682A6B2FED7A6940050F2129C
:10348000350EA96E25C0A8FFA69CA69EA684F2CFE5
:1034900000F0F29E550EA76EAA0EA76EA682A6B2E7
:1034A000FED7A6940050F212316A00013050130882
:1034B00010E2195032080CE1C6EC03F0C80EBB6FE5
:1034C0006CEC03F0C6EC03F0140EBB6F6CEC03F075
:1034D000306A22503B0802E2226A232A23503C0829
:1034E00004E1236A412AD8B4422A34EF0EF00300E3
:020000040030CA
:0E00000020CE1F1E000781000FC00FE00F4032
:00000001FF
;PIC18F4550
;CRC=E1BE  CREATED="29-may.-18 10:41"
