:10000000C6EF05F0F76A140FF66E000EF72209002E
:10001000F5501200280C01064C555A205556202048
:100020002020202020202020202020004C555A2055
:10003000424C414E434120202020202020202000FF
:1000400056454E54494C41444F52202020202020F8
:100050002020200043414D42494F20434F4E5452EF
:100060004153454E412020002020434142494E410A
:1000700020444520464C554A4F2020200000202097
:100080004C414D494E415220564552544943414CF2
:1000900020200000202020204A5020494E474C4F6D
:1000A00042414C20202020200000202020205245CA
:1000B000463A204A50435633362020202020000064
:1000C0002020202020496E67726573652020202043
:1000D00020202020000020202020436F6E747261B9
:1000E00073656E6120202020202000002020202029
:1000F000434C4156453D25692569256925692020E0
:1001000000002A2A2D2D2D2D2D2D2D2D2D2D2D2D7F
:100110002D2D2D2D2A2A00002A2A202020436F6E03
:1001200074726173656E612020202A2A00002A2AD9
:1001300020202020436F727265637461202020208C
:100140002A2A00002A2A2D2D2D2D2D2D2D2D2D2D45
:100150002D2D2D2D2D2D2A2A00002A2A2D2D2D2D35
:100160002D2D2D2D2D2D2D2D2D2D2D2D2A2A00001F
:100170002A2A202020436F6E74726173656E61209D
:1001800020202A2A00002A2A202020496E636F722C
:1001900072656374612020202A2A00002A2A2D2DEE
:1001A0002D2D2D2D2D2D2D2D2D2D2D2D2D2D2A2A85
:1001B00000002D2D2D4D454E55205052494E43499E
:1001C00050414C2D2D2D000020202020456E6365D0
:1001D0006E64657220202020202020200000202036
:1001E00020204C757A202055563F202020202020AA
:1001F000202000004F6E20202020202020202000E2
:100200004F666620202020202020202000002A2A5F
:100210002D2D2D2D2D2D2D2D2D2D2D2D2D2D2D2D0E
:100220002A2A00002A2A2020204C757A20555620A0
:100230007961202020202A2A00002A2A2065737450
:100240006120656E63656E64696461202A2A00001E
:100250002A2A2D2D2D2D2D2D2D2D2D2D2D2D2D2DD4
:100260002D2D2A2A00002A2A2D2D2D2D2D2D2D2D24
:100270002D2D2D2D2D2D2D2D2A2A00002A2A20202E
:100280002020456E63656E64696F202020202A2A35
:1002900000002A2A20202020204C757A2055562044
:1002A000202020202A2A00002A2A2D2D2D2D2D2D18
:1002B0002D2D2D2D2D2D2D2D2D2D2A2A00002A2AD4
:1002C0002D2D2D2D2D2D2D2D2D2D2D2D2D2D2D2D5E
:1002D0002A2A00002A2A2020204C757A20555620F0
:1002E0007961202020202A2A00002A2A20206573F4
:1002F0007461206170616761646120202A2A0000B6
:100300002A2A2D2D2D2D2D2D2D2D2D2D2D2D2D2D23
:100310002D2D2A2A00002A2A2D2D2D2D2D2D2D2D73
:100320002D2D2D2D2D2D2D2D2A2A00002A2A20207D
:10033000202020417061676F2020202020202A2A61
:1003400000002A2A202020204C757A202055562093
:10035000202020202A2A00002A2A2D2D2D2D2D2D67
:100360002D2D2D2D2D2D2D2D2D2D2A2A0000202037
:1003700020202020456E63656E6465722020202059
:100380002020000020202020204C757A20426C6123
:100390006E63613F2020202000004F6E202020202F
:1003A0002020202020004F666620202020202020B2
:1003B00020002A2A2D2D2D2D2D2D2D2D2D2D2D2DAD
:1003C0002D2D2D2D2A2A00002A2A204C757A204214
:1003D0006C616E636120207961202A2A00002A2A3C
:1003E000206573746120656E63656E646964612065
:1003F0002A2A00002A2A2D2D2D2D2D2D2D2D2D2D93
:100400002D2D2D2D2D2D2A2A00002A2A2D2D2D2D82
:100410002D2D2D2D2D2D2D2D2D2D2D2D2A2A00006C
:100420002A2A20202020456E63656E64696F202093
:1004300020202A2A00002A2A2020204C757A2042D7
:100440006C616E63612020202A2A00002A2A2D2D4B
:100450002D2D2D2D2D2D2D2D2D2D2D2D2D2D2A2AD2
:1004600000002A2A2D2D2D2D2D2D2D2D2D2D2D2D1C
:100470002D2D2D2D2A2A00002A2A20204C757A2085
:10048000426C616E6361207961202A2A00002A2A69
:100490002020657374612061706167616461202050
:1004A0002A2A00002A2A2D2D2D2D2D2D2D2D2D2DE2
:1004B0002D2D2D2D2D2D2A2A00002A2A2D2D2D2DD2
:1004C0002D2D2D2D2D2D2D2D2D2D2D2D2A2A0000BC
:1004D0002A2A2020202020417061676F20202020C0
:1004E00020202A2A00002A2A20204C757A20204227
:1004F0006C616E63612020202A2A00002A2A2D2D9B
:100500002D2D2D2D2D2D2D2D2D2D2D2D2D2D2A2A21
:100510000000202020202020456E63656E646572F7
:100520002020202020200000202020202056656E42
:1005300074696C61646F723F2020202000004F6E50
:10054000202020202020202020004F666620202010
:100550002020202020002A2A2D2D2D2D2D2D2D2D3F
:100560002D2D2D2D2D2D2D2D2A2A00002A2A204516
:100570006C2056656E74696C61646F7220202A2A43
:1005800000002A2A7961206573746120656E6365B5
:100590006E6469646F2A00002A2A2D2D2D2D2D2DC1
:1005A0002D2D2D2D2D2D2D2D2D2D2A2A00002A2AE1
:1005B0002D2D2D2D2D2D2D2D2D2D2D2D2D2D2D2D6B
:1005C0002A2A00002A2A20202020456E63656E64B6
:1005D000696F202020202A2A00002A2A2020205665
:1005E000656E74696C61646F722020202A2A000095
:1005F0002A2A2D2D2D2D2D2D2D2D2D2D2D2D2D2D31
:100600002D2D2A2A00002A2A2D2D2D2D2D2D2D2D80
:100610002D2D2D2D2D2D2D2D2A2A00002A2A20208A
:100620002056656E74696C61646F722020202A2ADE
:1006300000002A2A2020457374612061706167617F
:10064000646F20202A2A00002A2A2D2D2D2D2D2DE1
:100650002D2D2D2D2D2D2D2D2D2D2A2A00002A2A30
:100660002D2D2D2D2D2D2D2D2D2D2D2D2D2D2D2DBA
:100670002A2A00002A2A2020202020417061676F4A
:100680002020202020202A2A00002A2A202020564C
:10069000656E74696C61646F722020202A2A0000E4
:1006A0002A2A2D2D2D2D2D2D2D2D2D2D2D2D2D2D80
:1006B0002D2D2A2A0000202020202020496E67723C
:1006C00065736520202020202020000020436F6ECD
:1006D00074726173656E612041637475616C202072
:1006E000000020202020434C4156453D25692569C6
:1006F00025692569202000002A2A2D2D2D2D2D2D3C
:100700002D2D2D2D2D2D2D2D2D2D2A2A00002A2A7F
:10071000202020436F6E74726173656E612020200B
:100720002A2A00002A2A20202020436F7272656343
:100730007461202020202A2A00002A2A2D2D2D2D08
:100740002D2D2D2D2D2D2D2D2D2D2D2D2A2A000039
:100750002A2A2D2D2D2D2D2D2D2D2D2D2D2D2D2DCF
:100760002D2D2A2A00002A2A202020436F6E747221
:100770006173656E612020202A2A00002A2A202029
:1007800020496E636F7272656374612020202A2A8B
:1007900000002A2A2D2D2D2D2D2D2D2D2D2D2D2DE9
:1007A0002D2D2D2D2A2A00002020202020496E6783
:1007B000726573652020202020202020000020204A
:1007C000436F6E74726173656E61204E75657661FC
:1007D0002020000020202020434C4156453D256923
:1007E000256925692569202000002A2A2D2D2D2D17
:1007F0002D2D2D2D2D2D2D2D2D2D2D2D2A2A000089
:100800002A2A202020436F6E74726173656E612006
:1008100020202A2A00002A2A202020416C6D6163B2
:10082000656E6164612020202A2A00002A2A2D2D6D
:100830002D2D2D2D2D2D2D2D2D2D2D2D2D2D2A2AEE
:100840000000EA6A200EE96EEF500EE0010E016E24
:10085000006A002EFED7012EFBD74A0E006E002E36
:10086000FED700D0EF2EF2D7000C2638F00B006E2A
:100870000F0E81140010816E0000818000D08190E5
:10088000000CF00E936E818400008180000081389E
:100890000F0B266E819000008180000081380F0BC5
:1008A000256E8190000E936E2638006EF00E0016B5
:1008B00000502510016E5FEF04F08192E2D701C075
:1008C00025F001BEFBD723A0819223B081820000D6
:1008D0008194000081902438256E0F0E251625C0C6
:1008E00026F0C3DF24500F0B256E266EBEDF000CF2
:1008F000000E936E8192819481900F0E206EA1DF85
:10090000010E196E1950030808E3030E266EADDFC1
:10091000050E206E96DF192AF5D7020E266EA5DF8A
:10092000196A195003080FE3036A1950F2CF1AF03D
:10093000F29E02EC00F01ABEF28E1A6E236A246E4A
:10094000BCDF192AEED7D3EF05F0010E215CFC0FB6
:100950000FE2040FC0EF04F0800E226E09D0C00E2B
:10096000226E06D0940E226E03D0D40E226E00D0DA
:10097000010E205C2226236A22C024F09EDF000C98
:10098000E824F76AF7369B0FF66E090EF7220A0085
:10099000F550FA6E0800F550F96E58095E096409C1
:1009A0006A091F50F10802E1EE0E1F6E1F500C0A7B
:1009B00005E0060A0DE0020A12E016D0236A010ED5
:1009C000246E7BDF010E046E020E206E3ADF12D021
:1009D000042A010E206E04C021F0B7DF0BD0236A79
:1009E000100E246E6ADF06D0010E236E1FC024F0A5
:1009F00064DF00D0000C0900F5520CE0F6CF1CF0CB
:100A0000F7CF1DF0F5CF1FF0CCDF1CC0F6FF1DC0E7
:100A1000F7FFF1D7000C0900F6CF1AF0F7CF1BF063
:100A2000F5CF1FF0BEDF1AC0F6FF1BC0F7FF192E6F
:100A3000F2D7000C2050016A1F5C03E21FC000F0D7
:100A40000CD0006A080E216E1F3600362050005C64
:100A5000D8B0006E0136212EF7D7000C200E1AA850
:100A6000300E1B6E19C000F019AE07D0001E002A10
:100A700000C019F02D0E1B6E1A8E015019C01FF008
:100A8000640E206ED7DF00C019F0300E01241C6EFA
:100A900019C01FF00A0E206ECDDF300E00241E6E2E
:100AA000300E01241D6E1BC000F01AA602D01AAE33
:100AB0001A941AB80BD01AAE22D01AB420D000C0A3
:100AC0001CF01AB21CD000C01DF019D0300E1C5CF6
:100AD00016E100C01CF0200E1B6E1AA604D01A945A
:100AE0001A821AAE1A92300E1D5C09E100C01DF088
:100AF000200E1C6E1AA6F7D71A921AAE1A901AA4D4
:100B000003D01BC01FF04DDF1AA203D01CC01FF082
:100B100048DF1AA003D01DC01FF043DF1EC01FF026
:100B200040DF000C1A2C0AD0020E206E1BC021F0F0
:100B30000CDF180EF66E000EF76E5DDF1A5002081D
:100B40000AE1020E206E1BC021F0FFDE2C0EF66EB5
:100B5000000EF76E50DF1A5003080AE1020E206EF5
:100B60001BC021F0F2DE400EF66E000EF76E43DF82
:100B70001A5004080AE1020E206E1BC021F0E5DEC7
:100B8000540EF66E000EF76E36DF000CF86AD09E3B
:100B9000EA6AE96AC150C00B0F09C16E070EB46E54
:100BA000956A8C6AA5D6010E206E216ECEDE680E87
:100BB000F66E000EF76E1FDF010E206E020E216E24
:100BC000C4DE7E0EF66E000EF76E15DF010E206E8F
:100BD000030E216EBADE940EF66E000EF76E0BDF7A
:100BE000010E206E040E216EB0DEAA0EF66E000E0F
:100BF000F76E01DF0C0E196EFA0E206E22DE192E32
:100C0000FBD70C0E1F6ECDDE056A050E066E020EBA
:100C1000076E0B0E086E020E096E030E0A6E020EB0
:100C20000B6E0C6A0D900D920D940D960D980D9A09
:100C30000D9C0D9E3E0E0E6E200E0F6E5E0E106E03
:100C4000116A126A136A146A156A166A176A186AB0
:100C5000F2CF19F0F29EA96AA69CA69EA680A85083
:100C600019BEF28E156E140E206EEBDDF2CF19F068
:100C7000F29E010EA96EA69CA69EA680A85019BE43
:100C8000F28E166E140E206EDCDDF2CF19F0F29E9D
:100C9000020EA96EA69CA69EA680A85019BEF28E32
:100CA000176E140E206ECDDDF2CF19F0F29E030EFA
:100CB000A96EA69CA69EA680A85019BEF28E186E9C
:100CC000140E206EBEDD0552D8A4ACD1010E206EEC
:100CD000216E3BDEC00EF66E000EF76E8CDE010E4E
:100CE000206E020E216E31DED60EF66E000EF76E0D
:100CF00082DE010E206E030E216E27DEEC0EF66EF4
:100D0000000EF76E0A0E196E86DE11C019F01F0E66
:100D10001A6EA4DE12C019F01F0E1A6E9FDE13C0E9
:100D200019F01F0E1A6E9ADE14C019F01F0E1A6EFB
:100D300095DE200E1F6E35DE200E1F6E32DE928095
:100D400080A010D00DB80DD00B0E085C036A110FF7
:100D5000E96E000E0320EA6EEF2A0D881E0E206E4B
:100D600070DD01D00D98928280A210D00DBC0DD004
:100D70000B0E085C036A110FE96E000E0320EA6E89
:100D8000EF060D8C1E0E206E5CDD01D00D9C928452
:100D900080A40BD00DBA08D00D8A082A1E0E206E32
:100DA00050DD0C0E1F6EFDDD01D00D9A928680A6DF
:100DB0000BD00DBE08D00D8E08061E0E206E41DD34
:100DC0000C0E1F6EEEDD01D00D9E0B0E085C036A4B
:100DD000110FE96E000E0320EA6EEFBE01D00AD0BB
:100DE0000B0E085C036A110FE96E000E0320EA6E19
:100DF000090EEF6E0B0E085C036A110FE96E000E10
:100E00000320EA6EEFBE0CD0EF50090809E20B0E8A
:100E1000085C036A110FE96E000E0320EA6EEF6AA8
:100E200008500A0802E30B0E086E08C020F0040EFA
:100E3000216E8BDD10C01FF0B4DD08500E08D8B055
:100E4000E1D01150030869E11250080866E113501F
:100E5000090863E11450020860E1A96AA86AA69C27
:100E6000A69EA684F250006EF29E0F01550EA76E4C
:100E7000AA0EA76EA682A6B2FED7A6940050F212C2
:100E8000140E206E0001DDDC010EA96EA86AA69C7E
:100E9000A69EA684F250006EF29E0F01550EA76E1C
:100EA000AA0EA76EA682A6B2FED7A6940050F21292
:100EB000140E206E0001C5DC020EA96EA86AA69C65
:100EC000A69EA684F250006EF29E0F01550EA76EEC
:100ED000AA0EA76EA682A6B2FED7A6940050F21262
:100EE000140E206E0001ADDC030EA96EA86AA69C4C
:100EF000A69EA684F250006EF29E0F01550EA76EBC
:100F0000AA0EA76EA682A6B2FED7A6940050F21231
:100F1000140E206E000195DCFF001550115C3FE1BE
:100F20001650125C3CE11750135C39E11850145C08
:100F300036E1010E206E216E08DD020EF66E010E06
:100F4000F76E59DD010E206E020E216EFEDC180ECA
:100F5000F66E010EF76E4FDD010E206E030E216E50
:100F6000F4DC2E0EF66E010EF76E45DD010E206EDE
:100F7000040E216EEADC440EF66E010EF76E3BDDC8
:100F8000020E196EFA0E206E5CDC192EFBD7010ED4
:100F9000056E0B0E086E0C0E1F6E03DD33D0010EB6
:100FA000206E216ED2DC5A0EF66E010EF76E23DD36
:100FB000010E206E020E216EC8DC700EF66E010E60
:100FC000F76E19DD010E206E030E216EBEDC860E5B
:100FD000F66E010EF76E0FDD010E206E040E216E0F
:100FE000B4DC9C0EF66E010EF76E05DD020E196E76
:100FF000FA0E206E26DC192EFBD70B0E086E0C0E97
:101000001F6ECFDC08500B080DE208500D080AE3F4
:10101000010E085C196E206E040E216E96DC0FC066
:101020001FF0BFDC052C15D1010E206E216E8DDC6A
:10103000B20EF66E010EF76EDEDC928080A00DD04F
:101040000DB80AD00B060906010E09240A6E0D8898
:101050001E0E206E21EC04F001D00D98928280A229
:101060000DD00DBC0AD00B2A092A010E095C0A6EAC
:101070000D8C1E0E206E21EC04F001D00D9C0DB6DF
:1010800047D006500B5C10E2010E1A6E020E1B6E6A
:1010900049DD020E1A6E030E1B6E44DD030E1A6E3E
:1010A000040E1B6E3FDD0D9607500B5C11E2040E23
:1010B000096E020E1A6E1B6E35DD030E1A6E1B6E64
:1010C00031DD040E1A6E1B6E2DDD0D86050E0B6EC6
:1010D00006500B5C1DE1040E096E0750065C196E8C
:1010E000020E1A6E19C01BF01DDD0750065C010FC1
:1010F000196E030E1A6E19C01BF014DD0750065C42
:10110000020F196E040E1A6E19C01BF00BDD0D864E
:101110000DA63DD00B50065C14E2020E096E010EC6
:101120001A6E020E1B6EFEDC020E1A6E030E1B6E92
:10113000F9DC030E1A6E040E1B6EF4DC0D96020E23
:101140000B6E010E07240B5C0CE3020E1A6E1B6E75
:10115000E9DC030E1A6E1B6EE5DC040E1A6E1B6EC4
:10116000E1DC020E065C0B5C12E2020E096E010E5F
:101170001A6E020E1B6ED6DC020E1A6E030E1B6E6A
:10118000D1DC030E1A6E040E1B6ECCDC0D96010E24
:10119000206E09C021F0A5EC04F00EC01FF001DCA8
:1011A0000950020814E1010E206E040E216EA5EC18
:1011B00004F00FC01FF0D1EC04F0010E206E030EFE
:1011C000216EA5EC04F00FC01FF0D1EC04F0095023
:1011D000040814E1010E206E020E216EA5EC04F04D
:1011E0000FC01FF0D1EC04F0010E206E030E216E33
:1011F000A5EC04F00FC01FF0D1EC04F00950030877
:1012000014E1010E206E040E216EA5EC04F00FC057
:101210001FF0D1EC04F0010E206E020E216EA5EC41
:1012200004F00FC01FF0D1EC04F0928480A410D021
:101230000DBA0DD00D8A0BC005F0030E096E1E0EFF
:10124000206E21EC04F00C0E1F6ED1EC04F001D0E6
:101250000D9A05500208D8A475D1010E206E216E9A
:10126000A5EC04F0C80EF66E010EF76EFBEC04F070
:10127000010E206E020E216EA5EC04F0DE0EF66E5D
:10128000010EF76EFBEC04F0060E206E030E216ECD
:10129000A5EC04F0F40EF66E010EF76EFBEC04F014
:1012A000060E206E040E216EA5EC04F0000EF66E04
:1012B000020EF76EFBEC04F0928080A009D00DB80E
:1012C00006D009060D881E0E206E21EC04F001D018
:1012D0000D98928280A209D00DBC06D0092A0D8CEF
:1012E0001E0E206E21EC04F001D00D9C0950030865
:1012F0000BE3030E096E040E206E216EA5EC04F0C4
:101300000FC01FF0D1EC04F0095003080BE2040EEB
:10131000096E206E030E216EA5EC04F00FC01FF0C5
:10132000D1EC04F0928680A60DD00DBE0AD0020E3C
:10133000096E0B6E0D8E010E056E1E0E206E21ECD9
:1013400004F001D00D9E928480A4F1D00DBAEED0AD
:101350000D8A010E056E0950030834E10DA032D04C
:101360000D808C809590010E206E216EA5EC04F00E
:101370000E0EF66E020EF76EFBEC04F0010E206E00
:10138000020E216EA5EC04F0240EF66E020EF76E2E
:10139000FBEC04F0010E206E030E216EA5EC04F0B0
:1013A0003A0EF66E020EF76EFBEC04F0010E206EA4
:1013B000040E216EA5EC04F0500EF66E020EF76ED0
:1013C000FBEC04F00950030834E10DB032D00D807D
:1013D0008C809590010E206E216EA5EC04F0660EB7
:1013E000F66E020EF76EFBEC04F0010E206E020E9C
:1013F000216EA5EC04F07C0EF66E020EF76EFBEC8F
:1014000004F0010E206E030E216EA5EC04F0920E86
:10141000F66E020EF76EFBEC04F0010E206E040E69
:10142000216EA5EC04F0A80EF66E020EF76EFBEC32
:1014300004F00950040834E10DB032D00D908C90C6
:101440009590010E206E216EA5EC04F0BE0EF66E96
:10145000020EF76EFBEC04F0010E206E020E216E00
:10146000A5EC04F0D40EF66E020EF76EFBEC04F061
:10147000010E206E030E216EA5EC04F0EA0EF66E4E
:10148000020EF76EFBEC04F0010E206E040E216ECE
:10149000A5EC04F0000EF66E030EF76EFBEC04F004
:1014A0000950040834E10DA032D00D908C90959035
:1014B000010E206E216EA5EC04F0160EF66E030EE2
:1014C000F76EFBEC04F0010E206E020E216EA5EC0F
:1014D00004F02C0EF66E030EF76EFBEC04F0010E1A
:1014E000206E030E216EA5EC04F0420EF66E030E84
:1014F000F76EFBEC04F0010E206E040E216EA5ECDD
:1015000004F0580EF66E030EF76EFBEC04F0020EBC
:10151000196EFA0E206E21EC04F0192EFAD7020E85
:10152000096E0B6E0C0E1F6ED1EC04F001D00D9AFB
:10153000040E206E09C021F0A5EC04F00EC01FF0CF
:10154000D1EC04F005500308D8A477D1010E206E29
:10155000216EA5EC04F06E0EF66E030EF76EFBEC3A
:1015600004F0010E206E020E216EA5EC04F0840E34
:10157000F66E030EF76EFBEC04F0080E206E030E01
:10158000216EA5EC04F09A0EF66E030EF76EFBECDE
:1015900004F0080E206E040E216EA5EC04F0A60ED9
:1015A000F66E030EF76EFBEC04F0928080A009D07B
:1015B0000DB806D009060D881E0E206E21EC04F031
:1015C00001D00D98928280A209D00DBC06D0092AC4
:1015D0000D8C1E0E206E21EC04F001D00D9C0950E4
:1015E00003080CE3030E096E060E206E040E216E36
:1015F000A5EC04F00FC01FF0D1EC04F00950030873
:101600000CE2040E096E060E206E030E216EA5EC90
:1016100004F00FC01FF0D1EC04F0928680A60DD02C
:101620000DBE0AD0020E096E0B6E0D8E010E056EF8
:101630001E0E206E21EC04F001D00D9E928480A439
:10164000F1D00DBAEED00D8A010E056E09500308D7
:1016500034E10DA232D00D828C809590010E206E67
:10166000216EA5EC04F0B20EF66E030EF76EFBECE5
:1016700004F0010E206E020E216EA5EC04F0C80EDF
:10168000F66E030EF76EFBEC04F0010E206E030EF7
:10169000216EA5EC04F0DE0EF66E030EF76EFBEC89
:1016A00004F0010E206E040E216EA5EC04F0F40E81
:1016B000F66E030EF76EFBEC04F00950030834E1FC
:1016C0000DB232D00D828C829592010E206E216E69
:1016D000A5EC04F00A0EF66E040EF76EFBEC04F0B7
:1016E000010E206E020E216EA5EC04F0200EF66EA7
:1016F000040EF76EFBEC04F0010E206E030E216E5B
:10170000A5EC04F0360EF66E040EF76EFBEC04F05A
:10171000010E206E040E216EA5EC04F04C0EF66E48
:10172000040EF76EFBEC04F00950040834E10DB030
:1017300032D00D928C929592010E206E216EA5EC06
:1017400004F0620EF66E040EF76EFBEC04F0010E70
:10175000206E020E216EA5EC04F0780EF66E040EDB
:10176000F76EFBEC04F0010E206E030E216EA5EC6B
:1017700004F08E0EF66E040EF76EFBEC04F0010E14
:10178000206E040E216EA5EC04F0A40EF66E040E7D
:10179000F76EFBEC04F00950040834E10DA032D0E0
:1017A0000D928C929592010E206E216EA5EC04F0A4
:1017B000BA0EF66E040EF76EFBEC04F0010E206E0E
:1017C000020E216EA5EC04F0D00EF66E040EF76E3C
:1017D000FBEC04F0010E206E030E216EA5EC04F06C
:1017E000E60EF66E040EF76EFBEC04F0010E206EB2
:1017F000040E216EA5EC04F0FC0EF66E040EF76EDE
:10180000FBEC04F0020E196EFA0E206E21EC04F0CF
:10181000192EFAD7020E096E0B6E0C0E1F6ED1EC4C
:1018200004F001D00D9A060E206E09C021F0A5EC3F
:1018300004F00EC01FF0D1EC04F005500408D8A449
:1018400077D1010E206E216EA5EC04F0120EF66E1B
:10185000050EF76EFBEC04F0010E206E020E216EF9
:10186000A5EC04F0280EF66E050EF76EFBEC04F006
:10187000080E206E030E216EA5EC04F03E0EF66EEF
:10188000050EF76EFBEC04F0080E206E040E216EC0
:10189000A5EC04F04A0EF66E050EF76EFBEC04F0B4
:1018A000928080A009D00DB806D009060D881E0EC2
:1018B000206E21EC04F001D00D98928280A209D014
:1018C0000DBC06D0092A0D8C1E0E206E21EC04F0F2
:1018D00001D00D9C095003080CE3030E096E060E9F
:1018E000206E040E216EA5EC04F00FC01FF0D1ECA9
:1018F00004F0095003080CE2040E096E060E206E77
:10190000030E216EA5EC04F00FC01FF0D1EC04F023
:10191000928680A60DD00DBE0AD0020E096E0B6E07
:101920000D8E010E056E1E0E206E21EC04F001D00E
:101930000D9E928480A4F1D00DBAEED00D8A010ED6
:10194000056E0950030834E10DA432D00D848C8457
:101950009594010E206E216EA5EC04F0560EF66EE5
:10196000050EF76EFBEC04F0010E206E020E216EE8
:10197000A5EC04F06C0EF66E050EF76EFBEC04F0B1
:10198000010E206E030E216EA5EC04F0820EF66EA1
:10199000050EF76EFBEC04F0010E206E040E216EB6
:1019A000A5EC04F0980EF66E050EF76EFBEC04F055
:1019B0000950030834E10DB432D00D848C84959421
:1019C000010E206E216EA5EC04F0AE0EF66E050E33
:1019D000F76EFBEC04F0010E206E020E216EA5ECFA
:1019E00004F0C40EF66E050EF76EFBEC04F0010E6B
:1019F000206E030E216EA5EC04F0DA0EF66E050ED5
:101A0000F76EFBEC04F0010E206E040E216EA5ECC7
:101A100004F0F00EF66E050EF76EFBEC04F00950C4
:101A2000040834E10DB432D00D948C949594010ED9
:101A3000206E216EA5EC04F0060EF66E060EF76E13
:101A4000FBEC04F0010E206E020E216EA5EC04F0FA
:101A50001C0EF66E060EF76EFBEC04F0010E206E07
:101A6000030E216EA5EC04F0320EF66E060EF76E34
:101A7000FBEC04F0010E206E040E216EA5EC04F0C8
:101A8000480EF66E060EF76EFBEC04F009500408E3
:101A900034E10DA432D00D948C949594010E206EF7
:101AA000216EA5EC04F05E0EF66E060EF76EFBECF2
:101AB00004F0010E206E020E216EA5EC04F0740EEF
:101AC000F66E060EF76EFBEC04F0010E206E030EB0
:101AD000216EA5EC04F08A0EF66E060EF76EFBEC96
:101AE00004F0010E206E040E216EA5EC04F0A00E91
:101AF000F66E060EF76EFBEC04F0020E196EFA0E8F
:101B0000206E21EC04F0192EFAD7020E096E0B6E2E
:101B10000C0E1F6ED1EC04F001D00D9A060E206E53
:101B200009C021F0A5EC04F00EC01FF0D1EC04F0C8
:101B300005500508D8A470D1010E206E216EA5ECC9
:101B400004F0B60EF66E060EF76EFBEC04F0010E16
:101B5000206E020E216EA5EC04F0CC0EF66E060E81
:101B6000F76EFBEC04F0010E206E030E216EA5EC67
:101B700004F0E20EF66E060EF76E0A0E196E0BEC0E
:101B800005F011C019F01F0E1A6E2EEC05F012C0F0
:101B900019F01F0E1A6E2EEC05F013C019F01F0E6F
:101BA0001A6E2EEC05F014C019F01F0E1A6E2EECF2
:101BB00005F0200E1F6ED1EC04F0200E1F6ED1EC4C
:101BC00004F0928080A011D00DB80ED00B0E085CEE
:101BD000036A110FE96E000E0320EA6EEF2A0D88EA
:101BE0001E0E206E21EC04F001D00D98928280A28E
:101BF00011D00DBC0ED00B0E085C036A110FE96EFC
:101C0000000E0320EA6EEF060D8C1E0E206E21ECF6
:101C100004F001D00D9C928480A40DD00DBA0AD09E
:101C20000D8A082A1E0E206E21EC04F00C0E1F6E89
:101C3000D1EC04F001D00D9A928680A60DD00DBE95
:101C40000AD00D8E08061E0E206E21EC04F00C0E3C
:101C50001F6ED1EC04F001D00D9E0B0E085C036AE0
:101C6000110FE96E000E0320EA6EEFBE01D00AD01C
:101C70000B0E085C036A110FE96E000E0320EA6E7A
:101C8000090EEF6E0B0E085C036A110FE96E000E71
:101C90000320EA6EEFBE0CD0EF50090809E20B0EEC
:101CA000085C036A110FE96E000E0320EA6EEF6A0A
:101CB00008500A0808E3010E056E0D96020E096E23
:101CC0000B6E0B0E086E08C020F0040E216EA5EC02
:101CD00004F010C01FF0D1EC04F008500E08D8B08A
:101CE00089D01550115C49E11650125C46E117503D
:101CF000135C43E11850145C40E1010E206E216E2C
:101D0000A5EC04F0F80EF66E060EF76EFBEC04F090
:101D1000010E206E020E216EA5EC04F00E0EF66E82
:101D2000070EF76EFBEC04F0010E206E030E216E21
:101D3000A5EC04F0240EF66E070EF76EFBEC04F033
:101D4000010E206E040E216EA5EC04F03A0EF66E24
:101D5000070EF76EFBEC04F0020E196EFA0E206E01
:101D600021EC04F0192EFAD7330E056E0B0E086E17
:101D70000C0E1F6ED1EC04F03DD0010E206E216ED2
:101D8000A5EC04F0500EF66E070EF76EFBEC04F0B7
:101D9000010E206E020E216EA5EC04F0660EF66EAA
:101DA000070EF76EFBEC04F0010E206E030E216EA1
:101DB000A5EC04F07C0EF66E070EF76EFBEC04F05B
:101DC000010E206E040E216EA5EC04F0920EF66E4C
:101DD000070EF76EFBEC04F0020E196EFA0E206E81
:101DE00021EC04F0192EFAD70B0E086E0C0E1F6EA4
:101DF000D1EC04F008500B080FE208500D080CE37A
:101E0000010E085C196E206E040E216EA5EC04F024
:101E10000FC01FF0D1EC04F005503308D8A487D1CF
:101E2000010E206E216EA5EC04F0A80EF66E070ED2
:101E3000F76EFBEC04F0010E206E020E216EA5EC95
:101E400004F0BE0EF66E070EF76EFBEC04F0010E0A
:101E5000206E030E216EA5EC04F0D40EF66E070E74
:101E6000F76E0A0E196E0BEC05F011C019F01F0E7B
:101E70001A6E2EEC05F012C019F01F0E1A6E2EEC21
:101E800005F013C019F01F0E1A6E2EEC05F014C0E9
:101E900019F01F0E1A6E2EEC05F0200E1F6ED1ECFD
:101EA00004F0200E1F6ED1EC04F0928080A011D0BF
:101EB0000DB80ED00B0E085C036A110FE96E000E10
:101EC0000320EA6EEF2A0D881E0E206E21EC04F02E
:101ED00001D00D98928280A211D00DBC0ED00B0EB5
:101EE000085C036A110FE96E000E0320EA6EEF062C
:101EF0000D8C1E0E206E21EC04F001D00D9C9284FE
:101F000080A40DD00DBA0AD00D8A082A1E0E206EAC
:101F100021EC04F00C0E1F6ED1EC04F001D00D9AF0
:101F2000928680A60DD00DBE0AD00D8E08061E0E1C
:101F3000206E21EC04F00C0E1F6ED1EC04F001D0E9
:101F40000D9E0B0E085C036A110FE96E000E032054
:101F5000EA6EEFBE01D00AD00B0E085C036A110FC7
:101F6000E96E000E0320EA6E090EEF6E0B0E085CA0
:101F7000036A110FE96E000E0320EA6EEFBE0CD06B
:101F8000EF50090809E20B0E085C036A110FE96EB5
:101F9000000E0320EA6EEF6A08500A0804E3050EFB
:101FA000056E0B0E086E08C020F0040E216EA5EC25
:101FB00004F010C01FF0D1EC04F008500E08D8B0A7
:101FC000A4D0010E206E216EA5EC04F0EA0EF66E90
:101FD000070EF76EFBEC04F0010E206E020E216E70
:101FE000A5EC04F0000EF66E080EF76EFBEC04F0A4
:101FF000010E206E030E216EA5EC04F0160EF66E97
:10200000080EF76EFBEC04F0010E206E040E216E3C
:10201000A5EC04F02C0EF66E080EF76EFBEC04F047
:10202000A96A11C0A8FFA69CA69EA684F250006EC5
:10203000F29E0F01550EA76EAA0EA76EA682A6B23B
:10204000FED7A6940050F212140E206E000121EC6F
:1020500004F0010EA96E12C0A8FFA69CA69EA6843D
:10206000F250006EF29E0F01550EA76EAA0EA76EDB
:10207000A682A6B2FED7A6940050F212140E206ECD
:10208000000121EC04F0020EA96E13C0A8FFA69C6B
:10209000A69EA684F250006EF29E0F01550EA76E0A
:1020A000AA0EA76EA682A6B2FED7A6940050F21280
:1020B000140E206E000121EC04F0030EA96E14C072
:1020C000A8FFA69CA69EA684F250006EF29E0F0169
:1020D000550EA76EAA0EA76EA682A6B2FED7A6942C
:1020E0000050F212140E206E000121EC04F0020EDA
:1020F000196EFA0E206E21EC04F0192EFAD7010E9B
:10210000056E0D96020E096E0B6E08500B080FE25D
:1021100008500D080CE3010E085C196E206E040EC9
:10212000216EA5EC04F00FC01FF0D1EC04F063EFBA
:0421300006F00300B2
:020000040030CA
:0E0000003FC03E1E000781000FC00FE00F4002
:00000001FF
;PIC18F4550
;CRC=B629  CREATED="09-may-14 15:32"
