:100000004AEF09F06896000C046ED8CF05F0E0CFF7
:1000100006F00001E9CF0CF0EACF07F0E1CF08F0DD
:10002000E2CF09F0D9CF0AF0DACF0BF0F3CF12F01C
:10003000F4CF13F0FACF14F000C00EF001C00FF0AF
:1000400002C010F003C011F0A0AA2AEF00F0A1BA7C
:100050000FEF08F00EC000F00FC001F010C002F06A
:1000600011C003F00CC0E9FF07C0EAFF078E08C00B
:10007000E1FF09C0E2FF0AC0D9FF0BC0DAFF12C0DE
:10008000F3FF13C0F4FF14C0FAFF045006C0E0FFF2
:1000900005C0D8FF1000F76AA60FF66E000EF72213
:1000A0000900F5501200000302FFFFFFFFFFFFFFF2
:1000B000FFFFFFFFFFFFF76AC60FF66E000EF72285
:1000C0000900F550120000FF02FFFFFFFFFFFFFFD6
:1000D000FFFFFFFFFFFFF76AE60FF66E000EF72245
:1000E0000900F55012004000080040000000000028
:1000F0000000000000000000000000000000000000
:1001000000000000000007AE03D0F2CF0DF0F29E19
:10011000F76A280FF66E010EF7220900F55007AEB8
:1001200002D00DBEF28E1200400000004000000020
:1001300000000000000000000000000000000000BF
:100140000000000000000000F76A580FF66E010E74
:10015000F7220900F5501200090243000201008055
:10016000320904000001020201000524001001040C
:10017000240202052406000105240100010705816F
:10018000030800FA09040100020A00000007050242
:10019000024000010705820240000100F76AAC0F2F
:1001A000F66E010EF7220900F55012000200F76A00
:1001B000BE0FF66E010EF7220900F550120012175D
:1001C0001B20FFFFFFFFF76AD60FF66E010EF72226
:1001D0000900F550120012011001020000406104F4
:1001E0003300000101020001F76AF80FF66E010EFC
:1001F000F7220900F5501200040309040803430024
:1002000043005300180353004500520049004100C9
:100210004C002000440045004D004F006D92699451
:1002200068A402D06894FCD71BEF08F0400E0401CC
:10023000016F040E036F180E026F880E006F046BBF
:10024000040E076F580E066F0001000C70A002D05C
:10025000EDDF7090689A24EF08F06A6A68922AEFDE
:1002600008F0CE91CDBFCE81CD9FCD51100803E2D5
:10027000000E016E21D0CEA110D0036ACD51F2CF75
:10028000CFF0F29E08DFCFBFF28EFF0802E1000E32
:1002900001D0010E016E10D00FD0036ACD51F2CF04
:1002A000CFF0F29E08DFCFBFF28EFF0802E1000E12
:1002B00001D0010E016E00D0000CD251D403F3CF57
:1002C00001F0F4CF00F0D503F3500026D351D4034E
:1002D000F3500020026E000C036ACC51700FE96EDF
:1002E0000F0E0320EA6EEF6ACCC0CDF0BADF0152E8
:1002F00022E0D36BCCC0D2F0D56B080ED46FDDDF1B
:1003000001C0E9FF040E0224EA6EEF6AD36BCCC091
:10031000D2F0D56B080ED46FD0DF02C0CEF001C092
:10032000CDF0040ECD27000ECE23CDC0E9FF040E84
:10033000CE25EA6EEF6A000C010ECB6FCB510F0891
:1003400005E3CBC0CCF0C8DFCB2BF8D7000C296A73
:10035000286A250E276E800E266E2A6A2B6A080EE2
:100360002C6E7B6B7A912E6A2D6A766B7791000CDE
:10037000C16BC15101080AE3036AC151240FE96E40
:10038000000E0320EA6EEF6AC12BF3D7E0DF186A94
:10039000010E196E176A000C6A6A686A9F0E6B6E0E
:1003A0003D0E696E6E6AC8DFE3DF160E706E68A6DA
:1003B00002D028DEFCD76D9839DF030E1F6E30EFB8
:1003C00008F0698468986D8236EF08F0689C3CEF0D
:1003D00008F0C6C020F0000CFF0E206E000CC46BAD
:1003E000235235E0C4513F0832E31A5005E0020AB7
:1003F0000DE0010A15E01ED0036A2250F2CFC6F0CC
:10040000F29EA2DEC6BFF28EC56F14D0036A2250E0
:10041000F2CFC6F0F29EE8DEC6BFF28EC56F0AD0FC
:10042000036A2250F2CFC6F0F29ECDDEC6BFF28E36
:10043000C56F00D0222A2306C451C42B580FE96E81
:10044000040EEA6ED8B0EA2AC5C0EFFFC9D723521E
:1004500004E1C451400801E0176AC4C0C6F0B9DF26
:10046000000C226A1A6A04011B51010A000107E00C
:10047000030A0AE0010A0BE0220A20E03AD0120E39
:10048000236E030E1A6E37D0430E236E34D0020E45
:100490001A6E036A04011A511B0FE96E000E032045
:1004A000EA6EEFCF22F0036A2250F2CFC3F0F29E41
:1004B00000019ADEC3BFF28E236E1DD0036A0401D1
:1004C0001A51F2CFC3F0F29E000171DEC3BFF28E6B
:1004D000226E223C01D00BD0036A2250F2CFC3F02F
:1004E000F29E32DEC3BFF28E236E05D002D074DFDF
:1004F0000ED072DF0CD004011F5305E123501E5DA6
:1005000002E21EC423F0010E176E000168DFC9EF7E
:1005100003F0C35304E1040E1F6E0EDFE7D0050E97
:100520001F6E040EC66F980EC56F010EC46FC451C6
:100530000F08D8A0DBD0C4C0CCF0CEDEC76B036AF6
:10054000C451F2CFCBF0F29EB6DDCBBFF28EFF08E6
:1005500063E0040EC76FD890C435036AF2CFCBF0C6
:10056000F29ED1DD0900F5CF03F0CBBFF28EC86F4C
:1005700003C0C9F0D36BC4C0D2F0D56B080ED46FE2
:100580009CDE01C0CBF0010E0124016E000E0220A2
:10059000036E01C0E9FF040E0324EA6EC8C0EFFF3A
:1005A000D36BC4C0D2F0D56B080ED46F86DE01C009
:1005B000CBF0020E0124016E000E0220036E01C07A
:1005C000E9FF040E0324EA6EC6C0ECFFED52C5C07D
:1005D000EFFFD890C435036AF2CFCBF0F29E93DDE3
:1005E0000900F5CF03F0CBBFF28EC5270350C62319
:1005F000880ECA6FC9B1CA81C9B3CA83D36BC4C0DC
:10060000D2F0D56B080ED46F58DE01C0E9FF040E9E
:100610000224EA6ECAC0EFFF036AC451F2CFCBF0E6
:10062000F29E39DDCBBFF28EFF0845E0C783D36B66
:10063000C4C0D2F0D56B080ED46F3FDE02C0CCF040
:1006400001C0CBF0040ECB27000ECC23020ECB252D
:10065000016E000ECC21036E01C0E9FF040E0324DD
:10066000EA6EC6C0ECFFED52C5C0EFFFD890C435AE
:10067000036AF2CFCBF0F29E2EDD0900F5CF03F036
:10068000CBBFF28EC5270350C623D36BC4C0D2F0B4
:10069000D56B080ED46F11DE02C0CCF001C0CBF0D8
:1006A000040ECB27000ECC23CBC0E9FF040ECC25D3
:1006B000EA6E400EEF6EC751060802E10E0EC76FDC
:1006C000036AC451F2CFCBF0F29EE5DCCBBFF28ED1
:1006D0000108D8A4C789036AC451700FE96E0F0ED0
:1006E0000320EA6EC7C0EFFFC42B21D7C3EF03F08E
:1006F00004011951000A00010DE0010A14E0020A88
:100700001EE0060A27E0030A2CE00E0A2CE0010A8C
:1007100030E03DD019C058F40401596B020E0001BD
:10072000C66F57DE36D004011A2D06D0010E1916F9
:100730000001C66B4EDE02D000014EDE2AD004015D
:100740001A2D05D019820001C66B43DE02D00001CC
:1007500043DE1FD0020E176E1AC421F0C66B39DEBD
:1007600018D07FD616D018C058F4010EC66F31DEEF
:1007700010D004011A51010808E31AC418F01AC471
:10078000C3F00001C6D6C66B24DE000102D024DE11
:1007900000D042EF05F018C0C3F004011951000A5F
:1007A000000105E00A0A0BE0010A2BE03CD004013D
:1007B000586B596B020E0001C66F0BDE36D0C35367
:1007C0001EE0010EC35D036AF2CFC4F0F29EE6DCC8
:1007D000C4BFF28E016E04011C5DD8A002D00001DE
:1007E0000ED0036A1C51240FE96E000E0320EA6E3E
:1007F000EFCF58F4010E0001C66FEBDD01D0ECDD48
:1008000014D0C3530EE0036A04011C51240FE96E97
:10081000000E0320EA6E1AC4EFFF0001C66BD9DD9B
:1008200001D0DADD02D0D8DD00D042EF05F0C4916E
:10083000C3BFC481C39FC4A117D0D36BC3C0D2F0C0
:10084000D56B080ED46F39DD02C0C6F001C0C5F00B
:10085000040EC527000EC623C5C0E9FF040EC62539
:10086000EA6E880EEF6E0DD0D36BC3C0D2F0D56B9D
:10087000080ED46F22DD01C0E9FF040E0224EA6EE7
:10088000EF6AB7EF04F0C491C3BFC481C39FC4A192
:1008900017D0D36BC3C0D2F0D56B080ED46F0DDD6B
:1008A00002C0C6F001C0C5F0040EC527000EC62365
:1008B000C5C0E9FF040EC625EA6E840EEF6E0ED0A9
:1008C000D36BC3C0D2F0D56B080ED46FF6DC01C079
:1008D000E9FF040E0224EA6E840EEF6EBDEF04F011
:1008E000C491C3BFC481C39FC4A117D0D36BC3C07D
:1008F000D2F0D56B080ED46FE0DC02C0C7F001C0A7
:10090000C6F0040EC627000EC723C6C0E9FF040EBA
:10091000C725EA6EEFCFC5F00ED0D36BC3C0D2F0BF
:10092000D56B080ED46FC9DC01C0E9FF040E0224A8
:10093000EA6EEFCFC5F0C5AF02D0C5B502D0000E4C
:1009400001D0010E016EC7EF04F01CC4CDF089DCAC
:10095000015229E004011951010A000105E0020ACF
:1009600009E0030A0DE01DD01CC4C3F060D7C66BBC
:1009700030DD19D01CC4C3F086D7C66B2ADD13D076
:100980000401586B596B1CC4C3F00001A9D7015274
:1009900004E0010E0401586F0001020EC66F19DD5C
:1009A00002D01ADD00D042EF05F0FE0E206E000CE2
:1009B00004011C2D01D002D01C5349E11951000A39
:1009C00000010BE0010A0DE0210A1CE0010A1FE012
:1009D000030A2EE0010A31E037D0010E7D6FE5DF1A
:1009E00035D0040EEA6E580EE96EE26A2F0EE16E03
:1009F000080E016EE6CFEEFF012EFCD71EC4C6F036
:100A0000E8DC24D0020E7D6F7A81CFDF1FD0040E88
:100A1000EA6E580EE96EE26A260EE16E070E016E6E
:100A2000E6CFEEFF012EFCD7070EC66FD2DC0ED04C
:100A30001AC47BF0C66BCDDC09D01AC42EF01BC4DF
:100A40002DF0C66BC6DC02D0C7DC00D0040100016B
:100A500042EF05F0176A040118517F0B000A0001EC
:100A600007E0010A07E0030A07E0230A07E008D0CD
:100A70003FD608D090D606D068D704D099D702D0F8
:100A8000ABDC00D064EF07F0D36BC3C0D2F0D56B02
:100A9000080ED46F12DC01C0E9FF040E0224EA6ED6
:100AA000EFCFC5F0C451020806E1C5AD02D0C46B5A
:100AB00002D0010EC46FC45103081AE1840EC56F41
:100AC000D36BC3C0D2F0D56B080ED46F5DEC01F0D0
:100AD00002C0C9F001C0C8F0040EC827000EC92327
:100AE000C8C0E9FF040EC925EA6E840EEF6E07D078
:100AF000C42D03D0C80EC56F02D0880EC56FD89024
:100B0000C335036AF2CFC8F0F29E83EC00F009000F
:100B1000F5CF03F0C8BFF28EC66F03C0C7F0D36B2A
:100B2000C3C0D2F0D56B080ED46F5DEC01F001C0EC
:100B3000C8F0010E0124016E000E0220036E01C0F8
:100B4000E9FF040E0324EA6EC6C0EFFFC7B1C581FA
:100B5000C7B3C583D36BC3C0D2F0D56B080ED46FB7
:100B60005DEC01F001C0E9FF040E0224EA6EC5C08D
:100B7000EFFF000C036AD151700FE96E0F0E0320D6
:100B8000EA6EEF5219E0D36BD1C0D2F0D56B080EEC
:100B9000D46F5DEC01F002C0D3F001C0D2F0040EBE
:100BA000D227000ED323D2C0E9FF040ED325EA6E6C
:100BB000EFCFD2F0D2AF02D0000E01D0010E016E05
:100BC000000CCCC0D1F0D6DF0152D8B47CD0D36BAE
:100BD000CCC0D2F0D56B080ED46F5DEC01F002C032
:100BE000D2F001C0D1F0040ED127000ED223010EA5
:100BF000D125016E000ED221036E01C0E9FF040E63
:100C00000324EA6ECDC0EFFFCF5102081EE1D36B83
:100C1000CCC0D2F0D56B080ED46F5DEC01F002C0F1
:100C2000D2F001C0D1F0040ED127000ED223D1C0E2
:100C3000E9FF040ED225EA6EEFCFD0F0D0AD02D09E
:100C4000CF6B02D0010ECF6F18D0CF51040815E141
:100C5000D36BCCC0D2F0D56B080ED46F5DEC01F035
:100C600001C0E9FF040E0224EA6EEFCFD0F0D0AD50
:100C700003D0010ECF6F01D0CF6BCF2D03D0C80EA4
:100C8000D06F02D0880ED06FCEB1D081CEB3D083DA
:100C9000D36BCCC0D2F0D56B080ED46F5DEC01F0F5
:100CA00002C0D2F001C0D1F0040ED127000ED22331
:100CB000D1C0E9FF040ED225EA6ED0C0EFFF010ECD
:100CC000016E03D000D0000E016E000C7D51010AB0
:100CD00003E0030A13E024D0EA6A2F0EE96E040E43
:100CE000E26E180EE16E080E016EE6CFEEFF012EE9
:100CF000FCD7C66BE9EC01F07D6B14D0EA6A260ED6
:100D0000E96E040EE26E180EE16E070E016EE6CF7C
:100D1000EEFF012EFCD77D6BC66BE9EC01F002D033
:100D20007D6B00D0BEEF06F0D36BC4C0D2F0D56BA4
:100D3000080ED46F5DEC01F002C0C6F001C0C5F032
:100D4000010E0124016E000E0220036E01C0E9FFB6
:100D5000040E0324EA6E036AEFCF01F003C002F031
:100D6000B7EF06F07781796B020EC46FDDD701C053
:100D700078F0C3EF06F0C35302E1A8D704D0C35103
:100D8000020801E1EFD7000CC4C06EFFC45303E0BA
:100D9000040E1F6E02D0020E1F6ED4EF06F0186A0A
:100DA000176A21C0C4F0F0D743EF07F0C4C0D1F0F8
:100DB000E1DE015246E0D36BC4C0D2F0D56B080E21
:100DC000D46F5DEC01F002C0CDF001C0CCF0040E98
:100DD000CC27000ECD23020ECC25016E000ECD21B6
:100DE000036E01C0E9FF040E0324EA6EECCF03F0AA
:100DF000ED52EFCFCAF003C0CBF0CBC0EAFFCAC0C0
:100E0000E9FFC6C0E2FFC5C0E1FFC8C002F0C7C02D
:100E100001F0015202E0022A02D0025206E0E6CFBF
:100E2000EEFF012EFCD7022EFAD7C4C0CCF0C8C00A
:100E3000CEF0C7C0CDF0C9C0CFF0C3DE015003D0A3
:100E400000D0000E016E000C020EC46FC66B370E90
:100E5000C56FC86B76C0C7F0020EC96FA7DF76C03A
:100E60007CF0766B000C765301E0EEDF48EF07F084
:100E7000C3530AE1172C03D0EFEC01F004D0175054
:100E8000020801E18CD704D0C351020801E1EBD77D
:100E9000000C1E30C16FC133C1331F0EC1171E526B
:100EA00042E1040100513C0B0001C26F430E0401FA
:100EB00000170001C25134081EE104010451800BE7
:100EC00001E0046B0001C6D56D98203C05D0C36BD2
:100ED000030EC46FD9DD0ED0C36B020EC46FD4DD18
:100EE0002050FE0807E0CC6BCE6B20C0CDF0040E86
:100EF000CF6F67DE17D0C251040814E1C36B3BDF2C
:100F0000C36B020EC46FC0DD2050FE080AE0203C17
:100F100001D007D0CC6BCE6B20C0CDF0010ECF6FCF
:100F200050DE00D07AD01E50040814E1430E0401B4
:100F30000417FF0E206E0001C36B9ADF203C01D026
:100F400008D0CC6BCE6B20C0CDF0020ECF6F39DE57
:100F500000D063D01EB42AD0D36BC1C0D2F0D56B01
:100F6000080ED46F5DEC01F001C0C3F001C001F0C8
:100F7000040E0224036E01C0C3F0C46FD36BC1C062
:100F8000D2F0D56B080ED46F5DEC01F001C0E9FF23
:100F9000040E0224EA6EEF50430BC4C0EAFFC3C044
:100FA000E9FFEF6EC1C0C3F0E6DE37D0D36BC1C03E
:100FB000D2F0D56B080ED46F5DEC01F002C0C4F026
:100FC00001C0C3F0040EC327000EC423C3C001F048
:100FD000040EC425036EC3C0C3F0C46FD36BC1C07D
:100FE000D2F0D56B080ED46F5DEC01F002C0C6F0F4
:100FF00001C0C5F0040EC527000EC623C5C0E9FF19
:10100000040EC625EA6EEF50430BC4C0EAFFC3C00E
:10101000E9FFEF6EC1C0C3F02BDF46EF08F0A19AE5
:101020001F5201E139D0685237E068A404D069A4A6
:1010300002D00EEF01F06DA201D02ED068AA04D02C
:1010400069AA02D026EF01F068A204D069A202D0FA
:101050002DEF01F068A004D069A002D0CCEF01F020
:1010600068A804D069A802D0E1EF01F068AC04D010
:1010700069AC02D0E6EF01F0C06B68A608D069A6A3
:1010800006D06CCF1EF002EC00F003D701D004D0E4
:10109000C051C02B0308F1E22AEF00F06D6A696AC3
:1010A000080E6F6E94503009946E1F6A166AF2BE75
:1010B000168EF29EB8EC01F016BEF28E61EF08F0CB
:1010C000EDD786EF08F0166AF2BE168EF29EB8ECE7
:1010D00001F016BEF28E6D6A140E6F6E696A6D862F
:1010E000010E1F6E77EF08F06DB601D0ECD71F2C04
:1010F0000BD06DBA09D0686A696AA08AC00EF21274
:10110000110E696E020E1F6E000CDAD7EDDF1F5054
:101110000208FCE183EF09F01850016E88EF09F036
:10112000AC91F2BEAC81F29E76513E0802E23E0ED8
:10113000766F7651762B036A370FE96E000E032027
:10114000EA6EABC0EFFFF29EACB1F28E166AF2BE51
:10115000168EF29E020ED16F0DDD16BEF28E01527A
:1011600007E0166AF2BE168EF29E6EDE16BEF28E94
:10117000000CEF520FE0EACFAAF0E9CFA9F0EFCFD1
:10118000ABF0CEDFAAC0EAFFA9C0E9FFE92AD8B4D4
:10119000EA2AEFD7F6EF08F0EA6AA90EE96EEF50F7
:1011A0000EE00F0E016E006A002EFED7012EFBD757
:1011B0008F0E006E002EFED70000EF2EF2D7000C2F
:1011C000FF0E906F916F926FA8C093F0A6C094F03D
:1011D000A7C095F0800E966FFF0E976F986F996F6E
:1011E000800E9A6FEA6A900EE96EC3D7040EA96F5B
:1011F000D3DF000C7791166AF2BE168EF29E020EB5
:10120000C36FC46F41DC16BEF28E18EF09F077B1E0
:1012100001D0FDD77951792BA00FE96E040EEA6E4B
:10122000D8B0EA2AEFCFA8F07851795D01E3E2D790
:10123000A8C001F0C5EF09F076513E0813E2166A26
:10124000F2BE168EF29E020ED16F94DC16BEF28EA6
:10125000015207E0166AF2BE168EF29EF5DD16BE4A
:10126000F28EEAD7AAC0ABF05BDF40EF09F0EF5295
:101270000FE0EACFA9F0E9CFA8F0EFCFAAF0DCD7D2
:10128000A9C0EAFFA8C0E9FFE92AD8B4EA2AEFD743
:10129000CBEF09F0F86AD09E078EEA6AE96A1F6A06
:1012A000236A766B7D6B8C6B8D6BFF0E8E6F800E61
:1012B0008F6F030EA76FFF0EA66FC150C00B0F09F3
:1012C000C16E070EB46E1B6A040E1C6E0C0E1D6EF2
:1012D0007E6B7F6B906B916B926B936B946B956B4A
:1012E000966B976B986B996B9A6B9B6B9C6B9D6BDA
:1012F0009E6B9F6BA06BA16BA26BA36BA46BA56B8A
:10130000A7EC01F002D7F0DE7AB101D0FDD704D707
:10131000015241E0958E83AE09D0010E8C6F8CC0D6
:10132000A8F04EDF640EA96F37DF2CD0958C83AC0C
:1013300009D0020E8C6F8CC0A8F042DF640EA96F3A
:101340002BDF20D0958A83AA09D0030E8C6F8CC026
:10135000A8F036DF640EA96F1FDF14D0958883A82C
:1013600009D0040E8C6F8CC0A8F02ADF640EA96F20
:1013700013DF08D02C0E8C6F8CC0A8F021DF640E18
:10138000A96F0ADF77A107D042D701C08AF0EA6AC5
:0A1390008AC0E9FF6CD7BBD7030049
:020000040030CA
:0E00000020CE3E1E008781000FC00FE00F4093
:00000001FF
;PIC18F4550
;CRC=367A  CREATED="03-abr.-17 11:23"
