:0400000067EF2BF08B
:0800080061EF00F000000000B0
:100010000000000000000000046ED8CF05F0E0CF23
:1000200006F00001E9CF0CF0EACF07F0E1CF08F0CD
:10003000E2CF09F0D9CF0AF0DACF0BF0F3CF12F00C
:10004000F4CF13F0FACF14F0F5CF15F0F6CF16F089
:10005000F7CF17F0F8CF18F0FBCF19F000C00EF073
:1000600001C00FF002C010F003C011F00EC000F08C
:100070000FC001F010C002F011C003F00CC0E9FF86
:1000800007C0EAFF078E08C0E1FF09C0E2FF0AC00F
:10009000D9FF0BC0DAFF12C0F3FF13C0F4FF14C086
:1000A000FAFF15C0F5FF16C0F6FF17C0F7FF18C01E
:1000B000F8FF19C0FBFF045006C0E0FF05C0D8FFE1
:1000C00010001B6ED8CF1CF0E0CF1DF00001E9CF6F
:1000D00023F0EACF1EF0E1CF1FF0E2CF20F0D9CF1E
:1000E00021F0DACF22F0F3CF29F0F4CF2AF0FACFC3
:1000F0002BF0F5CF2CF0F6CF2DF0F7CF2EF0F8CF78
:100100002FF0FBCF30F000C025F001C026F002C078
:1001100027F003C028F09DAA91EF00F09EBAB6EF39
:1001200001F0F2A897EF00F0F2B2ACEF01F025C0B9
:1001300000F026C001F027C002F028C003F023C061
:10014000E9FF1EC0EAFF1E8E1FC0E1FF20C0E2FFD4
:1001500021C0D9FF22C0DAFF29C0F3FF2AC0F4FF73
:100160002BC0FAFF2CC0F5FF2DC0F6FF2EC0F7FF05
:100170002FC0F8FF30C0FBFF1B501DC0E0FF1CC0AC
:10018000D8FF10006A302E76616C3D2575006A310B
:100190002E76616C3D3000006A322E76616C3D3007
:1001A00000006A332E76616C3D3000006A312E7695
:1001B000616C3D2575006A302E76616C3D313030C2
:1001C00000006A322E76616C3D3000006A332E7674
:1001D000616C3D3000006A322E76616C3D25750001
:1001E0006A302E76616C3D31303000006A312E76F7
:1001F000616C3D31303000006A332E76616C3D30E9
:1002000000006A332E76616C3D2575006A302E76CB
:10021000616C3D31303000006A312E76616C3D31C9
:10022000303000006A322E76616C3D313030000093
:100230006A342E76616C3D2575006A352E76616CC8
:100240003D3000006A362E76616C3D3000006A3722
:100250002E76616C3D3000006A352E76616C3D254E
:1002600075006A342E76616C3D31303000006A369C
:100270002E76616C3D3000006A372E76616C3D3021
:1002800000006A362E76616C3D2575006A342E7644
:10029000616C3D31303000006A352E76616C3D3145
:1002A000303000006A372E76616C3D3000006A37CE
:1002B0002E76616C3D2575006A342E76616C3D3179
:1002C000303000006A352E76616C3D3130300000F0
:1002D0006A362E76616C3D31303000005072696EA6
:1002E000636970616C2E62636F3D254C75006665B5
:1002F0006368612E62636F3D254C750065737461A0
:10030000646F2E62636F3D254C7500006665782E24
:1003100062636F3D254C750066646F776E2E626375
:100320006F3D254C750074332E62636F3D254C750F
:10033000000074322E62636F3D254C7500007064BE
:100340006F776E2E62636F3D254C75007065782E59
:1003500062636F3D254C7500868F86830101B42B47
:10036000D8B4B52BF292000197EF00F09EAAFED709
:10037000AECFA7F0A751650803E1010EA86F4E6A42
:10038000A82D0AD0036A4E50430FE96E000E0320D9
:10039000EA6EA7C0EFFF4E2A4E50090802E24E6AED
:1003A000A86B4E5210E1435065080BE1443C09D064
:1003B000453C07D04B5205E14C3C03D0050E9E6FE7
:1003C00002D00A0E9E6F94908B709E9A97EF00F069
:1003D00070616765204F66660000626B636D643D07
:1003E0003000626B636D643D30007061676520436F
:1003F0006C61766500007061676520416A75737491
:1004000065730000746974756C6F2E7478743D2286
:10041000436C617665204E75657661220000646FDD
:100420006576656E74730000746974756C6F2E74F4
:1004300078743D22436C6176652041637475616C0C
:100440002200646F6576656E74730000746974755C
:100450006C6F2E7478743D22436C61766520546510
:10046000636E69636F220000646F6576656E7473F6
:100470000000746974756C6F2E7478743D22496E37
:10048000677265736520436F6E7472617365F161A5
:1004900022007061676520436C617665436F7272FC
:1004A0006563746100007061676520436C61766507
:1004B000426164007061676520436F6E6669670022
:1004C0007061676520416A757374657300007061BF
:1004D000676520436C6176650000746974756C6FA4
:1004E0002E7478743D22436C617665204E75657676
:1004F000612200007061676520416A7573746573DD
:100500000000746974756C6F2E7478743D22436CAE
:10051000617665204E7565766122000070616765C1
:1005200020416A7573746573000066656368612EA7
:100530007478743D2246656368613A253032752FC0
:10054000253032752F32302530327520202020485A
:100550006F72613A20253032753A253032753A256E
:100560003032752020543A25303275B043220000D5
:1005700070616765205469656D706F507572676151
:10058000000070616765205469656D706F55560095
:1005900070616765205469656D706F505075726742
:1005A000610070616765204D746F00007061676560
:1005B00020466563686100007061676520436C6177
:1005C000766500007061676520436C6176650000A8
:1005D00070616765205072696E636970616C0000BC
:1005E00066656368612E7478743D22466563686150
:1005F0003A253032752F253032752F323025303282
:100600007520202020486F72613A20253032753ADB
:10061000253032753A253032752020543A25303253
:1006200075B0432200007061676520416A7573747C
:1006300065730000746D696E6573742E7478743D13
:100640002225303275220000747365636573742E41
:100650007478743D22253032752200006665636827
:10066000612E7478743D2246656368613A253032A4
:10067000752F253032752F323025303275202020ED
:1006800020486F72613A20253032753A2530327534
:100690003A253032752020543A25303275B0432245
:1006A00000007061676520416A75737465730000AE
:1006B000746D696E6573742E7478743D22253032C2
:1006C00075220000747365636573742E7478743DCD
:1006D0002225303275220000746974756C6F2E7497
:1006E00078743D22507572676122000074697475D8
:1006F0006C6F2E7478743D22215562697175652086
:10070000656C2076696472696F2122006D696E5094
:10071000757267612E7478743D222530327522001F
:1007200073656350757267612E7478743D2225304D
:100730003275220066656368612E7478743D2246C6
:10074000656368613A253032752F253032752F3256
:10075000302530327520202020486F72613A2025E4
:100760003032753A253032753A25303275202054B2
:100770003A25303275B04322000070616765205021
:1007800072696E636970616C00007061676520500A
:1007900072696E636970616C00006665782E7478AA
:1007A000743D22496E466C6F773A2025322E3266B0
:1007B000206D2F73220066646F776E2E7478743DFF
:1007C00022446F776E466C6F773A2025322E326660
:1007D000206D2F73220066656368612E7478743D06
:1007E0002246656368613A253032752F25303275AF
:1007F0002F32302530327520202020486F72613A28
:1008000020253032753A253032753A253032752040
:1008100020543A25303275B04322000070646F775F
:100820006E2E7478743D2225303375252522000004
:100830007065782E7478743D222530337525252215
:10084000000062302E7069633D36370062302E70D2
:1008500069633D38000062302E7069633D380000E6
:1008600062332E7069633D31340062332E706963E8
:100870003D31350062332E7069633D31350065735B
:100880007461646F2E7478743D225065726469647B
:100890006120466C756A6F22000069636F6E2E706E
:1008A00069633D36350065737461646F2E747874C6
:1008B0003D225562697175652056696472696F22BF
:1008C000000069636F6E2E7069633D363400657396
:1008D0007461646F2E7478743D224D6F646F20458F
:1008E000636F220065737461646F2E7478743D22A7
:1008F0004F706572616369F36E205365677572614D
:10090000220069636F6E2E7069633D363300623278
:100910002E7069633D31320062322E7069633D3161
:10092000330062312E7069633D31300062312E70C8
:1009300069633D3131007061676520416A75737488
:1009400065730000706167652050507572676100C3
:100950006D696E50757267612E7478743D22253012
:100960003275220073656350757267612E747874F6
:100970003D2225303275220066656368612E7478E9
:10098000743D2246656368613A253032752F253003
:1009900032752F32302530327520202020486F727A
:1009A000613A20253032753A253032753A25303299
:1009B000752020543A25303275B043220000706112
:1009C0006765205072696E636970616C00007061C8
:1009D0006765204F666600007061676520416A7533
:1009E00073746573000074686F72612E7478743D5F
:1009F0002225303275220000746D696E75746F7334
:100A00002E7478743D222530327522007464696139
:100A10002E7478743D22253032752200746D657312
:100A20002E7478743D222530327522007479656108
:100A3000722E7478743D2225303275220000706168
:100A40006765204269656E76656E696461006665FA
:100A50006368612E7478743D2246656368613A2547
:100A60003032752F253032752F32302530327520D7
:100A7000202020486F72613A20253032753A2530A7
:100A800032753A253032752020543A25303275B00F
:100A9000432200007061676520416A757374657355
:100AA0000000746D696E6573742E7478743D222530
:100AB000303275220000747365636573742E747828
:100AC000743D222530327522000062302E74787415
:100AD0003D22555628686F726173293A2530354C8E
:100AE0007522000062312E7478743D2246696C7460
:100AF000726F28686F726173293A2530354C752200
:100B000000006365726F496E2E7478743D224365F0
:100B1000726F20496E466C6F773A2025322E306610
:100B200022006365726F446E2E7478743D224365B3
:100B3000726F20446E466C6F773A2025322E3066F5
:100B40002200616A75737465496E2E7478743D2253
:100B5000416A7573746520496E466C6F773A20253B
:100B6000322E31662200616A75737465446E2E748C
:100B700078743D22416A7573746520496E466C6FC6
:100B8000773A2025322E31662200696E666C6F77C7
:100B90002E7478743D22496E466C6F773A20253268
:100BA0002E32662025322E3266202200646F776E48
:100BB000666C6F772E7478743D22446F776E466C46
:100BC0006F773A2025322E32662200006164636915
:100BD0006E2E7478743D22414443496E3A2025308C
:100BE000344C75220000616463646E2E7478743D29
:100BF00022414443446E3A202530344C7522000093
:100C00007061676520416A75737465730000706177
:100C1000676520416A75737465730000706167656C
:100C200020416A75737465730000706167652050B8
:100C30007572676100007061676520436C6176655D
:100C40000000436F6E6669672E7432632E74787489
:100C50003D2256656C6F63696461642200007433E1
:100C6000632E7478743D222575220000436F6E66F2
:100C700069672E7432632E7478743D224365726FF7
:100C800020496E466C6F772200007433632E7478AF
:100C9000743D2225322E30662200436F6E666967EE
:100CA0002E7432632E7478743D224365726F204433
:100CB0006E466C6F772200007433632E7478743D37
:100CC0002225322E30662200436F6E6669672E74CD
:100CD00032632E7478743D22416A757374652049BD
:100CE0006E466C6F772200007433632E7478743D07
:100CF0002225322E31662200436F6E6669672E749C
:100D000032632E7478743D22416A75737465204491
:100D10006E466C6F772200007433632E7478743DD6
:100D20002225322E31662200436F6E6669672E746B
:100D300032632E7478743D224365726F2050446F85
:100D4000776E466C6F7722007433632E7478743D2F
:100D50002225322E30662200436F6E6669672E743C
:100D600032632E7478743D224365726F2050496E51
:100D7000466C6F7722007433632E7478743D22259D
:100D8000322E30662200436F6E6669672E743263BE
:100D90002E7478743D22416A757374652050446FD7
:100DA000776E466C6F7722007433632E7478743DCF
:100DB0002225322E31662200436F6E6669672E74DB
:100DC00032632E7478743D22416A757374652050C5
:100DD000496E466C6F7722007433632E7478743DCD
:100DE0002225322E31662200436F6E6669672E74AB
:100DF00032632E7478743D2256656C6F636964614A
:100E00006420322200007433632E7478743D2225EE
:100E1000752200007061676520416A75737465739F
:100E2000000066656368612E7478743D22466563D0
:100E300068613A253032752F253032752F323025D2
:100E400030327520202020486F72613A20253032E0
:100E5000753A253032752200040EEA6E860EE96E70
:100E6000EF500DE0060E016E006A002EFED7012E37
:100E7000FBD77B0E006E002EFED7EF2EF3D71200AD
:100E800004016E6B6E5107080DE3D8906D3302E2DA
:100E90008B9801D08B889498949A8B8A949A8B9A89
:100EA0006E2BF0D70001120095968C866BC46DF402
:100EB000E7DF6CC46DF4E4DF95968C96120095968E
:100EC0008C8668C46DF4DCDF9488100E006E002EF2
:100ED000FED700000401696B6951070815E3948887
:100EE00082B802D0D89001D0D8806A33949A8B8A85
:100EF000210E006E002EFED7949A8B9A210E006E62
:100F0000002EFED7692BE8D795968C966AC401F01F
:100F10000001120095968C96210E006E002EFED7D1
:100F2000949A8B9A8E0E04016B6F6C6B0001BCDF80
:100F3000900E04016B6FA40E6C6F0001B5DF810E83
:100F40000401686F0001BBDF01C064F40401645157
:100F5000800B06E0800E6B6F6C6B0001A5DF040157
:100F60000001CCEF2CF00900F55211E0F6CF64F44B
:100F7000F7CF65F4F8CF66F4F5509EA8FED7AD6EB6
:100F800064C4F6FF65C4F7FF66C4F8FFECD712002F
:100F90009EA8FED7AD6E1200100E006E002EFED77A
:100FA0000000FF0EF5DF100E006E002EFED70000D1
:100FB000FF0EEEDF100E006E002EFED70000FF0EBB
:100FC000E7DF100E006E002EFED7000012008E0E1E
:100FD000006E84C401F083C402F0036A015209E187
:100FE00002C001F0026A080E005E015202E1006ACE
:100FF00008D0D89001BE04D0023601360006F9D7D9
:10100000019E120004018351D8B4A5D08F6F87517F
:10101000D8B4A1D08F5F05E37F0E8F27D8B09BD0C7
:1010200006D0810E8F5FD8A096D0D8B494D08FC44C
:1010300000F0016A026A036A8E6B84C48DF48D8F9E
:1010400085C48CF486C48BF4190E8F6F8A518B5F24
:101050000DE2010E8C5F0AE28D5F08E28E5F06E210
:101060008E2B8D2B8C2B8A518B2728D089518C5F0E
:1010700012E2010E8D5F0FE28E5F0DE28E2B8D2B43
:1010800089518C278A518B2719E38C2B17E18D2BE3
:1010900015E18E2B13D0885180098D5F0EE2010E71
:1010A0008E5F0BE28E2B885180098D2789518C270A
:1010B000E9E38D2BE7E18E2BE5D703808F2F01D05D
:1010C0000BD0D8908B378C378D378E37D89003362E
:1010D000023601369037BAD790A106D0D8900132A7
:1010E00002320332903302D0000635E090BF1ED0AA
:1010F000D8908B378C378D378E378A518B5F07E2CC
:10110000010E8C5F04E28D5F02E28E5F1AE389516B
:101110008C5F05E2010E8D5F02E28E5F12E3885163
:1011200080098D5F03E2010E8E5F0BE3032A09E164
:10113000022A07E1012A05E1002A0DE0013202320C
:10114000033284C48FF488518F1B8FAF02D0018E7D
:1011500006D0019E04D0006A016A026A036A000197
:101160001200800ED8A202D004018C1B0401916BE6
:10117000926B88C490F48C51901B8751D8B4DFD007
:101180008F6F006E8B51D8B4E3D08F5FD8B483D00B
:101190003EE38CC495F4958F8DC494F48EC493F47F
:1011A000926BD89095339433933392338F2FF8D733
:1011B00090AF03D09181E0D091918F919189040EED
:1011C000EA6E8A0EE96EEBD0919990BF0AD08FA19A
:1011D00013D09533943393339233002AD8B4C7D0C5
:1011E0000BD095BF0CD0D890923793379437953762
:1011F0000006D8B4BCD0F5D7918D6DD0919D88C430
:1012000090F488AF02D0958FABD0959FA9D08BC4B6
:101210008FF48BC400F087518F5F88C495F4958F4D
:1012200089C494F48AC493F4926BD8909533943320
:10123000933392338F2FF8D790AF03D091839CD004
:1012400091938F91918B040EEA6E8E0EE96EA7D06A
:10125000919B90BF0AD08FA113D0953394339333D1
:101260009233002AD8B483D00BD095BF0CD0D8903D
:1012700092379337943795370006D8B478D0F5D79E
:10128000918F29D0919F8CC490F48CAF02D0958F10
:1012900067D0959F65D08CC495F4958F8DC494F4D8
:1012A0008EC493F490AF04D0959F918565D09195AD
:1012B000926B8F91040EEA6E8A0EE96E70D090BF29
:1012C0001CD088C490F48FA106D095339433933307
:1012D0009233002A4CE092AF0BD0932B09E1942B70
:1012E00007E1952B05E1953394339333002A3FE0D2
:1012F00091BD84D791BFC6D71CD0800E951B95AFEA
:1013000004D03AD08CC490F40AD088C490F4955399
:1013100006E1945304E1935302E1006A21D095BFA2
:1013200008D0D8909237933794379537002EF7D757
:101330001ED090AF02D0958F13D0959F11D08BC443
:1013400000F08CC495F48DC494F48EC493F408D04A
:1013500087C400F088C495F489C494F48AC493F4D3
:1013600095C401F094C402F093C403F034D0006A31
:10137000016A026A036A2FD0926B931F941F951F14
:10138000921F922B05E1932B03E1942B01E1952B06
:1013900091B112D791B354D791B589D7B3D7EF5044
:1013A000932705E3942B03E1952BD8B48F81ED525D
:1013B000EF50942703E3952BD8B48F81ED52EF5073
:1013C000EFBE01D0800A9527D8B08F8191B9FCD6A5
:1013D00091BB3ED774D700011200F2CF64F4F29EA5
:1013E000AA6AA96AA69CA69EA680A850040164BF0A
:1013F000F28E0001D06F0A0E0401866F00012CDD11
:10140000F2CF64F4F29EAA6A010EA96EA69CA69E73
:10141000A680A850040164BFF28E0001D16F0A0EAD
:101420000401866F000118DDF2CF64F4F29EAA6A0F
:10143000020EA96EA69CA69EA680A850040164BFB9
:10144000F28E0001D26F0A0E0401866F000104DDE6
:10145000F2CF64F4F29EAA6A030EA96EA69CA69E21
:10146000A680A850040164BFF28E0001D36F0A0E5B
:101470000401866F0001F0DCF2CF64F4F29EAA6AE8
:10148000040EA96EA69CA69EA680A850040164BF67
:10149000F28E0001AE6F0A0E0401866F0001DCDCE3
:1014A000F2CF64F4F29EAA6A050EA96EA69CA69ECF
:1014B000A680A850040164BFF28E0001AC6F0A0E32
:1014C0000401866F0001C8DCF2CF64F4F29EAA6AC0
:1014D000060EA96EA69CA69EA680A850040164BF15
:1014E000F28E0001B26F0A0E0401866F0001B4DCB7
:1014F000F2CF64F4F29EAA6A070EA96EA69CA69E7D
:10150000A680A850040164BFF28E0001B06F0A0EDD
:101510000401866F0001A0DCF2CF64F4F29EAA6A97
:10152000080EA96EA69CA69EA680A850040164BFC2
:10153000F28E0001B66F0A0E0401866F00018CDC8A
:10154000F2CF64F4F29EAA6A090EA96EA69CA69E2A
:10155000A680A850040164BFF28E0001B56F0A0E88
:101560000401866F000178DCF2CF64F4F29EAA6A6F
:101570000C0EA96EA69CA69EA680A850040164BF6E
:10158000F28E0001C86F0A0E0401866F000164DC50
:10159000F2CF64F4F29EAA6A0D0EA96EA69CA69ED6
:1015A000A680A850040164BFF28E0001C96F0A0E24
:1015B0000401866F000150DCF2CF64F4F29EAA6A47
:1015C0000E0EA96EA69CA69EA680A850040164BF1C
:1015D000F28E0001CA6F0A0E0401866F00013CDC26
:1015E000F2CF64F4F29EAA6A0F0EA96EA69CA69E84
:1015F000A680A850040164BFF28E0001CB6F0A0ED2
:101600000401866F000128DCF2CF64F4F29EAA6A1E
:10161000100EA96EA69CA69EA680A850040164BFC9
:10162000F28E0001CC6F0A0E0401866F000114DCFB
:10163000F2CF64F4F29EAA6A110EA96EA69CA69E31
:10164000A680A850040164BFF28E0001CD6F0A0E7F
:101650000401866F000100DCF2CF64F4F29EAA6AF6
:10166000120EA96EA69CA69EA680A850040164BF77
:10167000F28E0001CE6F0A0E0401866F00012CEC81
:1016800007F0F2CF64F4F29EAA6A130EA96EA69C2C
:10169000A69EA680A850040164BFF28E0001CF6F01
:1016A0000A0E0401866F00012CEC07F00A0E0401FB
:1016B000866F00012CEC07F0F2CF64F4F29EAA6A68
:1016C000190EA96EA69CA69EA680A850040164BF10
:1016D000F28E0001916F0A0E0401866F00012CEC5E
:1016E00007F0F2CF64F4F29EAA6A1A0EA96EA69CC5
:1016F000A69EA680A850040164BFF28E846B836FFF
:10170000000165DC03C0FBF002C0FAF001C0F9F093
:1017100000C0F8F00A0E0401866F00012CEC07F0FF
:10172000FBC086F4FAC085F4F9C084F4F8C083F4F1
:1017300004018A6B896B200E886F820E876F00010F
:1017400061DC03C0FBF002C0FAF001C0F9F000C098
:10175000F8F00401846B91C083F4000138DCD89266
:1017600003C08AF402C089F401C088F400C087F481
:10177000FBC08EF4FAC08DF4F9C08CF4F8C08BF481
:10178000F0DC03C016F202C015F201C014F200C072
:1017900013F2F2CF64F4F29EAA6A1B0EA96EA69C05
:1017A000A69EA680A850040164BFF28E0001916F2E
:1017B0000A0E0401866F00012CEC07F0F2CF64F4EE
:1017C000F29EAA6A1C0EA96EA69CA69EA680A85090
:1017D000040164BFF28E846B836F0001E7EC07F0B5
:1017E00003C0FBF002C0FAF001C0F9F000C0F8F04D
:1017F0000A0E0401866F00012CEC07F0FBC086F492
:10180000FAC085F4F9C084F4F8C083F404018A6B4B
:10181000896B200E886F820E876F000102EC08F042
:1018200003C0FBF002C0FAF001C0F9F000C0F8F00C
:101830000401846B91C083F40001E7EC07F0D892B7
:1018400003C08AF402C089F401C088F400C087F4A0
:10185000FBC08EF4FAC08DF4F9C08CF4F8C08BF4A0
:1018600080DC03C057F202C056F201C055F200C03E
:1018700054F20A0E0401866F00012CEC07F0F2CF3F
:1018800064F4F29EAA6A1D0EA96EA69CA69EA6806E
:10189000A850040164BFF28E0001916F0A0E04018A
:1018A000866F00012CEC07F0F2CF64F4F29EAA6A76
:1018B0001E0EA96EA69CA69EA680A850040164BF19
:1018C000F28E846B836F0001E7EC07F003C0FBF03E
:1018D00002C0FAF001C0F9F000C0F8F00A0E0401ED
:1018E000866F00012CEC07F0FBC086F4FAC085F48B
:1018F000F9C084F4F8C083F404018A6B896B200E6C
:10190000886F820E876F000102EC08F003C0FBF0C5
:1019100002C0FAF001C0F9F000C0F8F00401846BD5
:1019200091C083F40001E7EC07F0D89203C08AF479
:1019300002C089F401C088F400C087F4FBC08EF4B3
:10194000FAC08DF4F9C08CF4F8C08BF40ADC03C043
:1019500029F402C028F401C027F400C026F4F2CF15
:1019600064F4F29EAA6A1F0EA96EA69CA69EA6808B
:10197000A850040164BFF28E0001916F0A0E0401A9
:10198000866F00012CEC07F0F2CF64F4F29EAA6A95
:10199000200EA96EA69CA69EA680A850040164BF36
:1019A000F28E846B836F0001E7EC07F003C0FBF05D
:1019B00002C0FAF001C0F9F000C0F8F00A0E04010C
:1019C000866F00012CEC07F0FBC086F4FAC085F4AA
:1019D000F9C084F4F8C083F404018A6B896B200E8B
:1019E000886F820E876F000102EC08F003C0FBF0E5
:1019F00002C0FAF001C0F9F000C0F8F00401846BF5
:101A000091C083F40001E7EC07F0D89203C08AF498
:101A100002C089F401C088F400C087F4FBC08EF4D2
:101A2000FAC08DF4F9C08CF4F8C08BF4B1EC08F076
:101A300003C0E5F302C0E4F301C0E3F300C0E2F346
:101A4000F2CF64F4F29EAA6A220EA96EA69CA69E0C
:101A5000A680A850040164BFF28E656FF2CF66F4D1
:101A6000F29EAA6A210EA96EA69CA69EA680A850E8
:101A700066BFF28E676F65C403F06751836F03C062
:101A800084F40001E7EC07F003C001F202C000F2A9
:101A900001C0FFF100C0FEF10A0E0401866F0001D3
:101AA0002CEC07F0F2CF64F4F29EAA6A240EA96E21
:101AB000A69CA69EA680A850040164BFF28E656F06
:101AC000F2CF66F4F29EAA6A230EA96EA69CA69E89
:101AD000A680A85066BFF28E676F65C403F0675199
:101AE000836F03C084F40001E7EC07F003C042F207
:101AF00002C041F201C040F200C03FF20A0E0401F0
:101B0000866F00012CEC07F0F2CF64F4F29EAA6A13
:101B1000260EA96EA69CA69EA680A850040164BFAE
:101B2000F28E656FF2CF66F4F29EAA6A250EA96E58
:101B3000A69CA69EA680A85066BFF28E676F65C45D
:101B4000C3F067C4C2F00A0E866F00012CEC07F0E8
:101B5000F2CF64F4F29EAA6A270EA96EA69CA69EF6
:101B6000A680A850040164BFF28E0001C16BC06F53
:101B70000A0E0401866F00012CEC07F0F2CF64F42A
:101B8000F29EAA6A280EA96EA69CA69EA680A850C0
:101B9000040164BFF28E0001956F0A0E0401866F86
:101BA00000012CEC07F0F2CF64F4F29EAA6A290E31
:101BB000A96EA69CA69EA680A850040164BFF28EC2
:101BC0000001966F0A0E0401866F00012CEC07F0ED
:101BD000F2CF64F4F29EAA6A2B0EA96EA69CA69E72
:101BE000A680A850040164BFF28E656FF2CF66F440
:101BF000F29EAA6A2A0EA96EA69CA69EA680A8504E
:101C000066BFF28E676F65C403F06751836F03C0D0
:101C100084F40001E7EC07F003C005F202C004F20F
:101C200001C003F200C002F20A0E0401866F000137
:101C30002CEC07F0F2CF64F4F29EAA6A2D0EA96E86
:101C4000A69CA69EA680A850040164BFF28E656F74
:101C5000F2CF66F4F29EAA6A2C0EA96EA69CA69EEE
:101C6000A680A85066BFF28E676F65C403F0675107
:101C7000836F03C084F40001E7EC07F003C046F271
:101C800002C045F201C044F200C043F20A0E040152
:101C9000866F00012CEC07F0F2CF64F4F29EAA6A82
:101CA0002F0EA96EA69CA69EA680A850040164BF14
:101CB000F28E656FF2CF66F4F29EAA6A2E0EA96EBE
:101CC000A69CA69EA680A85066BFF28E676F65C4CC
:101CD00003F06751836F03C084F40001E7EC07F061
:101CE00003C01BF402C01AF401C019F400C018F4B8
:101CF0000A0E0401866F00012CEC07F0F2CF64F4A9
:101D0000F29EAA6A310EA96EA69CA69EA680A85035
:101D1000040164BFF28E656FF2CF66F4F29EAA6A88
:101D2000300EA96EA69CA69EA680A85066BFF28E15
:101D3000676F65C403F06751836F03C084F40001CB
:101D4000E7EC07F003C0D7F302C0D6F301C0D5F328
:101D500000C0D4F30A0E0401866F00012CEC07F0DA
:101D6000F2CF64F4F29EAA6A320EA96EA69CA69ED9
:101D7000A680A850040164BFF28E0201086F0A0E0B
:101D80000401866F00012CEC07F0F2CF64F4F29EA0
:101D9000AA6A330EA96EA69CA69EA680A85004012E
:101DA00064BFF28E0201496F0A0E0401866F0001C2
:101DB0002CEC07F0EAEF2CF084C48BF4040188517A
:101DC0008B1B8BAF05D0D894D89084BFD8802FD0F0
:101DD00084C48BF487C48CF483518C5F06E08BAF92
:101DE00026D0D850010AD86E22D088C48CF48451F1
:101DF0008C5F06E08BAF1BD0D850010AD86E17D08D
:101E000089C48CF485518C5F06E08BAF10D0D8501C
:101E1000010AD86E0CD08AC48CF486518C5F06E01F
:101E20008BAF05D0D850010AD86E01D0D8900001F0
:101E30001200D0BF03D0D051090802E3D0AF16D0B2
:101E4000D06BF250006EF29EAA6AA96AA86AA69C9C
:101E5000A69EA6840F01550EA76EAA0EA76EA68297
:101E6000A6B2FED7A6940050F2120001D1BF03D053
:101E7000D151090802E3D1AF17D0D16BF250006EF7
:101E8000F29EAA6A010EA96EA86AA69CA69EA684C6
:101E90000F01550EA76EAA0EA76EA682A6B2FED798
:101EA000A6940050F2120001D2BF03D0D25109080B
:101EB00002E3D2AF17D0D26BF250006EF29EAA6A44
:101EC000020EA96EA86AA69CA69EA6840F01550EB6
:101ED000A76EAA0EA76EA682A6B2FED7A694005041
:101EE000F2120001D3BF03D0D351090802E3D3AFEC
:101EF00017D0D36BF250006EF29EAA6A030EA96E41
:101F0000A86AA69CA69EA6840F01550EA76EAA0ECF
:101F1000A76EA682A6B2FED7A6940050F2120001C8
:101F2000AE51630819E2010EAE6FF250006EF29EE0
:101F3000AA6A040EA96E010EA86EA69CA69EA6848F
:101F40000F01550EA76EAA0EA76EA682A6B2FED7E7
:101F5000A6940050F2120001AC513B0817E2AC6BA2
:101F6000F250006EF29EAA6A050EA96EA86AA69C9F
:101F7000A69EA6840F01550EA76EAA0EA76EA68276
:101F8000A6B2FED7A6940050F2120001B251630827
:101F900019E2010EB26FF250006EF29EAA6A060EAE
:101FA000A96E010EA86EA69CA69EA6840F01550ED2
:101FB000A76EAA0EA76EA682A6B2FED7A694005060
:101FC000F2120001B0513B0817E2B06BF250006E04
:101FD000F29EAA6A070EA96EA86AA69CA69EA6846F
:101FE0000F01550EA76EAA0EA76EA682A6B2FED747
:101FF000A6940050F2120001B651630819E2010ED6
:10200000B66FF250006EF29EAA6A080EA96E010E1B
:10201000A86EA69CA69EA6840F01550EA76EAA0EBA
:10202000A76EA682A6B2FED7A6940050F2120001B7
:10203000B5513B0817E2B56BF250006EF29EAA6AEA
:10204000090EA96EA86AA69CA69EA6840F01550E2D
:10205000A76EAA0EA76EA682A6B2FED7A6940050BF
:10206000F2120001C8BF03D0C851090802E3C8AF8B
:1020700017D0C86BF250006EF29EAA6A0C0EA96EC1
:10208000A86AA69CA69EA6840F01550EA76EAA0E4E
:10209000A76EA682A6B2FED7A6940050F212000147
:1020A000C9BF03D0C951090802E3C9AF17D0C96B32
:1020B000F250006EF29EAA6A0D0EA96EA86AA69C46
:1020C000A69EA6840F01550EA76EAA0EA76EA68225
:1020D000A6B2FED7A6940050F2120001CABF03D0E8
:1020E000CA51090802E3CAAF17D0CA6BF250006E9A
:1020F000F29EAA6A0E0EA96EA86AA69CA69EA68447
:102100000F01550EA76EAA0EA76EA682A6B2FED725
:10211000A6940050F2120001CBBF03D0CB510908A6
:1021200002E3CBAF17D0CB6BF250006EF29EAA6ADF
:102130000F0EA96EA86AA69CA69EA6840F01550E36
:10214000A76EAA0EA76EA682A6B2FED7A6940050CE
:10215000F2120001CCBF03D0CC51090802E3CCAF8E
:1021600017D0CC6BF250006EF29EAA6A100EA96EC8
:10217000A86AA69CA69EA6840F01550EA76EAA0E5D
:10218000A76EA682A6B2FED7A6940050F212000156
:10219000CDBF03D0CD51090802E3CDAF17D0CD6B31
:1021A000F250006EF29EAA6A110EA96EA86AA69C51
:1021B000A69EA6840F01550EA76EAA0EA76EA68234
:1021C000A6B2FED7A6940050F2120001CEBF03D0F3
:1021D000CE51090802E3CEAF17D0CE6BF250006E9D
:1021E000F29EAA6A120EA96EA86AA69CA69EA68452
:1021F0000F01550EA76EAA0EA76EA682A6B2FED735
:10220000A6940050F2120001CFBF03D0CF510908AD
:1022100002E3CFAF17D0CF6BF250006EF29EAA6AE6
:10222000130EA96EA86AA69CA69EA6840F01550E41
:10223000A76EAA0EA76EA682A6B2FED7A6940050DD
:10224000F21200010401866B856B200E846F820EF2
:10225000836F16C28AF415C289F414C288F413C2BB
:1022600087F40001A9DD33E30201166B156B400E04
:10227000146F7F0E136FF250006EF29EAA6A190E51
:10228000A96E010EA86EA69CA69EA6840F01550EEF
:10229000A76EAA0EA76EA682A6B2FED7A69400507D
:1022A000F212F250006EF29EAA6A1A0EA96E050E84
:1022B000A86EA69CA69EA684550EA76EAA0EA76E13
:1022C000A682A6B2FED7A6940050F2120001040125
:1022D000866B856B200E846F820E836F57C28AF4E3
:1022E00056C289F455C288F454C287F4000164DDF3
:1022F00033E30201576B566B400E556F7F0E546FE0
:10230000F250006EF29EAA6A1B0EA96E010EA86E14
:10231000A69CA69EA6840F01550EA76EAA0EA76EB8
:10232000A682A6B2FED7A6940050F212F250006E1A
:10233000F29EAA6A1C0EA96E050EA86EA69CA69E09
:10234000A684550EA76EAA0EA76EA682A6B2FED7C9
:10235000A6940050F21200010401866B856B200EDA
:10236000846F820E836F29C48AF428C489F427C439
:1023700088F426C487F400011FDD32E30401296BD1
:10238000286B276B7F0E266FF250006EF29EAA6AB2
:102390001D0EA96E010EA86EA69CA69EA6840F0116
:1023A000550EA76EAA0EA76EA682A6B2FED7A69459
:1023B0000050F212F250006EF29EAA6A1E0EA96E32
:1023C000050EA86EA69CA69EA684550EA76EAA0E04
:1023D000A76EA682A6B2FED7A6940050F212000104
:1023E0000401866B856B200E846F820E836FE5C3BC
:1023F0008AF4E4C389F4E3C388F4E2C387F40001F8
:10240000DBDC32E30301E56BE46BE36B7F0EE26F31
:10241000F250006EF29EAA6A1F0EA96E010EA86EFF
:10242000A69CA69EA6840F01550EA76EAA0EA76EA7
:10243000A682A6B2FED7A6940050F212F250006E09
:10244000F29EAA6A200EA96E050EA86EA69CA69EF4
:10245000A684550EA76EAA0EA76EA682A6B2FED7B8
:10246000A6940050F21200010401866B856B700E79
:10247000846F860E836F01C28AF400C289F4FFC1A3
:1024800088F4FEC187F4000197DC12E201C286F4F1
:1024900000C285F4FFC184F4FEC183F404018A6B99
:1024A000896B480E886F860E876F000185DC33E3E9
:1024B0000201016B006B4B0E0101FF6F860EFE6F78
:1024C000F250006EF29EAA6A210EA96ECB0EA86E83
:1024D000A69CA69EA6840F01550EA76EAA0EA76EF7
:1024E000A682A6B2FED7A6940050F212F250006E59
:1024F000F29EAA6A220EA96EA86AA69CA69EA6842F
:10250000550EA76EAA0EA76EA682A6B2FED7A694F7
:102510000050F21200010401866B856B700E846F0F
:10252000860E836F42C28AF441C289F440C288F4A5
:102530003FC287F4000140DC12E242C286F441C28D
:1025400085F440C284F43FC283F404018A6B896B32
:10255000480E886F860E876F00012EDC32E3020181
:10256000426B416B4B0E406F860E3F6FF250006E18
:10257000F29EAA6A230EA96ECB0EA86EA69CA69EFA
:10258000A6840F01550EA76EAA0EA76EA682A6B24C
:10259000FED7A6940050F212F250006EF29EAA6A84
:1025A000240EA96EA86AA69CA69EA684550EA76EA8
:1025B000AA0EA76EA682A6B2FED7A6940050F2126B
:1025C0000001C3510D0831E2FF0A03E1C2511008B6
:1025D0002CE2C36BC26BF250006EF29EAA6A250E0B
:1025E000A96EA86AA69CA69EA6840F01550EA76E8A
:1025F000AA0EA76EA682A6B2FED7A6940050F2122B
:10260000F250006EF29EAA6A260EA96EA86AA69CD7
:10261000A69EA684550EA76EAA0EA76EA682A6B287
:10262000FED7A6940050F2120001C15303E1C0513D
:102630003C0818E2C16BC06BF250006EF29EAA6AB1
:10264000270EA96EA86AA69CA69EA6840F01550E09
:10265000A76EAA0EA76EA682A6B2FED7A6940050B9
:10266000F21200019551060819E2020E956FF25020
:10267000006EF29EAA6A280EA96E020EA86EA69C93
:10268000A69EA6840F01550EA76EAA0EA76EA6825F
:10269000A6B2FED7A6940050F21200019651060889
:1026A00019E2020E966FF250006EF29EAA6A290E8F
:1026B000A96E020EA86EA69CA69EA6840F01550EBA
:1026C000A76EAA0EA76EA682A6B2FED7A694005049
:1026D000F21200010401866B856B480E846F840E34
:1026E000836F05C28AF404C289F403C288F402C26B
:1026F00087F40001DCEC0EF02FE30201056B046BA4
:10270000036B026BF250006EF29EAA6A2A0EA96E4B
:10271000A86AA69CA69EA6840F01550EA76EAA0EB7
:10272000A76EA682A6B2FED7A6940050F212F2506F
:10273000006EF29EAA6A2B0EA96EA86AA69CA69E9F
:10274000A684550EA76EAA0EA76EA682A6B2FED7C5
:10275000A6940050F21200010401866B856B480EAE
:10276000846F840E836F46C28AF445C289F444C2E2
:1027700088F443C287F40001DCEC0EF02FE3020181
:10278000466B456B446B436BF250006EF29EAA6A37
:102790002C0EA96EA86AA69CA69EA6840F01550EB3
:1027A000A76EAA0EA76EA682A6B2FED7A694005068
:1027B000F212F250006EF29EAA6A2D0EA96EA86A5D
:1027C000A69CA69EA684550EA76EAA0EA76EA682EC
:1027D000A6B2FED7A6940050F21200010401866B47
:1027E000856B7A0E846F860E836F1BC48AF41AC4BD
:1027F00089F419C488F418C487F40001DCEC0EF0E5
:1028000013E21BC486F41AC485F419C484F418C4F2
:1028100083F404018A6B896B480E886F860E876F7C
:102820000001DCEC0EF032E304011B6B1A6B5C0E52
:10283000196F860E186FF250006EF29EAA6A2E0E65
:10284000A96EDC0EA86EA69CA69EA6840F01550E4E
:10285000A76EAA0EA76EA682A6B2FED7A6940050B7
:10286000F212F250006EF29EAA6A2F0EA96EA86AAA
:10287000A69CA69EA684550EA76EAA0EA76EA6823B
:10288000A6B2FED7A6940050F21200010401866B96
:10289000856B7A0E846F860E836FD7C38AF4D6C396
:1028A00089F4D5C388F4D4C387F40001DCEC0EF0BE
:1028B00013E2D7C386F4D6C385F4D5C384F4D4C356
:1028C00083F404018A6B896B480E886F860E876FCC
:1028D0000001DCEC0EF032E30301D76BD66B5C0E2B
:1028E000D56F860ED46FF250006EF29EAA6A300E3B
:1028F000A96EDC0EA86EA69CA69EA6840F01550E9E
:10290000A76EAA0EA76EA682A6B2FED7A694005006
:10291000F212F250006EF29EAA6A310EA96EA86AF7
:10292000A69CA69EA684550EA76EAA0EA76EA6828A
:10293000A6B2FED7A6940050F2120001020108517F
:10294000140819E20A0E086FF250006EF29EAA6A8D
:10295000320EA96E0A0EA86EA69CA69EA6840F0132
:10296000550EA76EAA0EA76EA682A6B2FED7A69493
:102970000050F21202014951140819E20A0E496F7F
:10298000F250006EF29EAA6A330EA96E0A0EA86E6D
:10299000A69CA69EA6840F01550EA76EAA0EA76E32
:1029A000A682A6B2FED7A6940050F2120201000140
:1029B000ECEF2CF09E510508D8A4BBD043C038F0F2
:1029C00044C039F045C03AF046C03BF047C03CF047
:1029D00048C03DF049C03EF04AC03FF04BC040F017
:1029E0004CC041F03B2C07D0876B87519F5D02E0C4
:1029F00087C09FF09DD03B50020808E1010E876F11
:102A000087519F5D02E087C09FF092D03B50030842
:102A100008E1020E876F87519F5D02E087C09FF03B
:102A200087D03B50040808E1030E876F87519F5DF4
:102A300002E087C09FF07CD03B50050808E1040EFF
:102A4000876F87519F5D02E087C09FF071D03B5038
:102A5000060808E1050E876F87519F5D02E087C079
:102A60009FF066D03B50070808E1060E876F87513C
:102A70009F5D02E087C09FF05BD03B50080808E1F3
:102A8000070E876F87519F5D02E087C09FF050D08F
:102A90003B50090808E1080E876F87519F5D02E0EF
:102AA00087C09FF045D03B500A0808E1090E876FA8
:102AB00087519F5D02E087C09FF03AD03B500F08DE
:102AC00001E136D03B501A0808E10A0E876F8751A2
:102AD0009F5D02E087C09FF02BD03B501B0808E1B0
:102AE0000F0E876F87519F5D02E087C09FF020D057
:102AF0003B501C0808E1100E876F87519F5D02E074
:102B000087C09FF015D03B502C0808E1640E876FFA
:102B100087519F5D02E087C09FF00AD03B50CC08F0
:102B200007E1F00E876F9F51F00802E087C09FF029
:102B300006D0A66BA651090802E3A62BFBD73CEFF3
:102B40002DF069C46AF404016A39006E0F0E001694
:102B500000500A0DF3CF69F46A39006EF00E0016CA
:102B60000050003A0F0E00160050692769C401F0AA
:102B700000011200040183518503F3CF01F0F4CF6B
:102B800000F08603F350002684518503F3500020A3
:102B9000026E0001120004018335006E0036FC0E47
:102BA000001600C001F0C250C30B0010C26E010E2F
:102BB000866F00012CEC07F0C282C2B2FED7C4CFF0
:102BC00085F40401C3CF84F484C401F085C402F009
:102BD0000001120004018751D8B471D0006E8B51EE
:102BE000D8B46DD0002604E3810E002668E204D03C
:102BF0007F0E005E64E363E088C48FF48C518F1B0A
:102C0000888F8C8F8A518E03F4CF91F489518D0374
:102C1000F4CF03F0F3CF90F48E03F3509127F450E8
:102C20009023000E03228A518D03F3509127F45014
:102C30009023000E026A0322022288518E03F35071
:102C40009027F4500322000E022288518D03F35086
:102C50000326F4500222000E016A01228A518C03DD
:102C6000F3509027F4500322000E022201228951D2
:102C70008C03F3500326F4500222000E01228851E7
:102C80008C03F3500226F4500122002A01BE05D025
:102C900090370336023601360006000E90AF0AD098
:102CA000032A02220122015005E1025003E10350F0
:102CB00001E1002A8FBF018E8FAF019E04D0006A10
:102CC000016A026A036A000112000401846B65C490
:102CD00083F4866B410E856F00014CDF01C066F402
:102CE000080E04010124016E000E0220036E015043
:102CF000BD0F016E010E032201C066F403C067F42C
:102D000065C483F4000147DF67C4EAFF66C4E9FFD6
:102D100002C0ECFFED5201C0EFFF0401846B65C4FB
:102D200083F4866B410E856F000124DF02C067F4D7
:102D300001C066F40A0E04010124016E000E022097
:102D4000036E0150BD0FE96E010E0320EA6EEF50D5
:102D50000A0866E1846B65C483F4866B410E856F57
:102D6000000108DF01C066F4080E04010124016EB1
:102D7000000E0220036E0150BD0FE96E010E03200C
:102D8000EA6EECCF67F4ED52EFCF66F4846B65C466
:102D900083F4866B410E856F0001ECDE01C068F4A0
:102DA000040E04010124016E000E0220036E015086
:102DB000BD0FE96E010E0320EA6EEFCF68F4ECCF91
:102DC00069F4ECCF6AF4ECCF6BF467C484F466C4A6
:102DD00083F40001E7EC07F0EACF6DF4E9CF6CF47F
:102DE000D89203C08AF402C089F401C088F400C0FC
:102DF00087F46BC48EF46AC48DF469C48CF468C41F
:102E00008BF4B1EC08F06DC4EAFF6CC4E9FF03C0B9
:102E1000EFF002C0EEF001C0EDF000C0ECF00401F4
:102E2000846B65C483F4866B410E856F0001A2DE5E
:102E300002C067F401C066F40A0E04010124016EA9
:102E4000000E0220036E0150BD0FE96E010E03203B
:102E5000EA6EEF50140866E1846B65C483F4866BF8
:102E6000410E856F000186DE01C066F4080E040184
:102E70000124016E000E0220036E0150BD0FE96EA9
:102E8000010E0320EA6EECCF67F4ED52EFCF66F44B
:102E9000846B65C483F4866B410E856F00016ADE26
:102EA00001C068F4040E04010124016E000E02202A
:102EB000036E0150BD0FE96E010E0320EA6EEFCFE5
:102EC00068F4ECCF69F4ECCF6AF4ECCF6BF467C430
:102ED00084F466C483F40001E7EC07F0EACF6DF4F4
:102EE000E9CF6CF4D88203C08AF402C089F401C02F
:102EF00088F400C087F46BC48EF46AC48DF469C48E
:102F00008CF468C48BF4B1EC08F06DC4EAFF6CC4B7
:102F1000E9FF03C0EFF002C0EEF001C0EDF000C029
:102F2000ECF00401EFC08AF4EEC089F4EDC088F43F
:102F3000ECC087F4EFC08EF4EEC08DF4EDC08CF4DD
:102F4000ECC08BF4000146DE03C0F3F002C0F2F0E7
:102F500001C0F1F000C0F0F0EFC08AF4EEC089F4D7
:102F6000EDC088F4ECC087F4F3C08EF4F2C08DF4A9
:102F7000F1C08CF4F0C08BF42DDE03C0F7F002C07A
:102F8000F6F001C0F5F000C0F4F00401846B65C4F4
:102F900083F4866B410E856F0001ECDD02C067F49F
:102FA00001C066F40B0E04010124016E000E022024
:102FB000036E0150BD0FE96E010E0320EA6EF7C0EB
:102FC0008AF4F6C089F4F5C088F4F4C087F40FC120
:102FD0008EF40EC18DF40DC18CF40CC18BF4000184
:102FE000F9DD03C06BF402C06AF401C069F400C0EB
:102FF00068F4F3C08AF4F2C089F4F1C088F4F0C038
:1030000087F413C18EF412C18DF411C18CF410C178
:103010008BF4E0DDEACF6DF4E9CF6CF4D8926BC4A9
:103020008AF46AC489F469C488F468C487F403C064
:103030008EF402C08DF401C08CF400C08BF4B1ECAE
:1030400008F06DC4EAFF6CC4E9FF03C06BF402C072
:103050006AF401C069F400C068F4EFC08AF4EEC0FD
:1030600089F4EDC088F4ECC087F417C18EF416C162
:103070008DF415C18CF414C18BF4ACDDEACF6FF480
:10308000E9CF6EF4D8926BC48AF46AC489F469C437
:1030900088F468C487F403C08EF402C08DF401C0C4
:1030A0008CF400C08BF4B1EC08F06FC4EAFF6EC47E
:1030B000E9FF03C06BF402C06AF401C069F400C008
:1030C00068F4EACF71F4E9CF70F4D89203C08AF4BF
:1030D00002C089F401C088F400C087F41BC18EF4DB
:1030E0001AC18DF419C18CF418C18BF4B1EC08F03D
:1030F00071C4EAFF70C4E9FF00C0EFFF01C0ECFF3C
:1031000002C0ECFF03C0ECFF0401846B65C483F4D0
:10311000866B410E856F00012DDD01C066F40B0E3C
:1031200004010124016E000E0220036E0150BD0F48
:10313000016E010E032201C066F403C067F4846BC4
:1031400065C483F4866B410E856F000113DD01C0F9
:1031500068F40B0E04010124016E000E0220036EC0
:103160000150BD0FE96E010E0320EA6EEFCF87F428
:10317000ECCF88F4ECCF89F4ECCF8AF4D8820A0E35
:103180008E6FD70E8D6F230E8C6F7B0E8B6F0001B1
:10319000B1EC08F067C4EAFF66C4E9FF00C0EFFFC6
:1031A00001C0ECFF02C0ECFF03C0ECFF0401846B24
:1031B00065C483F4866B410E856F0001DBDC01C0C2
:1031C00066F40B0E04010124016E000E0220036E52
:1031D0000150BD0FE96E010E0320EA6EEFCF83F4BC
:1031E000ECCF84F4ECCF85F4ECCF86F48A6B896B5A
:1031F000886B876B0001DCEC0EF01FE30401846B2D
:1032000065C483F4866B410E856F0001B3DC02C098
:1032100067F401C066F40B0E04010124016E000E78
:103220006721036E0150BD0FE96E010E0320EA6EA7
:10323000EF6AEC6AEC6AEC6A00010401846B65C415
:1032400083F4866B410E856F000194DC02C067F445
:1032500001C066F40F0E04010124016E000E02206D
:10326000036E0150BD0FE96E010E0320EA6EEFCF31
:1032700066F4010E645D665D19E018E3846B65C455
:1032800083F4866B410E856F000174DC01C066F427
:103290000F0E04010124016E000E0220036E015086
:1032A000BD0FE96E010E0320EA6EEF6A846B65C400
:1032B00083F4866B410E856F00015CDC02C067F40D
:1032C00001C066F4190E04016627000E6723846BA3
:1032D00065C483F4866B410E856F00014BDC02C030
:1032E00069F401C068F40F0E04010124016E000EA0
:1032F0000220036E0150BD0FE96E010E0320EA6E3D
:10330000846BEFCF83F4866B040E856F000132DC93
:1033100002C003F0015004016625016E67510322CB
:103320000150BD0F016E010E032201C066F403C0FF
:1033300067F4846B65C483F4866B410E856F00016E
:1033400019DC02C069F401C068F40B0E0401012409
:10335000016E000E0220036E0150BD0FE96E010EDA
:103360000320EA6EEFCF00F0ECCF01F0ECCF02F0DB
:10337000ECCF03F067C4EAFF66C4E9FF00C0EFFFCB
:1033800001C0ECFF02C0ECFF03C0ECFF846B65C41E
:1033900083F4866B410E856F0001BAEC15F001C015
:1033A00066F40F0E04010124016E000E0220036E6C
:1033B0000150BD0FE96E010E0320EA6EEF2A846B07
:1033C00065C483F4866B410E856F0001BAEC15F07D
:1033D00001C066F4110E04010124016E000E0220EA
:1033E000036E0150BD0FE96E010E0320EA6EEF6A15
:1033F000EC6AEC6AEC6A00018D6B010E0401645DFD
:1034000000018D5D01E079E20401846B65C483F401
:10341000866B410E856F0001BAEC15F001C066F4B1
:10342000110E04010124016E000E0220036E0150F2
:10343000BD0F016E010E032201C066F403C067F4E4
:1034400003C0EAFF01C0E9FFEFCF68F4ECCF69F4F5
:10345000ECCF6AF4ECCF6BF4846B65C483F4866BB9
:10346000410E856F0001BAEC15F002C06DF401C089
:103470006CF4190E04016C27000E6D23846B8DC053
:1034800083F4866B040E856F0001BAEC15F002C060
:1034900003F0015004016C25016E6D5103220150AF
:1034A000BD0FE96E010E0320EA6EEFCF8BF4ECCF77
:1034B00001F0ECCF02F0ECCF03F0D8926BC48AF4A9
:1034C0006AC489F469C488F468C487F403C08EF4BC
:1034D00002C08DF401C08CF40001B1EC08F067C4A7
:1034E000EAFF66C4E9FF00C0EFFF01C0ECFF02C0C5
:1034F000ECFF03C0ECFF8D2B80D70401846B65C407
:1035000083F4866B410E856F0001BAEC15F001C0A3
:1035100066F4110E04010124016E000E0220036EF8
:103520000150BD0F016E010E032201C066F403C0FD
:1035300067F4846B65C483F4866B410E856F00016C
:10354000BAEC15F001C068F4110E04010124016EFB
:10355000000E0220036E0150BD0FE96E010E032024
:10356000EA6EEFCF68F4ECCF69F4ECCF6AF4ECCFFD
:103570006BF4846B64C483F40001E7EC07F06BC464
:1035800086F46AC485F469C484F468C483F403C00F
:103590008AF402C089F401C088F400C087F402EC08
:1035A00008F003C06BF402C06AF401C069F400C003
:1035B00068F40401846B65C483F4866B410E856FE7
:1035C0000001BAEC15F002C06DF401C06CF4150EE8
:1035D00004010124016E000E0220036E0150BD0F94
:1035E000E96E010E0320EA6EEFCF8BF4ECCF01F011
:1035F000ECCF02F0ECCF03F06BC48AF46AC489F418
:1036000069C488F468C487F403C08EF402C08DF4E2
:1036100001C08CF40001EAEC15F067C4EAFF66C44F
:10362000E9FF00C0EFFF01C0ECFF02C0ECFF03C0E8
:10363000ECFF0401846B65C483F4866B410E856FD7
:103640000001BAEC15F002C067F401C066F4110E77
:1036500004010124016E000E0220036E0150BD0F13
:10366000E96E010E0320EA6EEFCF00F0ECCF01F01F
:10367000ECCF02F0ECCF03F00001A9EF2DF0040134
:10368000696B686B676B666B6D6B6C6B6B6B6A6B96
:10369000716B706B6F6B6E6B3D0E756F9B0E746F05
:1036A000750E736F7D0E726FA50E796FBD0E786FFC
:1036B000210E776F7E0E766F7D6B7C6B7B6B7A6BEA
:1036C000816B806B7F6B7E6B826B6D6B6C6B6B6BDE
:1036D0006A6B7D6B7C6B7B6B7A6B65C483F40001DA
:1036E000CBEC15F002C084F401C083F4E7EC07F0E2
:1036F00003C071F402C070F401C06FF400C06EF436
:1037000071C486F470C485F46FC484F46EC483F409
:1037100004018A6BC00E896F7F0E886F880E876FD9
:10372000000102EC08F003C086F402C085F401C079
:1037300084F400C083F403C08AF402C089F401C099
:1037400088F400C087F404018E6B8D6B200E8C6FA3
:10375000810E8B6F0001EAEC15F003C071F402C01A
:1037600070F401C06FF400C06EF471C48AF470C4C8
:1037700089F46FC488F46EC487F471C48EF470C485
:103780008DF46FC48CF46EC48BF4EAEC15F003C0B6
:1037900086F402C085F401C084F400C083F403C041
:1037A0008AF402C089F401C088F400C087F459C4C7
:1037B0008EF458C48DF457C48CF456C48BF4EAECE0
:1037C00015F003C086F402C085F401C084F400C083
:1037D00083F471C48AF470C489F46FC488F46EC42D
:1037E00087F45DC48EF45CC48DF45BC48CF45AC45D
:1037F0008BF4EAEC15F0D89286C48AF485C489F477
:1038000084C488F483C487F403C08EF402C08DF4AA
:1038100001C08CF400C08BF4B1EC08F003C086F456
:1038200002C085F401C084F400C083F4D89203C0C0
:103830008AF402C089F401C088F400C087F461C42E
:103840008EF460C48DF45FC48CF45EC48BF4B1EC70
:1038500008F003C069F402C068F401C067F400C056
:1038600066F4D88269C48AF468C489F467C488F4A9
:1038700066C487F40A0E04018E6FD70E8D6F230E77
:103880008C6F7A0E8B6F0001B1EC08F003C069F405
:1038900002C068F401C067F400C066F469C486F42D
:1038A00068C485F467C484F466C483F404018A6B35
:1038B000896B886B876B0001DCEC0EF006E304017A
:1038C000696B686B676B666B000175C48AF474C4BE
:1038D00089F473C488F472C487F469C48EF468C42C
:1038E0008DF467C48CF466C48BF4EAEC15F003C065
:1038F0007DF402C07CF401C07BF400C07AF47DC486
:1039000086F47CC485F47BC484F47AC483F479C4DB
:103910008AF478C489F477C488F476C487F402EC16
:1039200008F003C081F402C080F401C07FF400C03D
:103930007EF404018251645D01E2826B8251040DC8
:10394000F350036A7C0FE96E010E0320EA6E7EC419
:10395000EFFF7FC4ECFF80C4ECFF81C4ECFF822B3F
:103960000101B66B010E0401645D0101B65D01E069
:1039700036E200019051040DF350036A7C0FE96EAA
:10398000010E0320EA6EEFCF8BF4ECCF01F0ECCF09
:1039900002F0ECCF03F0EACF84F4E9CF83F4D892BD
:1039A0006DC48AF46CC489F46BC488F46AC487F467
:1039B00003C08EF402C08DF401C08CF4B1EC08F0A9
:1039C00084C4EAFF83C4E9FF03C06DF402C06CF451
:1039D00001C06BF400C06AF40101B62BC3D7040127
:1039E000846B64C483F40001E7EC07F06DC486F4D3
:1039F0006CC485F46BC484F46AC483F403C08AF491
:103A000002C089F401C088F400C087F402EC08F019
:103A100003C06DF402C06CF401C06BF400C06AF422
:103A20000401846B65C483F4866B410E856F0001CD
:103A3000BAEC15F002C084F401C083F4150E040141
:103A40000124016E000E0220036E0150BD0FE96ECD
:103A5000010E0320EA6EEFCF00F0ECCF01F0ECCFC7
:103A600002F0ECCF03F06DC48AF46CC489F46BC42B
:103A700088F46AC487F403C08EF402C08DF401C0D8
:103A80008CF400C08BF40001EAEC15F0B9EF2DF0D6
:103A90000401846B65C483F4866B440E856F00015A
:103AA000BAEC15F001C066F4400E04010124016E69
:103AB000000E0220036E0150020FE96E030E032078
:103AC000EA6EEF6AEC6AEC6AEC6A846B65C483F4B4
:103AD000866B440E856F0001BAEC15F002C067F4E6
:103AE00001C066F4020E04010124016E030E0220DF
:103AF000036E01C068F4696F65C483F40001CBEC08
:103B000015F069C4EAFF68C4E9FF02C0ECFFED529A
:103B100001C0EFFF0401846B65C483F4866B440E1F
:103B2000856F0001BAEC15F001C066F4020E0401C5
:103B30000124016E000E0220036E0150020F016E7F
:103B4000030E032201C066F403C067F4846B65C4EE
:103B500083F4866B440E856F0001BAEC15F002C049
:103B600069F401C068F4020E04010124E96E030E39
:103B70000220EA6EECCF03F0ED52EFCF83F403C0E6
:103B800084F40001E7EC07F067C4EAFF66C4E9FFCC
:103B900000C0EFFF01C0ECFF02C0ECFF03C0ECFF70
:103BA0000401846B65C483F4866B440E856F000149
:103BB000BAEC15F001C066F40A0E04010124016E8E
:103BC000000E0220036E0150020F016E030E03224D
:103BD00001C066F403C067F4846B65C483F4866B2C
:103BE000440E856F0001BAEC15F001C068F4020EB6
:103BF00004010124016E000E0220036E0150020F29
:103C0000E96E030E0320EA6EEFCF68F4ECCF69F49F
:103C1000ECCF6AF4ECCF6BF4846B65C483F4866BF1
:103C2000440E856F0001BAEC15F002C06DF401C0BE
:103C30006CF4060E04010124016E000E0220036ED6
:103C40000150020FE96E030E0320EA6EEFCF87F4F6
:103C5000ECCF01F0ECCF02F0ECCF03F06BC486F4B4
:103C60006AC485F469C484F468C483F403C08AF424
:103C700002C089F401C088F4000102EC08F003C01E
:103C80006BF402C06AF401C069F400C068F4D88221
:103C900003C08AF402C089F401C088F400C087F42C
:103CA00004018E6B8D6B8C6B7F0E8B6F0001B1EC02
:103CB00008F067C4EAFF66C4E9FF00C0EFFF01C077
:103CC000ECFF02C0ECFF03C0ECFF0401846B65C491
:103CD00083F4866B440E856F0001BAEC15F001C0C9
:103CE00066F40A0E04010124016E000E0220036E28
:103CF0000150020FE96E030E0320EA6EEFCF83F44A
:103D0000ECCF84F4ECCF85F4ECCF86F48A6B896B2E
:103D1000886B876B0001DCEC0EF020E30401846B00
:103D200065C483F4866B440E856F0001BAEC15F010
:103D300002C067F401C066F40A0E04010124016E9A
:103D4000000E6721036E0150020FE96E030E03207F
:103D5000EA6EEF6AEC6AEC6AEC6A00010401846BBB
:103D600065C483F4866B440E856F0001BAEC15F0D0
:103D700002C067F401C066F4120E04010124016E52
:103D8000000E0220036E0150020FE96E030E0320A5
:103D9000EA6EEFCF66F4010E645D665D1AE019E32A
:103DA000846B65C483F4866B440E856F0001BAECA6
:103DB00015F001C066F4120E04010124016E000E1C
:103DC0000220036E0150020FE96E030E0320EA6E1B
:103DD000EF6A846B65C483F4866B440E856F0001C3
:103DE000BAEC15F002C067F401C066F4180E0401C5
:103DF0006627000E6723846B65C483F4866B440ECC
:103E0000856F0001BAEC15F002C069F401C068F4D6
:103E1000120E04010124016E000E0220036E0150F7
:103E2000020FE96E030E0320EA6E846BEFCF83F47A
:103E3000866B040E856F0001BAEC15F002C003F02A
:103E4000015004016625016E675103220150020FE3
:103E5000016E030E032201C066F403C067F4846B95
:103E600065C483F4866B440E856F0001BAEC15F0CF
:103E700001C068F40A0E04010124016E000E022044
:103E8000036E0150020FE96E030E0320EA6EEFCFBE
:103E900087F4ECCF88F4ECCF89F4ECCF8AF4D70E1A
:103EA0008E6FA30E8D6F8C6B810E8B6F0001EAEC11
:103EB00015F003C06BF402C06AF401C069F400C0DD
:103EC00068F467C4EAFF66C4E9FF00C0EFFF01C001
:103ED000ECFF02C0ECFF03C0ECFF0401846B65C47F
:103EE00083F4866B440E856F0001BAEC15F001C0B7
:103EF00066F4120E04010124016E000E0220036E0E
:103F00000150020FE96E030E0320EA6EEF2A000152
:103F10008D6B010E0401645D00018D5D01E079E2AD
:103F20000401846B65C483F4866B440E856F0001C5
:103F3000BAEC15F001C066F4400E04010124016ED4
:103F4000000E0220036E0150020F016E030E0322C9
:103F500001C066F403C067F403C0EAFF01C0E9FFD3
:103F6000EFCF68F4ECCF69F4ECCF6AF4ECCF6BF4EC
:103F7000846B65C483F4866B440E856F0001BAECD4
:103F800015F002C06DF401C06CF4180E04016C272A
:103F9000000E6D23846B8DC083F4866B040E856FD9
:103FA0000001BAEC15F002C003F0015004016C25C9
:103FB000016E6D5103220150020FE96E030E0320C2
:103FC000EA6EEFCF8BF4ECCF01F0ECCF02F0ECCF48
:103FD00003F0D8926BC48AF46AC489F469C488F483
:103FE00068C487F403C08EF402C08DF401C08CF461
:103FF0000001B1EC08F067C4EAFF66C4E9FF00C045
:10400000EFFF01C0ECFF02C0ECFF03C0ECFF8D2B03
:1040100080D70401846B65C483F4866B440E856F7E
:104020000001BAEC15F001C066F4400E0401012451
:10403000016E000E0220036E0150020F016E030E8E
:10404000032201C066F403C067F4846B65C483F483
:10405000866B440E856F0001BAEC15F001C068F460
:10406000400E04010124016E000E0220036E015077
:10407000020FE96E030E0320EA6EEFCF68F4ECCF77
:1040800069F4ECCF6AF4ECCF6BF4846B64C483F412
:104090000001E7EC07F06BC486F46AC485F469C4D8
:1040A00084F468C483F403C08AF402C089F401C0B4
:1040B00088F400C087F402EC08F067C4EAFF66C425
:1040C000E9FF00C0EFFF01C0ECFF02C0ECFF03C03E
:1040D000ECFF0401846B65C483F4866B440E856F2A
:1040E0000001BAEC15F001C066F4400E0401012491
:1040F000016E000E0220036E0150020FE96E030EE6
:104100000320EA6EEFCF66F4ECCF67F4ECCF68F4EF
:10411000ECCF69F4846B65C483F4866B440E856FC1
:104120000001BAEC15F002C06BF401C06AF4140E81
:1041300004010124016E000E0220036E0150020FE3
:10414000E96E030E0320EA6EEFCF00F0ECCF01F032
:10415000ECCF02F0ECCF03F069C48AF468C489F4B0
:1041600067C488F466C487F403C08EF402C08DF47B
:1041700001C08CF400C08BF40001EAEC15F01200D1
:104180000401686B676B666B656B6C6B6B6B6A6B62
:10419000696B706B6F6B6E6B6D6B746B736B726B4B
:1041A000716B836B0001CBEC15F002C084F401C08D
:1041B00083F4E7EC07F003C068F402C067F401C0C1
:1041C00066F400C065F404018A6B896B200E886F69
:1041D000810E876F68C48EF467C48DF466C48CF456
:1041E00065C48BF40001EAEC15F003C078F402C05A
:1041F00077F401C076F400C075F403C086F402C001
:1042000085F401C084F400C083F404018A6BC00EFD
:10421000896F7F0E886F880E876F000102EC08F0AF
:1042200003C06CF402C06BF401C06AF400C069F40E
:104230006CC486F46BC485F46AC484F469C483F4E2
:104240000A0E04018A6FD70E896F230E886F780ECD
:10425000876F000102EC08F003C070F402C06FF435
:1042600001C06EF400C06DF40101B7510401645D3A
:1042700003E20101B76B04010101B751040DF350D2
:10428000036A3C0FE96E010E0320EA6E6DC4EFFF76
:104290006EC4ECFF6FC4ECFF70C4ECFFB72B0401DD
:1042A000746B736B726B716B0101B86B010E04015F
:1042B000645D0101B85D01E036E2B851040DF350D0
:1042C000036A3C0FE96E010E0320EA6EEFCF8BF418
:1042D000ECCF01F0ECCF02F0ECCF03F0EACF76F4B4
:1042E000E9CF75F4D89274C48AF473C489F472C4A3
:1042F00088F471C487F403C08EF402C08DF401C049
:104300008CF40001B1EC08F076C4EAFF75C4E9FF53
:1043100003C074F402C073F401C072F400C071F4FD
:104320000101B82BC3D70401846B64C483F400017A
:10433000E7EC07F074C486F473C485F472C484F4A3
:1043400071C483F403C08AF402C089F401C088F404
:1043500000C087F402EC08F0E7EF2DF08E0E006E3F
:1043600004016451005E65C402F066C401F0028E6F
:10437000005209E0D890025202E1015204E00232F8
:104380000132002EF7D765AF05D0011E021E012AAB
:10439000D8B4022A000112008B9094908C809590E2
:1043A0008C8295928C8495948B9294928B96949611
:1043B0008B94949412000900F6CF67F4F7CF68F459
:1043C000F8CF69F4F5509EA8FED7AD6E67C4F6FF2E
:1043D00068C4F7FF69C4F8FF0401662F01D002D05A
:1043E0000001E9D70001120004016E51016A6D5D00
:1043F00003E26DC400F00CD0006A080E6F6F6D37D9
:1044000000366E51005CD8B0006E01366F2FF7D7C2
:1044100000011200015065C46DF4640E04016E6F5A
:104420000001E2DF00C065F40150300E08E1040134
:1044300066A30ED066B70CD066B9200E04D0040176
:10444000669766996681012601509EA8FED7AD6EDB
:1044500065C46DF40A0E6E6F0001C6DF00C065F41E
:104460000150300E08E1040166B70BD066A109D0F7
:1044700066B9200E0001012601509EA8FED7AD6E40
:104480000401300E652765519EA8FED7AD6E000170
:104490001200006A016A04016551D89066B10026D5
:1044A0000032013266B300260032013266B50026C2
:1044B0000032013266B700260032013266B90026AA
:1044C0000032013266BB00260032013266BD002692
:1044D0000032013266BF00260032013200011200B4
:1044E000040168516A19800B6C6F68AF05D0671FB3
:1044F000681F672BD8B4682B6AAF05D0691F6A1F85
:10450000692BD8B46A2B67516903F3CF01F0F4CF5C
:1045100000F06A03F350002668516903F35000204D
:10452000026E6CAF05D0011E021E012AD8B4022A09
:10453000000112008E0E006E65C401F064C402F02A
:10454000036A01AE05D0011E021E022A01E1012A02
:10455000015209E102C001F0026A080E005E015238
:1045600002E1006A0ED0D89001BE04D002360136B6
:104570000006F9D7040165AF02D0000102D0019E08
:104580000001120004017151B608716F036A72C410
:1045900075F4728FD89072337333743303320232EE
:1045A00001320032712FF6D775AF0BD0001E011EFD
:1045B000021E031E002AD8B4012AD8B4022AD8B495
:1045C000032A00015AEF23F0D8B204D0040EEA6E99
:1045D000790EE96E006A016A026A036A0401796B66
:1045E0007A6B7B6B7C6B78517711761175112CE0AF
:1045F000200E7D6FD89071377237733774377937E3
:104600007A377B377C3778517C5D08E177517B5D69
:1046100005E176517A5D02E17551795D0FE37551DF
:10462000795F7651D8A0763D7A5F7751D8A0773DF3
:104630007B5F7851D8A0783D7C5FD880003601360A
:10464000023603367D2FD6D779C4EFFF7AC4ECFF4C
:104650007BC4ECFF7CC4ECFF00011200E9500401B4
:10466000696F68516B6F1CE067C48AF466C489F493
:1046700065C488F464C487F48E6B8D6B200E8C6FD8
:10468000820E8B6F0001EAEC15F003C067F402C0E4
:1046900066F401C065F400C064F404016B2FE4D734
:1046A00067C474F466C473F465C472F464C471F4CA
:1046B000000168D703C067F402C066F401C065F466
:1046C00000C064F4040167AF0DD06907698B641FF3
:1046D000651F661F671F642BD8B4652BD8B4662B83
:1046E000D8B4672B3B0E706F9A0E6F6FCA0E6E6F49
:1046F0006D6B0A0E6B6F6851D8B4692BD882040EAB
:10470000EA6E640EE96E67C474F466C473F465C43B
:1047100072F464C471F470C478F46FC477F46EC436
:1047200076F46DC475F400014FDF0150005213E1BF
:10473000040168296B5DD8A402D000010CD0695136
:104740000DE00F0B6B5D01E03CE269BF3AD069BD43
:1047500005D0200E31D0200E0401691769AB0DD0B1
:10476000699B6851D8A469070050696F2D0E9EA8F7
:10477000FED7AD6E6951006E696B68516B5D0BE1E0
:104780000050696F2E0E9EA8FED7AD6E6951006E67
:10479000200E6917000E300E69AB0ED0699B685170
:1047A000D8A469070050696F2D0E9EA8FED7AD6E84
:1047B0006951006E696B300E002600509EA8FED72E
:1047C000AD6ED89270C474F46FC473F46EC472F496
:1047D0006DC471F4786B776B766B0A0E756F0001A0
:1047E000F3DE03C070F402C06FF401C06EF400C0C9
:1047F0006DF404016B2F82D7000112000401866B57
:10480000856B846B836B0BC18AF40AC189F409C17F
:1048100088F408C187F40001DCEC0EF002E2D8A4B1
:104820007ED00BC186F40AC185F409C184F408C1A5
:1048300083F404018A6B896B480E886F830E876F3F
:104840000001DCEC0EF001E26AE10BC18AF40AC15E
:1048500089F409C188F408C187F404018E6B8D6B5B
:10486000480E8C6F850E8B6F0001EAEC15F003C0CB
:1048700067F402C066F401C065F400C064F403C0CC
:1048800086F402C085F401C084F400C083F40401FE
:104890008A6B896B480E886F830E876F000102EC6C
:1048A00008F003C067F402C066F401C065F400C0FC
:1048B00064F454DD01C064F4840EF66E010EF76EEC
:1048C000000EF86E070E0401666F000174DD64C40B
:1048D00065F41B0E0401666F00019CDDCCEC07F053
:1048E0008E0EF66E010EF76E000EF86EB3EC07F04A
:1048F000CCEC07F0980EF66E010EF76E000EF86E17
:10490000B3EC07F0CCEC07F0A20EF66E010EF76EDA
:10491000000EF86EB3EC07F0CCEC07F00DD20401FA
:10492000866B856B480E846F830E836F0BC18AF490
:104930000AC189F409C188F408C187F40001DCECDC
:104940000EF0D8A09AD00BC186F40AC185F409C133
:1049500084F408C183F404018A6B896B480E886F64
:10496000840E876F0001DCEC0EF002E2D8A485D043
:104970000BC18AF40AC189F409C188F408C187F41B
:1049800004018E6B8D6B480E8C6F850E8B6F000152
:10499000EAEC15F003C067F402C066F401C065F4E8
:1049A00000C064F403C086F402C085F401C084F43E
:1049B00000C083F404018A6B896B480E886F830EF4
:1049C000876F000102EC08F003C067F402C066F4D0
:1049D00001C065F400C064F4D88203C08AF402C048
:1049E00089F401C088F400C087F404018E6B8D6BDC
:1049F000480E8C6F850E8B6F0001B1EC08F003C080
:104A000067F402C066F401C065F400C064F4A6DC7B
:104A100001C064F4AC0EF66E010EF76E000EF86E77
:104A2000070E0401666F0001C6DC64C465F41B0E4A
:104A30000401666F0001EEDCCCEC07F0B60EF66EFA
:104A4000010EF76E000EF86EB3EC07F0CCEC07F039
:104A5000C20EF66E010EF76E000EF86EB3EC07F0A4
:104A6000CCEC07F0CC0EF66E010EF76E000EF86E71
:104A7000B3EC07F0CCEC07F05FD10401866B856BDB
:104A8000480E846F840E836F0BC18AF40AC189F4C7
:104A900009C188F408C187F40001DCEC0EF0D8A04D
:104AA0009BD00BC186F40AC185F409C184F408C106
:104AB00083F404018A6B896B160E886F850E876FED
:104AC0000001DCEC0EF002E2D8A486D00BC18AF41F
:104AD0000AC189F409C188F408C187F404018E6B06
:104AE0008D6B480E8C6F850E8B6F0001EAEC15F014
:104AF00003C067F402C066F401C065F400C064F44A
:104B000003C086F402C085F401C084F400C083F4BD
:104B100004018A6B896B480E886F830E876F0001D2
:104B200002EC08F003C067F402C066F401C065F44B
:104B300000C064F4D88203C08AF402C089F401C0C2
:104B400088F400C087F404018E6B8D6B480E8C6F67
:104B5000860E8B6F0001B1EC08F003C067F402C051
:104B600066F401C065F400C064F4AEEC21F001C04D
:104B700064F4D60EF66E010EF76E000EF86E070E98
:104B80000401666F000117DC64C465F41B0E0401A8
:104B9000666F00013FDCCCEC07F0E00EF66E010E14
:104BA000F76E000EF86EB3EC07F0CCEC07F0EC0EED
:104BB000F66E010EF76E000EF86EB3EC07F0CCEC5B
:104BC00007F0F80EF66E010EF76E000EF86EB3ECFD
:104BD00007F0CCEC07F0B0D00401866B856B160EA5
:104BE000846F850E836F0BC18AF40AC189F409C1F1
:104BF00088F408C187F40001DCEC0EF0D8A09CD04A
:104C00000BC186F40AC185F409C184F408C183F498
:104C100004018A6B896B480E886F850E876F0001CF
:104C2000DCEC0EF002E2D8A487D00BC18AF40AC1F2
:104C300089F409C188F408C187F404018E6B8D6B77
:104C4000480E8C6F850E8B6F0001EAEC15F003C0E7
:104C500067F402C066F401C065F400C064F403C0E8
:104C600086F402C085F401C084F400C083F404011A
:104C70008A6B896B480E886F830E876F000102EC88
:104C800008F003C067F402C066F401C065F400C018
:104C900064F4D88203C08AF402C089F401C088F4A5
:104CA00000C087F404018E6B8D6B480E8C6F850EEF
:104CB0008B6F0001B1EC08F003C067F402C066F42A
:104CC00001C065F400C064F4AEEC21F001C064F4EE
:104CD000020EF66E020EF76E000EF86E070E04015D
:104CE000666F0001DBEC21F064C465F41B0E040167
:104CF000666F00010AEC22F0CCEC07F00C0EF66EA9
:104D0000020EF76E000EF86EB3EC07F0CCEC07F075
:104D1000180EF66E020EF76E000EF86EB3EC07F08A
:104D2000CCEC07F0240EF66E020EF76E000EF86E55
:104D3000B3EC07F0CCEC07F0ADEF38F00401866B74
:104D4000856B846B836B0BC18AF40AC189F409C13A
:104D500088F408C187F40001DCEC0EF002E2D8A46C
:104D600081D00BC186F40AC185F409C184F408C15D
:104D700083F404018A6B896B480E886F830E876FFA
:104D80000001DCEC0EF001E26DE10BC18AF40AC116
:104D900089F409C188F408C187F404018E6B8D6B16
:104DA000480E8C6F850E8B6F0001EAEC15F003C086
:104DB00067F402C066F401C065F400C064F403C087
:104DC00086F402C085F401C084F400C083F40401B9
:104DD0008A6B896B480E886F830E876F000102EC27
:104DE00008F003C067F402C066F401C065F400C0B7
:104DF00064F4AEEC21F001C064F4300EF66E020EE5
:104E0000F76E000EF86E070E0401666F0001DBEC12
:104E100021F064C465F41B0E0401666F00010AEC06
:104E200022F0CCEC07F03A0EF66E020EF76E000E92
:104E3000F86EB3EC07F0CCEC07F0440EF66E020E01
:104E4000F76E000EF86EB3EC07F0CCEC07F04E0EE8
:104E5000F66E020EF76E000EF86EB3EC07F0CCECB7
:104E600007F012D20401866B856B480E846F830EA7
:104E7000836F0BC18AF40AC189F409C188F408C19F
:104E800087F40001DCEC0EF0D8A09DD00BC186F4B5
:104E90000AC185F409C184F408C183F404018A6B52
:104EA000896B480E886F840E876F0001DCEC0EF072
:104EB00002E2D8A488D00BC18AF40AC189F409C1DE
:104EC00088F408C187F404018E6B8D6B480E8C6FDB
:104ED000850E8B6F0001EAEC15F003C067F402C089
:104EE00066F401C065F400C064F403C086F402C037
:104EF00085F401C084F400C083F404018A6B896BDB
:104F0000480E886F830E876F000102EC08F003C023
:104F100067F402C066F401C065F400C064F4D8828E
:104F200003C08AF402C089F401C088F400C087F489
:104F300004018E6B8D6B480E8C6F850E8B6F00019C
:104F4000B1EC08F003C067F402C066F401C065F478
:104F500000C064F4AEEC21F001C064F4580EF66EAB
:104F6000020EF76E000EF86E070E0401666F000168
:104F7000DBEC21F064C465F41B0E0401666F0001D4
:104F80000AEC22F0CCEC07F0620EF66E020EF76E21
:104F9000000EF86EB3EC07F0CCEC07F06E0EF66E78
:104FA000020EF76E000EF86EB3EC07F0CCEC07F0D3
:104FB000780EF66E020EF76E000EF86EB3EC07F088
:104FC000CCEC07F061D10401866B856B480E846FD1
:104FD000840E836F0BC18AF40AC189F409C188F475
:104FE00008C187F40001DCEC0EF0D8A09DD00BC105
:104FF00086F40AC185F409C184F408C183F404016C
:105000008A6B896B160E886F850E876F0001DCEC4A
:105010000EF002E2D8A488D00BC18AF40AC189F448
:1050200009C188F408C187F404018E6B8D6B480EAA
:105030008C6F850E8B6F0001EAEC15F003C067F4EE
:1050400002C066F401C065F400C064F403C086F4D5
:1050500002C085F401C084F400C083F404018A6BAB
:10506000896B480E886F830E876F000102EC08F091
:1050700003C067F402C066F401C065F400C064F4C4
:10508000D88203C08AF402C089F401C088F400C049
:1050900087F404018E6B8D6B480E8C6F860E8B6FC0
:1050A0000001B1EC08F003C067F402C066F401C06F
:1050B00065F400C064F4AEEC21F001C064F4820E2B
:1050C000F66E020EF76E000EF86E070E0401666FA4
:1050D0000001DBEC21F064C465F41B0E0401666F73
:1050E00000010AEC22F0CCEC07F08C0EF66E020EFA
:1050F000F76E000EF86EB3EC07F0CCEC07F0980EEC
:10510000F66E020EF76E000EF86EB3EC07F0CCEC04
:1051100007F0A40EF66E020EF76E000EF86EB3ECFA
:1051200007F0CCEC07F0B0D00401866B856B160E4F
:10513000846F850E836F0BC18AF40AC189F409C19B
:1051400088F408C187F40001DCEC0EF0D8A09CD0F4
:105150000BC186F40AC185F409C184F408C183F443
:1051600004018A6B896B480E886F850E876F00017A
:10517000DCEC0EF002E2D8A487D00BC18AF40AC19D
:1051800089F409C188F408C187F404018E6B8D6B22
:10519000480E8C6F850E8B6F0001EAEC15F003C092
:1051A00067F402C066F401C065F400C064F403C093
:1051B00086F402C085F401C084F400C083F40401C5
:1051C0008A6B896B480E886F830E876F000102EC33
:1051D00008F003C067F402C066F401C065F400C0C3
:1051E00064F4D88203C08AF402C089F401C088F450
:1051F00000C087F404018E6B8D6B480E8C6F850E9A
:105200008B6F0001B1EC08F003C067F402C066F4D4
:1052100001C065F400C064F4AEEC21F001C064F498
:10522000AE0EF66E020EF76E000EF86E070E04015B
:10523000666F0001DBEC21F064C465F41B0E040111
:10524000666F00010AEC22F0CCEC07F0B80EF66EA7
:10525000020EF76E000EF86EB3EC07F0CCEC07F020
:10526000C40EF66E020EF76E000EF86EB3EC07F089
:10527000CCEC07F0D00EF66E020EF76E000EF86E54
:10528000B3EC07F0CCEC07F020EF39F0EACF6EF486
:10529000E9CF6DF404016739F009696F6927E20FFE
:1052A0006A6F320F6C6F67510F0B6A276A276C2782
:1052B000E90F6B6F6B276B2766390F0B6B276C271A
:1052C0006B376C376C1F6C3766510F0B6C27693767
:1052D000070E686F0A0E6B076C27FDE36A076B27E2
:1052E000FDE369076A27FDE368076927FDE3040E0C
:1052F000EA6E680EE96E070E6D156D9DE926000ECB
:10530000EA22E9506C0804E1EA50040801E16D8DDD
:10531000EF50006E08E16DBD06D06DB90CD06DB7D1
:1053200002D0200E03D06D876D99300E00260050FC
:105330009EA8FED7AD6EEE506DADE3D70001120012
:10534000DC0EF66E020EF76E000EF86E0E0E040105
:10535000666F0001DBEC21F0100EE96E65C467F4A6
:1053600064C466F493DFCCEC07F0EE0EF66E020E2A
:10537000F76E000EF86E0A0E0401666F0001DBEC9A
:1053800021F0100EE96E65C467F464C466F47EDF34
:10539000CCEC07F0FC0EF66E020EF76E000EF86E07
:1053A0000B0E0401666F0001DBEC21F0100EE96EBC
:1053B00065C467F464C466F469DFCCEC07F00C0ED6
:1053C000F66E030EF76E000EF86E080E0401666F9F
:1053D0000001DBEC21F0100EE96E65C467F464C4D3
:1053E00066F454DFCCEC07F0180EF66E030EF76E81
:1053F000000EF86E0A0E0401666F0001DBEC21F06E
:10540000100EE96E65C467F464C466F43FDFCCEC4B
:1054100007F0260EF66E030EF76E000EF86E070EFE
:105420000401666F0001DBEC21F0100EE96E65C42B
:1054300067F464C466F42ADFCCEC07F0320EF66E33
:10544000030EF76E000EF86E070E0401666F000182
:10545000DBEC21F0100EE96E65C467F464C466F4F9
:1054600015DFCCEC07F03E0EF66E030EF76E000E65
:10547000F86E0A0E0401666F0001DBEC21F0100EDD
:10548000E96E65C467F464C466F400DFCCEC07F031
:105490004C0EF66E030EF76E000EF86E080E040149
:1054A000666F0001DBEC21F0100EE96E65C467F455
:1054B00064C466F4EBDECCEC07F01200016A026A09
:1054C000006A036A0401685102E1675118E0100E96
:1054D000696FD89065376637003603366851035CCC
:1054E00002E16751005C07E36751005ED8A0030644
:1054F0006851035ED88001360236692FEAD7000171
:1055000099EF2AF004016451030B0AE164C46DF4BD
:10551000640E6E6F0001F4EC21F0005218E10401FA
:10552000666B64C465F4010E686F900E676F0001CE
:10553000C5D700C065F4040103C066F4655305E1F6
:105540006653D8A402D0000102D0000E02D0010E92
:105550000401016E000112006AC46DF40A0E040118
:105560006E6F0001F4EC21F001C06BF404016B518B
:105570000A0DF3506A5D6C6F6B39006EF00E001609
:1055800000506C11016E0001120064C46AF4E4DF83
:1055900001C06AF4860E04016B6F01C06CF4000157
:1055A00054EC07F065C46AF4D7DF01C06AF4880ED2
:1055B00004016B6F01C06CF4000154EC07F066C489
:1055C0006AF4CADF01C06AF48C0E04016B6F01C07B
:1055D0006CF4000154EC07F067C46AF4BDDF01C04D
:1055E0006AF48A0E04016B6F01C06CF4000154EC84
:1055F00007F068C46AF4B0DF01C06AF4840E0401E5
:105600006B6F01C06CF4000154EC07F069C46AF4DC
:10561000A3DF01C06AF4820E04016B6F01C06CF459
:10562000000154EC07F004016A6B000195DF01C032
:105630006AF4800E04016B6F01C06CF4000154EC3D
:1056400007F0F2EF3EF0A1510C0802E20A0EA16F42
:10565000A2511F0802E2100EA26FA051630802E2DD
:10566000120EA06FA351180802E20B0EA36FA451F3
:105670003B0802E21E0EA46FA151020811E1A0C076
:1056800064F440DF015206E0A2511D0802E21D0E43
:10569000A26F05D0A2511C0802E21C0EA26F15D009
:1056A000A151070809E3A151010B05E1A2511E0810
:1056B00002E21E0EA26F09D0A151010B010805E103
:1056C000A2511E0802E21E0EA26F38EF40F0F86AE7
:1056D0009F8AD08E078EB886080EAF6E020EB06E0F
:1056E000A60EAC6E900EAB6E4E6A4F6A506A6A6B35
:1056F0006B6B84918493849584978499849B849D17
:10570000849F85918593859585978599859B859DB2
:10571000859F86918693869586978699869B869D9A
:10572000080E876F010E886F0A0E896F8A6B8B6B6C
:105730008C6B8D6B8E6B8F6B906B916B926B936F91
:10574000946B956B966B120E976F090E986F0D0EFA
:10575000996F9A6B9B6B9C6B9D6B9E6B080E9F6FFA
:10576000A06BA16BA26BA36BA46BA56BA66BA76BC5
:10577000A86BA96BAA6BAB6BAC6BAD6BAE6BAF6B75
:10578000B06BB16BB26BB36BB46BB56BB66B0A0E2F
:10579000B76FB86BB96BBB6BBA6BBD6BBC6BBF6BD8
:1057A000BE6BC16BC06BC36BC26BC56BC46BC76B8D
:1057B000C66BD76BD66BD56BD46BDB6BDA6BD96BE7
:1057C000D86BDF6BDE6BDD6BDC6BE36BE26BE16B8D
:1057D000E06BE76BE66BE56BE46BEB6BEA6BE96B3D
:1057E000E86BEF6BEE6BED6BEC6BF36BF26BF16BED
:1057F000F06BF76BF66BF56BF46BFB6BFA6BF96B9D
:10580000F86BFF6BFE6BFD6BFC6B0101036B026BB6
:10581000016B006B076B066B056B046B0B6B0A6B04
:10582000096B086B190E0F6F530E0E6F180E0D6F6C
:10583000680E0C6FE90E136FBD0E126FC60E116F5E
:10584000710E106FBE0E176F960E166F240E156F29
:105850007A0E146FF30E1B6F5A0E1A6FAB0E196F80
:10586000810E186FA76BA66B4B0EA56F860EA46FEB
:10587000AB6BAA6BA96BA86BAF6BAE6BAD6BAC6B74
:10588000B36BB26BB16B800EB06FB56BB46BB66BB4
:10589000B76BB86BB96B0001869F0101BA91BB6B06
:1058A000BC6B1B0E0401596F100E586FE10E576F41
:1058B0007A0E566F880E5D6F2E0E5C6F100E5B6F4A
:1058C0007E0E5A6F620E616FF80E606FE80E5F6FAA
:1058D0007D0E5E6F636B626BC150C00B0F09C16EB2
:1058E000070EB46E15D0020032000018006C0003E1
:1058F0000306010406020500030500030400020577
:105900000003060104060C40C80060411C000000B2
:10591000000EF86E580EF76EE60EF66E0900F550A2
:10592000006E000A13E00900F550016EE8BE05D0D4
:105930000F0BEA6E0900F5CFE9FF01BC090001ACCD
:105940000900F5CFEEFF004EE9D7F9D7F86A9D8A36
:10595000C00EF212F288F18CC150C00B0A09C16E60
:10596000C050C00B0609C06EC08EC280C00EF212BD
:10597000D76AD66ACF6ACE6A0001869F86930101F4
:10598000BB6BBC6B8B969496010E0401866F000175
:105990002CEC07F08AEF07F0D00EF66E030EF76ED0
:1059A000000EF86EB3EC07F0CCEC07F0DA0EF66EF2
:1059B000030EF76E000EF86EB3EC07F0CCEC07F0B8
:1059C0008B9694968C8095908B9094908B949494D5
:1059D000EDEF09F019EF0FF00101B55303E1B451F8
:1059E00077082CE2B56BB46B00018481868984A3AF
:1059F00003D0C22BD8B4C32B84BF04D00101BAA1F9
:105A000008D00001AB2BAB513B0802E2AB6BAD2BD6
:105A10000101000186AB06D0AF2BAF513B0802E27B
:105A2000AF6BB12B85AF09D0BC2BD8B4BD2BB32B3A
:105A3000B3513B0802E2B36BB42B0101BB51060822
:105A400004E18B869496D76AD66ABC51060804E1B5
:105A50008B849494CF6ACE6ABB5304E18B96949660
:105A6000D76AD66ABC5304E18B949494CF6ACE6A09
:105A700004000001DAEF14F086A9CCD08699870ED5
:105A80000401686F00015FEC07F001C064F401C01D
:105A900069F4A1EC15F001C099F0890E0401686F5A
:105AA00000015FEC07F001C064F401C069F4A1ECEF
:105AB00015F001C098F08D0E0401686F00015FECD5
:105AC00007F001C064F401C069F4A1EC15F001C055
:105AD00097F08B0E0401686F00015FEC07F001C0C6
