:0600000027EF13F0000CD5
:0800080053EF00F000000000BE
:100010000000000000000000046ED8CF05F0E0CF23
:1000200006F00001E9CF0CF0EACF07F0E1CF08F0CD
:10003000E2CF09F0D9CF0AF0DACF0BF0F3CF12F00C
:10004000F4CF13F0FACF14F000C00EF001C00FF09F
:1000500002C010F003C011F09DA232EF00F09EB27A
:10006000FBEF01F00EC000F00FC001F010C002F075
:1000700011C003F00CC0E9FF07C0EAFF078E08C0FB
:10008000E1FF09C0E2FF0AC0D9FF0BC0DAFF12C0CE
:10009000F3FF13C0F4FF14C0FAFF045006C0E0FFE2
:1000A00005C0D8FF1000166ED8CF17F0E0CF18F0BB
:1000B0000001E9CF1EF0EACF19F0E1CF1AF0E2CF4C
:1000C0001BF0D9CF1CF0DACF1DF0F3CF24F0F4CF22
:1000D00025F0FACF26F000C020F001C021F002C0C8
:1000E00022F003C023F0F2AA79EF00F0F2B4E2EFBD
:1000F00001F0F2A87FEF00F0F2B2A6EF01F0F0A657
:1001000085EF00F0F0B04BEF01F020C000F021C00F
:1001100001F022C002F023C003F01EC0E9FF19C0A5
:10012000EAFF198E1AC0E1FF1BC0E2FF1CC0D9FF15
:100130001DC0DAFF24C0F3FF25C0F4FF26C0FAFF7C
:10014000165018C0E0FF17C0D8FF1000F2CF0DF016
:10015000F29CF29EF76A6C0FF66E010EF722090010
:10016000F5500DBCF28C0DBEF28E1200280C01066B
:1001700054656D706F72697A61646F722055562094
:100180002020200043616D62696F20436F6E74729E
:10019000617365F1612020005469656D706F2054B2
:1001A000726162616A6F20555620200050756E742E
:1001B0006F204365726F2020202020202020200007
:1001C000416C61726D6120202020202020202020A1
:1001D0004F464600416C61726D6120202020202036
:1001E00020202020204F4E0056656C6F63696461AB
:1001F000642020202020202020202000434142494C
:100200004E4120464C554A4F204C414D494E41529B
:100210000000202020202020564552544943414CC4
:100220002020202020200000202020204A502020B4
:10023000494E474C4F42414C2020202000002020B6
:100240002020205245463A4A50435632342020203E
:100250002020000001010951070B006E0931016ED9
:10026000013201321F0E011601500B25E96E000EFE
:100270000C21EA6E016A012A002A01D00136002E03
:10028000FDD70A5303E00150EF1203D0011E0150C5
:10029000EF160001000CCE50D56FCFCFD6F0D7515E
:1002A000D55DD96FD851D659DA6FD6C0D8F0D5C040
:1002B000D7F02B802BAE34D0DA51020813E2FF0ABC
:1002C00003E1D951C0080EE2DA5104080BE355C02E
:1002D00009F1010E01010A6F0C6BD10E0B6F0001C9
:1002E000B9DF552ADA51000816E2FF0A03E1D951B5
:1002F000900811E2DA5102080EE303E1D951CF0868
:100300000AE355C009F101010A6B0C6BD10E0B6FAA
:100310000001A0DF552A55501F0802E2DB812B9E09
:10032000DA51090810E2FF0A03E1D951F0080BE2A3
:10033000DA51160808E303E1D951A70804E32BBEFC
:1003400002D02B8E556AF09085EF00F02B8AC851B1
:10035000050808E1D76AE40ED66E8B9494948B92CC
:1003600094922AD0C851040808E1D76AC90ED66E03
:100370008B9494948B9294921FD0C851030808E1F7
:10038000D76AC40ED66E8B9494948B92949214D0A8
:10039000C851020808E1D76ABC0ED66E8B949494BB
:1003A0008B92949209D0C82D07D0D76AB40ED66E1E
:1003B0008B9494948B929492C12BD8B4C22BF292CA
:1003C00085EF00F0C85314E0C851050811E32BAACB
:1003D00009D08B8494948B829492D76AFD0ED66E4A
:1003E0002B9A06D08B9494948B929492D76AD66A67
:1003F000F29485EF00F0E70ECC6E572AD8B4582A55
:10040000585024082EE2FF0A03E15750ED0829E274
:1004100092968976586A576A432A2A80512C0AD0C4
:100420002AB603D08B90949004D02AA802D08B8057
:1004300094902A7629A015D0352A29BE12D03C5294
:1004400002E03C060ED03B5204E03B063B0E3C6E05
:1004500008D0298E29908A8693963DC03BF03EC0F5
:100460003CF09E9232EF00F043617267616E646F00
:100470002E2E2E00436F6469676F20537562697278
:100480003A20255820202000436F6469676F20427E
:10049000616A61723A20255820202000436F646908
:1004A000676F20446574656E65723A202558200098
:1004B000436F6469676F3A255820255820255820D6
:1004C000255800002020202020496E677265736542
:1004D0002020202020202020000020202020436FEA
:1004E0006E7472617365F16120202020202000006D
:1004F00020202020434C4156453D2569256925692A
:1005000025692020000020202020202020202020DD
:1005100020202020202020202000202020202043D8
:100520006F6E7472617365F16120202020002020BD
:1005300020202020436F7272656374612020202088
:1005400020002020202020202020202020202020CB
:100550002020202020002020202020436F6E747255
:10056000617365F161202020200020202020204997
:100570006E636F72726563746120202020002020FA
:10058000202020202020202020202020202020206B
:1005900020002D2D2D4D454E55205052494E43499A
:1005A00050414C2D2D2D00002020202054656D70D1
:1005B0006F72697A61646F722020202020002020F1
:1005C00020202020204C757A2055562020202020E5
:1005D00020202000253033753A2530327520284DF3
:1005E0003A53292020005469656D706F20416C6D6D
:1005F0006163656E61646F002020436F7272656392
:1006000074616D656E7465202000202020202049D3
:100610006E67726573652020202020202020000056
:1006200020202020436F6E7472617365F161202079
:1006300020202020000020202020434C4156453D12
:1006400025692569256925692020000020202020B2
:10065000202020202020202020202020202020209A
:1006600000002020202020436F6E7472617365F1BA
:100670006120202020200000202020202020436F07
:1006800072726563746120202020202000002020E9
:10069000202020202020202020202020202020205A
:1006A000202000002020202020202020202020208A
:1006B0002020202020202020000020202020204357
:1006C0006F6E7472617365F161202020202000003C
:1006D0002020202020496E636F7272656374612050
:1006E000202020200000202020202020202020204A
:1006F0002020202020202020202000002020204911
:100700006E6772657365204E7565766120202020C6
:1007100000002020202020436F6E7472617365F109
:10072000612020202020000020202020434C415622
:10073000453D25692569256925692020000020207F
:1007400020202020202020202020202020202020A9
:10075000202000002020202020436F6E74726173DF
:1007600065F1612020202020000020202020204151
:100770006C6D6163656E6164612020202020000043
:100780002020202020202020202020202020202069
:1007900020202020000020204475726163696F6E64
:1007A0002041637475616C202020000020202054BB
:1007B00069656D706F3D202530354C752020200017
:1007C0002052455345543D204F7072696D61205E43
:1007D0002079203E200020526573657420646520D6
:1007E0007469656D706F2000202020202045786995
:1007F000746F736F20202020200020205A65726FB4
:1008000020506F696E7420436F6E66696720000028
:1008100050726573696F6E3D2025332E32662069F4
:100820006E48324F2000202020204144433D253295
:100830002E306600202020205A463D25322E30667C
:1008400000002020202020202020202020202020E8
:1008500020202020202000002020202020202020D8
:1008600041637469766F2020202020200000202022
:10087000202020202020416C61726D6120202020EA
:1008800020200000202020202020202020202020A8
:100890002020202020202020000020202020202098
:1008A0002020202020202020202020202020000088
:1008B00020202020202044657361637469766F20B6
:1008C00020202020000020202020202020416C61BA
:1008D000726D612020202020202000002020202078
:1008E0002020202020202020202020202020202008
:1008F000000053656C656363696F6E652056656CB7
:100900006F6369646164000020202064656C205678
:10091000656E74696C61646F722020200000202075
:1009200020202056656C3A2025752020202020208C
:1009300020002020202020202020202020202020D7
:1009400020202020202000002020202020202020E7
:1009500020202020202020202020202000002020D7
:1009600020202056656C6F6369646164202020201C
:1009700020200000202020202020416C6D61636534
:100980006E61646120202020000020202020202093
:100990002020202020202020202020202020000097
:1009A0004A5043522044503A25332E326620696E15
:1009B00048324F20000054656D706F3A2530337512
:1009C0003A2530327500202054656D706F72697A57
:1009D00061646F722020646520200000204C757ACD
:1009E000205556202046696E616C697A61646F20DB
:1009F0000000202020202020202020202020202037
:100A00002020202020200000202020202020202026
:100A100020202020202020202020202000004669A7
:100A20006C74726F3A004D6F746F723A4F4E2000C3
:100A30004D6F746F723A4F46460055563A4F4E20EE
:100A4000000055563A4F464600004C757A3A4F4ED4
:100A500020004C757A3A4F464600EA6AF70EE96E76
:100A6000EF500EE0050E016E006A002EFED7012E3B
:100A7000FBD72E0E006E002EFED700D0EF2EF2D741
:100A8000000CF839F00B006E0F0E83140010836E0B
:100A9000090E006E002EFED700D08386490E006E30
:100AA000002EFED78396000C8392010EF76FD5DFE0
:100AB000F5A18392F5B18382090E006E002EFED758
:100AC00000D08394090E006E002EFED700D08396CE
:100AD000F639F76F0F0EF717F7C0F8F0D2DFF651BF
:100AE0000F0BF76FF86FCDDF000C000E956E839241
:100AF000839483960F0EF76FB0DF010EE06FE05125
:100B0000030808E3030EF86FBCDF050EF76FA5DFDF
:100B1000E02BF5D7020EF86FB4DFE06BE05103086D
:100B200012E3036AE051F2CFE1F0F29CF29EA6ECF0
:100B300000F0E1BDF28CE1BFF28EE16FF56BF66F74
:100B4000B3DFE02BEBD7000CC80EF76F86DFCDDFED
:100B5000FF0E926E966EC00EF212F288F18CF08645
:100B6000F19AC70ED56EF28AB50ECD6E000E06094B
:100B7000CA6EFD0ECB6E9D82C150C00B0E09C16EB8
:100B8000C090C082C094C08EC280C00EF21204EF2A
:100B900014F0010EF35DFC0F0FE2040FE4EF05F01B
:100BA000800EF46F09D0C00EF46F06D0940EF46F6F
:100BB00003D0D40EF46F00D0010EF25DF427F56B74
:100BC000F4C0F6F071DF000CF2CF0DF0F29CF29E53
:100BD000E824F76AF736F30FF66E0B0EF7220A00D9
:100BE000F550FA6E0800F5500DBCF28C0DBEF28E79
:100BF000F96EA00BA60BAC0BB20BF151F10802E1A0
:100C0000EE0EF16FF151D10802E1FF0EF16FF151DB
:100C10000C0A05E0060A0DE0020A12E016D0F56B98
:100C2000010EF66F41DF010E286E020EF76F15DF21
:100C300012D0282A010EF26F28C0F3F0AADF0BD0E1
:100C4000F56B100EF66F30DF06D0010EF56FF1C0B8
:100C5000F6F02ADF00D0000C0900F5520CE0F6CFC8
:100C6000E3F0F7CFE4F0F5CFF1F0C7DFE3C0F6FF34
:100C7000E4C0F7FFF1D7000C010EF26FF36F89DFCC
:100C8000FC0EF66E010EF76EE7DF010EF26F020E3C
:100C9000F36F7FDF120EF66E020EF76EDDDF010ED0
:100CA000F26F030EF36F75DF280EF66E020EF76E0D
:100CB000D3DF010EF26F040EF36F6BDF3E0EF66EA4
:100CC000020EF76EC9DF080EE06FFA0EF76FC5DE91
:100CD000E02FFBD70C0EF16F90DF06EF14F08E0EB5
:100CE000006EF9C001F0F8C002F0036A015209E198
:100CF00002C001F0026A080E005E015202E1006AC1
:100D000008D0D89001BE04D0023601360006F9D7CB
:100D1000019E000CF2CFE0F0F29CF29EA96AA69C24
:100D2000A69EA680A850E0BDF28CE0BFF28E4D6E6C
:100D3000140EF76F92DEF2CFE0F0F29CF29E010EFD
:100D4000A96EA69CA69EA680A850E0BDF28CE0BF2E
:100D5000F28E4E6E140EF76F80DEF2CFE0F0F29C52
:100D6000F29E020EA96EA69CA69EA680A850E0BD8B
:100D7000F28CE0BFF28E4F6E140EF76F6EDEF2CF84
:100D8000E0F0F29CF29E030EA96EA69CA69EA680A1
:100D9000A850E0BDF28CE0BFF28E506E140EF76FDB
:100DA0005CDEF2CFE0F0F29CF29E040EA96EA69CEF
:100DB000A69EA680A850E0BDF28CE0BFF28E016E28
:100DC0002A9801B02A88140EF76F47DEF2CFE0F0C0
:100DD000F29CF29E050EA96EA69CA69EA680A85027
:100DE000E0BDF28CE0BFF28E3B6E140EF76F35DE85
:100DF000F2CFE0F0F29CF29E060EA96EA69CA69E93
:100E0000A680A850E0BDF28CE0BFF28E3C6E140EBE
:100E1000F76F23DEF2CFE0F0F29CF29E070EA96E90
:100E2000A69CA69EA680A850E0BDF28CE0BFF28EE4
:100E3000356E140EF76F11DEF2CFE0F0F29CF29EE9
:100E4000080EA96EA69CA69EA680A850E0BDF28CB6
:100E5000E0BFF28E366E140EF76FFFDDF2CFE0F0DA
:100E6000F29CF29E090EA96EA69CA69EA680A85092
:100E7000E0BDF28CE0BFF28E376E140EF76FEDDD41
:100E8000F2CFE0F0F29CF29E0A0EA96EA69CA69EFE
:100E9000A680A850E0BDF28CE0BFF28E386E140E32
:100EA000F76FDBDDF2CFE0F0F29CF29E0B0EA96E45
:100EB000A69CA69EA680A850E0BDF28CE0BFF28E54
:100EC000396E140EF76FC9DDF2CFE0F0F29CF29E9E
:100ED0000C0EA96EA69CA69EA680A850E0BDF28C22
:100EE000E0BFF28E3A6E140EF76FB7DDF2CFE0F08E
:100EF000F29CF29E0D0EA96EA69CA69EA680A850FE
:100F0000E0BDF28CE0BFF28E566E140EF76FA5DDD9
:100F1000F2CFE0F0F29CF29E0F0EA96EA69CA69E68
:100F2000A680A850E0BDF28CE0BFF28E526E140E87
:100F3000F76F93DDF2CFE0F0F29CF29E100EA96EF7
:100F4000A69CA69EA680A850E0BDF28CE0BFF28EC3
:100F5000536E140EF76F81DDF2CFE0F0F29CF29E3B
:100F6000110EA96EA69CA69EA680A850E0BDF28C8C
:100F7000E0BFF28E546E140EF76F6FDD3AC05CF076
:100F800039C05BF05CC0F9F05BC0F8F0A8DE03C0CC
:100F9000C0F002C0BFF001C0BEF000C0BDF038C05C
:100FA0005AF037C059F03BC03DF03CC03EF008EF6E
:100FB00014F0F5C0FCF0F951FC1BFCAF05D0D8943F
:100FC000D890F5BFD8802FD0F5C0FCF0F8C0FDF068
:100FD000F451FD5F06E0FCAF26D0D850010AD86E70
:100FE00022D0F9C0FDF0F551FD5F06E0FCAF1BD04B
:100FF000D850010AD86E17D0FAC0FDF0F651FD5F47
:1010000006E0FCAF10D0D850010AD86E0CD0FBC05F
:10101000FDF0F751FD5F06E0FCAF05D0D850010AA6
:10102000D86E01D0D890000C4DBE03D04D500908A9
:1010300003E34DBE01D019D04D6AA96AA86AA69CE7
:10104000A69EA684F250006EF29CF29E0F01550EF1
:10105000A76EAA0EA76EA682A6B2FED7A6940050CF
:10106000F212140E0001F76FF8DC4EBE03D04E50A2
:10107000090803E34EBE01D01AD04E6A010EA96ED4
:10108000A86AA69CA69EA684F250006EF29CF29ED0
:101090000F01550EA76EAA0EA76EA682A6B2FED7A6
:1010A000A6940050F212140E0001F76FD6DC4FBE6A
:1010B00003D04F50090803E34FBE01D01AD04F6A46
:1010C000020EA96EA86AA69CA69EA684F250006E87
:1010D000F29CF29E0F01550EA76EAA0EA76EA68275
:1010E000A6B2FED7A6940050F212140E0001F76FBC
:1010F000B4DC50BE03D05050090803E350BE01D009
:101100001AD0506A030EA96EA86AA69CA69EA68451
:10111000F250006EF29CF29E0F01550EA76EAA0EC1
:10112000A76EA682A6B2FED7A6940050F212140EA5
:101130000001F76F92DC000E2AB8010E01081BE2D5
:101140002A88040EA96E010EA86EA69CA69EA684EF
:10115000F250006EF29CF29E0F01550EA76EAA0E81
:10116000A76EA682A6B2FED7A6940050F212140E65
:101170000001F76F72DC3B50C8081CE2140E3B6E96
:10118000050EA96E140EA86EA69CA69EA684F2500B
:10119000006EF29CF29E0F01550EA76EAA0EA76E6E
:1011A000A682A6B2FED7A6940050F212140E000139
:1011B000F76F53DC3C503B081AE23C6A060EA96EFE
:1011C000A86AA69CA69EA684F250006EF29CF29E8F
:1011D0000F01550EA76EAA0EA76EA682A6B2FED765
:1011E000A6940050F212140E0001F76F36DC355051
:1011F0003C081AE2356A070EA96EA86AA69CA69E4C
:10120000A684F250006EF29CF29E0F01550EA76E5E
:10121000AA0EA76EA682A6B2FED7A6940050F2121E
:10122000140E0001F76F19DC36503C081BE2366AD9
:10123000080EA96EA86AA69CA69EA684F250006E0F
:10124000F29CF29E0F01550EA76EAA0EA76EA68203
:10125000A6B2FED7A6940050F212140E0001F76F4A
:101260002DEC05F05A5026083CE2FF0A03E15950E4
:10127000100837E25A6A596A090EA96E0A0EA86E5A
:10128000A69CA69EA684F250006EF29CF29E0F01D0
:10129000550EA76EAA0EA76EA682A6B2FED7A6947A
:1012A0000050F212140E0001F76F2DEC05F00A0E3B
:1012B000A96EA86AA69CA69EA684F250006EF29C17
:1012C000F29E0F01550EA76EAA0EA76EA682A6B2B9
:1012D000FED7A6940050F212140E0001F76F2DEC09
:1012E00005F0F76BF66B160EF56F870EF46FC0C046
:1012F000FBF0BFC0FAF0BEC0F9F0BDC0F8F059DE97
:1013000010E2C0C0F7F0BFC0F6F0BEC0F5F0BDC03F
:10131000F4F0FB6BFA6B480EF96F860EF86F49DE3E
:101320003BE3C06BBF6B5C0EBE6F860EBD6F0B0EDA
:10133000A96EDC0EA86EA69CA69EA684F250006E36
:10134000F29CF29E0F01550EA76EAA0EA76EA68202
:10135000A6B2FED7A6940050F212140E0001F76F49
:101360002DEC05F00C0EA96EA86AA69CA69EA6847C
:10137000F250006EF29CF29E0F01550EA76EAA0E5F
:10138000A76EA682A6B2FED7A6940050F212140E43
:101390000001F76F2DEC05F0565006081DE2040E13
:1013A000566E0D0EA96E040EA86EA69CA69EA6846F
:1013B000F250006EF29CF29E0F01550EA76EAA0E1F
:1013C000A76EA682A6B2FED7A6940050F212140E03
:1013D0000001F76F2DEC05F00AEF14F0EF51800DCE
:1013E000F3CFF1F0EE51400DF350F127ED51200D08
:1013F000F350F127EC51100DF350F127EB51080D8C
:10140000F350F127EA51040DF350F127D890E93554
:10141000F125E825F06FF0C001F0000C2A9A9282C5
:1014200080A203D0928480A405D08A8C939C8A9E4B
:10143000939E05D08A9C939C8A9E939E2A9C000C26
:101440002A9C928280B203D0928480B405D08A9C78
:10145000939C8A8E939E05D08A9C939C8A9E939E91
:101460002A9A000CDBA1D6D0DB91000ED1B1010E7F
:10147000E06F000ED1B3010EE16F000ED1B5010E89
:10148000E26F000ED1B7010EE36F000ED1B9010E6D
:10149000E46F000ED1BB010EE56F000ED1BD010E51
:1014A000E66F000ED1BF010EE0C0E8F0E1C0E9F048
:1014B000E2C0EAF0E3C0EBF0E4C0ECF0E5C0EDF030
:1014C000E6C0EEF0EF6F8ADF01C0DCF0000ED2B1B3
:1014D000010EE06F000ED2B3010EE16F000ED2B527
:1014E000010EE26F000ED2B7010EE36F000ED2B90B
:1014F000010EE46F000ED2BB010EE56F000ED2BDEF
:10150000010EE66F000ED2BF010EE0C0E8F0E1C0B0
:10151000E9F0E2C0EAF0E3C0EBF0E4C0ECF0E5C0D3
:10152000EDF0E6C0EEF0EF6F59DF01C0DDF0000E28
:10153000D3B1010EE06F000ED3B3010EE16F000EC8
:10154000D3B5010EE26F000ED3B7010EE36F000EAC
:10155000D3B9010EE46F000ED3BB010EE56F000E90
:10156000D3BD010EE66F000ED3BF010EE0C0E8F060
:10157000E1C0E9F0E2C0EAF0E3C0EBF0E4C0ECF077
:10158000E5C0EDF0E6C0EEF0EF6F28DF01C0DEF061
:10159000000ED4B1010EE06F000ED4B3010EE16F66
:1015A000000ED4B5010EE26F000ED4B7010EE36F4A
:1015B000000ED4B9010EE46F000ED4BB010EE56F2E
:1015C000000ED4BD010EE66F000ED4BF010EE0C0C8
:1015D000E8F0E1C0E9F0E2C0EAF0E3C0EBF0E4C01B
:1015E000ECF0E5C0EDF0E6C0EEF0EF6FF7DE01C025
:1015F000DFF05350DF5D01E12A8C5250DF5D01E1E5
:101600002A8A5450DF5D06E18A9C939C8A9E939EB1
:101610002A9A2A9C2AAC01D001DF2AAA01D010DF25
:10162000000C0900F6CFE5F0F7CFE6F0F5CFF1F0CA
:10163000FDEC05F0E5C0F6FFE6C0F7FFE42FF1D7BB
:10164000000CE1BF10D00F0E006EE03900160A0E3C
:10165000005C03E2300E002602D0E151002600C0FB
:10166000F1F0FDEC05F00F0EE0170A0EE05D02E26E
:10167000300E02D0E19FE151E027E0C0F1F0FDEC37
:1016800005F0000CE751016AE65D03E2E6C000F0F8
:101690000CD0006A080EE86FE6370036E751005CB0
:1016A000D8B0006E0136E82FF7D7000C200EE1A964
:1016B000300EE26FE0C000F0E0AF07D0001E002A5D
:1016C00000C0E0F02D0EE26FE18F0150E0C0E6F0C7
:1016D000640EE76FD7DF00C0E0F0300E0124E36F47
:1016E000E0C0E6F00A0EE76FCDDF300E0024E56FB4
:1016F000300E0124E46FE2C000F0E1A702D0E1AFB8
:10170000E195E1B90BD0E1AF22D0E1B520D000C026
:10171000E3F0E1B31CD000C0E4F019D0300EE35D7B
:1017200016E100C0E3F0200EE26FE1A704D0E195DE
:10173000E183E1AFE193300EE45D09E100C0E4F044
:10174000200EE36FE1A7F7D7E193E1AFE191E1A5C7
:1017500004D0E2C0F1F0FDEC05F0E1A304D0E3C059
:10176000F1F0FDEC05F0E1A104D0E4C0F1F0FDECF6
:1017700005F0E5C0F1F0FDEC05F0000CE12D0CD01A
:10178000020EF26FE2C0F3F0C9EC05F0700EF66ED7
:10179000010EF76E2CEC06F0E15102080CE1020E8E
:1017A000F26FE2C0F3F0C9EC05F0840EF66E010EA4
:1017B000F76E2CEC06F0E15103080CE1020EF26F1B
:1017C000E2C0F3F0C9EC05F0980EF66E010EF76E6C
:1017D0002CEC06F0E15104080CE1020EF26FE2C0BD
:1017E000F3F0C9EC05F0AC0EF66E010EF76E2CECC2
:1017F00006F0E15105081CE12AB80CD0020EF26F88
:10180000E2C0F3F0C9EC05F0C00EF66E010EF76E03
:101810002CEC06F02AA80CD0020EF26FE2C0F3F016
:10182000C9EC05F0D40EF66E010EF76E2CEC06F046
:10183000E15106080CE1020EF26FE2C0F3F0C9ECD0
:1018400005F0E80EF66E010EF76E2CEC06F0000CBB
:101850000150E0C0E6F0640EE76F14DF00C0E0F076
:101860000150300E07E1E1A30DD0E1B70BD0E1B993
:10187000200E03D0E197E199E181012601C0F1F04A
:10188000FDEC05F0E0C0E6F00A0EE76FFBDE00C0FD
:10189000E0F00150300E06E1E1B709D0E1A107D038
:1018A000E1B9200E012601C0F1F0FDEC05F0300E8B
:1018B000E027E0C0F1F0FDEC05F0000CEACFE8F025
:1018C000E9CFE7F0E139F009E36FE327E20FE46FD6
:1018D000320FE66FE1510F0BE427E427E627E90F0B
:1018E000E56FE527E527E0390F0BE527E627E53724
:1018F000E637E61FE637E0510F0BE627E337070E22
:10190000E26F0A0EE507E627FDE3E407E527FDE3BE
:10191000E307E427FDE3E207E327FDE3EA6AE20EDB
:10192000E96E070EE715E79DE926E60EE95CD8B4F7
:10193000E78DEF50006E08E1E7BD06D0E7B914D09F
:10194000E7B702D0200E03D0E787E799300E0026D4
:10195000EACFE1F0E9CFE0F000C0F1F0FDEC05F0F6
:10196000E1C0EAFFE0C0E9FFEE50E7ADDED77DEF72
:101970001DF0E535006E0036FC0E001600C001F0CB
:10198000C250C30B0010C26E0A0EF76F2DEC05F0AB
:10199000C282C2B2FED7C4CF03F0C3CFF8F0C4CF27
:1019A000F9F06FEC06F003C0E9F002C0E8F001C006
:1019B000E7F000C0E6F0E6C000F0E7C001F0E8C0E4
:1019C00002F0E9C003F0000CF451D8B4CAD0010110
:1019D000006F0001F851D8B4C4D00101005F07E3E3
:1019E0007F0E0027D8A002D00001BBD00AD0810E04
:1019F000005FD8B002D00001B4D0D8A402D000015A
:101A0000B0D000C100F0016A026A036A0001FF6BF6
:101A1000F5C0FEF0FE8FF6C0FDF0F7C0FCF0190E29
:101A20000101006F0001FB51FC5F0DE2010EFD5F43
:101A30000AE2FE5F08E2FF5F06E2FF2BFE2BFD2BB2
:101A4000FB51FC2728D0FA51FD5F12E2010EFE5F28
:101A50000FE2FF5F0DE2FF2BFE2BFA51FD27FB513A
:101A6000FC2719E3FD2B17E1FE2B15E1FF2B13D00B
:101A7000F9518009FE5F0EE2010EFF5F0BE2FF2BC2
:101A8000F9518009FE27FA51FD27E9E3FE2BE7E132
:101A9000FF2BE5D703800101002F01D00DD0D89096
:101AA0000001FC37FD37FE37FF37D890033602368A
:101AB000013601010137B6D701A106D0D890013215
:101AC00002320332013304D0002E02D0000149D08B
:101AD00001BF23D0D8900001FC37FD37FE37FF3718
:101AE000FB51FC5F07E2010EFD5F04E2FE5F02E2D4
:101AF000FF5F2BE3FA51FD5F05E2010EFE5F02E29C
:101B0000FF5F23E3F9518009FE5FD8A002D00101F5
:101B100004D0010EFF5F19E30101032AD8B402D0FB
:101B2000000113D0022AD8B402D000010ED0012A3D
:101B3000D8B402D0000109D0002AD8A402D00001F4
:101B400010D00132023203320001F5C000F1F95128
:101B50000101001B00AF02D0018E08D0019E06D00B
:101B60000001006A016A026A036A01010001000CB7
:101B7000800ED8B2FD1B0101026B036BF9C001F1AD
:101B80000001FD510101011B0001F851D8B4E1D061
:101B90000101006F006E0001FC51D8B4E4D00101D6
:101BA000005FD8B483D03DE3FDC006F1068FFEC0D0
:101BB00005F1FFC004F1036BD890063305330433FD
:101BC0000333002FF8D701AF03D00281E1D0029197
:101BD00000910289EA6AFB0EE96EEDD0029901BF1D
:101BE0000AD000A113D00633053304330333002A8F
:101BF000D8B4C9D00BD006BF0CD0D8900337043767
:101C0000053706370006D8B4BED0F5D7028D6DD0A3
:101C1000029DF9C001F101AF02D0068FADD0069F41
:101C2000ABD0FCC000F1FCC000F00001F851010194
:101C3000005FF9C006F1068FFAC005F1FBC004F1A0
:101C4000036BD8900633053304330333002FF8D7E2
:101C500001AF03D002839CD002930091028BEA6A09
:101C6000FF0EE96EA8D0029B01BF0AD000A113D0DD
:101C70000633053304330333002AD8B484D00BD0A1
:101C800006BF0CD0D8900337043705370637000657
:101C9000D8B479D0F5D7028F28D0029FFDC001F1CA
:101CA00001AF02D0068F68D0069F66D0FDC006F156
:101CB000068FFEC005F1FFC004F101AF04D0069FFE
:101CC000028566D00295036B0091EA6AFB0EE96E0D
:101CD00072D001BF1CD0F9C001F100A106D00633BB
:101CE000053304330333002A4EE003AF0BD0042B3B
:101CF00009E1052B07E1062B05E106330533043323
:101D0000002A41E002BD84D702BFC7D71CD0800E95
:101D1000061B06AF04D03CD0FDC001F10AD0F9C0CB
:101D200001F1065306E1055304E1045302E1006AA0
:101D300023D006BF08D0D8900337043705370637BD
:101D4000002EF7D720D001AF02D0068F15D0069F06
:101D500013D0FCC000F0FDC006F1FEC005F1FFC0CD
:101D600004F1010109D0F8C000F0F9C006F1FAC091
:101D700005F1FBC004F1010106C101F005C102F04B
:101D800004C103F034D0006A016A026A036A2FD0EA
:101D9000036B041F051F061F031F032B05E1042B04
:101DA00003E1052B01E1062B02B111D702B354D791
:101DB00002B588D7B1D7EF50042705E3052B03E11F
:101DC000062BD8B40081ED52EF50052703E3062B14
:101DD000D8B40081ED52EF50EFBE01D0800A062743
:101DE000D8B0008102B9FAD602BB3DD772D7000144
:101DF000000CE46BE36BE26BE16BE56BBADD03C0F7
:101E0000B0F002C0AFF001C0AEF000C0ADF0B0C0A5
:101E1000F7F0AFC0F6F0AEC0F5F0ADC0F4F0C0C062
:101E2000FBF0BFC0FAF0BEC0F9F0BDC0F8F0CCDDE9
:101E300000C0E5F001C0E6F002C0E7F003C0E8F042
:101E4000D88203C0FBF002C0FAF001C0F9F000C074
:101E5000F8F0FF6BFE6BFD6B7F0EFC6F89DE03C03D
:101E6000B4F002C0B3F001C0B2F000C0B1F0B4C031
:101E7000F7F0B3C0F6F0B2C0F5F0B1C0F4F0FB6B10
:101E8000FA6BF96BF86BD9EC07F004E3B46BB36B46
:101E9000B26BB16B010EE05D3F5C02E001E33F6AB3
:101EA0003F50040DF350036A5D0FE96E000E0320EE
:101EB000EA6EB1C0EFFFB2C0ECFFB3C0ECFFB4C03C
:101EC000ECFF3F2A406A010EE05D405C01E035E234
:101ED0004050040DF350036A5D0FE96E000E0320BD
:101EE000EA6EEFCF00F0ECCF01F0ECCF02F0ECCFD8
:101EF00003F0EACFE6F0E9CFE5F0D892E4C0FBF0DA
:101F0000E3C0FAF0E2C0F9F0E1C0F8F003C0FFF07E
:101F100002C0FEF001C0FDF000C0FCF029DEE6C00A
:101F2000EAFFE5C0E9FF03C0E4F002C0E3F001C04E
:101F3000E2F000C0E1F0402AC6D7F96BE0C0F8F04B
:101F40006FEC06F0E4C0F7F0E3C0F6F0E2C0F5F0A5
:101F5000E1C0F4F003C0FBF002C0FAF001C0F9F0F8
:101F600000C0F8F031DD03C0E4F002C0E3F001C0CE
:101F7000E2F000C0E1F0E1C000F0E2C001F0E3C037
:101F800002F0E4C003F0000CF451D8B471D0006E3C
:101F9000F851D8B46DD0002604E3810E002668E223
:101FA00004D07F0E005E64E363E0F5C0FCF0F951FD
:101FB000FC1BF58FF98FF751FB03F4CFFEF0F651C0
:101FC000FA03F4CF03F0F3CFFDF0FB03F350FE2749
:101FD000F450FD23000E0322F751FA03F350FE27BD
:101FE000F450FD23000E026A03220222F551FB0386
:101FF000F350FD27F4500322000E0222F551FA039C
:10200000F3500326F4500222000E016A0122F75118
:10201000F903F350FD27F4500322000E022201229F
:10202000F651F903F3500326F4500222000E012268
:10203000F551F903F3500226F4500122002A01BEA3
:1020400005D0FD370336023601360006000EFDAF1F
:102050000AD0032A02220122015005E1025003E1C5
:10206000035001E1002AFCBF018EFCAF019E04D0A9
:10207000006A016A026A036A000CF151B608F16F46
:10208000036AF2C0F5F0F28FD890F233F333F433F1
:102090000332023201320032F12FF6D7F5AF0BD006
:1020A000001E011E021E031E002AD8B4012AD8B445
:1020B000022AD8B4032AC1EF10F0006A016A026A4A
:1020C000036AF96BFA6BFB6BFC6BF851F711F611B5
:1020D000F5112CE0200EFD6FD890F137F237F33771
:1020E000F437F937FA37FB37FC37F851FC5D08E174
:1020F000F751FB5D05E1F651FA5D02E1F551F95D3D
:102100000FE3F551F95FF651D8A0F63DFA5FF751AC
:10211000D8A0F73DFB5FF851D8A0F83DFC5FD88010
:102120000036013602360336FD2FD6D7EA6AF90E9D
:10213000E96E000CE950E96FE851EB6F19E0E7C078
:10214000F7F0E6C0F6F0E5C0F5F0E4C0F4F0FB6BA4
:10215000FA6B200EF96F820EF86F16DF03C0E7F0FE
:1021600002C0E6F001C0E5F000C0E4F0EB2FE7D7D5
:10217000E7C0F4F0E6C0F3F0E5C0F2F0E4C0F1F03F
:102180007CD703C0E7F002C0E6F001C0E5F000C074
:10219000E4F0E7AF0DD0E907E98BE41FE51FE61F88
:1021A000E71FE42BD8B4E52BD8B4E62BD8B4E72B43
:1021B0003B0EF06F9A0EEF6FCA0EEE6FED6B0A0ECC
:1021C000EB6FE851D8B4E92BE7C0F4F0E6C0F3F0C8
:1021D000E5C0F2F0E4C0F1F0F0C0F8F0EFC0F7F0C5
:1021E000EEC0F6F0EDC0F5F068DF0150EFCFE4F09F
:1021F000ECCFE5F0ECCFE6F0ECCFE7F000520FE1EA
:10220000E829EB5D0CE0E9510CE00F0BEB5D01E020
:102210003BE2E9BF39D0E9BD04D0200E30D0200E1A
:10222000E917E9AB0DD0E99BE851D8A4E9070050C4
:10223000E96F2D0EF16FFDEC05F0E951006EE96BD1
:10224000E851EB5D0BE10050E96F2E0EF16FFDECF4
:1022500005F0E951006E200EE917000E300EE9ABD3
:102260000ED0E99BE851D8A4E9070050E96F2D0E84
:10227000F16FFDEC05F0E951006EE96B300E0026C0
:1022800000C0F1F0FDEC05F0F0C0F4F0EFC0F3F0A9
:10229000EEC0F2F0EDC0F1F0F86BF76BF66B0A0EE2
:1022A000F56F0BDF03C0F0F002C0EFF001C0EEF0FD
:1022B00000C0EDF0EB2F88D7000C8E0E006EF451AD
:1022C000005EF5C002F0F6C001F0028E005209E097
:1022D000D890025202E1015204E002320132002E93
:1022E000F7D7F5AF05D0011E021E012AD8B4022A85
:1022F000000CF391E7C0ECF0E6C0EBF0E5C0EAF0CB
:10230000E4C0E9F0E7C0F7F0E6C0F6F0E5C0F5F0AC
:10231000E4C0F4F0FB6BFA6BF96BF86BD9EC07F0E7
:1023200004E3F381EA51800AEA6FECC0F7F0EBC0F6
:10233000F6F0EAC0F5F0E9C0F4F0FB6BFA6BF96B6C
:102340008E0EF86FD9EC07F001E218E1ECC0F7F05F
:10235000EBC0F6F0EAC0F5F0E9C0F4F0AEDF02C081
:10236000F9F001C0F8F06FEC06F003C0F0F002C025
:10237000EFF001C0EEF000C0EDF0C5D0ECC0F7F01A
:10238000EBC0F6F0EAC0F5F0E9C0F4F0800EFB6FA8
:10239000960EFA6F180EF96F960EF86FD9EC07F0DB
:1023A000D8A0A9D0ECC0F7F0EBC0F6F0EAC0F5F089
:1023B000E9C0F4F0FB6BFA6BF96B8E0EF86FE4EC8E
:1023C0000CF003C0F7F002C0F6F001C0F5F000C059
:1023D000F4F073DF02C0F2F001C0F1F0ECC0F7F0EE
:1023E000EBC0F6F0EAC0F5F0E9C0F4F0FB6BFA6B75
:1023F000F96B8E0EF86FE4EC0CF000C0F4F001C045
:10240000F5F002C0F6F003C0F7F0F2C0F9F0F1C049
:10241000F8F06FEC06F0D882F7C0FBF0F6C0FAF0E7
:10242000F5C0F9F0F4C0F8F003C0FFF002C0FEF010
:1024300001C0FDF000C0FCF0B8EC0DF0F76BF66BDE
:10244000F56B8E0EF46F03C0FBF002C0FAF001C012
:10245000F9F000C0F8F098DD03C0ECF002C0EBF03A
:1024600001C0EAF000C0E9F0F2C0F9F0F1C0F8F004
:102470006FEC06F0F76BF66BF56B8E0EF46F03C026
:10248000FBF002C0FAF001C0F9F000C0F8F07CDD0A
:1024900003C0F0F002C0EFF001C0EEF000C0EDF0BC
:1024A000ECC0F7F0EBC0F6F0EAC0F5F0E9C0F4F0EC
:1024B00004DF02C0F9F001C0F8F06FEC06F0D8922A
:1024C000F0C0FBF0EFC0FAF0EEC0F9F0EDC0F8F0AC
:1024D00003C0FFF002C0FEF001C0FDF000C0FCF040
:1024E000B8EC0DF003C0F0F002C0EFF001C0EEF068
:1024F00000C0EDF008D0ECC0F0F0EBC0EFF0EAC0A7
:10250000EEF0E9C0EDF0ECC0F7F0EBC0F6F0EAC099
:10251000F5F0E9C0F4F0D1DE02C0F9F001C0F8F046
:102520006FEC06F0D882ECC0FBF0EBC0FAF0EAC02A
:10253000F9F0E9C0F8F003C0FFF002C0FEF001C0FE
:10254000FDF000C0FCF0B8EC0DF003C0ECF002C0F0
:10255000EBF001C0EAF000C0E9F0F3A103D0EE51C6
:10256000800AEE6FECC0F7F0EBC0F6F0EAC0F5F0D1
:10257000E9C0F4F0FB6BFA6BF96BF86BD9EC07F080
:1025800038E0F3A11AD0E85318E1D882F0C0FBF08C
:10259000EFC0FAF0EEC0F9F0EDC0F8F0FF6BFE6BA3
:1025A000FD6B7F0EFC6FB8EC0DF003C0F0F002C0C5
:1025B000EFF001C0EEF000C0EDF0F3B11AD0E82D5D
:1025C00018D0D892F0C0FBF0EFC0FAF0EEC0F9F0EE
:1025D000EDC0F8F0FF6BFE6BFD6B7F0EFC6FB8EC8F
:1025E0000DF003C0F0F002C0EFF001C0EEF000C04B
:1025F000EDF0E7C0F7F0E6C0F6F0E5C0F5F0E4C0B6
:10260000F4F0FB6BFA6BF96BF86BD9EC07F004E1B3
:10261000F06BEF6BEE6BED6BEDC000F0EEC001F018
:10262000EFC002F0F0C003F020EF13F0E3C0E7F0DA
:10263000E2C0E6F0E1C0E5F0E0C0E4F0E86B59D6B6
:10264000000C8A9C939C8A9E939EC7EF23F0F86AA5
:10265000F1849F92F08CD08E078EEA6AE96A299005
:102660002992299429962998299A299C299E2A9069
:102670002A922A942A962A982A9A2A9C2A9E2B9051
:102680002B922B942C6A070E2D6E020E2E6E0B0EC3
:102690002F6E020E306E030E316E020E326E336EEE
:1026A000040E346E356A366A376A386A396A3A6AAD
:1026B0003B6A3C6A3D6A3E6A3F6A406A416A010E73
:1026C000426E436A446A456A516A526A536A546A5E
:1026D000556A040E566E5A6A596A5C6A5B6AB06B38
:1026E000AF6BAE6BAD6BB46BB36BB26BB16BB86B06
:1026F000B76BB66BB56BBC6BBB6BBA6BB96BC06BB6
:10270000BF6BBE6B800EBD6F2B862B98C26BC16BEF
:10271000C46BC36B2B9A2B9CC66BC56BC76BC86B0A
:10272000CC6BCB6BCA6BC96BD06BCF6BCE6BCD6BED
:10273000DA6BD96BC150C00B0F09C16E070EB46EB6
:102740003E0E466E200E476E5E0E486E496A4A6A1D
:102750004B6A4C6A4D6A4E6A4F6A506A5D6A5E6A9D
:102760005F6A606B616B626B636B646B656B666BFE
:10277000676B686B696B6A6B6B6B6C6B6D6B6E6BAD
:102780006F6B706B716B726B736B746B756B766B5D
:10279000776B786B796B7A6B7B6B7C6B7D6B7E6B0D
:1027A0007F6B806B816B826B836B846B856B866BBD
:1027B000876B886B896B8A6B8B6B8C6B8D6B8E6B6D
:1027C0008F6B906B916B926B936B946B956B966B1D
:1027D000976B986B996B9A6B9B6B9C6B9D6B9E6BCD
:1027E0009F6BA06BA16BA26BA36BA46BA56BA66B7D
:1027F000A76BA86BA96BAA6BAB6BAC6B8B94949417
:102800008B929492A4EF05F03CEF06F08AEF06F06D
:1028100014EF08F08B9494948B929492928A80BADD
:1028200068D1968084B065D1020EE06FFA0EF76F22
:102830002DEC05F0E02FFAD7928A80BA5AD1968013
:1028400084B057D1010EF26FF36FC9EC05F0680E3A
:10285000F66E040EF76E2CEC06F0020EE06FFA0E28
:10286000F76F2DEC05F0E02FFAD70C0EF16FFDECB1
:1028700005F032EC0AF0010EF26FF36FC9EC05F0CF
:10288000740EF66E040EF76E0E0EE46F11EC0BF084
:1028900052C0E0F0370EE16F21EC0BF0200EF16F2B
:1028A000FDEC05F0200EF16FFDEC05F0200EF16F50
:1028B000FDEC05F0010EF26F020EF36FC9EC05F0AE
:1028C000880EF66E040EF76E0E0EE46F11EC0BF030
:1028D00053C0E0F0370EE16F21EC0BF0200EF16FEA
:1028E000FDEC05F0200EF16FFDEC05F0200EF16F10
:1028F000FDEC05F0010EF26F030EF36FC9EC05F06D
:102900009C0EF66E040EF76E100EE46F11EC0BF0D9
:1029100054C0E0F0370EE16F21EC0BF0200EF16FA8
:10292000FDEC05F0010EF26F040EF36FC9EC05F03B
:10293000B00EF66E040EF76E070EE46F11EC0BF09E
:10294000DCC0E0F0370EE16F21EC0BF0200EF16FF0
:10295000FDEC05F0DDC0E0F0370EE16F21EC0BF08F
:10296000200EF16FFDEC05F0DEC0E0F0370EE16FF8
:1029700021EC0BF0200EF16FFDEC05F0DFC0E0F074
:10298000370EE16F21EC0BF0928A80BA34D0020E40
:10299000E06FFA0EF76F2DEC05F0E02FFAD7928A70
:1029A00080BA29D0DFC052F00F0EA96E52C0A8FF26
:1029B000A69CA69EA684F250006EF29CF29E0F0189
:1029C000550EA76EAA0EA76EA682A6B2FED7A69433
:1029D0000050F212140E0001F76F2DEC05F08B8001
:1029E0009490020EE06FFA0EF76F2DEC05F0E02FD9
:1029F000FAD78B909490968084B034D0020EE06F1A
:102A0000FA0EF76F2DEC05F0E02FFAD7968084B020
:102A100029D0DFC053F0100EA96E53C0A8FFA69CAA
:102A2000A69EA684F250006EF29CF29E0F01550EF7
:102A3000A76EAA0EA76EA682A6B2FED7A6940050D5
:102A4000F212140E0001F76F2DEC05F08B809490BC
:102A5000020EE06FFA0EF76F2DEC05F0E02FFAD7BB
:102A60008B909490968284B234D0020EE06FFA0E6E
:102A7000F76F2DEC05F0E02FFAD7968284B229D0BB
:102A8000DFC054F0110EA96E54C0A8FFA69CA69EEC
:102A9000A684F250006EF29CF29E0F01550EA76EB6
:102AA000AA0EA76EA682A6B2FED7A6940050F21276
:102AB000140E0001F76F2DEC05F08B809490020E40
:102AC000E06FFA0EF76F2DEC05F0E02FFAD78B9040
:102AD0009490968484B40CD0020EE06FFA0EF76FD7
:102AE0002DEC05F0E02FFAD7968484B401D0FF00D6
:102AF000C0D632EC0AF0C851060806E18B849494E3
:102B00008B829492D76AD66AC85306E18B949494C8
:102B10008B929492D76AD66A2C52D8A405D2010E11
:102B2000F26FF36FC9EC05F0C40EF66E040EF76E8B
:102B30002CEC06F0010EF26F020EF36FC9EC05F0FB
:102B4000DA0EF66E040EF76E2CEC06F0010EF26F44
:102B5000030EF36FC9EC05F0F00EF66E040EF76E7F
:102B60000A0EE46F11EC0BF049C0E0F01F0EE16FAC
:102B700056EC0BF04AC0E0F01F0EE16F56EC0BF084
:102B80004BC0E0F01F0EE16F56EC0BF04CC0E0F0D4
:102B90001F0EE16F56EC0BF0200EF16FFDEC05F00F
:102BA000200EF16FFDEC05F02FC0F2F0040EF36F74
:102BB000C9EC05F048C0F1F0FDEC05F02F500B0812
:102BC0000FE22F500D080CE3010E2F5CE06FF26F47
:102BD000040EF36FC9EC05F047C0F1F0FDEC05F011
:102BE0002B96928A80BA19D0140EF76F2DEC05F04F
:102BF000928A80BA11D029B60FD00B0E2F5C036ACF
:102C0000490FE96E000E0320EA6EEF2A29861E0E98
:102C1000F76F2DEC05F02B8601D02996968084B0B5
:102C200019D0140EF76F2DEC05F0968084B011D0FA
:102C300029BA0FD00B0E2F5C036A490FE96E000E04
:102C40000320EA6EEF06298A1E0EF76F2DEC05F0C1
:102C50002B8601D0299A968284B215D0140EF76F74
:102C60002DEC05F0968284B20DD029B80BD02988BE
:102C70002F2A1E0EF76F2DEC05F00C0EF16FFDECF8
:102C800005F02B8601D02998968484B415D0960E31
:102C9000F76F2DEC05F0968484B40DD029BC0BD0D1
:102CA000298C2F061E0EF76F2DEC05F00C0EF16F20
:102CB000FDEC05F02B8601D0299C0B0E2F5C036ADE
:102CC000490FE96E000E0320EA6EEFBE01D00AD074
:102CD0000B0E2F5C036A490FE96E000E0320EA6EAB
:102CE000090EEF6E0B0E2F5C036A490FE96E000EA2
:102CF0000320EA6EEFBE0CD0EF50090809E20B0E7C
:102D00002F5C036A490FE96E000E0320EA6EEF6A3A
:102D10002F500A0802E30B0E2F6E2F500E08D8B06A
:102D200003D14950030871E14A5008086EE14B5045
:102D300009086BE14C50020868E1A96AA86AA69CE0
:102D4000A69EA684F250006EF29CF29E0F01550ED4
:102D5000A76EAA0EA76EA682A6B2FED7A6940050B2
:102D6000F212140E0001F76F2DEC05F0010EA96EA2
:102D7000A86AA69CA69EA684F250006EF29CF29EC3
:102D80000F01550EA76EAA0EA76EA682A6B2FED799
:102D9000A6940050F212140E0001F76F2DEC05F00E
:102DA000020EA96EA86AA69CA69EA684F250006E8A
:102DB000F29CF29E0F01550EA76EAA0EA76EA68278
:102DC000A6B2FED7A6940050F212140E0001F76FBF
:102DD0002DEC05F0030EA96EA86AA69CA69EA684FB
:102DE000F250006EF29CF29E0F01550EA76EAA0ED5
:102DF000A76EA682A6B2FED7A6940050F212140EB9
:102E00000001F76F2DEC05F0FF004D50495C4FE1DC
:102E10004E504A5C4CE14F504B5C49E150504C5C89
:102E200046E1010EF26FF36FC9EC05F0060EF66E87
:102E3000050EF76E2CEC06F0010EF26F020EF36F2A
:102E4000C9EC05F01A0EF66E050EF76E2CEC06F0C6
:102E5000010EF26F030EF36FC9EC05F02E0EF66E45
:102E6000050EF76E2CEC06F0010EF26F040EF36FF8
:102E7000C9EC05F0420EF66E050EF76E2CEC06F06E
:102E8000040EE06FFA0EF76F2DEC05F0E02FFAD785
:102E9000320E2C6E0B0E2F6E0C0EF16FFDEC05F04A
:102EA0002B86496A4A6A4B6A4C6A2B863DD0010ED2
:102EB000F26FF36FC9EC05F0010EF26F020EF36FC3
:102EC000C9EC05F0560EF66E050EF76E2CEC06F00A
:102ED000010EF26F030EF36FC9EC05F06A0EF66E89
:102EE000050EF76E2CEC06F0010EF26F040EF36F78
:102EF000C9EC05F07E0EF66E050EF76E2CEC06F0B2
:102F0000040EE06FFA0EF76F2DEC05F0E02FFAD704
:102F10000B0E2F6E0C0EF16FFDEC05F02B86496A3F
:102F20004A6A4B6A4C6A2B862C2C1BD102EC00F0AF
:102F3000010EF26FF36FC9EC05F0920EF66E050EFE
:102F4000F76E2CEC06F0010E4524E06FE16F020EE7
:102F5000E26FBEEC0BF0020E4524E06FE16F030E52
:102F6000E26FBEEC0BF0030E4524E06FE16F040E40
:102F7000E26FBEEC0BF0010EF26F30C0F3F0C9EC63
:102F800005F046C0F1F0FDEC05F03050020814E108
:102F9000010EF26F040EF36FC9EC05F047C0F1F0BB
:102FA000FDEC05F0010EF26F030EF36FC9EC05F0B6
:102FB00047C0F1F0FDEC05F03050040814E1010EBB
:102FC000F26F020EF36FC9EC05F047C0F1F0FDECB3
:102FD00005F0010EF26F030EF36FC9EC05F047C068
:102FE000F1F0FDEC05F03050030814E1010EF26F32
:102FF000040EF36FC9EC05F047C0F1F0FDEC05F0ED
:10300000010EF26F020EF36FC9EC05F047C0F1F04C
:10301000FDEC05F02B96928A80BA15D0140EF76F4E
:103020002DEC05F0928A80BA0DD029B60BD032066D
:103030003006010E3024316E29861E0EF76F2DECFE
:1030400005F02B8601D02996968084B015D0140EF9
:10305000F76F2DEC05F0968084B00DD029BA0BD017
:10306000322A302A010E305C316E298A1E0EF76F2B
:103070002DEC05F02B8601D0299A3250345C08E201
:10308000452A32C034F0020E345C336E040E306ECA
:103090003350325C08E2450632C033F0020E33246E
:1030A000346E020E306E32502D5C09E22EC032F0CA
:1030B000020E306E456A32C033F03324346E2E5027
:1030C000325C0BE22DC032F0040E306E2D5C456E8A
:1030D00032C034F0020E345C336E45BE01D001D0F4
:1030E000456A968284B223D0140EF76F2DEC05F05A
:1030F000968284B21AD029B818D0298832C02CF010
:10310000030E306E020EE06F960EF76F2DEC05F099
:10311000E02FFAD70C0EF16FFDEC05F02C500608ED
:1031200004E1496A4A6A4B6A4C6A2B8601D02998A5
:10313000968484B416D0140EF76F2DEC05F09684A7
:1031400084B40FD0020EE06FFA0EF76F2DEC05F08D
:10315000E02FFAD7320E2C6E0C0EF16FFDEC05F05D
:103160002B862C500208D8A42CD102EC00F0010EC2
:10317000F26FF36FC9EC05F0A80EF66E050EF76E50
:103180002CEC06F0010EF26F020EF36FC9EC05F0A5
:10319000BE0EF66E050EF76E2CEC06F0060EF26F04
:1031A000030EF36FC9EC05F03DC0E0F0030EE16FD4
:1031B00028EC0CF03A0EF16FFDEC05F03EC0E0F0AB
:1031C000010EE16F28EC0CF0DD0EF66E050EF76EC9
:1031D000080EE46F11EC0BF0060E4224E06FF26F64
:1031E000040EF36FC9EC05F048C0F1F0FDEC05F0FA
:1031F0002B96928A80BA26D0140EF76F2DEC05F02C
:10320000928A80BA1FD0422C0DD03D50EF080AE3BD
:10321000050E3D26020EE06F960EF76F2DEC05F0C1
:10322000E02FFAD7425004080CE13E503A0809E377
:103230003E2A020EE06F960EF76F2DEC05F0E02FA0
:10324000FAD72B86968084B024D0140EF76F2DEC1D
:1032500005F0968084B01DD0422C0CD03D520AE07F
:10326000050E3D5E020EE06F960EF76F2DEC05F039
:10327000E02FFAD7425004080BE13E5209E03E0627
:10328000020EE06F960EF76F2DEC05F0E02FFAD7E7
:103290002B86968284B21ED0140EF76F2DEC05F0AB
:1032A000968284B217D0422C03D0040E426E05D011
:1032B0004250040802E1010E426E020EE06FFA0E67
:1032C000F76F2DEC05F0E02FFAD70C0EF16FFDEC47
:1032D00005F02B86968484B474D0968484B471D01F
:1032E000C80EF76F2DEC05F00C0EF16FFDEC05F03C
:1032F000010EF26F020EF36FC9EC05F0E60EF66EEA
:10330000050EF76E2CEC06F0010EF26F030EF36F54
:10331000C9EC05F0F80EF66E050EF76E2CEC06F013
:10332000050EA96E3DC0A8FFA69CA69EA684F250DD
:10333000006EF29CF29E0F01550EA76EAA0EA76EAC
:10334000A682A6B2FED7A6940050F212140E000177
:10335000F76F2DEC05F0060EA96E3EC0A8FFA69CE7
:10336000A69EA684F250006EF29CF29E0F01550EAE
:10337000A76EAA0EA76EA682A6B2FED7A69400508C
:10338000F212140E0001F76F2DEC05F03DC03BF07A
:103390003EC03CF0040EE06FAF0EF76F2DEC05F071
:1033A000E02FFAD71E0EF76F2DEC05F0010E2C6EF4
:1033B000456A020E306E326E0C0EF16FFDEC05F0B8
:1033C0002B862C500308D8A4A5D102EC00F0010EE6
:1033D000F26FF36FC9EC05F00A0EF66E060EF76E8B
:1033E0002CEC06F0010EF26F020EF36FC9EC05F043
:1033F000200EF66E060EF76E2CEC06F0010EF26F44
:10340000030EF36FC9EC05F0360EF66E060EF76E7E
:103410000A0EE46F11EC0BF049C0E0F01F0EE16FF3
:1034200056EC0BF04AC0E0F01F0EE16F56EC0BF0CB
:103430004BC0E0F01F0EE16F56EC0BF04CC0E0F01B
:103440001F0EE16F56EC0BF0200EF16FFDEC05F056
:10345000200EF16FFDEC05F02FC0F2F0040EF36FBB
:10346000C9EC05F048C0F1F0FDEC05F02F500B0859
:103470000FE22F500D080CE3010E2F5CE06FF26F8E
:10348000040EF36FC9EC05F047C0F1F0FDEC05F058
:103490002B96928A80BA19D0140EF76F2DEC05F096
:1034A000928A80BA11D029B60FD00B0E2F5C036A16
:1034B000490FE96E000E0320EA6EEF2A29861E0EE0
:1034C000F76F2DEC05F02B8601D02996968084B0FD
:1034D00019D0140EF76F2DEC05F0968084B011D042
:1034E00029BA0FD00B0E2F5C036A490FE96E000E4C
:1034F0000320EA6EEF06298A1E0EF76F2DEC05F009
:103500002B8601D0299A968284B215D0140EF76FBB
:103510002DEC05F0968284B20DD029B80BD0298805
:103520002F2A1E0EF76F2DEC05F00C0EF16FFDEC3F
:1035300005F02B8601D02998968484B415D0960E78
:10354000F76F2DEC05F0968484B40DD029BC0BD018
:10355000298C2F061E0EF76F2DEC05F00C0EF16F67
:10356000FDEC05F02B8601D0299C0B0E2F5C036A25
:10357000490FE96E000E0320EA6EEFBE01D00AD0BB
:103580000B0E2F5C036A490FE96E000E0320EA6EF2
:10359000090EEF6E0B0E2F5C036A490FE96E000EE9
:1035A0000320EA6EEFBE0CD0EF50090809E20B0EC3
:1035B0002F5C036A490FE96E000E0320EA6EEF6A82
:1035C0002F500A0810E30B0E2F6E010E2C6E456A69
:1035D000496A4A6A4B6A4C6A2B860B0E2F6E0C0E98
:1035E000F16FFDEC05F02F500E08D8B093D04D5080
:1035F000495C4EE14E504A5C4BE14F504B5C48E118
:1036000050504C5C45E1010EF26FF36FC9EC05F0D0
:103610004C0EF66E060EF76E2CEC06F0010EF26FF5
:10362000020EF36FC9EC05F0620EF66E060EF76E31
:103630002CEC06F0010EF26F030EF36FC9EC05F0EF
:10364000780EF66E060EF76E2CEC06F0010EF26F99
:10365000040EF36FC9EC05F08E0EF66E060EF76ED3
:103660002CEC06F0020EE06FFA0EF76F2DEC05F071
:10367000E02FFAD73D0E2C6E0B0E2F6E0C0EF16F55
:10368000FDEC05F0496A4A6A4B6A4C6A2B8642D0C7
:10369000010EF26FF36FC9EC05F0A40EF66E060E84
:1036A000F76E2CEC06F0010EF26F020EF36FC9EC10
:1036B00005F0BA0EF66E060EF76E2CEC06F0010E53
:1036C000F26F030EF36FC9EC05F0D00EF66E060E26
:1036D000F76E2CEC06F0010EF26F040EF36FC9ECDE
:1036E00005F0E60EF66E060EF76E2CEC06F0020EF6
:1036F000E06FFA0EF76F2DEC05F0E02FFAD70B0E06
:103700002F6E0C0EF16FFDEC05F02B86496A4A6AAC
:103710004B6A4C6A2C503D08D8A4C8D102EC00F08A
:10372000010EF26FF36FC9EC05F0FC0EF66E060E9B
:10373000F76E2CEC06F0010EF26F020EF36FC9EC7F
:1037400005F0120EF66E070EF76E2CEC06F0010E69
:10375000F26F030EF36FC9EC05F0280EF66E070E3C
:10376000F76E0A0EE46F11EC0BF049C0E0F01F0E8B
:10377000E16F56EC0BF04AC0E0F01F0EE16F56EC23
:103780000BF04BC0E0F01F0EE16F56EC0BF04CC09D
:10379000E0F01F0EE16F56EC0BF0200EF16FFDEC28
:1037A00005F0200EF16FFDEC05F02FC0F2F0040ED5
:1037B000F36FC9EC05F048C0F1F0FDEC05F02F50B7
:1037C0000B080FE22F500D080CE3010E2F5CE06F89
:1037D000F26F040EF36FC9EC05F047C0F1F0FDEC99
:1037E00005F02B96928A80BA19D0140EF76F2DEC43
:1037F00005F0928A80BA11D029B60FD00B0E2F5C3B
:10380000036A490FE96E000E0320EA6EEF2A29864B
:103810001E0EF76F2DEC05F02B8601D029969680B1
:1038200084B019D0140EF76F2DEC05F0968084B09B
:1038300011D029BA0FD00B0E2F5C036A490FE96E25
:10384000000E0320EA6EEF06298A1E0EF76F2DEC9C
:1038500005F02B8601D0299A968284B211D09682E7
:1038600084B20DD029B80BD029882F2A1E0EF76FED
:103870002DEC05F00C0EF16FFDEC05F02B8601D060
:103880002998968484B415D0960EF76F2DEC05F028
:10389000968484B40DD029BC0BD0298C2F061E0E23
:1038A000F76F2DEC05F00C0EF16FFDEC05F02B869B
:1038B00001D0299C0B0E2F5C036A490FE96E000EA4
:1038C0000320EA6EEFBE01D00AD00B0E2F5C036A14
:1038D000490FE96E000E0320EA6E090EEF6E0B0E23
:1038E0002F5C036A490FE96E000E0320EA6EEFBEFB
:1038F0000CD0EF50090809E20B0E2F5C036A490F48
:10390000E96E000E0320EA6EEF6A2F500A080FE3FB
:103910000B0E2F6E010E2C6E496A4A6A4B6A4C6A76
:103920002B860B0E2F6E0C0EF16FFDEC05F02F5059
:103930000E08D8B0BBD0010EF26FF36FC9EC05F0E2
:103940003E0EF66E070EF76E2CEC06F0010EF26FCF
:10395000020EF36FC9EC05F0540EF66E070EF76E0B
:103960002CEC06F0010EF26F030EF36FC9EC05F0BC
:103970006A0EF66E070EF76E2CEC06F0010EF26F73
:10398000040EF36FC9EC05F0800EF66E070EF76EAD
:103990002CEC06F0A96A49C0A8FFA69CA69EA684A6
:1039A000F250006EF29CF29E0F01550EA76EAA0E09
:1039B000A76EA682A6B2FED7A6940050F212140EED
:1039C0000001F76F2DEC05F0010EA96E4AC0A8FFAB
:1039D000A69CA69EA684F250006EF29CF29E0F0159
:1039E000550EA76EAA0EA76EA682A6B2FED7A69403
:1039F0000050F212140E0001F76F2DEC05F0020ECC
:103A0000A96E4BC0A8FFA69CA69EA684F250006E8D
:103A1000F29CF29E0F01550EA76EAA0EA76EA6820B
:103A2000A6B2FED7A6940050F212140E0001F76F52
:103A30002DEC05F0030EA96E4CC0A8FFA69CA69E17
:103A4000A684F250006EF29CF29E0F01550EA76EF6
:103A5000AA0EA76EA682A6B2FED7A6940050F212B6
:103A6000140E0001F76F2DEC05F0020EE06FFA0E58
:103A7000F76F2DEC05F0E02FFAD7010E2C6E456A9A
:103A8000020E306E326E49C04DF04AC04EF04BC04F
:103A90004FF04CC050F0496A4A6A4B6A4C6A2B8618
:103AA0000B0E2F6E0C0EF16FFDEC05F02C50040880
:103AB000D8A40DD102EC00F0010EF26FF36FC9EC47
:103AC00005F0960EF66E070EF76E2CEC06F0010E62
:103AD000F26F020EF36FC9EC05F0AC0EF66E070E36
:103AE000F76E0B0EE46F11EC0BF0080EE96E5AC086
:103AF000E1F059C0E0F05EEF0CF0200EF16FFDEC4C
:103B000005F0200EF16FFDEC05F0200EF16FFDECDD
:103B100005F0010EF26F040EF36FC9EC05F0C00E54
:103B2000F66E070EF76E2CEC06F02B96928A80BA92
:103B3000ACD0968284B2A9D0140EF76F2DEC05F0AC
:103B4000928A80BAA2D0968284B29FD0C80EF76FB4
:103B50002DEC05F00C0EF16FFDEC05F0010EF26F8F
:103B6000020EF36FC9EC05F0D60EF66E070EF76E77
:103B70002CEC06F0010EF26F030EF36FC9EC05F0AA
:103B8000E80EF66E070EF76E2CEC06F0070EA96E27
:103B9000A86AA69CA69EA684F250006EF29CF29E95
:103BA0000F01550EA76EAA0EA76EA682A6B2FED76B
:103BB000A6940050F212140E0001F76F2DEC05F0E0
:103BC000080EA96EA86AA69CA69EA684F250006E56
:103BD000F29CF29E0F01550EA76EAA0EA76EA6824A
:103BE000A6B2FED7A6940050F212140E0001F76F91
:103BF0002DEC05F0090EA96EA86AA69CA69EA684C7
:103C0000F250006EF29CF29E0F01550EA76EAA0EA6
:103C1000A76EA682A6B2FED7A6940050F212140E8A
:103C20000001F76F2DEC05F00A0EA96EA86AA69C9C
:103C3000A69EA684F250006EF29CF29E0F01550ED5
:103C4000A76EAA0EA76EA682A6B2FED7A6940050B3
:103C5000F212040E0001E06FAF0EF76F2DEC05F0CD
:103C6000E02FFAD7356A366A5A6A596A1E0EF76F1C
:103C70002DEC05F0010E2C6E456A020E306E326E90
:103C80000C0EF16FFDEC05F02B86968484B41ED0EB
:103C9000140EF76F2DEC05F0968484B416D029BC71
:103CA00014D0298C020EE06FFA0EF76F2DEC05F0A0
:103CB000E02FFAD7010E2C6E456A020E306E326E7E
:103CC0000C0EF16FFDEC05F02B8601D0299C2C50D9
:103CD0000508D8A42CD102EC00F0010EF26FF36FAE
:103CE000C9EC05F0FA0EF66E070EF76E2CEC06F036
:103CF000010EF26F020EF36FC9EC05F0050EE06FD6
:103D0000F9EC0EF000C0E0F001C0E1F002C0E2F01A
:103D100003C0E3F003C0F7F002C0F6F001C0F5F015
:103D200000C0F4F0D70EFB6FA30EFA6FF96B810E93
:103D3000F86FC4EC0FF000C0E0F001C0E1F002C089
:103D4000E2F003C0E3F0100EF66E080EF76E090EF7
:103D5000E46F11EC0BF0020EE96EE3C0E7F0E2C095
:103D6000E6F0E1C0E5F0E0C0E4F0E86F9AEC10F0B6
:103D70001E0EF66E080EF76E070EE46F11EC0BF0D8
:103D8000010EF26F030EF36FC9EC05F0E56BB9ECB1
:103D90000CF000C0E0F001C0E1F002C0E2F003C0AE
:103DA000E3F0260EF66E080EF76E080EE46F11ECC7
:103DB0000BF0010EE96EE3C0E7F0E2C0E6F0E1C00F
:103DC000E5F0E0C0E4F0E86B9AEC10F0010EF26F61
:103DD000040EF36FC9EC05F0340EF66E080EF76EA4
:103DE000070EE46F11EC0BF0010EE96EC0C0E7F0B6
:103DF000BFC0E6F0BEC0E5F0BDC0E4F0E86B9AECF1
:103E000010F02B96968284B272D0140EF76F2DECC0
:103E100005F0968284B26AD029B868D0010E2C6E63
:103E2000456A020E306E326E0B0E2F6E020EE06F80
:103E3000FA0EF76F2DEC05F0E02FFAD70C0EF16FAC
:103E4000FDEC05F0E56BB9EC0CF003C0C0F002C06E
:103E5000BFF001C0BEF000C0BDF0C0C0F7F0BFC0F1
:103E6000F6F0BEC0F5F0BDC0F4F05DEC11F002C09C
:103E70005CF001C05BF05BC039F05CC03AF00B0E47
:103E8000A96E39C0A8FFA69CA69EA684F250006E1B
:103E9000F29CF29E0F01550EA76EAA0EA76EA68287
:103EA000A6B2FED7A6940050F212140E0001F76FCE
:103EB0002DEC05F00C0EA96E3AC0A8FFA69CA69E9C
:103EC000A684F250006EF29CF29E0F01550EA76E72
:103ED000AA0EA76EA682A6B2FED7A6940050F21232
:103EE000140E0001F76F2DEC05F02B8601D02998F8
:103EF000968484B41BD0140EF76F2DEC05F09684D5
:103F000084B413D029BC11D0010E2C6E456A020E68
:103F1000306E326E0B0E2F6E1E0EF76F2DEC05F00D
:103F20000C0EF16FFDEC05F02B8601D0299C2C5076
:103F30000608D8A494D02A782988010E2C6E456AE8
:103F40002AA830D02A88010EF26FF36FC9EC05F071
:103F5000420EF66E080EF76E2CEC06F0010EF26FB4
:103F6000020EF36FC9EC05F0580EF66E080EF76EF0
:103F70002CEC06F0010EF26F030EF36FC9EC05F0A6
:103F80006E0EF66E080EF76E2CEC06F0010EF26F58
:103F9000040EF36FC9EC05F0840EF66E080EF76E92
:103FA0002CEC06F02AB830D02A98010EF26FF36F8D
:103FB000C9EC05F09A0EF66E080EF76E2CEC06F0C2
:103FC000010EF26F020EF36FC9EC05F0B00EF66E43
:103FD000080EF76E2CEC06F0010EF26F030EF36F75
:103FE000C9EC05F0C60EF66E080EF76E2CEC06F066
:103FF000010EF26F040EF36FC9EC05F0DC0EF66EE5
:10400000080EF76E2CEC06F0000E2AB8010EE06FD9
:10401000040EA96EE0C0A8FFA69CA69EA684F2503E
:10402000006EF29CF29E0F01550EA76EAA0EA76EAF
:10403000A682A6B2FED7A6940050F212040E00018A
:10404000E06FFA0EF76F2DEC05F0E02FFAD7020EB5
:10405000306E326E0C0EF16FFDEC05F02B862C509D
:104060000708D8A4CBD05650060802E2060E566EBA
:10407000565202E1010E566E010EF26FF36FC9EC5B
:1040800005F0F20EF66E080EF76E2CEC06F0010E3F
:10409000F26F020EF36FC9EC05F0080EF66E090E12
:1040A000F76E2CEC06F0010EF26F030EF36FC9EC05
:1040B00005F01E0EF66E090EF76E0A0EE46F11EC97
:1040C0000BF056C0E0F01B0EE16F28EC0CF02A0E4E
:1040D000F66E090EF76E070EE46F11EC0BF0010E91
:1040E000F26F040EF36FC9EC05F0320EF66E090E96
:1040F000F76E2CEC06F0928A80BA08D0565005086C
:1041000005E3C80EF76F2DEC05F0562A968084B0B3
:1041100007D0565205E0C80EF76F2DEC05F0560695
:10412000968284B202D056C0C8F0968484B466D019
:10413000640EF76F2DEC05F0020E306E326E0C0E31
:10414000F16FFDEC05F00D0EA96E56C0A8FFA69C00
:10415000A69EA684F250006EF29CF29E0F01550EB0
:10416000A76EAA0EA76EA682A6B2FED7A69400508E
:10417000F212140E0001F76F2DEC05F0010EF26F34
:10418000F36FC9EC05F0480EF66E090EF76E2CECD5
:1041900006F0010EF26F020EF36FC9EC05F05E0E31
:1041A000F66E090EF76E2CEC06F0010EF26F030EA0
:1041B000F36FC9EC05F0740EF66E090EF76E2CEC79
:1041C00006F0010EF26F040EF36FC9EC05F08A0ED3
:1041D000F66E090EF76E2CEC06F0040EE06FFA0E88
:1041E000F76F2DEC05F0E02FFAD70C0EF16FFDEC18
:1041F00005F075EC05F0010E2C6E456A2C50320866
:10420000D8A438D32AA011D12A90080EE06FF9EC77
:104210000EF003C0BCF002C0BBF001C0BAF000C099
:10422000B9F0010EF26FF36FC9EC05F0BCC0F7F006
:10423000BBC0F6F0BAC0F5F0B9C0F4F0D70EFB6F12
:10424000A30EFA6FF96B810EF86FC4EC0FF000C08B
:10425000E0F001C0E1F002C0E2F003C0E3F0A00E24
:10426000F66E090EF76E080EE46F11EC0BF0020EFD
:10427000E96EE3C0E7F0E2C0E6F0E1C0E5F0E0C0DF
:10428000E4F0E86F9AEC10F0AD0EF66E090EF76EE2
:10429000070EE46F11EC0BF0BCC0F7F0BBC0F6F0FA
:1042A000BAC0F5F0B9C0F4F08F0EFB6FC20EFA6F12
:1042B000750EF96F7C0EF86FE4EC0CF000C0E0F0C6
:1042C00001C0E1F002C0E2F003C0E3F003C0F7F088
:1042D00002C0F6F001C0F5F000C0F4F0FB6BFA6B21
:1042E000300EF96F820EF86FC4EC0FF003C0B8F017
:1042F00002C0B7F001C0B6F000C0B5F0F76BF66BC6
:10430000300EF56F820EF46FB8C0FBF0B7C0FAF054
:10431000B6C0F9F0B5C0F8F0D9EC07F006E3B86B19
:10432000B76B300EB66F820EB56F416AB8C0E3F05E
:10433000B7C0E2F0B6C0E1F0B5C0E0F016EC13F0A3
:1043400000C0E0F001C0E1F002C0E2F003C0E3F021
:10435000F96B41C0F8F06FEC06F003C0F7F002C053
:10436000F6F001C0F5F000C0F4F0E3C0FBF0E2C0ED
:10437000FAF0E1C0F9F0E0C0F8F0D9EC07F00EE394
:10438000080E4124E06FF26F020EF36FC9EC05F0E6
:10439000D10EF16FFDEC05F0412AC8D7B8C0E3F0AB
:1043A000B7C0E2F0B6C0E1F0B5C0E0F016EC13F033
:1043B00003C0F7F002C0F6F001C0F5F000C0F4F061
:1043C0005DEC11F001C041F041500A080EE3080E07
:1043D0004124E06FF26F020EF36FC9EC05F0200E7E
:1043E000F16FFDEC05F0412AEFD7090EF26F030ED5
:1043F000F36FC9EC05F0B60EF66E090EF76E060EF9
:10440000E46F11EC0BF03BC0E0F0030EE16F28EC21
:104410000CF03A0EF16FFDEC05F03CC0E0F0010E3F
:10442000E16F28EC0CF002EC00F029AE4CD02AA889
:1044300045D00C0EF16FFDEC05F0010EF26F020E8F
:10444000F36FC9EC05F0C60EF66E090EF76E2CEC94
:1044500006F0010EF26F030EF36FC9EC05F0DC0EEF
:10446000F66E090EF76E2CEC06F0010EF26F040EDC
:10447000F36FC9EC05F0F20EF66E090EF76E2CEC38
:1044800006F0010EF26FF36FC9EC05F0080EF66E40
:104490000A0EF76E2CEC06F0416A415004080EE358
:1044A0008B809490C80EF76F2DEC05F08B90949054
:1044B000C80EF76F2DEC05F0412AEFD7299E0C0EA0
:1044C000F16FFDEC05F01F0EF76F850EF66F6B0EAA
:1044D000F56F7C0EF46FBCC0FBF0BBC0FAF0BAC045
:1044E000F9F0B9C0F8F0D9EC07F001E203E1010EF0
:1044F000516E03D0516A8B909490010EF26F020EB0
:10450000F36FC9EC05F01E0EF66E0A0EF76E2CEC7A
:1045100006F029A40DD0010EF26F040EF36FC9EC62
:1045200005F0260EF66E0A0EF76E2CEC06F00CD097
:10453000010EF26F040EF36FC9EC05F0300EF66E4B
:104540000A0EF76E2CEC06F029A00DD00D0EF26FBE
:10455000040EF36FC9EC05F03A0EF66E0A0EF76E14
:104560002CEC06F00CD00D0EF26F040EF36FC9ECBC
:1045700005F0420EF66E0A0EF76E2CEC06F029A23C
:104580000DD0010EF26F030EF36FC9EC05F04A0E69
:10459000F66E0A0EF76E2CEC06F00CD0010EF26FE0
:1045A000030EF36FC9EC05F0520EF66E0A0EF76EAD
:1045B0002CEC06F02B9629A411D02BB80CD056C0A9
:1045C000C8F075EC05F0C80EF76F2DEC05F075EC32
:1045D00005F02B882B8656C0C8F00DD0C86B2BA8D1
:1045E0000AD075EC05F0C80EF76F2DEC05F075ECF0
:1045F00005F02B982B8629A20FD08A9893982AB47D
:104600000AD075EC05F0C80EF76F2DEC05F075ECCF
:1046100005F02A842B860ED08A8893982AA40AD083
:1046200075EC05F0C80EF76F2DEC05F075EC05F094
:104630002A942B8629A017D08A969396299E29948E
:10464000C86B29928A8893982AB20CD075EC05F031
:10465000C80EF76F2DEC05F075EC05F02A82010EFF
:10466000446E2B8611D029908A8693962AA20CD06C
:1046700075EC05F0C80EF76F2DEC05F075EC05F044
:104680002A92010E446E2B86968084B01CD0298617
:104690002BB218D0020EE06FFA0EF76F2DEC05F07A
:1046A000E02FFAD7968084B002D02B820BD02972EB
:1046B0002986020EE06F960EF76F2DEC05F0E02FC5
:1046C000FAD72B8602D02B922996968284B215D0E7
:1046D000140EF76F2DEC05F0968284B20DD029BA36
:1046E0000BD029742988020EE06F960EF76F2DEC1F
:1046F00005F0E02FFAD72B8601D0299A968484B44E
:104700000DD0140EF76F2DEC05F0968484B406D00E
:10471000960EF76F2DEC05F029702B86928A80BAE1
:1047200028D029882BB424D0020EE06FFA0EF76F40
:104730002DEC05F0E02FFAD7928A80BA02D02B84B4
:1047400017D0C80EF76F2DEC05F00C0EF16FFDECD5
:1047500005F0020EE06F960EF76F2DEC05F0E02FDE
:10476000FAD7010E2C6E456A020E306E326E2B8621
:1047700002D02B9429982BA403D020EC0AF007D068
:104780002BA203D00EEC0AF002D021EF13F0442C40
:1047900065D0070EA96E35C0A8FFA69CA69EA6846C
:1047A000F250006EF29CF29E0F01550EA76EAA0EFB
:1047B000A76EA682A6B2FED7A6940050F212080EEB
:1047C000A96E36C0A8FFA69CA69EA684F250006ED5
:1047D000F29CF29E550EA76EAA0EA76EA682A6B2F6
:1047E000FED7A6940050F21259C037F05AC038F0E4
:1047F000090EA96E37C0A8FFA69CA69EA684F2CF7C
:1048000000F0F29CF29E550EA76EAA0EA76EA6822D
:10481000A6B2FED7A6940050F212140E0001F76F54
:104820002DEC05F00A0EA96E38C0A8FFA69CA69E26
:10483000A684F250006EF29CF29E0F01550EA76EF8
:10484000AA0EA76EA682A6B2FED7A6940050F212B8
:10485000140E0001F76F2DEC05F0446A35503B084B
:1048600002E2356A362A36503C0804E1366A592A93
:10487000D8B45A2A43503B080CE20C0EF16FFDEC01
:1048800005F075EC05F0C80EF76F2DEC05F0436AE6
:084890002B8679EF15F00300FF
:020000040030CA
:0E0000003CCE3E1E000781000FC00FE00F40F7
:00000001FF
;PIC18F4550
;CRC=FF04  CREATED="15-jul.-20 14:56"
