:04000000F5EF18F010
:08000800046ED8CF05F0E0CF33
:1000100006F00001E9CF0CF0EACF07F0E1CF08F0DD
:10002000E2CF09F0D9CF0AF0DACF0BF0F3CF12F01C
:10003000F4CF13F0FACF14F000C00EF001C00FF0AF
:1000400002C010F003C011F09DA02AEF00F09EB096
:1000500077EF08F00EC000F00FC001F010C002F002
:1000600011C003F00CC0E9FF07C0EAFF078E08C00B
:10007000E1FF09C0E2FF0AC0D9FF0BC0DAFF12C0DE
:10008000F3FF13C0F4FF14C0FAFF045006C0E0FFF2
:1000900005C0D8FF1000F2CF0DF0F29EF76AB00F46
:1000A000F66E000EF7220900F5500DBEF28E12001A
:1000B000000000000000005F0000000300030014C7
:1000C0003E143E14242A7F2A1243330866613649BF
:1000D0005522500005030000001C2241000041226F
:1000E0001C0014083E081408083E080800503000A0
:1000F00000080808080800606000002010080402DA
:100100003E5149453E0004027F004261514946226A
:10011000414949361814127F1027454545393E4953
:100120004949320101710907364949493626494989
:10013000493E0036360000005636000008142241C1
:100140000014141414140041221408020151090669
:100150003E4159555E7E0909097E7F494949363E2F
:10016000414141227F4141413E7F494949417F0907
:100170000909013E4141493A7F0808087F00417F53
:100180004100304040403F7F081422417F404040C2
:10019000407F020C027F7F0204087F3E4141413EC6
:1001A0007F090909061E2121215E7F0909097600C0
:1001B000F2CF0DF0F29EF76ACA0FF66E010EF7222B
:1001C0000900F5500DBEF28E120026494949320150
:1001D000017F01013F4040403F1F2040201F7F2002
:1001E00010207F41221C22410708700807615149F5
:1001F0004543007F41000002040810200000417FB9
:10020000000402010204404040404000010204009A
:1002100020545454787F4444443838444444443847
:100220004444447F385454541804047E050508544B
:1002300054543C7F0804047800447D40002040442E
:100240003D007F1028440000417F40007C0478047A
:10025000787C0804047838444444387C1414140826
:10026000081414147C007C080404485454542004DA
:10027000043F44443C4040207C1C2040201C3C4027
:1002800030403C44281028440C5050503C446454A6
:100290004C44000836414100007F000041413608CF
:1002A000000201020402F2CF0DF0F29EBE0FF66EC4
:1002B000020EF7220900F5500DBEF28E120000006A
:1002C000000000000000000000000000000000002E
:1002D000000000000000000000000000000000001E
:1002E000000000000000000000000000000000000E
:1002F00000000000000000000000000000000000FE
:1003000000000000000000000000000000000000ED
:1003100000000000000000000000000000000000DD
:1003200000000000000000000000000000000000CD
:1003300000000000000000000000000000000000BD
:1003400000000000000000000000000000000000AD
:10035000000000000000000000000000000000009D
:10036000000000000000000000000000000000008D
:10037000000000000000000000000000000000007D
:10038000000000000000000000000000000000006D
:10039000000000000000000000000000000000005D
:1003A000000000000000000000000000000000004D
:1003B00000000000000000000000000800800000B5
:1003C0000000000000000000000000040100000028
:1003D0000000000000000000000000020200000019
:1003E0000000000000000000000000007800000095
:1003F0000000000000000000000000008400000079
:1004000000000000000000000000000102000000E9
:100410000000000000000000000000F902F80000E9
:1004200000000000000000000000000102000000C9
:1004300000000000000000000000000102000000B9
:1004400000000000000000000000000484800000A4
:1004500000000000000000000000000878400000DC
:100460000000000000000000000000104820000014
:100470000000000000000000000000204810000004
:1004800000000000000000000000000078000000F4
:10049000000000000000000000000000000000005C
:1004A000000000000000000000000000000000004C
:1004B000000000000000000000000000000000003C
:1004C000000000000000000000000000000000002C
:1006B0000000000000000000000000000000F2CF79
:1006C0000DF0F29ED60FF66E060EF7220900F550D9
:1006D0000DBEF28E120000000000000000000000BD
:1006E000000000000000000000000000000000000A
:1006F00000000000000000000000000000000000FA
:1007000000000000000000000000000000000000E9
:1007100000000000000000000000000000000000D9
:1007200000000000000000000000000000000000C9
:1007300000000000000000000000000000000000B9
:1007400000000000000000000000000000000000A9
:100750000000000000000000000000000000000099
:100760000000000000000000000000000000000089
:100770000000000000000000000000000000000079
:100780000000000000000000000000000000000069
:100790000000000000000000000000000000000059
:1007A0000000000000000000000000000000000049
:1007B0000000000000000000000000000000000039
:1007C0000000000000000000000000000000000029
:1007D0000000000000000000000000000000000019
:1007E0000000000000000000000000000000000009
:1007F00000000000000000000000000000000000F9
:1008000000000000000000000000000000000000E8
:1008100000000000000000000000000000000000D8
:1008200000000000000000000000000000000000C8
:1008300000000000000000000000000000000000B8
:1008400000000000000000000000000000000000A8
:100850000000000000000000000000000000000098
:100860000000000000000000000000000000000088
:100870000000000000000000000000000000000078
:100880000000000000000000000000000000000068
:100890000000000000000000000000000000000058
:1008A0000000000000000000000000000000000048
:1008B0000000000000000000000000000000000038
:1008C0000000007FFFF800000000000000000000B2
:1008D00000000040000800000000000000000000D0
:1008E0000000004703880000000000000000000036
:1008F0000000004502880000000000000000000029
:100900000000004502880000000000000000000018
:100910000000004502880000000000000000000008
:1009200000000045028800000000000000000000F8
:1009300000000047038800000000000000000000E5
:10094000000000400008000000000000000000005F
:1009500000000040FC080000000000000000000053
:1009600000000040840800000000000000000000BB
:1009700000000040840800000000000000000000AB
:1009800000000040FC080000000000000000000023
:10099000000000400008000000000000000000000F
:1009A0000000007FFFF800000000000000000000D1
:1009B0000000000000000000000000000000000037
:1009C0000000000000000000000000000000000027
:1009D0000000000000000000000000000000000017
:1009E0000000000000000000000000000000000007
:1009F00000000000000000000000000000000000F7
:100A000000000000000000000000000000000000E6
:100A100000000000000000000000000000000000D6
:100A200000000000000000000000000000000000C6
:100A300000000000000000000000000000000000B6
:100A400000000000000000000000000000000000A6
:100A50000000000000000000000000000000000096
:100A60000000000000000000000000000000000086
:100A70000000000000000000000000000000000076
:100A80000000000000000000000000000000000066
:100A90000000000000000000000000000000000056
:100AA0000000000000000000000000000000000046
:100AB0000000000000000000000000000000000036
:100AC0000000000000000000000000000000000026
:100AD000000000000000F2CF0DF0F29EEE0FF66E67
:100AE0000A0EF7220900F5500DBEF28E120000002A
:100AF00000000000000000000000000000000000F6
:100B000000000000000000000000000000000000E5
:100B100000000000000000000000000000000000D5
:100B200000000000000000000000000000000000C5
:100DD00000000000000000000000000060000000B3
:100DE000000000000000000000000000F000000013
:100DF000000000000000000000000001F8000000FA
:100E0000000000000000000000000001F8000000E9
:100E1000000000000000000000000001F8000000D9
:100E2000000000000000000000000000F0000000D2
:100E300000000000000000000000003871C0000049
:100E400000000000000000000000007C93E00000B3
:100E50000000000000000000000000FF0FF0000094
:100E60000000000000000000000000FF0FF0000084
:100E700000000000000000000000007D93E0000082
:100E800000000000000000000000003861C0000009
:100E9000000000000000000000000000F000000062
:100EA000000000000000000000000001F800000049
:100EB000000000000000000000000001F800000039
:100EC000000000000000000000000001F800000029
:100ED000000000000000000000000000F000000022
:100EE0000000000000000000000000006000F2CFE1
:100EF0000DF0F29EF76A080FF66E0F0EF72209004A
:100F0000F5500DBEF28E1200436C61766500F2CF93
:100F10000DF0F29EF76A280FF66E0F0EF722090009
:100F2000F5500DBEF28E1200436F727265637461EC
:100F30000000F2CF0DF0F29EF76A4C0FF66E0F0E26
:100F4000F7220900F5500DBEF28E1200496E636F54
:100F50007272656374610000F2CF0DF0F29EF76A61
:100F6000720FF66E0F0EF7220900F5500DBEF28ECD
:100F700012004D656E750000F2CF0DF0F29EF76A1B
:100F8000920FF66E0F0EF7220900F5500DBEF28E8D
:100F90001200416A757374657300F2CF0DF0F29E12
:100FA000F76AB40FF66E0F0EF7220900F5500DBE6A
:100FB000F28E12004D6F646F0000F2CF0DF0F29EC2
:100FC000F76AD40FF66E0F0EF7220900F5500DBE2A
:100FD000F28E12005469656D706F205075726761F2
:100FE0000000F2CF0DF0F29EF76AFC0FF66E0F0EC6
:100FF000F7220900F5500DBEF28E120054656D7097
:101000006F2055560000F2CF0DF0F29EF76A200FC8
:10101000F66E100EF7220900F5500DBEF28E12008A
:1010200053656E736F7220646520466C756A6F003D
:10103000F2CF0DF0F29EF76A4A0FF66E100EF7220D
:101040000900F5500DBEF28E120053656E736F727B
:101050002064652050726573696F6E00F2CF0DF0E9
:10106000F29EF76A760FF66E100EF7220900F55021
:101070000DBEF28E12004D616E74656E696D69650C
:101080006E746F00F2CF0DF0F29EF76A9E0FF66E4F
:10109000100EF7220900F5500DBEF28E1200542EEC
:1010A0002050757267610000F2CF0DF0F29EF76A72
:1010B000C20FF66E100EF7220900F5500DBEF28E2B
:1010C0001200542E20555600F2CF0DF0F29EF76A12
:1010D000E20FF66E100EF7220900F5500DBEF28EEB
:1010E0001200436C617665204E7565766100150EC1
:1010F000CF6EA00ECE6E0401362BD8B4372B4EA780
:1011000004D00501322BD8B4332B050133510A0822
:1011100007E2FF0A03E13251B70802E204014E85FB
:101120000401375304E13651C708D8B09AD0376B61
:10113000366B4C8F05010C2B04014E8D0501112BD4
:1011400004014EA31ED00501422B42BF05D04251DF
:10115000090802E2426B432B43BF05D04351050807
:1011600002E2436B442B44BF05D04451090802E21C
:10117000446B452B45BF04D04551050801E2456B42
:1011800004014DAF47D00501342BD8B4352B355170
:101190000D0823E2FF0A03E134510F081EE2356B0C
:1011A000346B4A2B4ABF05D04A51090802E24A6B08
:1011B0004B2B4BBF05D04B51090802E24B6B4C2B1C
:1011C0004CBF05D04C51090802E24C6B4D2B4DBF72
:1011D00004D04D51090801E24D6B4E2B4EBF05D096
:1011E0004E51090802E24E6B4F2B4FBF05D04F51B5
:1011F000050802E24F6B502B50BF05D05051090833
:1012000002E2506B512B51BF04D05151050801E24D
:10121000516B04014DA305D00501362BD8B4372BF3
:1012200004014DAD1ED005013A2B3ABF05D03A510D
:10123000090802E23A6B3B2B3BBF05D03B51050846
:1012400002E23B6B3C2B3CBF05D03C51090802E25B
:101250003C6B3D2B3DBF04D03D51050801E23D6B89
:1012600004019E9000012AEF00F08E0E006E32C63F
:1012700001F031C602F0036A015209E102C001F037
:10128000026A080E005E015202E1006A08D0D8909E
:1012900001BE04D0023601360006F9D7019E000CCB
:1012A00006013151D8B4A5D03D6F3551D8B4A1D085
:1012B0003D5F05E37F0E3D27D8B09BD006D0810E61
:1012C0003D5FD8A096D0D8B494D03DC600F0016A56
:1012D000026A036A3C6B32C63BF63B8F33C63AF672
:1012E00034C639F6190E3D6F3851395F0DE2010EE3
:1012F0003A5F0AE23B5F08E23C5F06E23C2B3B2B95
:101300003A2B3851392728D037513A5F12E2010E73
:101310003B5F0FE23C5F0DE23C2B3B2B37513A2702
:101320003851392719E33A2B17E13B2B15E13C2BB8
:1013300013D0365180093B5F0EE2010E3C5F0BE299
:101340003C2B365180093B2737513A27E9E33B2BA9
:10135000E7E13C2BE5D703803D2F01D00BD0D8909F
:1013600039373A373B373C37D890033602360136A7
:101370003E37BAD73EA106D0D890013202320332AE
:101380003E3302D0000635E03EBF1ED0D89039373C
:101390003A373B373C373851395F07E2010E3A5F45
:1013A00004E23B5F02E23C5F1AE337513A5F05E239
:1013B000010E3B5F02E23C5F12E3365180093B5F66
:1013C00003E2010E3C5F0BE3032A09E1022A07E175
:1013D000012A05E1002A0DE001320232033232C651
:1013E0003DF636513D1B3DAF02D0018E06D0019E29
:1013F00004D0006A016A026A036A0001000C800ED0
:10140000D8A202D006013A1B06013F6B406B36C6DC
:101410003EF63A513E1B3551D8B4DFD03D6F006ED9
:101420003951D8B4E3D03D5FD8B483D03EE33AC657
:1014300043F6438F3BC642F63CC641F6406BD8901C
:1014400043334233413340333D2FF8D73EAF03D0CF
:101450003F81E0D03F913D913F89060EEA6E380E04
:10146000E96EEBD03F993EBF0AD03DA113D0433384
:10147000423341334033002AD8B4C7D00BD043BFE6
:101480000CD0D89040374137423743370006D8B4A4
:10149000BCD0F5D73F8D6DD03F9D36C63EF636AFFA
:1014A00002D0438FABD0439FA9D039C63DF639C691
:1014B00000F035513D5F36C643F6438F37C642F6DE
:1014C00038C641F6406BD890433342334133403302
:1014D0003D2FF8D73EAF03D03F839CD03F933D9143
:1014E0003F8B060EEA6E3C0EE96EA7D03F9B3EBFD7
:1014F0000AD03DA113D04333423341334033002A55
:10150000D8B483D00BD043BF0CD0D89040374137EC
:10151000423743370006D8B478D0F5D73F8F29D06B
:101520003F9F3AC63EF63AAF02D0438F67D0439F03
:1015300065D03AC643F6438F3BC642F63CC641F6F9
:101540003EAF04D0439F3F8565D03F95406B3D91B2
:10155000060EEA6E380EE96E70D03EBF1CD036C65D
:101560003EF63DA106D04333423341334033002A97
:101570004CE040AF0BD0412B09E1422B07E1432B5C
:1015800005E1433342334133002A3FE03FBD84D776
:101590003FBFC6D71CD0800E431B43AF04D03AD008
:1015A0003AC63EF60AD036C63EF6435306E14253EB
:1015B00004E1415302E1006A21D043BF08D0D89032
:1015C0004037413742374337002EF7D71ED03EAF62
:1015D00002D0438F13D0439F11D039C600F03AC6D2
:1015E00043F63BC642F63CC641F608D035C600F08D
:1015F00036C643F637C642F638C641F643C601F052
:1016000042C602F041C603F034D0006A016A026AA1
:10161000036A2FD0406B411F421F431F401F402BC6
:1016200005E1412B03E1422B01E1432B3FB112D7EE
:101630003FB354D73FB589D7B3D7EF50412705E320
:10164000422B03E1432BD8B43D81ED52EF504227AA
:1016500003E3432BD8B43D81ED52EF50EFBE01D0F0
:10166000800A4327D8B03D813FB9FCD63FBB3ED767
:1016700074D70001000C8E0E006E06012C51005E26
:101680002DC602F02EC601F0028E005209E0D8905D
:10169000025202E1015204E002320132002EF7D779
:1016A0002DAF05D0011E021E012AD8B4022A000166
:1016B000000C06014E51D8B471D0006E5251D8B40E
:1016C0006DD0002604E3810E002668E204D07F0E70
:1016D000005E64E363E04FC656F65351561B4F8FCE
:1016E000538F51515503F4CF58F650515403F4CF52
:1016F00003F0F3CF57F65503F3505827F450572310
:10170000000E032251515403F3505827F45057232D
:10171000000E026A032202224F515503F35057274D
:10172000F4500322000E02224F515403F3500326BB
:10173000F4500222000E016A012251515303F3506A
:101740005727F4500322000E022201225051530366
:10175000F3500326F4500222000E01224F5153038E
:10176000F3500226F4500122002A01BE05D057375B
:101770000336023601360006000E57AF0AD0032AA0
:1017800002220122015005E1025003E1035001E170
:10179000002A56BF018E56AF019E04D0006A016A2E
:1017A000026A036A0001000C18C539F419C53AF43D
:1017B0001AC53BF41CC53CF41BC53DF465C52FF6AA
:1017C00064C52EF663C52DF662C52CF654DF01C044
:1017D0003EF465C52FF664C52EF663C52DF662C5C9
:1017E0002CF649DF0601326B01C031F600013DDD08
:1017F000D88265C538F664C537F663C536F662C566
:1018000035F603C03CF602C03BF601C03AF600C014
:1018100039F6F5DD0601516B506B480E4F6F850EA2
:101820004E6F03C055F602C054F601C053F600C017
:1018300052F600013EDF03C085F502C084F501C009
:1018400083F500C082F585C52FF684C52EF683C5C5
:101850002DF682C52CF60FDF01C03FF499EF0CF096
:10186000080E016E020E006E002EFED78A92939231
:10187000020E006E002EFED7060130378A90D8B0D7
:101880009380D8A09390938281A2FED7012E01D09D
:1018900002D00001E7D7020E006E002EFED78A921A
:1018A000939200009380020E006E002EFED7020E6F
:1018B000006E002EFED7938281A2FED7016A020E2F
:1018C000006E002EFED781B001808A9293928A909A
:1018D00093900001000C9380020E006E002EFED744
:1018E0009382020E006E002EFED78A909390020E15
:1018F000006E002EFED78A9293922DC630F6B0DF8E
:101900002EC630F6ADDF2FC630F6AADF939000006A
:10191000938281A2FED7020E006E002EFED700D069
:1019200000009380020E006E002EFED7B1EF0CF087
:101930003BD70401386B3851060816E3A00E4A6FF6
:10194000036A3851390FE96E040E0320EA6EEFCFB7
:101950002CF64AC42DF638C42EF62CC62FF60001FC
:10196000BAD70401382BE7D70001000C0601345325
:1019700003E093988A8802D093968A86939C8A9CE7
:10198000956A35C68CFF100E006E002EFED7000043
:10199000939E8A8E530E006E002EFED7939E8A9ED3
:1019A00093968A9693988A980001000C0601306BF2
:1019B000160E2F6F020E326F160E316F2D6B2D51DA
:1019C00007084EE3939A8A9A346B400E356F0001F4
:1019D000CDDF010E0601346F400E356F0001C6DF0A
:1019E00006012D51B809336F346B356F0001BEDF2E
:1019F00006012D51B809336F010E346F33C635F629
:101A00000001B4DF939A8A8A06012E6B2E513F089B
:101A100025E330C603F02F512F2BD8B4302BE96EBD
:101A200003C0EAFFEFCF33F6346B33C635F600015F
:101A30009DDF060132C603F03151312BD8B4322B71
:101A4000E96E03C0EAFFEFCF33F6010E346F33C601
:101A500035F600018BDF06012E2BD8D72D2BAFD703
:101A60000001000C0601646B5F31636F6333633305
:101A70001F0E631763376437633764376337643720
:101A8000633764376337643763376437C00E63176F
:101A90005E516327000E64235E513F080DE2160E6F
:101AA0006325656F020E6421666F400E655D616F90
:101AB000000E6659626F06D0160E6325616F000E28
:101AC0006421626F605315E062C603F061C6E9FFEE
:101AD00062C6EAFF5F51070B656F010E006E65512C
:101AE000016E04E0D8900036012EFCD70050EF12B2
:101AF00015D062C603F061C6E9FF62C6EAFF5F5116
:101B0000070B656F010E006E6551016E04E0D89001
:101B10000036012EFCD70050FF0AEF160001000C22
:101B2000010E0601576F586F5D6B4E51505D5E6F31
:101B30005E515EAF03D0000ED8805E55036A556FCC
:101B400003C056F64F51515D5E6F5E515EAF03D0DC
:101B5000000ED8805E55036A536F03C054F64E5191
:101B6000505D02E2FF0E576F4F51515D02E2FF0ED2
:101B7000586F5451565D3BE303E15351555D37E3D4
:101B8000D890533754375551535D006E56515459C0
:101B900000C059F65A6F5551595D5B6F56515A59ED
:101BA0005C6F565303E15D51555D20E34EC65EF612
:101BB0004FC65FF652C660F6000154DF06015ABFF9
:101BC00001D008D05351592754515A2357514E250B
:101BD0004E6F0AD05B5159275C515A2357514E25FD
:101BE0004E6F58514F254F6F5D2BDBD736D0D890B5
:101BF000553756375351555D006E5451565900C0F4
:101C000059F65A6F5351595D5B6F54515A595C6F75
:101C1000545303E15D51535D20E34EC65EF64FC65B
:101C20005FF652C660F600011DDF06015ABF01D003
:101C300008D05551592756515A2358514F254F6FA7
:101C40000AD05B5159275C515A2357514E254E6F8C
:101C500058514F254F6F5D2BDBD70001000C06015B
:101C600047532EE04551435D05E243C64AF645C65B
:101C70004BF604D045C64AF643C64BF64651445D82
:101C800005E244C64CF646C64DF604D046C64CF6B0
:101C900044C64DF64A514B5D12E34CC649F64951D4
:101CA0004D5D0BE34AC65EF649C65FF648C660F670
:101CB0000001D8DE0601492BF2D74A2BEBD72ED0F4
:101CC00043C64EF644C64FF645C650F644C651F6D6
:101CD00048C652F6000124DF43C64EF646C64FF60C
:101CE00045C650F646C651F648C652F619DF43C6F9
:101CF0004EF644C64FF643C650F646C651F648C6A1
:101D000052F60EDF45C64EF644C64FF645C650F6AF
:101D100046C651F648C652F603DF06010001000C24
:101D200046C603F0060145C6E9FF46C6EAFFEF5284
:101D3000D8B4D0D046C603F045C6E9FF46C6EAFF90
:101D4000EF50520827E346C603F045C6E9FF46C6F2
:101D5000EAFF200EEF5C050DF350036A526F060E8A
:101D6000EA6E4D0EE96E566B52C655F6F2CF53F63B
:101D7000F29E050E016EF76A525100014BEC00F025
:101D80000A000900F5CFEEFF012EFBD7060153BF75
:101D9000F28E35D046C603F045C6E9FF46C6EAFFD7
:101DA000EF507E0827E346C603F045C6E9FF46C666
:101DB000EAFF530EEF5C050DF350036A526F060EF7
:101DC000EA6E4D0EE96E566B52C655F6F2CF53F6DB
:101DD000F29E050E016EF76A52510001D8EC00F038
:101DE0000A000900F5CFEEFF012EFBD7060153BF15
:101DF000F28E05D04D6B4E6B4F6B506B516B46C6E0
:101E000003F04551E96E03C0EAFFEF500A0A0001F2
:101E100003E0070A09E00BD006014751070DF35014
:101E2000010F442750D000010601436B4CD006013E
:101E30004751050DF35043257F0806E2436B475198
:101E4000070DF350010F4427496B495104083BE348
:101E50004A6B4A51060833E3036A49514D0FE96E54
:101E6000060E0320EA6EEFCF52F652C600F04A513A
:101E7000016E04E0D8900032012EFCD700A01DD0E6
:101E80004B6B47514B5D19E24C6B47514C5D13E274
:101E90004C514325526F4A514703F35044254B257B
:101EA000536F52C65EF65F6F48C660F60001DADD1A
:101EB00006014C2BEAD74B2BE4D74A2BCAD7492B28
:101EC00047514327C2D7452BD8B4462B432B00019B
:101ED00027D706010001000C060EEA6E2D0EE96EF2
:101EE000EF500EE00F0E016E006A002EFED7012E9D
:101EF000FBD78F0E006E002EFED70000EF2EF2D71C
:101F0000000C06014251016A415D03E241C600F046
:101F10000CD0006A080E436F413700364251005C16
:101F2000D8B0006E0136432FF7D70001000C2BC646
:101F3000EAFF2AC6E9FF06014EC6EFFFE92AD8B438
:101F4000EA2AEF6A2A2BD8B42B2B0001000C200EB2
:101F500006013CA9300E3D6F3BC600F03BAF07D0F9
:101F6000001E002A00C03BF62D0E3D6F3C8F015035
:101F70003BC641F6640E426F0001C3DF00C03BF672
:101F8000300E012406013E6F3BC641F60A0E426F39
:101F90000001B7DF300E00240601406F300E01242F
:101FA0003F6F3DC600F03CA702D03CAF3C953CB92A
:101FB0000BD03CAF22D03CB520D000C03EF63CB3A5
:101FC0001CD000C03FF619D0300E3E5D16E100C0B7
:101FD0003EF6200E3D6F3CA704D03C953C833CAFC1
:101FE0003C93300E3F5D09E100C03FF6200E3E6F8E
:101FF0003CA7F7D73C933CAF3C913CA505D03DC6F0
:102000004EF6000194DF06013CA305D03EC64EF615
:1020100000018DDF06013CA104D03FC64EF6000151
:1020200086DF40C64EF6000182DF000C060E060178
:102030002B6F320E2A6F2EC63BF61F0E3C6F00012F
:1020400086DF0601312D27D0120E2F253B6F180E8B
:1020500030253C6F2FC643F630C644F63BC645F6E6
:10206000466F010E476F486F0001F9DD020E060151
:102070002F253B6F010E30253C6F3BC643F6446F66
:10208000060E466F320E456F020E476F486B000119
:1020900047DE26D00601120E2F253B6F180E302585
:1020A0003C6F2FC643F630C644F63BC645F6466F36
:1020B000476B486B0001D3DD020E06012F253B6FF5
:1020C000010E30253C6F3BC643F6446F060E466F4B
:1020D000320E456F020E476F010E486F000120DE81
:1020E000000C0601306B160E2F6F020E326F160EAB
:1020F000316F2D51FF0DF3CF2EF6346B336B34510E
:1021000001081AE330C603F02F512F2BD8B4302B1F
:10211000E96E03C0EAFF2EC6EFFF32C603F031516D
:10212000312BD8B4322BE96E03C0EAFF2EC6EFFF85
:10213000332BD8B4342BE3D70001000C06012CC696
:1021400001F02DC603F02CC632F62DC633F6060E6E
:10215000EA6E160EE96E2DC6E2FF2CC6E1FFE752CD
:10216000E6CFEEFFFCE1302D25D03151080DF350C4
:102170002F25326F436B2FC644F67F0E456F32C654
:1021800046F6010E476F486F000169DD010E06013A
:102190002E25326F010E2F25336F32C643F6446F62
:1021A000060E466F160E456F31C647F6486B0001A6
:1021B000B7DD0601305326E13151080DF3502F25CC
:1021C000326F436B2FC644F67F0E456F32C646F61C
:1021D000010E476F486B000142DD010E06012E25FE
:1021E000326F010E2F25336F32C643F6446F060E51
:1021F000466F160E456F31C647F6010E486F000157
:102200008FDD06010001000C060E06012B6F310E5A
:102210002A6F2CC63BF61F0E3C6F000198DE0601AC
:102220002F2D2AD03051060DF3502D253A6F305105
:10223000080DF3502E253B6F2DC643F62EC644F6EF
:102240003AC645F6466F010E476F486F000107DD3D
:10225000020E06012D253A6F010E2E253B6F3AC660
:1022600043F6446F060E466F310E456F30C647F693
:10227000486B000155DD06012F532BE13051060D4F
:10228000F3502D253A6F3051080DF3502E253B6F3A
:102290002DC643F62EC644F63AC645F6466F010EE5
:1022A000476F486B0001DBDC020E06012D253A6FFB
:1022B000010E2E253B6F3AC643F6446F060E466F5D
:1022C000310E456F30C647F6010E486F000128DD1C
:1022D00006010001000C080E0601306F00C031F647
:1022E0009380020E006E002EFED7938281A2FED74D
:1022F00081B0D88081A0D8900136020E006E002EE9
:10230000FED793928A92302FEBD79380020E006E05
:10231000002EFED78A903151D8A49390000093826A
:1023200081A2FED7020E006E002EFED78A929392F3
:10233000020E006E002EFED78A909390000123EFCC
:1023400015F016C41EF517C41FF518C421F519C4DD
:1023500020F51AC422F51BC423F51EC424F51FC49E
:1023600025F51CC426F51DC427F51FC529F51EC576
:1023700028F520C52BF521C52AF525C52DF524C541
:102380002CF527C52FF526C52EF543EF15F032C6DF
:1023900039F606013651391B39AF05D0D894D8909B
:1023A00032BFD8802FD032C639F635C63AF6315111
:1023B0003A5F06E039AF26D0D850010AD86E22D055
:1023C00036C63AF632513A5F06E039AF1BD0D850E4
:1023D000010AD86E17D037C63AF633513A5F06E095
:1023E00039AF10D0D850010AD86E0CD038C63AF6A2
:1023F00034513A5F06E039AF05D0D850010AD86EA3
:1024000001D0D8900001000C05010D510A0823E10C
:1024100029C532F628C531F6000135EC09F0D8920D
:1024200003C038F602C037F601C036F600C035F6F4
:1024300071C53CF670C53BF66FC53AF66EC539F608
:10244000FFEC09F003C08DF502C08CF501C08BF5DF
:1024500000C08AF505010D51140822E129C532F6A4
:1024600028C531F6000135EC09F0D88203C038F6F2
:1024700002C037F601C036F600C035F671C53CF62D
:1024800070C53BF66FC53AF66EC539F6FFEC09F03C
:1024900003C08DF502C08CF501C08BF500C08AF534
:1024A0008DC551F68CC550F68BC54FF68AC54EF6D4
:1024B0008DC555F68CC554F68BC553F68AC552F6B4
:1024C000000159EC0BF003C091F502C090F501C07A
:1024D0008FF500C08EF58DC551F68CC550F68BC5B5
:1024E0004FF68AC54EF691C555F690C554F68FC580
:1024F00053F68EC552F659EC0BF003C095F502C0A9
:1025000094F501C093F500C092F595C551F694C5B8
:1025100050F693C54FF692C54EF6ADC555F6ACC50F
:1025200054F6ABC553F6AAC552F659EC0BF000C0F1
:102530002DF601C02EF602C02FF603C030F691C56D
:1025400051F690C550F68FC54FF68EC54EF6B1C503
:1025500055F6B0C554F6AFC553F6AEC552F659ECB4
:102560000BF0D89230C638F62FC637F62EC636F6A0
:102570002DC635F603C03CF602C03BF601C03AF664
:1025800000C039F6FFEC09F000C02DF601C02EF6B0
:1025900002C02FF603C030F68DC551F68CC550F63B
:1025A0008BC54FF68AC54EF6B5C555F6B4C554F67B
:1025B000B3C553F6B2C552F659EC0BF0D89230C6FB
:1025C00038F62FC637F62EC636F62DC635F603C0BA
:1025D0003CF602C03BF601C03AF600C039F6FFEC0B
:1025E00009F000C02DF601C02EF602C02FF603C080
:1025F00030F6D89203C038F602C037F601C036F67E
:1026000000C035F6B9C53CF6B8C53BF6B7C53AF6D5
:10261000B6C539F6FFEC09F003C089F502C088F5AC
:1026200001C087F500C086F5D88289C538F688C50F
:1026300037F687C536F686C535F60A0E06013C6FB5
:10264000D70E3B6F230E3A6F7B0E396F0001FFEC04
:1026500009F003C089F502C088F501C087F500C004
:1026600086F589C534F688C533F687C532F686C542
:1026700031F60601386B376B366B356B000187DE40
:1026800005E30501896B886B876B866B06012C510E
:102690000501145D01E3146B1451040DF350036A3A
:1026A000BA0FE96E050E0320EA6E86C5EFFF87C5F7
:1026B000ECFF88C5ECFF89C5ECFF142BFD6BFC6BB0
:1026C000FB6BFA6B156B010E06012C5D0501155DA8
:1026D00001E038E21551040DF350036ABA0FE96EB8
:1026E000050E0320EA6EEFCF00F0ECCF01F0ECCF47
:1026F00002F0ECCF03F0EACF2EF6E9CF2DF6D89218
:10270000FDC538F6FCC537F6FBC536F6FAC535F615
:1027100003C03CF602C03BF601C03AF600C039F6F1
:102720000001FFEC09F02EC6EAFF2DC6E9FF03C049
:10273000FDF502C0FCF501C0FBF500C0FAF505018E
:10274000152BC1D70601326B2CC631F6000135ECD2
:1027500009F0FDC534F6FCC533F6FBC532F6FAC503
:1027600031F603C038F602C037F601C036F600C0B5
:1027700035F650EC09F000C02DF601C02EF602C06F
:102780002FF603C030F603C051F602C050F601C068
:102790004FF600C04EF699C555F698C554F697C544
:1027A00053F696C552F659EC0BF003C0FDF502C086
:1027B000FCF501C0FBF500C0FAF5FAC500F0FBC559
:1027C00001F0FCC502F0FDC503F046EF15F006016F
:1027D000306B2F6B2E6B2D6B2FC532F62EC531F65D
:1027E000000135EC09F003C009F602C008F601C08B
:1027F00007F600C006F609C634F608C633F607C663
:1028000032F606C631F611C638F610C637F60FC6D0
:1028100036F60EC635F650EC09F000C031F601C0B0
:1028200032F602C033F603C034F6D88203C038F65D
:1028300002C037F601C036F600C035F606013C6B23
:102840003B6B3A6B7F0E396F0001FFEC09F003C060
:102850000DF602C00CF601C00BF600C00AF60DC65C
:1028600034F60CC633F60BC632F60AC631F606014C
:10287000386B376B366B356B000189DD05E306017C
:102880000D6B0C6B0B6B0A6B010E06012C5D0501C9
:10289000135D02E001E3136B1351040DF350036A5F
:1028A000DA0FE96E050E0320EA6E0DC651F60CC66E
:1028B00050F60BC64FF60AC64EF6D70E0601556FF8
:1028C000A30E546F536B810E526F000159EC0BF045
:1028D00000C0EFFF01C0ECFF02C0ECFF03C0ECFF43
:1028E0000501132B126B010E06012C5D0501125D13
:1028F00001E038E21251040DF350036ADA0FE96E79
:10290000050E0320EA6EEFCF00F0ECCF01F0ECCF24
:1029100002F0ECCF03F0EACF32F6E9CF31F6D892ED
:1029200030C638F62FC637F62EC636F62DC635F623
:1029300003C03CF602C03BF601C03AF600C039F6CF
:102940000001FFEC09F032C6EAFF31C6E9FF03C01F
:1029500030F602C02FF601C02EF600C02DF605019C
:10296000122BC1D70601326B2CC631F6000135ECB3
:1029700009F030C634F62FC633F62EC632F62DC611
:1029800031F603C038F602C037F601C036F600C093
:1029900035F650EC09F003C030F602C02FF601C046
:1029A0002EF600C02DF62DC600F02EC601F02FC663
:1029B00002F030C603F051EF15F00401386B3851C6
:1029C00009085FE3A00E4A6F38C44BF44AC42CF6E2
:1029D0004BC42DF69380020E006E002EFED793821C
:1029E000020E006E002EFED78A909390020E006EAB
:1029F000002EFED78A9293922CC630F6000130EC5E
:102A00000CF02DC630F630EC0CF09380020E006E08
:102A1000002EFED79382020E006E002EFED781A2FA
:102A2000FED78A909390020E006E002EFED78A92F7
:102A30009392010E06012C252E6F306F000130ECB1
:102A40000CF0006A48D401C049F4939000009382CE
:102A500081A2FED7020E006E002EFED700D000002D
:102A60009380020E006E002EFED7036A04013851D7
:102A7000160FE96E040E0320EA6E49C4EFFF382BEF
:102A80009ED700015ED40EC52CF6BED403C065F5FA
:102A900002C064F501C063F500C062F50EC52CF6F6
:102AA00096D603C06DF502C06CF501C06BF500C091
:102AB0006AF5000C006A016A06012D51D8902EB10A
:102AC0000026003201322EB30026003201322EB52C
:102AD0000026003201322EB70026003201322EB914
:102AE0000026003201322EBB0026003201322EBDFC
:102AF0000026003201322EBF0026003201320001D2
:102B0000000C060130513219800B346F30AF05D004
:102B10002F1F301F2F2BD8B4302B32AF05D0311FD1
:102B2000321F312BD8B4322B2F513103F3CF01F0A8
:102B3000F4CF00F03203F350002630513103F3504C
:102B40000020026E34AF05D0011E021E012AD8B447
:102B5000022A000179EF23F08E0E006E2DC601F0DF
:102B60002CC602F0036A01AE05D0011E021E022A25
:102B700001E1012A015209E102C001F0026A080ED6
:102B8000005E015202E1006A0DD0D89001BE04D06F
:102B9000023601360006F9D706012DAF02D000013A
:102BA00001D0019E000188EF23F006014E51B608C6
:102BB0004E6F036A4FC652F64F8FD8904F33503343
:102BC000513303320232013200324E2FF6D752AF68
:102BD0000BD0001E011E021E031E002AD8B4012ABB
:102BE000D8B4022AD8B4032A000163EF16F0006AB1
:102BF000016A026A036A0601566B576B586B596B80
:102C000055515411531152112CE0200E5A6FD89087
:102C10004E374F3750375137563757375837593760
:102C20005551595D08E15451585D05E15351575DC7
:102C300002E15251565D0FE35251565F5351D8A0F5
:102C4000533D575F5451D8A0543D585F5551D8A0BB
:102C5000553D595FD88000360136023603365A2F6B
:102C6000D6D7060EEA6E560EE96E0001000CE9504A
:102C70000601466F4551486F1CE044C651F643C6F5
:102C800050F642C64FF641C64EF6556B546B200EB9
:102C9000536F820E526F000159EC0BF003C044F6E3
:102CA00002C043F601C042F600C041F60601482FBB
:102CB000E4D744C651F643C650F642C64FF641C665
:102CC0004EF6000172D703C044F602C043F601C0BD
:102CD00042F600C041F6060144AF0DD04607468BD0
:102CE000411F421F431F441F412BD8B4422BD8B46D
:102CF000432BD8B4442B3B0E4D6F9A0E4C6FCA0E2B
:102D00004B6F4A6B0A0E486F4551D8B4462B44C6E8
:102D100051F643C650F642C64FF641C64EF64DC672
:102D200055F64CC654F64BC653F64AC652F6000149
:102D30005EDF0150EFCF41F6ECCF42F6ECCF43F629
:102D4000ECCF44F6005213E106014529485DD8A4B2
:102D500002D000010CD046510DE00F0B485D01E0A0
:102D600044E246BF42D046BD05D0200E37D0200EEB
:102D70000601461746AB0FD0469B4551D8A44607DF
:102D80000050466F2D0E4E6F000197EC0FF00601BC
:102D90004651006E466B4551485D0DE10050466F4F
:102DA0002E0E4E6F000197EC0FF006014651006E9B
:102DB000200E4617000E300E46AB10D0469B4551F4
:102DC000D8A446070050466F2D0E4E6F000197ECB9
:102DD0000FF006014651006E466B300E002600C013
:102DE0004EF6000197EC0FF006014DC651F64CC6A9
:102DF00050F64BC64FF64AC64EF6556B546B536BA6
:102E00000A0E526F0001F3DE03C04DF602C04CF60D
:102E100001C04BF600C04AF60601482F78D70001E2
:102E200025EF17F0060E06012B6F380E2A6F890E5C
:102E3000E96E33C644F632C643F631C642F630C6B2
:102E400041F6020E456F000112D70601362D2CD037
:102E50003751300DF3503425416F3751080DF35081
:102E60003525426F34C643F635C644F641C645F6AD
:102E7000466F010E476F486F00012FEC0EF0020EF7
:102E800006013425416F010E3525426F41C643F6D8
:102E9000446F060E466F380E456F37C647F6486BCF
:102EA000000190EC0EF0060136532DE13751300D44
:102EB000F3503425416F3751080DF3503525426FDB
:102EC00034C643F635C644F641C645F6466F010E94
:102ED000476F486B00012FEC0EF0020E06013425FF
:102EE000416F010E3525426F41C643F6446F060E11
:102EF000466F380E456F37C647F6010E486F000122
:102F000090EC0EF006010001000C06013051320376
:102F1000F3CF01F0F4CF00F03303F350002631512A
:102F20003203F3500020026E0001000C06012C5108
:102F3000030851E12D6B2D513F084DE32E6B2E51AF
:102F40000F0847E3070E2F6F2F51800A7F083FE2DB
:102F5000316B2DC630F6336B100E326F0001D5DFAA
:102F600002C031F601C030F606012E510124016E77
:102F7000000E0220036E0150F2CF30F6F29E03C025
:102F8000F7FF000153EC01F0060130BFF28E306F05
:102F9000070ED8802F55316F30C600F03151016EC9
:102FA00004E0D8900032012EFCD700A00ED02E51A4
:102FB000080DF3502F25306F5E6F2DC65FF6010EA2
:102FC000606F000132EC0DF006012F07BDD72E2BEC
:102FD000B6D72D2BB0D72C51040851E12D6B2D51B4
:102FE0003F084DE32E6B2E510F0847E3070E2F6F5E
:102FF0002F51800A7F083FE2316B2DC630F6336BCC
:10300000100E326F000181DF02C031F601C030F6D0
:1030100006012E510124016E000E0220036E0150A4
:10302000F2CF30F6F29E03C0F7FF00015FEC03F031
:10303000060130BFF28E306F070ED8802F55316FEA
:1030400030C600F03151016E04E0D8900032012EFC
:10305000FCD700A00ED02E51080DF3502F25306F55
:103060005E6F2DC65FF6010E606F000132EC0DF051
:1030700006012F07BDD72E2BB6D72D2BB0D72C513D
:10308000050851E12D6B2D513F084DE32E6B2E515C
:103090000F0847E3070E2F6F2F51800A7F083FE28A
:1030A000316B2DC630F6336B100E326F00012DDF01
:1030B00002C031F601C030F606012E510124016E26
:1030C000000E0220036E0150F2CF30F6F29E03C0D4
:1030D000F7FF00016BEC05F0060130BFF28E306F98
:1030E000070ED8802F55316F30C600F03151016E78
:1030F00004E0D8900032012EFCD700A00ED02E5153
:10310000080DF3502F25306F5E6F2DC65FF6010E50
:10311000606F000132EC0DF006012F07BDD72E2B9A
:10312000B6D72D2BB0D70001000C93948A84939EC0
:103130008A9E93968A9693988A98939A8A9A060179
:10314000346BC00E356F0001B6EC0CF0010E0601B9
:10315000346FC00E356F0001B6EC0CF00601346B15
:10316000400E356F0001B6EC0CF0010E0601346F15
:10317000400E356F0001B6EC0CF00601346BB80E52
:10318000356F0001B6EC0CF0010E0601346FB80E7D
:10319000356F0001B6EC0CF006012C2D10D0346B0D
:1031A0003F0E356F0001B6EC0CF0010E0601346FD6
:1031B0003F0E356F0001B6EC0CF00FD00601346BFA
:1031C0003E0E356F0001B6EC0CF0010E0601346FB7
:1031D0003E0E356F0001B6EC0CF006012D6B0001C0
:1031E00071EC10F0D6EC0CF0000CF86AD09E078E53
:1031F000EA6AE96A0401376B366B386B496B4A6BD4
:103200004B6B4C914C934C954C974C994C9B4C9DD3
:103210004C9F4D914D934D954D974D994D9B4D9D87
:103220004D9F4E914E934E954E974E994E9B4E9D6F
:103230004E9FC80E0501096F010E0A6F0B6F0C6BD4
:103240000A0E0D6F050E0E6F0F6B106B116B126B6C
:10325000136B146B156B166B176B0A0E186F196FC7
:103260001A6F1B6F1C6F1D6B1E6B1F6B206B216B0E
:10327000226B236B246B256B266B276B296B286BCA
:103280002B6B2A6B2D6B2C6B2F6B2E6B316B306B7A
:10329000336B326B356B346B376B366B396B386B2A
:1032A000656B646B636B626B696B686B676B666B9A
:1032B0006D6B6C6B6B6B6A6B716B706B6F6B6E6B4A
:1032C000756B746B736B726B796B786B776B766BFA
:1032D0007D6B7C6B7B6B7A6B816B806B7F6B7E6BAA
:1032E000856B846B836B826B896B886B876B866B5A
:1032F0008D6B8C6B8B6B8A6B916B906B8F6B8E6B0A
:10330000956B946B936B926B996B986B976B966BB9
:103310009D6B9C6B9B6B9A6BA16BA06B9F6B9E6B69
:10332000A56BA46BA36BA26BA96BA86BA76BA66B19
:10333000190EAD6F530EAC6F180EAB6F680EAA6FFF
:10334000E90EB16FBD0EB06FC60EAF6F710EAE6FEE
:10335000BE0EB56F960EB46F240EB36F7A0EB26FB9
:10336000F30EB96F5A0EB86FAB0EB76F810EB66F12
:10337000FD6BFC6BFB6BFA6B0601016B006B4B0E7C
:103380000501FF6F860EFE6F0601056B046B036B74
:10339000026B096B086B076B066B0D6B0C6B0B6B91
:1033A0000A6B116B106B0F6B800E0E6F156B146B2D
:1033B000136B126BC150C00B0F09C16E070EB46EB8
:1033C0004A0E04014F6F500E506F200E516F490E80
:1033D000526F6E0E536F670E546F6C0E556F6F0EFB
:1033E000566F620E576F610E586F6C0E596F5A6BA5
:1033F000430E5B6F610E5C6F620E5D6F690E5E6FF8
:103400006E0E5F6F610E606F200E616F460E626F11
:103410006C0E636F750E646F6A0E656F6F0E666F6C
:10342000200E676F4C0E686F610E696F6D0E6A6FCC
:10343000690E6B6F6E0E6C6F610E6D6F720E6E6F3C
:103440006F6B540E706F200E716F650E726F730E7E
:10345000736F740E746F3D0E756F766B3A0E776FE7
:10346000786B560E796F650E7A6F720E7B6F740EE5
:103470007C6F690E7D6F630E7E6F610E7F6F6C0EC9
:10348000806F816B540E826F690E836F650E846F3F
:103490006D0E856F700E866F6F0E876F200E886FB2
:1034A000640E896F650E8A6F200E8B6F500E8C6FC5
:1034B000750E8D6F720E8E6F670E8F6F610E906F2F
:1034C000916B550E926F560E936F946B210E956F04
:1034D000966F550E976F620E986F690E996F710E09
:1034E0009A6F750E9B6F650E9C6F200E9D6F560E2A
:1034F0009E6F690E9F6F640EA06F720EA16F690EB2
:10350000A26F6F0EA36F210EA46FA56FA66B4A0E5C
:10351000A76F500EA86F430EA96F560EAA6F330EF9
:10352000AB6F360EAC6F2D0EAD6F420EAE6FAF6B44
:10353000440EB06F6E0EB16F660EB26F6C0EB36F4D
:103540006F0EB46F770EB56F280EB66F6D0EB76F36
:103550002F0EB86F730EB96F290EBA6F3A0EBB6F8C
:10356000BC6B460EBD6F610EBE6F620EBF6F720EFA
:10357000C06F690EC16F630EC26F610EC36F3A0EEA
:10358000C46F320EC56F300EC66F330EC76F2E0E6E
:10359000C86F300EC96FCA6B410ECB6F630ECC6F14
:1035A000740ECD6F750ECE6F610ECF6F6C0ED06F37
:1035B0003A0ED16FD26B410ED36F6A0ED46F750E77
:1035C000D56F730ED66F740ED76F650ED86F3A0E27
:1035D000D96FDA6B550EDB6F560EDC6F4C0EDD6F5C
:1035E000690EDE6F660EDF6F650EE06F3A0EE16FFB
:1035F000E26B460EE36F690EE46F6C0EE56F740EBE
:10360000E66F650EE76F720EE86F3A0EE96FEA6BD0
:10361000460EEB6F610EEC6F620EED6F720EEE6F89
:10362000690EEF6F630EF06F610EF16F3A0EF26F7D
:10363000320EF36F330EF46F350EF56F2E0EF66FFC
:10364000300EF76FF86B210EF96F500EFA6F650EA2
:10365000FB6F720EFC6F640EFD6F690EFE6F640EE1
:10366000FF6F610E0501006F200E016F460E026FA5
:103670006C0E036F750E046F6A0E056F6F0E066F8A
:10368000210E076F086B3A6B3B6B3C6B3D6B090E71
:103690003E6F3F6B406B416B426B436B446B456BC2
:1036A000466F476B486B496B4A6B4B6B4C6B4D6B72
:1036B0004E6B4F6B506B516B526B536B546B556B26
:1036C000566B576B586B596B5A6B5B6B5C6B5D6BD6
:1036D0005E6B5F6B606B616BBA6BBB6BBC6BBD6B26
:1036E000BE6BBF6BC06BC16BC26BC36BC46BC56B76
:1036F000C66BC76BC86BC96BCA6BCB6BCC6BCD6B26
:10370000CE6BCF6BD06BD16BD26BD36BD46BD56BD5
:10371000D66BD76BD86BD96BDA6BDB6BDC6BDD6B85
:10372000DE6BDF6BE06BE16BE26BE36BE46BE56B35
:10373000E66BE76BE86BE96BEA6BEB6BEC6BED6BE5
:10374000EE6BEF6BF06BF16BF26BF36BF46BF56B95
:10375000F66BF76BF86BF96B06012A6B2B6B0401A8
:103760004B6B4B510F080AE3036A4B51390FE96E5B
:10377000040E0320EA6EEF6A4B2BF3D7850ECD6E55
:103780009D80C00EF212F2CF2CF6F29EA96AA69C82
:10379000A69EA680A85006012CBFF28E05015E6F82
:1037A000F2CF2CF6F29E010EA96EA69CA69EA680D4
:1037B000A85006012CBFF28E05015F6FF2CF2CF6E8
:1037C000F29E020EA96EA69CA69EA680A850060197
:1037D0002CBFF28E0501606FF2CF2CF6F29E030E25
:1037E000A96EA69CA69EA680A85006012CBFF28EAC
:1037F0000501616FF2CF2CF6F29E040EA96EA69C15
:10380000A69EA680A85006012CBFF28E05013E6F31
:10381000F2CF2CF6F29E050EA96EA69CA69EA6805F
:10382000A85006012CBFF28E05013F6FF2CF2CF697
:10383000F29E060EA96EA69CA69EA680A850060122
:103840002CBFF28E0501406FF2CF2CF6F29E070ED0
:10385000A96EA69CA69EA680A85006012CBFF28E3B
:103860000501416FF2CF2CF6F29E080EA96EA69CC0
:10387000A69EA680A85006012CBFF28E0501466FB9
:10388000F2CF2CF6F29E090EA96EA69CA69EA680EB
:10389000A85006012CBFF28E0501476FF2CF2CF61F
:1038A000F29E0A0EA96EA69CA69EA680A8500601AE
:1038B0002CBFF28E0501486FF2CF2CF6F29E0B0E54
:1038C000A96EA69CA69EA680A85006012CBFF28ECB
:1038D0000501496FF2CF2CF6F29E0C0EA96EA69C44
:1038E000A69EA680A85006012CBFF28E05014A6F45
:1038F000F2CF2CF6F29E0D0EA96EA69CA69EA68077
:10390000A85006012CBFF28E05014B6FF2CF2CF6AA
:10391000F29E0E0EA96EA69CA69EA680A850060139
:103920002CBFF28E05014C6FF2CF2CF6F29E0F0EDB
:10393000A96EA69CA69EA680A85006012CBFF28E5A
:1039400005014D6FF2CF2CF6F29E100EA96EA69CCB
:10395000A69EA680A85006012CBFF28E0501566FC8
:10396000F2CF2CF6F29E110EA96EA69CA69EA68002
:10397000A85006012CBFF28E0501576FF2CF2CF62E
:10398000F29E120EA96EA69CA69EA680A8500601C5
:103990002CBFF28E0501586FF2CF2CF6F29E130E5B
:1039A000A96EA69CA69EA680A85006012CBFF28EEA
:1039B0000501596FF2CF2CF6F29E140EA96EA69C4B
:1039C000A69EA680A85006012CBFF28E016E0401AF
:1039D0004D9901B04D89F2CF2CF6F29E150EA96ECD
:1039E000A69CA69EA680A85006012CBFF28E0501BB
:1039F000526FF2CF2CF6F29E160EA96EA69CA69ED2
:103A0000A680A85006012CBFF28E0501536FF2CF9D
:103A10002CF6F29E170EA96EA69CA69EA680A85014
:103A200006012CBFF28E0501546FF2CF2CF6F29EE8
:103A3000180EA96EA69CA69EA680A85006012CBFB3
:103A4000F28E0501556FF2CF2CF6F29E190EA96E7B
:103A5000A69CA69EA680A85006012CBFF28E05014A
:103A6000166FF2CF2CF6F29E1A0EA96EA69CA69E99
:103A7000A680A85006012CBFF28E326B316F000178
:103A800035EC09F003C0A5F502C0A4F501C0A3F50B
:103A900000C0A2F5A5C534F6A4C533F6A3C532F619
:103AA000A2C531F60601386B376B480E366F850EAE
:103AB000356F000150EC09F003C0A5F502C0A4F574
:103AC00001C0A3F500C0A2F50601326B16C531F6A0
:103AD000000135EC09F0D89203C038F602C037F681
:103AE00001C036F600C035F6A5C53CF6A4C53BF6C8
:103AF000A3C53AF6A2C539F6FFEC09F003C099F563
:103B000002C098F501C097F500C096F5F2CF2CF6EB
:103B1000F29E1B0EA96EA69CA69EA680A85006012A
:103B20002CBFF28E0501166FF2CF2CF6F29E1C0E02
:103B3000A96EA69CA69EA680A85006012CBFF28E58
:103B4000326B316F000135EC09F003C0A5F502C0FE
:103B5000A4F501C0A3F500C0A2F5A5C534F6A4C51F
:103B600033F6A3C532F6A2C531F60601386B376BC2
:103B7000480E366F850E356F000150EC09F003C01A
:103B8000A5F502C0A4F501C0A3F500C0A2F5060189
:103B9000326B16C531F6000135EC09F0D89203C03E
:103BA00038F602C037F601C036F600C035F6A5C5B6
:103BB0003CF6A4C53BF6A3C53AF6A2C539F6FFEC20
:103BC00009F003C09DF502C09CF501C09BF500C043
:103BD0009AF5F2CF2CF6F29E1D0EA96EA69CA69E1B
:103BE000A680A85006012CBFF28E0501166FF2CFF9
:103BF0002CF6F29E1E0EA96EA69CA69EA680A8502C
:103C000006012CBFF28E326B316F000135EC09F0EA
:103C100003C0A5F502C0A4F501C0A3F500C0A2F53C
:103C2000A5C534F6A4C533F6A3C532F6A2C531F650
:103C30000601386B376B480E366F850E356F000105
:103C400050EC09F003C0A5F502C0A4F501C0A3F52E
:103C500000C0A2F50601326B16C531F6000135EC45
:103C600009F0D89203C038F602C037F601C036F624
:103C700000C035F6A5C53CF6A4C53BF6A3C53AF68B
:103C8000A2C539F6FFEC09F003C005F602C004F640
:103C900001C003F600C002F6F2CF2CF6F29E3D0EF4
:103CA000A96EA69CA69EA680A85006012CBFF28EE7
:103CB0002D6FF2CF2EF6F29E3C0EA96EA69CA69E0C
:103CC000A680A8502EBFF28E2F6F2DC603F02F5165
:103CD000316F03C032F6000135EC09F003C071F515
:103CE00002C070F501C06FF500C06EF5F2CF2CF682
:103CF000F29E3F0EA96EA69CA69EA680A850060125
:103D00002CBFF28E2D6FF2CF2EF6F29E3E0EA96ED4
:103D1000A69CA69EA680A8502EBFF28E2F6F2DC601
:103D200003F02F51316F03C032F6000135EC09F07A
:103D300003C011F602C010F601C00FF600C00EF667
:103D4000F2CF2CF6F29E320EA96EA69CA69EA680FD
:103D5000A85006012CBFF28E05010D6F000198ECF2
:103D60000CF0D6EC0CF0050137510D0823E2FF0AE8
:103D700003E136510F081EE2376B366B562B56BFE8
:103D800005D05651090802E2566B572B57BF05D094
:103D90005751090802E2576B582B58BF05D05851AC
:103DA000090802E2586B592B59BF04D05951090830
:103DB00001E2596B0951020802E00A0E1B6F095318
:103DC000D8A471D30601436B446B7F0E456F190E67
:103DD000466F010E476F486F00012FEC0EF0060E84
:103DE000EA6E160EE96EF2CF2CF6F29E000E77EC1C
:103DF00007F00A000900F550EE6E0009FBE106012C
:103E00002CBFF28E190E436F010E446F060E466FE3
:103E1000160E456F030E476F486B000190EC0EF0D5
:103E200004014E87928080A072D04E970501336BBB
:103E3000326B04014CB16AD04C811E0E06012D6F0D
:103E400000016CEC0FF0010E0401386F38510408CA
:103E50005DE3385105010A5D3CE1010E0401385D66
:103E6000036A5A0FE96E050E0320EA6EEF2A010E6F
:103E7000385D036A5A0FE96E050E0320EA6EEFBE45
:103E80000CD0EF50090809E2010E385D036A5A0FA1
:103E9000E96E050E0320EA6EEF6A010E385D036AD3
:103EA0005A0FE96E050E0320EA6EEFCF2CF638515B
:103EB000140DF3CF2DF606012CC62EF62DC62FF6C7
:103EC0001E0E306F010E316F000116EC10F01BD08A
:103ED0000501010E0401385D036A5A0FE96E050EF3
:103EE0000320EA6EEFCF2CF63851140DF3CF2DF6E8
:103EF00006012CC62EF62DC62FF61E0E306F316B26
:103F0000000116EC10F00401382BA0D701D04C9121
:103F1000928280A271D04E970501336B326B0401FF
:103F20004CB569D04C851E0E06012D6F00016CEC5E
:103F30000FF0010E0401386F385104085CE338516A
:103F400005010A5D3BE1010E0401385D036A5A0F69
:103F5000E96E050E0320EA6EEF06010E385D036A76
:103F60005A0FE96E050E0320EA6EEFBE01D00AD0AB
:103F7000010E385D036A5A0FE96E050E0320EA6EE2
:103F8000090EEF6E010E385D036A5A0FE96E050ED9
:103F90000320EA6EEFCF2CF63851140DF3CF2DF637
:103FA00006012CC62EF62DC62FF61E0E306F010E02
:103FB000316F000116EC10F01BD00501010E040159
:103FC000385D036A5A0FE96E050E0320EA6EEFCFE3
:103FD0002CF63851140DF3CF2DF606012CC62EF613
:103FE0002DC62FF61E0E306F316B000116EC10F04F
:103FF0000401382BA1D701D04C95928480A455D0D0
:104000004E970501336B326B04014CB34DD04C839A
:104010001E0E06012D6F00016CEC0FF005010A2B3E
:10402000010E0401386F385104083EE33851050190
:104030000A5D1DE1010E0401385D036A5A0FE96E45
:10404000050E0320EA6EEFCF2CF63851140DF3CF96
:104050002DF606012CC62EF62DC62FF61E0E306F3D
:10406000010E316F000116EC10F01BD00501010E9E
:104070000401385D036A5A0FE96E050E0320EA6EEB
:10408000EFCF2CF63851140DF3CF2DF606012CC6C8
:104090002EF62DC62FF61E0E306F316B000116EC7A
:1040A00010F00401382BBFD701D04C9305010A5101
:1040B0000408D8B0F8D106012D6B000171EC10F0A6
:1040C000040E05010A6F04014E970501336B326B34
:1040D0005A51030872E15B5108086FE15C5109080D
:1040E0006CE15D51020869E1A96AA86AA69CA69ED6
:1040F000A684F250006EF29E0F01550EA76EAA0E16
:10410000A76EA682A6B2FED7A6940050F212140E95
:1041100006012D6F00016CEC0FF0010EA96EA86A6C
:10412000A69CA69EA684F250006EF29E0F01550E2C
:10413000A76EAA0EA76EA682A6B2FED7A6940050BE
:10414000F212140E06012D6F00016CEC0FF0020E3E
:10415000A96EA86AA69CA69EA684F250006EF29E46
:104160000F01550EA76EAA0EA76EA682A6B2FED7A5
:10417000A6940050F212140E06012D6F00016CEC93
:104180000FF0030EA96EA86AA69CA69EA684F25004
:10419000006EF29E0F01550EA76EAA0EA76EA682A4
:1041A000A6B2FED7A6940050F212140E06012D6F8F
:1041B00000016CEC0FF0FF0005015E515A5DD8A4C0
:1041C000B5D05F515B5DD8A4B1D060515C5DD8A41F
:1041D000ADD061515D5DD8A4A9D006012D6B000161
:1041E00071EC10F0060EEA6E160EE96EF2CF2CF6A8
:1041F000F29E000E77EC07F00A000900F550EE6E13
:104200000009FBE106012CBFF28E060E2D6F160E83
:104210002C6F1E0E2E6F2F6B306B020E316F000154
:104220009EEC10F0060EEA6E160EE96EF2CF2CF63A
:10423000F29E000E87EC07F00A000900F550EE6EC2
:104240000009FBE106012CBFF28E060E2D6F160E43
:104250002C6F0F0E2E6F1E0E2F6F306B020E316FF4
:1042600000019EEC10F0010E0501096F0001D6EC73
:104270000CF0040E06012C6FFA0E2D6F00016CEC91
:104280000FF006012C2FF8D72D6B000171EC10F008
:1042900005015A6B5B6B5C6B5D6B3DC52CF6140EB8
:1042A00006012D6F2E6F2F6B020E306F000104EC94
:1042B00011F03CC52CF6280E06012D6F140E2E6F42
:1042C0002F6B020E306F000104EC11F03C0E060162
:1042D000436F160E446F040E466F770E456F020E45
:1042E000476F010E486F000190EC0EF03BC52CF6B5
:1042F000460E06012D6F140E2E6F2F6B020E306FBF
:10430000000104EC11F03AC52CF65A0E06012D6F8F
:10431000140E2E6F2F6B020E306F000104EC11F0A3
:10432000C00EF21204014D8DBDD0050106012D6BAA
:10433000000171EC10F0060EEA6E160EE96EF2CF77
:104340002CF6F29E000E77EC07F00A000900F550FB
:10435000EE6E0009FBE106012CBFF28E060E2D6FFA
:10436000160E2C6F1E0E2E6F2F6B306B020E316FE0
:1043700000019EEC10F0060EEA6E160EE96EF2CF0A
:104380002CF6F29E000E99EC07F00A000900F55099
:10439000EE6E0009FBE106012CBFF28E060E2D6FBA
:1043A000160E2C6F2E6B1E0E2F6F306B020E316FA0
:1043B00000019EEC10F0010E05010A6F0001D6EC21
:1043C0000CF0040E06012C6FFA0E2D6F00016CEC40
:1043D0000FF006012C2FF8D705015A6B5B6B5C6B55
:1043E0005D6B06012D6B000171EC10F00601436B53
:1043F000446B7F0E456F190E466F010E476F486F75
:1044000000012FEC0EF0060EEA6E160EE96EF2CFEA
:104410002CF6F29E000E77EC07F00A000900F5502A
:10442000EE6E0009FBE106012CBFF28E190E436F00
:10443000010E446F060E466F160E456F030E476F52
:10444000486B000190EC0EF05AC52EF6140E0601D2
:104450002F6F1E0E306F010E316F000116EC10F041
:104460005BC52EF6280E06012F6F1E0E306F316BC6
:10447000000116EC10F05CC52EF63C0E06012F6F05
:104480001E0E306F316B000116EC10F05AC52EF67F
:10449000500E06012F6F1E0E306F316B000116ECAF
:1044A00010F004010501092DBAD00F0E0601436F6B
:1044B000010E446F040E466F820E456F010E476F6A
:1044C000486F000190EC0EF0DDEC14F004014D8D0E
:1044D0000A0E0501186F196F050E1C6F0A0E1B6F6F
:1044E000050E1A6F090E0601436F360E446F780EE3
:1044F000456F400E466F010E476F486B00012FEC71
:104500000EF03DC52CF6140E06012D6F2E6F2F6B8D
:10451000020E306F000104EC11F03CC52CF6280EA1
:1045200006012D6F140E2E6F2F6B020E306F0001DF
:1045300004EC11F03C0E0601436F160E446F040E9E
:10454000466F770E456F020E476F010E486F0001F0
:1045500090EC0EF03BC52CF6460E06012D6F140EA6
:104560002E6F2F6B020E306F000104EC11F03AC574
:104570002CF65A0E06012D6F140E2E6F2F6B020EA5
:10458000306F000104EC11F0928480A418D0040E66
:1045900006012C6FFA0E2D6F00016CEC0FF0060176
:1045A0002C2FF8D7928480A40BD004014D9D020ECD
:1045B0000501096F06012D6B000171EC10F0060179
:1045C00005013E51800A006E3A51800A005C01E00C
:1045D00026E23F51800A006E3B51800A005C01E0F8
:1045E0001EE24051800A006E3C51800A005C01E0EE
:1045F00016E24151800A006E3D51800A005C01E0E4
:104600000EE204014D9D020E0501096F06012D6B9E
:10461000000171EC10F004014D774D830501095143
:104620000208D8A46DEF28F004014D9B0601436BEE
:10463000010E446F040E466FA70E456F010E476FC3
:10464000486F000190EC0EF00601436B0F0E446FB3
:10465000040E466FB00E456F010E476F486F0001A4
:1046600090EC0EF00601436B1D0E446F040E466F76
:10467000E30E456F010E476F486F000190EC0EF09E
:104680000601436B2B0E446F040E466FDB0E456F25
:10469000010E476F486F000190EC0EF04BC52DF6F0
:1046A0000A0E06012E6F00015AEC15F001500501AB
:1046B0004A2506012C6F4CC52DF6640E2E6F0001A5
:1046C0005AEC15F0015006012C27036A05014D51E3
:1046D000006EE8BE030606012D6F03C02EF603C070
:1046E00030F62F6F030E326FE80E316F000181EF4D
:1046F00015F002C003F0015006012C25016E000EDA
:10470000032201C02CF603C02DF60001ACEF15F01A
:1047100003C015F602C014F601C013F600C012F66D
:1047200004014CAF20D00001DDEC14F065C569F543
:1047300064C568F563C567F562C566F569C533F696
:1047400068C532F667C531F666C530F6460E060115
:10475000346F0F0E356F366B010E376F000112ECA0
:1047600017F004014C9F4DA377D0050E06012C6F66
:10477000000196EC17F004014E81050E05011A6F39
:104780001C6F04014EAB67D04E9B1E0EA96E36C542
:10479000A8FFA69CA69EA684F250006EF29E0F0172
:1047A000550EA76EAA0EA76EA682A6B2FED7A69435
:1047B0000050F212100EA96E56C5A8FFA69CA69E28
:1047C000A684F2CF00F0F29E550EA76EAA0EA76E39
:1047D000A682A6B2FED7A6940050F212110EA96EC0
:1047E00057C5A8FFA69CA69EA684F2CF00F0F29E15
:1047F000550EA76EAA0EA76EA682A6B2FED7A694E5
:104800000050F212120EA96E58C5A8FFA69CA69ED3
:10481000A684F2CF00F0F29E550EA76EAA0EA76EE8
:10482000A682A6B2FED7A6940050F212130EA96E6D
:1048300059C5A8FFA69CA69EA684F2CF00F0F29EC2
:10484000550EA76EAA0EA76EA682A6B2FED7A69494
:104850000050F212040184D005016D6B6C6B6B6B20
:104860006A6B660E0601436F2D0E446F7F0E456F17
:10487000400E466F010E476F486B00012FEC0EF0A3
:1048800004014E910A0E05011A6F1C6F04014EBB04
:1048900067D04E8B1E0EA96E36C5A8FFA69CA69E9D
:1048A000A684F250006EF29E0F01550EA76EAA0E5E
:1048B000A76EA682A6B2FED7A6940050F212100EE2
:1048C000A96E56C5A8FFA69CA69EA684F2CF00F0AE
:1048D000F29E550EA76EAA0EA76EA682A6B2FED7AE
:1048E000A6940050F212110EA96E57C5A8FFA69CFF
:1048F000A69EA684F2CF00F0F29E550EA76EAA0ED9
:10490000A76EA682A6B2FED7A6940050F212120E8F
:10491000A96E58C5A8FFA69CA69EA684F2CF00F05B
:10492000F29E550EA76EAA0EA76EA682A6B2FED75D
:10493000A6940050F212130EA96E59C5A8FFA69CAA
:10494000A69EA684F2CF00F0F29E550EA76EAA0E88
:10495000A76EA682A6B2FED7A6940050F21204015A
:104960006DC534F66CC533F66BC532F66AC531F6E3
:104970000601386B376B366B800E356F000150ECDB
:1049800009F00601516B506B480E4F6F850E4E6F4C
:1049900003C055F602C054F601C053F600C052F6EB
:1049A000000159EC0BF003C075F502C074F501C0AD
:1049B00073F500C072F50601346B336B480E326F2D
:1049C000850E316F75C538F674C537F673C536F682
:1049D00072C535F60001C7EC11F007E30501756BF0
:1049E000746B480E736F850E726F75C534F674C59F
:1049F00033F673C532F672C531F60601386B376B84
:104A0000366B800E356F000150EC09F003C075F570
:104A100002C074F501C073F500C072F579C52FF6B8
:104A200078C52EF677C52DF676C52CF63BEC0BF047
:104A30002A0E012406012C6F2A0E436F1C0E446FB0
:104A40002CC645F6230E466F010E476F486B0001DA
:104A50002FEC0EF075C52FF674C52EF673C52DF626
:104A600072C52CF63BEC0BF02A0E012406012C6FCC
:104A70002A0E436F1C0E446F2CC645F6230E466F5C
:104A8000010E476F486F00012FEC0EF0280E060153
:104A9000436F1A0E446F5E0E456F250E466F476BCF
:104AA000010E486F00012FEC0EF075C579F574C545
:104AB00078F573C577F572C576F515C634F614C664
:104AC00033F613C632F612C631F60601386B376B71
:104AD0007A0E366F880E356F000150EC09F0060132
:104AE000516B506B480E4F6F850E4E6F03C055F6DD
:104AF00002C054F601C053F600C052F6000159EC52
:104B00000BF003C07DF502C07CF501C07BF500C051
:104B10007AF50601346B336B480E326F850E316FB8
:104B20007DC538F67CC537F67BC536F67AC535F6D1
:104B30000001C7EC11F007E305017D6B7C6B480EAB
:104B40007B6F850E7A6F7DC534F67CC533F67BC5E9
:104B500032F67AC531F60601386B376B366B800E4C
:104B6000356F000150EC09F003C07DF502C07CF503
:104B700001C07BF500C07AF581C52FF680C52EF601
:104B80007FC52DF67EC52CF63BEC0BF02A0E0124DA
:104B900006012C6F2A0E436F446F2CC645F6310E6A
:104BA000466F010E476F486B00012FEC0EF07DC57C
:104BB0002FF67CC52EF67BC52DF67AC52CF63BEC80
:104BC0000BF02A0E012406012C6F2A0E436F446F4E
:104BD0002CC645F6310E466F010E476F486F000137
:104BE0002FEC0EF0280E0601436F446F5E0E456FEA
:104BF000330E466F476B010E486F00012FEC0EF02D
:104C00007DC581F57CC580F57BC57FF57AC57EF5D0
:104C100069C534F668C533F667C532F666C531F640
:104C20009A0E0601386F990E376F190E366F7D0E8A
:104C3000356F0001C7EC11F020E304014E874EA54B
:104C40001AD069C534F668C533F667C532F666C54D
:104C500031F69A0E0601386F990E376F190E366FBE
:104C60007D0E356F0001C7EC11F004E3050E050160
:104C70001B6F000104011AD0000104014E950501CB
:104C8000336B326B04014E970601436B360E446F53
:104C9000680E456F400E466F010E476F486B00016E
:104CA0002FEC0EF00A0E05011B6F04014DA70BD06F
:104CB000030E06012C6F000196EC17F0050E05019E
:104CC000186F13D00401660E0601436F0E0E446F79
:104CD0007F0E456F1C0E466F010E476F486B00013B
:104CE0002FEC0EF00A0E0501186F1D510A08D8A40A
:104CF00088D004014D970A0E0501186F1C6F1A6FBA
:104D000004014D934D8F050E0501196F690E0601C3
:104D1000436F446B040E466F920E456F020E476F51
:104D2000010E486F000190EC0EF004014EA967D00F
:104D30004E991F0EA96E34C5A8FFA69CA69EA684F8
:104D4000F250006EF29E0F01550EA76EAA0EA76ECE
:104D5000A682A6B2FED7A6940050F2120C0EA96E3F
:104D60004AC5A8FFA69CA69EA684F2CF00F0F29E9C
:104D7000550EA76EAA0EA76EA682A6B2FED7A6945F
:104D80000050F2120D0EA96E4BC5A8FFA69CA69E60
:104D9000A684F2CF00F0F29E550EA76EAA0EA76E63
:104DA000A682A6B2FED7A6940050F2120E0EA96EED
:104DB0004CC5A8FFA69CA69EA684F2CF00F0F29E4A
:104DC000550EA76EAA0EA76EA682A6B2FED7A6940F
:104DD0000050F2120F0EA96E4DC5A8FFA69CA69E0C
:104DE000A684F2CF00F0F29E550EA76EAA0EA76E13
:104DF000A682A6B2FED7A6940050F21204017DD07E
:104E000005010A0E196F04014D9F660E0601436FDE
:104E1000446B7F0E456F0E0E466F010E476F486B59
:104E200000012FEC0EF004014EB967D04E891F0E21
:104E3000A96E34C5A8FFA69CA69EA684F250006E5B
:104E4000F29E0F01550EA76EAA0EA76EA682A6B2FD
:104E5000FED7A6940050F2120C0EA96E4AC5A8FF08
:104E6000A69CA69EA684F2CF00F0F29E550EA76ED9
:104E7000AA0EA76EA682A6B2FED7A6940050F21282
:104E80000D0EA96E4BC5A8FFA69CA69EA684F2CFC8
:104E900000F0F29E550EA76EAA0EA76EA682A6B2CD
:104EA000FED7A6940050F2120E0EA96E4CC5A8FFB4
:104EB000A69CA69EA684F2CF00F0F29E550EA76E89
:104EC000AA0EA76EA682A6B2FED7A6940050F21232
:104ED0000F0EA96E4DC5A8FFA69CA69EA684F2CF74
:104EE00000F0F29E550EA76EAA0EA76EA682A6B27D
:104EF000FED7A6940050F212040105011B510508CB
:104F00001EE10601436B370E446F640E456F3F0E82
:104F1000466F010E476F486B00012FEC0EF0060143
:104F2000436B370E446F040E466FF90E456F010E4A
:104F3000476F486F000190EC0EF00FD0050106019D
:104F4000436B370E446F640E456F3F0E466F010E84
:104F5000476F486B00012FEC0EF0928480A40ED0B6
:104F600004014CB709D04C871E0E06012D6F0001BD
:104F70006CEC0FF004014D7303D0000104014C9759
:104F8000928680A614D04CB911D04C891E0E060111
:104F90002D6F00016CEC0FF004014D7105011D53E4
:104FA00003E10A0E1D6F01D01D6B040101D04C9965
:104FB000928280A20CD04CBB09D04C8B1E0E0601F5
:104FC0002D6F00016CEC0FF004014D7701D04C9B6C
:104FD000928080A038D0020E06012C6FFA0E2D6F41
:104FE00000016CEC0FF006012C2FF8D7928080A006
:104FF0001BD01E0E2D6F00016CEC0FF0030E05018F
:10500000096F010E06012C6F000195EC18F00601E6
:105010002D6B000171EC10F0D6EC0CF00A0E0501BE
:10502000186F196F0ED0060104014CBD09D04C8DCC
:105030001E0E06012D6F00016CEC0FF004014D7582
:10504000050103D004014C9D05015251800A006EF8
:105050004E51800A005C01E03CE25351800A006E30
:105060004F51800A005C01E034E25451800A006E26
:105070005051800A005C01E02CE25551800A006E1C
:105080005151800A005C01E024E2525307E153537E
:1050900005E1545303E1555301E11BD004014D9F39
:1050A0000A0E0501196F04014D71660E0601436F6A
:1050B000446B7F0E456F0E0E466F010E476F486BB7
:1050C00000012FEC0EF005014E6B4F6B506B516BD6
:1050D0001D6B000198EC0CF0050109510308D8A4E0
:1050E0006FD1060EEA6E160EE96EF2CF2CF6F29E26
:1050F000000E0001ACEC07F00A000900F550EE6E5E
:105100000009FBE106012CBFF28E060E2D6F160E74
:105110002C6F280E2E6F2F6B010E306F020E316F29
:1051200000019EEC10F005010B2D23D0060EEA6E57
:10513000160EE96EF2CF2CF6F29E000E0001BCECCA
:1051400007F00A000900F550EE6E0009FBE10601C8
:105150002CBFF28E060E2D6F160E2C6F2E6B130EBB
:105160002F6F010E306F316F00019EEC10F022D0D6
:105170000501060EEA6E160EE96EF2CF2CF6F29ECF
:10518000000E0001BCEC07F00A000900F550EE6EBD
:105190000009FBE106012CBFF28E060E2D6F160EE4
:1051A0002C6F2E6B130E2F6F306B010E316F0001C1
:1051B0009EEC10F005010B51020823E1060EEA6E89
:1051C000160EE96EF2CF2CF6F29E000E000177EC7F
:1051D00007F00A000900F550EE6E0009FBE1060138
:1051E0002CBFF28E060E2D6F160E2C6F2E6B230E1B
:1051F0002F6F010E306F316F00019EEC10F022D046
:105200000501060EEA6E160EE96EF2CF2CF6F29E3E
:10521000000E000177EC07F00A000900F550EE6E71
:105220000009FBE106012CBFF28E060E2D6F160E53
:105230002C6F2E6B230E2F6F306B010E316F000120
:105240009EEC10F005010B51030823E1060EEA6EF7
:10525000160EE96EF2CF2CF6F29E000E0001CDEC98
:1052600007F00A000900F550EE6E0009FBE10601A7
:105270002CBFF28E060E2D6F160E2C6F2E6B330E7A
:105280002F6F010E306F316F00019EEC10F022D0B5
:105290000501060EEA6E160EE96EF2CF2CF6F29EAE
:1052A000000E0001CDEC07F00A000900F550EE6E8B
:1052B0000009FBE106012CBFF28E060E2D6F160EC3
:1052C0002C6F2E6B330E2F6F306B010E316F000180
:1052D0009EEC10F0D6EC0CF004014DBB0DD0020E8C
:1052E00006012C6FFA0E2D6F00016CEC0FF0060119
:1052F0002C2FF8D704014D8B928080A00DD04CB19B
:105300000AD04C811E0E06012D6F00016CEC0FF0CF
:1053100005010B07040101D04C91928280A20DD0AF
:105320004CB50AD04C851E0E06012D6F00016CECA9
:105330000FF005010B2B040101D04C95928480A441
:105340001ED04CB31BD04C83020E06012C6FFA0EFC
:105350002D6F00016CEC0FF006012C2FF8D7030E17
:1053600005010B25096F010E0B6F06012D6B000166
:1053700071EC10F0010E05010A6F040101D04C938D
:10538000928680A613D0040E06012C6FAF0E2D6FEF
:1053900000016CEC0FF006012C2FF8D7020E05016E
:1053A000096F06012D6B000171EC10F005010B5126
:1053B000030802E2010E0B6F0B5302E1030E0B6FA9
:1053C00009510408D8A47FD10B2D23D0060EEA6E14
:1053D000160EE96EF2CF2CF6F29E000E0001DDEC07
:1053E00007F00A000900F550EE6E0009FBE1060126
:1053F0002CBFF28E060E2D6F160E2C6F2E6B040E28
:105400002F6F010E306F316F00019EEC10F022D033
:105410000501060EEA6E160EE96EF2CF2CF6F29E2C
:10542000000E0001DDEC07F00A000900F550EE6EF9
:105430000009FBE106012CBFF28E060E2D6F160E41
:105440002C6F2E6B040E2F6F306B010E316F00012D
:105450009EEC10F005010B51020823E1060EEA6EE6
:10546000160EE96EF2CF2CF6F29E000E0001F1EC62
:1054700007F00A000900F550EE6E0009FBE1060195
:105480002CBFF28E060E2D6F160E2C6F2E6B1C0E7F
:105490002F6F010E306F316F00019EEC10F022D0A3
:1054A0000501060EEA6E160EE96EF2CF2CF6F29E9C
:1054B000000E0001F1EC07F00A000900F550EE6E55
:1054C0000009FBE106012CBFF28E060E2D6F160EB1
:1054D0002C6F2E6B1C0E2F6F306B010E316F000185
:1054E0009EEC10F005010B51030823E1060EEA6E55
:1054F000160EE96EF2CF2CF6F29E000E000103ECC0
:1055000008F00A000900F550EE6E0009FBE1060103
:105510002CBFF28E060E2D6F160E2C6F2E6B280EE2
:105520002F6F010E306F316F00019EEC10F022D012
:105530000501060EEA6E160EE96EF2CF2CF6F29E0B
:10554000000E000103EC08F00A000900F550EE6EB1
:105550000009FBE106012CBFF28E060E2D6F160E20
:105560002C6F2E6B280E2F6F306B010E316F0001E8
:105570009EEC10F005010B51040823E1060EEA6EC3
:10558000160EE96EF2CF2CF6F29E000E000118EC1A
:1055900008F00A000900F550EE6E0009FBE1060173
:1055A0002CBFF28E060E2D6F160E2C6F2E6B340E46
:1055B0002F6F010E306F316F00019EEC10F022D082
:1055C0000501060EEA6E160EE96EF2CF2CF6F29E7B
:1055D000000E000118EC08F00A000900F550EE6E0C
:1055E0000009FBE106012CBFF28E060E2D6F160E90
:1055F0002C6F2E6B340E2F6F306B010E316F00014C
:105600009EEC10F0928080A00ED004014CB10AD024
:105610004C811E0E06012D6F00016CEC0FF0050190
:105620000B07040102D004014C91928280A20DD09C
:105630004CB50AD04C851E0E06012D6F00016CEC96
:105640000FF005010B2B040101D04C95928480A42E
:1056500019D04CB316D04C83020E06012C6FFA0EF3
:105660002D6F00016CEC0FF006012C2FF8D70A0EFD
:1056700005010B25096F06012D6B000171EC10F07F
:10568000040101D04C93928680A613D0040E06012B
:105690002C6FAF0E2D6F00016CEC0FF006012C2F5C
:1056A000F8D7030E0501096F06012D6B000171EC9F
:1056B00010F005010B51040802E2010E0B6F0B53B1
:1056C00002E1040E0B6F09510608D8A4ABD00B2DD4
:1056D00023D0060EEA6E160EE96EF2CF2CF6F29E7D
:1056E000000E00012EEC08F00A000900F550EE6EE5
:1056F0000009FBE106012CBFF28E060E2D6F160E7F
:105700002C6F2E6B0A0E2F6F010E306F316F000160
:105710009EEC10F022D00501060EEA6E160EE96E20
:10572000F2CF2CF6F29E000E00012EEC08F00A00DB
:105730000900F550EE6E0009FBE106012CBFF28E68
:10574000060E2D6F160E2C6F2E6B0A0E2F6F306B00
:10575000010E316F00019EEC10F0928080A00ED0FF
:1057600004014CB10AD04C811E0E06012D6F0001C0
:105770006CEC0FF005010B07040102D004014C9101
:10578000928280A20DD04CB50AD04C851E0E060127
:105790002D6F00016CEC0FF005010B2B040101D003
:1057A0004C95928480A41DD04CB31AD04C83020E29
:1057B00006012C6FFA0E2D6F00016CEC0FF0060144
:1057C0002C2FF8D71E0E05010B25096F06012D6B36
:1057D000000171EC10F0010E05010B6F0A6F04015E
:1057E00001D04C93928680A613D0040E06012C6F34
:1057F000AF0E2D6F00016CEC0FF006012C2FF8D7C7
:10580000030E0501096F06012D6B000171EC10F00C
:1058100005010B51010802E2010E0B6F0B5302E16F
:10582000010E0B6F09510B08D8A4C4D1060EEA6E05
:10583000160EE96EF2CF2CF6F29E000E000142EC3D
:1058400008F00A000900F550EE6E0009FBE10601C0
:105850002CBFF28E060E2D6F160E2C6F0A0E2E6FB9
:105860002F6B010E306F020E316F00019EEC10F0B5
:1058700005010A5104080FE141C52CF6140E06017A
:105880002D6F280E2E6F010E2F6F020E306F00014C
:1058900004EC11F00DD041C52CF6140E06012D6F4D
:1058A000280E2E6F2F6B020E306F000104EC11F0EA
:1058B00005010A5103080EE140C52CF6280E060129
:1058C0002D6F2E6F010E2F6F020E306F000104EC52
:1058D00011F00CD040C52CF6280E06012D6F2E6F4E
:1058E0002F6B020E306F000104EC11F005010A511C
:1058F00002080FE13FC52CF6460E06012D6F280E5B
:105900002E6F010E2F6F020E306F000104EC11F0AC
:105910000DD03FC52CF6460E06012D6F280E2E6FBA
:105920002F6B020E306F000104EC11F005010A2DFF
:105930000FD03EC52CF65A0E06012D6F280E2E6F85
:10594000010E2F6F020E306F000104EC11F00DD02C
:105950003EC52CF65A0E06012D6F280E2E6F2F6BAA
:10596000020E306F000104EC11F03C0E0601436F93
:105970002A0E446F040E466F770E456F020E476F76
:10598000010E486F000190EC0EF0928080A016D0BE
:1059900004014CB112D04C811E0E06012D6F000186
:1059A0006CEC0FF0010E05010A5D036A3E0FE96E13
:1059B000050E0320EA6EEF2A040102D004014C9187
:1059C000928280A215D04CB512D04C851E0E0601D5
:1059D0002D6F00016CEC0FF0010E05010A5D036AEA
:1059E0003E0FE96E050E0320EA6EEF06040101D0BA
:1059F0004C95928480A40DD04CB30AD04C831E0EDB
:105A000006012D6F00016CEC0FF005010A0704017F
:105A100001D04C93928680A668D0040E06012C6FAC
:105A2000AF0E2D6F00016CEC0FF006012C2FF8D794
:105A3000030E0501096F06012D6B000171EC10F0DA
:105A4000010E05010B6F040EA96E3EC5A8FFA69CB2
:105A5000A69EA684F250006EF29E0F01550EA76E10
:105A6000AA0EA76EA682A6B2FED7A6940050F21286
:105A7000050EA96E3FC5A8FFA69CA69EA684F2505F
:105A8000006EF29E550EA76EAA0EA76EA682A6B253
:105A9000FED7A6940050F212060EA96E40C5A8FFCC
:105AA000A69CA69EA684F250006EF29E550EA76E8E
:105AB000AA0EA76EA682A6B2FED7A6940050F21236
:105AC000070EA96E41C5A8FFA69CA69EA684F2500B
:105AD000006EF29E550EA76EAA0EA76EA682A6B203
:105AE000FED7A6940050F2120401386B3851030817
:105AF00029E3036A38513E0FE96E050E0320EA6E72
:105B0000EFBE0BD0EF50090808E2036A38513E0F90
:105B1000E96E050E0320EA6EEF6A036A38513E0F04
:105B2000E96E050E0320EA6EEFBE01D009D0036ACC
:105B300038513E0FE96E050E0320EA6E090EEF6E36
:105B4000382BD4D7010E386F385103082AE3036A83
:105B500038513E0FE96E050E0320EA6EEFBE0BD002
:105B6000EF50050808E2036A38513E0FE96E050E52
:105B70000320EA6EEF6A036A38513E0FE96E050EA4
:105B80000320EA6EEFBE01D009D0036A38513E0F00
:105B9000E96E050E0320EA6E050EEF6E382B382BEA
:105BA000D3D705010A5302E1040E0A6F0B5302E139
:105BB000040E0B6F09510C08D8A4CAD1060EEA6E68
:105BC000160EE96EF2CF2CF6F29E000E000154EC98
:105BD00008F00A000900F550EE6E0009FBE106012D
:105BE0002CBFF28E060E2D6F160E2C6F1E0E2E6F12
:105BF0002F6B010E306F020E316F00019EEC10F022
:105C000005010A5104080FE155C52CF6140E0601D2
:105C10002D6F280E2E6F010E2F6F020E306F0001B8
:105C200004EC11F00DD055C52CF6140E06012D6FA5
:105C3000280E2E6F2F6B020E306F000104EC11F056
:105C400005010A5103080EE154C52CF6280E060181
:105C50002D6F2E6F010E2F6F020E306F000104ECBE
:105C600011F00CD054C52CF6280E06012D6F2E6FA6
:105C70002F6B020E306F000104EC11F005010A5188
:105C800002080FE153C52CF6460E06012D6F280EB3
:105C90002E6F010E2F6F020E306F000104EC11F019
:105CA0000DD053C52CF6460E06012D6F280E2E6F13
:105CB0002F6B020E306F000104EC11F005010A2D6C
:105CC0000FD052C52CF65A0E06012D6F280E2E6FDE
:105CD000010E2F6F020E306F000104EC11F00DD099
:105CE00052C52CF65A0E06012D6F280E2E6F2F6B03
:105CF000020E306F000104EC11F03C0E0601436F00
:105D00002A0E446F040E466F770E456F020E476FE2
:105D1000010E486F000190EC0EF0928080A016D02A
:105D200004014CB112D04C811E0E06012D6F0001F2
:105D30006CEC0FF0010E05010A5D036A520FE96E6B
:105D4000050E0320EA6EEF2A040102D004014C91F3
:105D5000928280A215D04CB512D04C851E0E060141
:105D60002D6F00016CEC0FF0010E05010A5D036A56
:105D7000520FE96E050E0320EA6EEF06040101D012
:105D80004C95928480A40DD04CB30AD04C831E0E47
:105D900006012D6F00016CEC0FF005010A070401EC
:105DA00001D04C93928680A66DD0040E06012C6F14
:105DB000AF0E2D6F00016CEC0FF006012C2FF8D701
:105DC000030E0501096F06012D6B000171EC10F047
:105DD000010E05010B6F150EA96E52C5A8FFA69CFA
:105DE000A69EA684F250006EF29E0F01550EA76E7D
:105DF000AA0EA76EA682A6B2FED7A6940050F212F3
:105E0000160EA96E53C5A8FFA69CA69EA684F250A6
:105E1000006EF29E550EA76EAA0EA76EA682A6B2BF
:105E2000FED7A6940050F212170EA96E54C5A8FF13
:105E3000A69CA69EA684F250006EF29E550EA76EFA
:105E4000AA0EA76EA682A6B2FED7A6940050F212A2
:105E5000180EA96E55C5A8FFA69CA69EA684F25052
:105E6000006EF29E550EA76EAA0EA76EA682A6B26F
:105E7000FED7A6940050F21205014E6B4F6B506B8B
:105E8000516B0401386B385102082AE3036A385118
:105E9000520FE96E050E0320EA6EEFBE0BD0EF50F5
:105EA000090808E2036A3851520FE96E050E032013
:105EB000EA6EEF6A036A3851520FE96E050E03204D
:105EC000EA6EEFBE01D009D0036A3851520FE96E75
:105ED000050E0320EA6E090EEF6E382B382BD3D750
:105EE000010E386F385103082AE3036A3851520F04
:105EF000E96E050E0320EA6EEFBE0BD0EF500508E9
:105F000008E2036A3851520FE96E050E0320EA6E6B
:105F1000EF6A036A3851520FE96E050E0320EA6EEC
:105F2000EFBE01D009D0036A3851520FE96E050E59
:105F30000320EA6E050EEF6E382B382BD3D7050100
:105F40000A5302E1040E0A6F0B5302E1040E0B6FB9
:105F500009510D08D8A406D30601346B336B200E0B
