:0400000030EF0CF0E1
:08000800046ED8CF05F0E0CF33
:1000100006F00001E9CF0CF0EACF07F0E1CF08F0DD
:10002000E2CF09F0D9CF0AF0DACF0BF0F3CF12F01C
:10003000F4CF13F0FACF14F000C00EF001C00FF0AF
:1000400002C010F003C011F09DA02AEF00F09EB096
:100050005AEF00F00EC000F00FC001F010C002F027
:1000600011C003F00CC0E9FF07C0EAFF078E08C00B
:10007000E1FF09C0E2FF0AC0D9FF0BC0DAFF12C0DE
:10008000F3FF13C0F4FF14C0FAFF045006C0E0FFF2
:1000900005C0D8FF1000F2CF0DF0F29EF76AB00F46
:1000A000F66E000EF7220900F5500DBEF28E12001A
:1000B000280C0106EC0ECF6E780ECE6E412AD8B415
:1000C000422A425203E14150C7081AE2426A416A99
:1000D000302A188017A014D0222A17BE11D0295216
:1000E00002E029060DD0285204E028063B0E296EB6
:1000F00007D017908C9095902AC028F02BC029F03B
:100100009E902AEF00F054656D706F72697A616499
:100110006F72205556202020200056656C6F636951
:10012000646164204D6F746F722020202000436151
:100130006D62696F20436F6E7472617365F1612047
:1001400020005469656D706F2054726162616A6F3E
:1001500020555620200050756E746F204365726FD5
:100160002020202020202020200020204341424920
:100170004E4120444520464C554A4F202020000047
:1001800020204C414D494E4152205645525449433E
:10019000414C20200000202020204A5020494E477A
:1001A0004C4F42414C202020202000002020205293
:1001B00045463A20204A50434656393020202020D8
:1001C00000002020202020496E6772657365202082
:1001D000202020202020000020202020436F6E744B
:1001E00072617365F1612020202020200000202012
:1001F0002020434C4156453D2569256925692569DF
:10020000202000002020202020202020202020202E
:1002100020202020202020002020202020436F6E3E
:100220007472617365F1612020202000202020205D
:100230002020436F727265637461202020202000AB
:1002400020202020202020202020202020202020AE
:10025000202020002020202020436F6E74726173C4
:1002600065F16120202020002020202020496E639D
:100270006F7272656374612020202000202020208E
:10028000202020202020202020202020202020008E
:100290002D2D2D4D454E55205052494E434950412C
:1002A0004C2D2D2D00002020202054656D706F7284
:1002B000697A61646F722020202020002020202095
:1002C0002020204C757A20555620202020202020E8
:1002D0002000253032753A2530327520284D3A53AA
:1002E000292020005469656D706F20416C6D616339
:1002F000656E61646F002020436F72726563746184
:100300006D656E746520200053656C656363696F6D
:100310006E652056656C6F6369646164000020201F
:10032000202064652056656E74696C61646F72206C
:1003300020200000202020202020202020202020FD
:100340002020202020202020000020202048612084
:1003500073656C656363696F6E61646F2020000074
:1003600020206C612076656C6F6369646164202075
:10037000256920200000202020202020202020206F
:1003800020202020202020202020000020202020AD
:100390002020496E67726573652020202020202070
:1003A000000020436F6E7472617365F161204163D8
:1003B0007475616C2020000020202020434C4156A1
:1003C000453D2569256925692569202000002020F3
:1003D000202020202020202020202020202020201D
:1003E000202000002020202020436F6E7472617353
:1003F00065F16120202020200000202020202020E6
:10040000436F7272656374612020202020200000F9
:1004100020202020202020202020202020202020DC
:10042000202020200000202020202020202020200C
:1004300020202020202020202020000020202020FC
:1004400020436F6E7472617365F16120202020205B
:1004500000002020202020496E636F727265637453
:10046000612020202020000020202020202020208B
:1004700020202020202020202020202000002020BC
:10048000202020496E67726573652020202020207F
:10049000202000002020436F6E7472617365F1614B
:1004A000204E756576612020000020202020434CDE
:1004B0004156453D256925692569256920200000AB
:1004C000202020202020202020202020202020202C
:1004D0002020202000002020202020436F6E7472F6
:1004E000617365F161202020202000002020202061
:1004F00020416C6D6163656E616461202020202065
:10050000000020202020202020202020202020202B
:100510002020202020200000202044757261636983
:100520006F6E2041637475616C20202000002020D4
:10053000205469656D706F3D202530354C75202045
:1005400020002052455345543D204F7072696D6123
:10055000205E2079203E200020526573657420645F
:1005600065207469656D706F200020202020204573
:100570007869746F736F20202020200020205A6536
:10058000726F20506F696E7420436F6E66696720CA
:10059000000050726573696F6E3D2025332E326600
:1005A00020696E48324F2000202020204144433DE6
:1005B00025322E306600202020205A463D25322E3E
:1005C000306600004A5043522044503A25332E32C0
:1005D0006620696E48324F20000046696C74726F65
:1005E0003A0054656D706F3A253032753A253032D5
:1005F00075004D6F746F723A4F4E20004D6F746FDF
:10060000723A4F46460055563A4F4E200000555616
:100610003A4F464600004C757A3A4F4E20004C75D2
:100620007A3A4F464600EA6ACA0EE96EEF500EE08B
:10063000010E016E006A002EFED7012EFBD74A0E76
:10064000006E002EFED700D0EF2EF2D7000CCB3973
:10065000F00B006E0F0E81140010816E090E006EFB
:10066000002EFED700D08186120E006E002EFED71F
:100670008196000C8192010ECA6FD5DFC8A18192CC
:10068000C8B18182090E006E002EFED700D0819481
:10069000090E006E002EFED700D08196C939CA6FB0
:1006A0000F0ECA17CAC0CBF0D2DFC9510F0BCA6FE9
:1006B000CB6FCDDF000C000E936E819281948196FA
:1006C0000F0ECA6FB0DF010EB36FB351030808E31A
:1006D000030ECB6FBCDF050ECA6FA5DFB32BF5D7BA
:1006E000020ECB6FB4DFB36BB35103080EE3036AA2
:1006F000B351F2CFB4F0F29ECEDCB4BFF28EB46F41
:10070000C86BC96FB7DFB32BEFD7000C8E0E006E2E
:10071000CCC001F0CBC002F0036A015209E102C073
:1007200001F0026A080E005E015202E1006A08D080
:10073000D89001BE04D0023601360006F9D7019EDA
:10074000000CB835006E0036FC0E001600C001F03B
:10075000C250C30B0010C26E0A0ECA6F64DFC282A1
:10076000C2B2FED7C4CF03F0C3CFCBF0C4CFCCF01E
:10077000CDDF03C0BCF002C0BBF001C0BAF000C0C6
:10078000B9F0B9C000F0BAC001F0BBC002F0BCC003
:1007900003F0000C010EC65DFC0F0FE2040FE5EF45
:1007A00003F0800EC76F09D0C00EC76F06D0940E3D
:1007B000C76F03D0D40EC76F00D0010EC55DC72729
:1007C000C86BC7C0C9F056DF000CF2CF0DF0F29E27
:1007D000E824F76AF736EF0FF66E070EF7220A00E5
:1007E000F550FA6E0800F5500DBEF28EF96EA207B4
:1007F000A807AE07B407C451F10802E1EE0EC46FBA
:10080000C451D10802E1FF0EC46FC4510C0A05E0C7
:10081000060A0DE0020A12E016D0C86B010EC96F7D
:1008200029DF010E166E020ECA6FFDDE12D0162AE7
:10083000010EC56F16C0C6F0ADDF0BD0C86B100E31
:10084000C96F18DF06D0010EC86FC4C0C9F012DF2F
:1008500000D0000C0900F5520CE0F6CFB6F0F7CF4F
:10086000B7F0F5CFC4F0C7DFB6C0F6FFB7C0F7FFEB
:10087000F1D7000CC751D8B4A5D0D36FCB51D8B4A1
:10088000A1D0D35F05E37F0ED327D8B09BD006D08D
:10089000810ED35FD8A096D0D8B494D0D3C000F046
:1008A000016A026A036AD26BC8C0D1F0D18FC9C095
:1008B000D0F0CAC0CFF0190ED36FCE51CF5F0DE28A
:1008C000010ED05F0AE2D15F08E2D25F06E2D22BCE
:1008D000D12BD02BCE51CF2728D0CD51D05F12E2D3
:1008E000010ED15F0FE2D25F0DE2D22BD12BCD51A1
:1008F000D027CE51CF2719E3D02B17E1D12B15E10B
:10090000D22B13D0CC518009D15F0EE2010ED25F01
:100910000BE2D22BCC518009D127CD51D027E9E36E
:10092000D12BE7E1D22BE5D70380D32F01D00BD019
:10093000D890CF37D037D137D237D8900336023658
:100940000136D437BAD7D4A106D0D89001320232BA
:100950000332D43302D0000635E0D4BF1ED0D89085
:10096000CF37D037D137D237CE51CF5F07E2010E24
:10097000D05F04E2D15F02E2D25F1AE3CD51D05FD3
:1009800005E2010ED15F02E2D25F12E3CC51800991
:10099000D15F03E2010ED25F0BE3032A09E1022AD1
:1009A00007E1012A05E1002A0DE00132023203329B
:1009B000C8C0D3F0CC51D31BD3AF02D0018E06D028
:1009C000019E04D0006A016A026A036A000C800E6C
:1009D000D8B2D01BD56BD66BCCC0D4F0D051D41BC1
:1009E000CB51D8B4DCD0D36F006ECF51D8B4E0D0A7
:1009F000D35FD8B481D03DE3D0C0D9F0D98FD1C076
:100A0000D8F0D2C0D7F0D66BD890D933D833D733FB
:100A1000D633D32FF8D7D4AF03D0D581DDD0D5913D
:100A2000D391D589EA6ACE0EE96EE9D0D599D4BFC3
:100A30000AD0D3A113D0D933D833D733D633002A31
:100A4000D8B4C5D00BD0D9BF0CD0D890D637D737B3
:100A5000D837D9370006D8B4BAD0F5D7D58D6BD0F2
:100A6000D59DCCC0D4F0CCAF02D0D98FA9D0D99F1E
:100A7000A7D0CFC0D3F0CFC000F0CB51D35FCCC054
:100A8000D9F0D98FCDC0D8F0CEC0D7F0D66BD890E2
:100A9000D933D833D733D633D32FF8D7D4AF03D005
:100AA000D5839AD0D593D391D58BEA6AD20EE96ECD
:100AB000A6D0D59BD4BF0AD0D3A113D0D933D83375
:100AC000D733D633002AD8B482D00BD0D9BF0CD0BC
:100AD000D890D637D737D837D9370006D8B477D09B
:100AE000F5D7D58F28D0D59FD0C0D4F0D0AF02D0C5
:100AF000D98F66D0D99F64D0D0C0D9F0D98FD1C05A
:100B0000D8F0D2C0D7F0D4AF04D0D99FD58564D067
:100B1000D595D66BD391EA6ACE0EE96E70D0D4BF6C
:100B20001CD0CCC0D4F0D3A106D0D933D833D7331E
:100B3000D633002A4CE0D6AF0BD0D72B09E1D82B07
:100B400007E1D92B05E1D933D833D733002A3FE069
:100B5000D5BD86D7D5BFC7D71CD0800ED91BD9AF7E
:100B600004D03AD0D0C0D4F00AD0CCC0D4F0D953FD
:100B700006E1D85304E1D75302E1006A21D0D9BF7E
:100B800008D0D890D637D737D837D937002EF7D7EF
:100B90001ED0D4AF02D0D98F13D0D99F11D0CFC0DF
:100BA00000F0D0C0D9F0D1C0D8F0D2C0D7F008D072
:100BB000CBC000F0CCC0D9F0CDC0D8F0CEC0D7F0BB
:100BC000D9C001F0D8C002F0D7C003F034D0006A19
:100BD000016A026A036A2FD0D66BD71FD81FD91FAC
:100BE000D61FD62B05E1D72B03E1D82B01E1D92B5A
:100BF000D5B115D7D5B356D7D5B58AD7B3D7EF501A
:100C0000D72705E3D82B03E1D92BD8B4D381ED52F4
:100C1000EF50D82703E3D92BD8B4D381ED52EF504E
:100C2000EFBE01D0800AD927D8B0D381D5B9FED67E
:100C3000D5BB3FD774D7000C34BE05D03450040860
:100C400002E2010E346E3C50090801E23C6A3D505C
:100C5000090801E23D6A3E50090801E23E6A3F5040
:100C6000090801E23F6A28503C0801E2286A29523B
:100C700001E0296A22503C0801E2226A23503C0824
:100C800001E2236A62EF0EF00900F6CFB8F0F7CF69
:100C9000B9F0F5CFC4F0AFDDB8C0F6FFB9C0F7FFCB
:100CA000B72FF2D7000CBA51016AB95D03E2B9C09F
:100CB00000F00CD0006A080EBB6FB9370036BA518D
:100CC000005CD8B0006E0136BB2FF7D7000C200EA9
:100CD000B4A9300EB56FB3C000F0B3AF07D0001E9B
:100CE000002A00C0B3F02D0EB56FB48F0150B3C011
:100CF000B9F0640EBA6FD7DF00C0B3F0300E012434
:100D0000B66FB3C0B9F00A0EBA6FCDDF300E002453
:100D1000B86F300E0124B76FB5C000F0B4A702D091
:100D2000B4AFB495B4B90BD0B4AF22D0B4B520D021
:100D300000C0B6F0B4B31CD000C0B7F019D0300E6C
:100D4000B65D16E100C0B6F0200EB56FB4A704D0B2
:100D5000B495B483B4AFB493300EB75D09E100C06D
:100D6000B7F0200EB66FB4A7F7D7B493B4AFB49171
:100D7000B4A503D0B5C0C4F03EDDB4A303D0B6C063
:100D8000C4F039DDB4A103D0B7C0C4F034DDB8C0BD
:100D9000C4F031DD000CB42D0AD0020EC56FB5C011
:100DA000C6F0F8DC060EF66E010EF76E53DDB45198
:100DB00002080AE1020EC56FB5C0C6F0EBDC1A0EE0
:100DC000F66E010EF76E46DDB45103080AE1020E1D
:100DD000C56FB5C0C6F0DEDC2E0EF66E010EF76EE6
:100DE00039DDB45104080AE1020EC56FB5C0C6F082
:100DF000D1DC420EF66E010EF76E2CDDB451050803
:100E00000AE1020EC56FB5C0C6F0C4DC560EF66E20
:100E1000010EF76E1FDD000C0150B3C0B9F0640E77
:100E2000BA6F41DF00C0B3F00150300E07E1B4A348
:100E30000CD0B4B70AD0B4B9200E03D0B497B4998B
:100E4000B481012601C0C4F0D6DCB3C0B9F00A0EEB
:100E5000BA6F29DF00C0B3F00150300E06E1B4B71D
:100E600008D0B4A106D0B4B9200E012601C0C4F048
:100E7000C2DC300EB327B3C0C4F0BDDC000CB553E8
:100E800008E18C9695968C9895988C9A959A8C9466
:100E90009594B52D08D08C9695968C9895988C9AAB
:100EA000959A8C849594B551020808E18C98959890
:100EB0008C9A959A8C9495948C869596B551030846
:100EC00008E18C9A959A8C9495948C9695968C883A
:100ED0009598B551040808E18C9695968C9895984C
:100EE0008C9495948C8A959A000CEACFBBF0E9CF4C
:100EF000BAF0B439F009B66FB627E20FB76F320F08
:100F0000B96FB4510F0BB727B727B927E90FB86FDF
:100F1000B827B827B3390F0BB827B927B837B9376F
:100F2000B91FB937B3510F0BB927B637070EB56FD5
:100F30000A0EB807B927FDE3B707B827FDE3B607E0
:100F4000B727FDE3B507B627FDE3EA6AB50EE96EFC
:100F5000070EBA15BA9DE926B90EE95CD8B4BA8D68
:100F6000EF50006E08E1BABD06D0BAB913D0BAB7D7
:100F700002D0200E03D0BA87BA99300E0026EACFED
:100F8000B4F0E9CFB3F000C0C4F035DCB4C0EAFF80
:100F9000B3C0E9FFEE50BAADDFD770EF16F0C8C0AE
:100FA000CFF0CC51CF1BCFAF05D0D894D890C8BFCD
:100FB000D8802FD0C8C0CFF0CBC0D0F0C751D05F01
:100FC00006E0CFAF26D0D850010AD86E22D0CCC0D0
:100FD000D0F0C851D05F06E0CFAF1BD0D850010A87
:100FE000D86E17D0CDC0D0F0C951D05F06E0CFAFDA
:100FF00010D0D850010AD86E0CD0CEC0D0F0CA5153
:10100000D05F06E0CFAF05D0D850010AD86E01D02E
:10101000D890000CB76BB66BB56BB46B010EB86FA4
:10102000A1EC03F003C09AF002C099F001C098F05F
:1010300000C097F09AC0CAF099C0C9F098C0C8F033
:1010400097C0C7F0B2C0CEF0B1C0CDF0B0C0CCF008
:10105000AFC0CBF00FDC00C0B8F001C0B9F002C0E7
:10106000BAF003C0BBF0D88203C0CEF002C0CDF00E
:1010700001C0CCF000C0CBF0D26BD16BD06B7F0E37
:10108000CF6FA5DC03C09EF002C09DF001C09CF0B4
:1010900000C09BF09EC0CAF09DC0C9F09CC0C8F0C3
:1010A0009BC0C7F0CE6BCD6BCC6BCB6B78DF04E312
:1010B0009E6B9D6B9C6B9B6B010EB35D2C5C02E089
:1010C00001E32C6A2C50040DF350036A470FE96EBC
:1010D000000E0320EA6E9BC0EFFF9CC0ECFF9DC09A
:1010E000ECFF9EC0ECFF2C2A2D6A010EB35D2D5C37
:1010F00001E035E22D50040DF350036A470FE96E0D
:10110000000E0320EA6EEFCF00F0ECCF01F0ECCF41
:1011100002F0ECCF03F0EACFB9F0E9CFB8F0D89203
:10112000B7C0CEF0B6C0CDF0B5C0CCF0B4C0CBF0F7
:1011300003C0D2F002C0D1F001C0D0F000C0CFF0A7
:1011400046DCB9C0EAFFB8C0E9FF03C0B7F002C08F
:10115000B6F001C0B5F000C0B4F02D2AC6D7CC6BF4
:10116000B3C0CBF086EC03F0B7C0CAF0B6C0C9F08C
:10117000B5C0C8F0B4C0C7F003C0CEF002C0CDF017
:1011800001C0CCF000C0CBF03AEC04F003C0B7F0E3
:1011900002C0B6F001C0B5F000C0B4F0B4C000F0B9
:1011A000B5C001F0B6C002F0B7C003F0000CC751E3
:1011B000D8B471D0006ECB51D8B46DD0002604E302
:1011C000810E002668E204D07F0E005E64E363E0D7
:1011D000C8C0CFF0CC51CF1BC88FCC8FCA51CE0323
:1011E000F4CFD1F0C951CD03F4CF03F0F3CFD0F059
:1011F000CE03F350D127F450D023000E0322CA515E
:10120000CD03F350D127F450D023000E026A0322FD
:101210000222C851CE03F350D027F4500322000E0F
:101220000222C851CD03F3500326F4500222000ECF
:10123000016A0122CA51CC03F350D027F450032293
:10124000000E02220122C951CC03F3500326F450B0
:101250000222000E0122C851CC03F3500226F450A2
:101260000122002A01BE05D0D037033602360136EE
:101270000006000ED0AF0AD0032A0222012201503C
:1012800005E1025003E1035001E1002ACFBF018EC6
:10129000CFAF019E04D0006A016A026A036A000CA3
:1012A000C451B608C46F036AC5C0C8F0C58FD890D2
:1012B000C533C633C7330332023201320032C42F82
:1012C000F6D7C8AF0BD0001E011E021E031E002A57
:1012D000D8B4012AD8B4022AD8B4032AD4EF09F02A
:1012E000006A016A026A036ACC6BCD6BCE6BCF6B6E
:1012F000CB51CA11C911C8112CE0200ED06FD89063
:10130000C437C537C637C737CC37CD37CE37CF37D9
:10131000CB51CF5D08E1CA51CE5D05E1C951CD5D2C
:1013200002E1C851CC5D0FE3C851CC5FC951D8A0D0
:10133000C93DCD5FCA51D8A0CA3DCE5FCB51D8A020
:10134000CB3DCF5FD8800036013602360336D02F32
:10135000D6D7EA6ACC0EE96E000CE950BC6FBB51DF
:10136000BE6F19E0BAC0CAF0B9C0C9F0B8C0C8F0C1
:10137000B7C0C7F0CE6BCD6B200ECC6F820ECB6F9B
:1013800016DF03C0BAF002C0B9F001C0B8F000C067
:10139000B7F0BE2FE7D7BAC0C7F0B9C0C6F0B8C023
:1013A000C5F0B7C0C4F07CD703C0BAF002C0B9F032
:1013B00001C0B8F000C0B7F0BAAF0DD0BC07BC8B0D
:1013C000B71FB81FB91FBA1FB72BD8B4B82BD8B4E2
:1013D000B92BD8B4BA2B3B0EC36F9A0EC26FCA0E8C
:1013E000C16FC06B0A0EBE6FBB51D8B4BC2BBAC064
:1013F000C7F0B9C0C6F0B8C0C5F0B7C0C4F0C3C02C
:10140000CBF0C2C0CAF0C1C0C9F0C0C0C8F068DF2C
:101410000150EFCFB7F0ECCFB8F0ECCFB9F0ECCF94
:10142000BAF000520FE1BB29BE5D0CE0BC510CE0EC
:101430000F0BBE5D01E03BE2BCBF39D0BCBD04D0A8
:10144000200E30D0200EBC17BCAB0DD0BC9BBB51C6
:10145000D8A4BC070050BC6F2D0EC46FFBEC03F08A
:10146000BC51006EBC6BBB51BE5D0BE10050BC6F4C
:101470002E0EC46FFBEC03F0BC51006E200EBC17A7
:10148000000E300EBCAB0ED0BC9BBB51D8A4BC0729
:101490000050BC6F2D0EC46FFBEC03F0BC51006E0E
:1014A000BC6B300E002600C0C4F0FBEC03F0C3C0E0
:1014B000C7F0C2C0C6F0C1C0C5F0C0C0C4F0CB6B9D
:1014C000CA6BC96B0A0EC86F0BDF03C0C3F002C042
:1014D000C2F001C0C1F000C0C0F0BE2F88D7000C20
:1014E0008E0E006EC751005EC8C002F0C9C001F088
:1014F000028E005209E0D890025202E1015204E04B
:1015000002320132002EF7D7C8AF05D0011E021EED
:10151000012AD8B4022A000CC691BAC0BFF0B9C0E3
:10152000BEF0B8C0BDF0B7C0BCF0BAC0CAF0B9C018
:10153000C9F0B8C0C8F0B7C0C7F0CE6BCD6BCC6BEC
:10154000CB6B2DDD04E3C681BD51800ABD6FBFC0EA
:10155000CAF0BEC0C9F0BDC0C8F0BCC0C7F0CE6BF9
:10156000CD6BCC6B8E0ECB6F1ADD01E218E1BFC0E4
:10157000CAF0BEC0C9F0BDC0C8F0BCC0C7F0B0DF83
:1015800002C0CCF001C0CBF086EC03F003C0C3F086
:1015900002C0C2F001C0C1F000C0C0F0C4D0BFC0E2
:1015A000CAF0BEC0C9F0BDC0C8F0BCC0C7F0800E54
:1015B000CE6F960ECD6F180ECC6F960ECB6FEFDC04
:1015C000D8A0A9D0BFC0CAF0BEC0C9F0BDC0C8F085
:1015D000BCC0C7F0CE6BCD6BCC6B8E0ECB6F3AEC34
:1015E00004F003C0CAF002C0C9F001C0C8F000C0D6
:1015F000C7F076DF02C0C5F001C0C4F0BFC0CAF0BA
:10160000BEC0C9F0BDC0C8F0BCC0C7F0CE6BCD6BCA
:10161000CC6B8E0ECB6F3AEC04F000C0C7F001C06B
:10162000C8F002C0C9F003C0CAF0C5C0CCF0C4C045
:10163000CBF086EC03F0D882CAC0CEF0C9C0CDF0A2
:10164000C8C0CCF0C7C0CBF003C0D2F002C0D1F00C
:1016500001C0D0F000C0CFF0E7EC04F0CA6BC96B5A
:10166000C86B8E0EC76F03C0CEF002C0CDF001C0B4
:10167000CCF000C0CBF09BDD03C0BFF002C0BEF0D9
:1016800001C0BDF000C0BCF0C5C0CCF0C4C0CBF000
:1016900086EC03F0CA6BC96BC86B8E0EC76F03C0B4
:1016A000CEF002C0CDF001C0CCF000C0CBF07FDDA9
:1016B00003C0C3F002C0C2F001C0C1F000C0C0F05E
:1016C000BFC0CAF0BEC0C9F0BDC0C8F0BCC0C7F042
:1016D00007DF02C0CCF001C0CBF086EC03F0D8925B
:1016E000C3C0CEF0C2C0CDF0C1C0CCF0C0C0CBF002
:1016F00003C0D2F002C0D1F001C0D0F000C0CFF0E2
:10170000E7EC04F003C0C3F002C0C2F001C0C1F0B6
:1017100000C0C0F008D0BFC0C3F0BEC0C2F0BDC0A2
:10172000C1F0BCC0C0F0BFC0CAF0BEC0C9F0BDC0EF
:10173000C8F0BCC0C7F0D4DE02C0CCF001C0CBF012
:1017400086EC03F0D882BFC0CEF0BEC0CDF0BDC0E5
:10175000CCF0BCC0CBF003C0D2F002C0D1F001C0CD
:10176000D0F000C0CFF0E7EC04F003C0BFF002C03F
:10177000BEF001C0BDF000C0BCF0C6A103D0C15195
:10178000800AC16FBFC0CAF0BEC0C9F0BDC0C8F0FA
:10179000BCC0C7F0CE6BCD6BCC6BCB6B00DC38E044
:1017A000C6A11AD0BB5318E1D882C3C0CEF0C2C0C4
:1017B000CDF0C1C0CCF0C0C0CBF0D26BD16BD06B40
:1017C0007F0ECF6FE7EC04F003C0C3F002C0C2F09D
:1017D00001C0C1F000C0C0F0C6B11AD0BB2D18D0F6
:1017E000D892C3C0CEF0C2C0CDF0C1C0CCF0C0C052
:1017F000CBF0D26BD16BD06B7F0ECF6FE7EC04F0E8
:1018000003C0C3F002C0C2F001C0C1F000C0C0F00C
:10181000BAC0CAF0B9C0C9F0B8C0C8F0B7C0C7F004
:10182000CE6BCD6BCC6BCB6BCFEC07F004E1C36B15
:10183000C26BC16BC06BC0C000F0C1C001F0C2C0C0
:1018400002F0C3C003F02FEF0CF0B6C0BAF0B5C081
:10185000B9F0B4C0B8F0B3C0B7F0BB6B5DD6000C44
:10186000F86AD09E078EEA6AE96A17901792179471
:1018700017961798179A179C179E189018921894F5
:10188000196A060E1A6E020E1B6E0B0E1C6E020EED
:101890001D6E030E1E6E020E1F6E206E040E216E54
:1018A000226A236A246A256A266A276A286A296ABC
:1018B0002A6A2B6A2C6A2D6A2E6A010E2F6E306AF4
:1018C000316A0A0E326E336A010E346E406A446A1F
:1018D000436A466A456A9A6B996B986B976B9E6BE5
:1018E0009D6B9C6B9B6BA26BA16BA06B9F6BA66BA4
:1018F000A56BA46BA36BAA6BA96BA86BA76BAE6B54
:10190000AD6BAC6BAB6BB26BB16BB06B800EAF6F92
:10191000C150C00B0F09C16E070EB46E3E0E356E7E
:10192000200E366E5E0E376E386A396A3A6A3B6A46
:101930003C6A3D6A3E6A3F6A476A486A496A4A6A3F
:101940004B6A4C6A4D6A4E6A4F6A506A516A526AD3
:10195000536A546A556A566A576A586A596A5A6A83
:101960005B6A5C6A5D6A5E6A5F6A606B616B626B30
:10197000636B646B656B666B676B686B696B6A6BDB
:101980006B6B6C6B6D6B6E6B6F6B706B716B726B8B
:10199000736B746B756B766B776B786B796B7A6B3B
:1019A0007B6B7C6B7D6B7E6B7F6B806B816B826BEB
:1019B000836B846B856B866B876B886B896B8A6B9B
:1019C0008B6B8C6B8D6B8E6B8F6B906B916B926B4B
:1019D000936B946B956B966B956A8C6A5BEC03F0DA
:1019E000C00EF212850ECD6E9D80C150C00B0D0948
:1019F000C16EC090C082C094C08EC280B86BA1EC92
:101A000003F0010EC56FC66FCAEC03F06A0EF66EE6
:101A1000010EF76E2AEC04F0010EC56F020EC66FC0
:101A2000CAEC03F0800EF66E010EF76E2AEC04F09D
:101A3000010EC56F030EC66FCAEC03F0960EF66E6C
:101A4000010EF76E2AEC04F0010EC56F040EC66F8E
:101A5000CAEC03F0AC0EF66E010EF76E2AEC04F041
:101A6000080EB36FFA0ECA6F13EC03F0B32FFAD758
:101A70000C0EC46FFBEC03F0F2CFB3F0F29E050E38
:101A8000A96EA69CA69EA680A850B3BFF28E346E07
:101A9000F2CFB3F0F29EA96AA69CA69EA680A8509B
:101AA000B3BFF28E3C6E140ECA6F13EC03F0F2CF8C
:101AB000B3F0F29E010EA96EA69CA69EA680A85029
:101AC000B3BFF28E3D6E140ECA6F13EC03F0F2CF6B
:101AD000B3F0F29E020EA96EA69CA69EA680A85008
:101AE000B3BFF28E3E6E140ECA6F13EC03F0F2CF4A
:101AF000B3F0F29E030EA96EA69CA69EA680A850E7
:101B0000B3BFF28E3F6E140ECA6F13EC03F0F2CF28
:101B1000B3F0F29E140EA96EA69CA69EA680A850B5
:101B2000B3BFF28E286EF2CFB3F0F29E150EA96EFF
:101B3000A69CA69EA680A850B3BFF28E296EF2CFB7
:101B4000B3F0F29E320EA96EA69CA69EA680A85067
:101B5000B3BFF28E226EF2CFB3F0F29E330EA96EB7
:101B6000A69CA69EA680A850B3BFF28E236EF2CF8D
:101B7000B3F0F29E340EA96EA69CA69EA680A85035
:101B8000B3BFF28E246EF2CFB3F0F29E350EA96E83
:101B9000A69CA69EA680A850B3BFF28E256EF2CF5B
:101BA000B3F0F29E3C0EA96EA69CA69EA680A850FD
:101BB000B3BFF28E266EF2CFB3F0F29E3D0EA96E49
:101BC000A69CA69EA680A850B3BFF28E276E27C003
:101BD00046F026C045F046C0CCF045C0CBF086ECC0
:101BE00003F003C0B2F002C0B1F001C0B0F000C019
:101BF000AFF0F2CFB3F0F29E3C0EA96EA69CA69E6B
:101C0000A680A850B3BFF28E406EF2CFB3F0F29E22
:101C10003D0EA96EA69CA69EA680A850B3BFF28ECC
:101C2000CC6BCB6F86EC03F003C0AEF002C0ADF01E
:101C300001C0ACF000C0ABF0AEC0CAF0ADC0C9F09E
:101C4000ACC0C8F0ABC0C7F0CE6BCD6B480ECC6F4C
:101C5000850ECB6F3AEC04F003C0AEF002C0ADF0DD
:101C600001C0ACF000C0ABF0CC6B40C0CBF086EC58
:101C700003F0D89203C0CEF002C0CDF001C0CCF08A
:101C800000C0CBF0AEC0D2F0ADC0D1F0ACC0D0F04F
:101C9000ABC0CFF0E7EC04F003C0AAF002C0A9F09B
:101CA00001C0A8F000C0A7F0F2CFB3F0F29E460E3C
:101CB000A96EA69CA69EA680A850B3BFF28E326ED7
:101CC0001CEF06F025C044F024C043F028C02AF0E1
:101CD00029C02BF01952D8A4D4D1010EC56FC66FFC
:101CE000CAEC03F0C20EF66E010EF76E2AEC04F099
:101CF000010EC56F020EC66FCAEC03F0D80EF66E69
:101D0000010EF76E2AEC04F0010EC56F030EC66FCC
:101D1000CAEC03F0EE0EF66E010EF76E0A0EB76F08
:101D200044EC06F038C0B3F01F0EB46F67EC06F059
:101D300039C0B3F01F0EB46F67EC06F03AC0B3F0D1
:101D40001F0EB46F67EC06F03BC0B3F01F0EB46F0C
:101D500067EC06F0200EC46FFBEC03F0200EC46F9E
:101D6000FBEC03F0928A80AA11D017B60ED00B0EAE
:101D70001C5C036A380FE96E000E0320EA6EEF2A3E
:101D800017861E0ECA6F13EC03F001D017969680CB
:101D900084A011D017BA0ED00B0E1C5C036A380F4A
:101DA000E96E000E0320EA6EEF06178A1E0ECA6F58
:101DB00013EC03F001D0179A968284A20DD017B8C5
:101DC0000AD017881C2A1E0ECA6F13EC03F00C0EE3
:101DD000C46FFBEC03F001D01798968484A40DD057
:101DE00017BC0AD0178C1C061E0ECA6F13EC03F02A
:101DF0000C0EC46FFBEC03F001D0179C0B0E1C5CA7
:101E0000036A380FE96E000E0320EA6EEFBE01D0C0
:101E10000AD00B0E1C5C036A380FE96E000E03201B
:101E2000EA6E090EEF6E0B0E1C5C036A380FE96E4A
:101E3000000E0320EA6EEFBE0CD0EF50090809E255
:101E40000B0E1C5C036A380FE96E000E0320EA6E6D
:101E5000EF6A1C500A0802E30B0E1C6E1CC0C5F092
:101E6000040EC66FCAEC03F037C0C4F0FBEC03F0FD
:101E70001C500E08D8B0F3D0385003086DE139502B
:101E800008086AE13A50090867E13B50020864E13A
:101E9000A96AA86AA69CA69EA684F250006EF29E2D
:101EA0000F01550EA76EAA0EA76EA682A6B2FED788
:101EB000A6940050F212140E0001CA6F13EC03F046
:101EC000010EA96EA86AA69CA69EA684F250006E7A
:101ED000F29E0F01550EA76EAA0EA76EA682A6B29D
:101EE000FED7A6940050F212140E0001CA6F13EC34
:101EF00003F0020EA96EA86AA69CA69EA684F250C4
:101F0000006EF29E0F01550EA76EAA0EA76EA68256
:101F1000A6B2FED7A6940050F212140E0001CA6FAA
:101F200013EC03F0030EA96EA86AA69CA69EA684D5
:101F3000F250006EF29E0F01550EA76EAA0EA76E0C
:101F4000A682A6B2FED7A6940050F212140E00018B
:101F5000CA6F13EC03F0FF003C50385C49E13D5080
:101F6000395C46E13E503A5C43E13F503B5C40E126
:101F7000010EC56FC66FCAEC03F0040EF66E020EBA
:101F8000F76E2AEC04F0010EC56F020EC66FCAECA4
:101F900003F0180EF66E020EF76E2AEC04F0010E36
:101FA000C56F030EC66FCAEC03F02C0EF66E020E60
:101FB000F76E2AEC04F0010EC56F040EC66FCAEC72
:101FC00003F0400EF66E020EF76E2AEC04F0040EDB
:101FD000B36FFA0ECA6F13EC03F0B32FFAD7640E87
:101FE000196E0B0E1C6E0C0EC46FFBEC03F037D099
:101FF000010EC56FC66FCAEC03F0010EC56F020E6D
:10200000C66FCAEC03F0540EF66E020EF76E2AECA1
:1020100004F0010EC56F030EC66FCAEC03F0680E24
:10202000F66E020EF76E2AEC04F0010EC56F040E78
:10203000C66FCAEC03F07C0EF66E020EF76E2AEC49
:1020400004F0040EB36FFA0ECA6F13EC03F0B32F53
:10205000FAD70B0E1C6E0C0EC46FFBEC03F01C5079
:102060000B080FE21C500D080CE3010E1C5CB36F53
:10207000C56F040EC66FCAEC03F036C0C4F0FBECAB
:1020800003F0192CF8D0010EC56FC66FCAEC03F02F
:10209000900EF66E020EF76E2AEC04F033BE01D0FD
:1020A00001D0336A928A80AA0DD017B60AD01F06D3
:1020B0001D06010E1D241E6E17861E0ECA6F13EC20
:1020C00003F001D01796968084A00DD017BA0AD0DD
:1020D0001F2A1D2A010E1D5C1E6E178A1E0ECA6F56
:1020E00013EC03F001D0179A1F50215C08E2332A49
:1020F0001FC021F0020E215C206E040E1D6E2050C8
:102100001F5C08E233061FC020F0020E2024216E5F
:10211000020E1D6E1F501A5C09E21BC01FF0020E5A
:102120001D6E336A1FC020F02024216E1B501F5CDF
:102130000BE21AC01FF0040E1D6E1A5C336E1FC036
:1021400021F0020E215C206E010E3324B36FB46FB8
:10215000020EB56FCBEC06F0020E3324B36FB46FF2
:10216000030EB56FCBEC06F0030E3324B36FB46FE0
:10217000040EB56FCBEC06F0010EC56F1DC0C6F0A6
:10218000CAEC03F035C0C4F0FBEC03F01D500208AC
:1021900014E1010EC56F040EC66FCAEC03F036C021
:1021A000C4F0FBEC03F0010EC56F030EC66FCAEC62
:1021B00003F036C0C4F0FBEC03F01D50040814E13A
:1021C000010EC56F020EC66FCAEC03F036C0C4F034
:1021D000FBEC03F0010EC56F030EC66FCAEC03F0F3
:1021E00036C0C4F0FBEC03F01D50030814E1010EEF
:1021F000C56F040EC66FCAEC03F036C0C4F0FBEC2A
:1022000003F0010EC56F020EC66FCAEC03F036C0B4
:10221000C4F0FBEC03F0968284A21BD017B818D050
:1022200017881FC019F0030E1D6E020EB36F960EB5
:10223000CA6F13EC03F0B32FFAD70C0EC46FFBEC8C
:1022400003F01950060804E1386A396A3A6A3B6AB1
:1022500001D01798968484A40ED0640E196E0C0ECB
:10226000C46FFBEC03F0020EB36FFA0ECA6F13ECEF
:1022700003F0B32FFAD719500208D8A419D1010ED0
:10228000C56FC66FCAEC03F0A60EF66E020EF76EAF
:102290002AEC04F0010EC56F020EC66FCAEC03F003
:1022A000BC0EF66E020EF76E2AEC04F0060EC56F39
:1022B000030EC66FCAEC03F02AC0B3F0010EB46F70
:1022C0000CEC07F03A0EC46FFBEC03F02BC0B3F03C
:1022D000010EB46F0CEC07F0DB0EF66E020EF76E1B
:1022E000080EB76F44EC06F0060E2F24B36FC56FCF
:1022F000040EC66FCAEC03F037C0C4F0FBEC03F069
:10230000928A80AA1DD02F2C0CD02A503C0809E3B9
:102310002A2A020EB36F960ECA6F13EC03F0B32F86
:10232000FAD72F5003080CE12B503B0809E32B2A66
:10233000020EB36F960ECA6F13EC03F0B32FFAD7E9
:10234000968084A035D02F2C18D02A5209E02A0676
:10235000020EB36F960ECA6F13EC03F0B32FFAD7C9
:102360002A503C080AE23C0E2A6E020EB36F960E0B
:10237000CA6F13EC03F0B32FFAD72F50030818E1FC
:102380002B5209E02B06020EB36F960ECA6F13ECA8
:1023900003F0B32FFAD72B503C080AE23C0E2B6E09
:1023A000020EB36F960ECA6F13EC03F0B32FFAD779
:1023B000968284A216D02F2C03D0030E2F6E05D048
:1023C0002F50030802E1010E2F6E020EB36FFA0EBA
:1023D000CA6F13EC03F0B32FFAD70C0EC46FFBECEB
:1023E00003F0968484A464D0C80ECA6F13EC03F083
:1023F0000C0EC46FFBEC03F0010EC56F020EC66F2E
:10240000CAEC03F0E40EF66E020EF76E2AEC04F04E
:10241000010EC56F030EC66FCAEC03F0F60EF66E22
:10242000020EF76E2AEC04F0140EA96E2AC0A8FF63
:10243000A69CA69EA684F250006EF29E0F01550E39
:10244000A76EAA0EA76EA682A6B2FED7A6940050CB
:10245000F212150EA96E2BC0A8FFA69CA69EA684FC
:10246000F250006EF29E550EA76EAA0EA76EA682BF
:10247000A6B2FED7A6940050F2122AC028F02BC0B4
:1024800029F0040E0001B36FAF0ECA6F13EC03F016
:10249000B32FFAD71E0ECA6F13EC03F0010E196E9C
:1024A000336A020E1D6E1F6E0C0EC46FFBEC03F040
:1024B00019500308D8A4E5D0010EC56FC66FCAEC49
:1024C00003F0080EF66E030EF76E2AEC04F0010E10
:1024D000C56F020EC66FCAEC03F01E0EF66E030E39
:1024E000F76E2AEC04F0080EC56F030EC66FCAEC37
:1024F00003F034C0B3F01F0EB46F67EC06F0200E8B
:10250000C46FFBEC03F0928A80AA09D017B606D0FC
:10251000342A17861E0ECA6F13EC03F001D01796EB
:10252000968084A009D017BA06D03406178A1E0EEA
:10253000CA6F13EC03F001D0179A968484A412D0CA
:1025400017BC0FD0020E1D6E1F6E178C010E196E78
:10255000336A020EB36FFA0ECA6F13EC03F0B32F97
:10256000FAD701D0179C34BE03D03450000802E3E0
:10257000040E346E34BE05D03450040802E2010E5D
:10258000346E968284A272D017B86FD01788010E6D
:10259000196E336A050EA96E34C0A8FFA69CA69ECC
:1025A000A684F250006EF29E0F01550EA76EAA0E81
:1025B000A76EA682A6B2FED7A6940050F21217A468
:1025C00005D034C0B5F000013FEC07F0010E00016A
:1025D000C56FC66FCAEC03F0340EF66E030EF76ECD
:1025E0002AEC04F0010EC56F020EC66FCAEC03F0B0
:1025F0004A0EF66E030EF76E2AEC04F0010EC56F5C
:10260000030EC66FCAEC03F0600EF66E030EF76E93
:10261000100EB76F44EC06F034C0B3F01F0EB46F69
:1026200067EC06F0200EC46FFBEC03F0200EC46FC5
:10263000FBEC03F0010EC56F040EC66FCAEC03F08D
:10264000760EF66E030EF76E2AEC04F0040EB36FEE
:10265000FA0ECA6F13EC03F0B32FFAD7020E1D6EF9
:102660001F6E0C0EC46FFBEC03F001D01798060E22
:10267000C56F1DC0C6F0CAEC03F035C0C4F0FBEC5A
:1026800003F019500408D8A47CD1010EC56FC66FA1
:10269000CAEC03F08C0EF66E030EF76E2AEC04F013
:1026A000010EC56F020EC66FCAEC03F0A20EF66EE5
:1026B000030EF76E2AEC04F0010EC56F030EC66F11
:1026C000CAEC03F0B80EF66E030EF76E0A0EB76F83
:1026D00044EC06F038C0B3F01F0EB46F67EC06F0A0
:1026E00039C0B3F01F0EB46F67EC06F03AC0B3F018
:1026F0001F0EB46F67EC06F03BC0B3F01F0EB46F53
:1027000067EC06F0200EC46FFBEC03F0200EC46FE4
:10271000FBEC03F0928A80AA11D017B60ED00B0EF4
:102720001C5C036A380FE96E000E0320EA6EEF2A84
:1027300017861E0ECA6F13EC03F001D01796968011
:1027400084A011D017BA0ED00B0E1C5C036A380F90
:10275000E96E000E0320EA6EEF06178A1E0ECA6F9E
:1027600013EC03F001D0179A968284A20DD017B80B
:102770000AD017881C2A1E0ECA6F13EC03F00C0E29
:10278000C46FFBEC03F001D01798968484A40DD09D
:1027900017BC0AD0178C1C061E0ECA6F13EC03F070
:1027A0000C0EC46FFBEC03F001D0179C0B0E1C5CED
:1027B000036A380FE96E000E0320EA6EEFBE01D007
:1027C0000AD00B0E1C5C036A380FE96E000E032062
:1027D000EA6E090EEF6E0B0E1C5C036A380FE96E91
:1027E000000E0320EA6EEFBE0CD0EF50090809E29C
:1027F0000B0E1C5C036A380FE96E000E0320EA6EB4
:10280000EF6A1C500A0810E3010E196E336A020EBB
:102810001D6E1F6E0B0E1C6E020EB36FFA0ECA6F8A
:1028200013EC03F0B32FFAD71CC0C5F0040EC66F2B
:10283000CAEC03F037C0C4F0FBEC03F01C500E08E8
:10284000D8B08DD03C50385C4DE13D50395C4AE108
:102850003E503A5C47E13F503B5C44E1010EC56F9E
:10286000C66FCAEC03F0CE0EF66E030EF76E2AECBE
:1028700004F0010EC56F020EC66FCAEC03F0E40E41
:10288000F66E030EF76E2AEC04F0010EC56F030E10
:10289000C66FCAEC03F0FA0EF66E030EF76E2AEC62
:1028A00004F0010EC56F040EC66FCAEC03F0100EE3
:1028B000F66E040EF76E2AEC04F0020EB36FFA0EF9
:1028C000CA6F13EC03F0B32FFAD73D0E196E0B0E3F
:1028D0001C6E0C0EC46FFBEC03F0386A396A3A6A5E
:1028E0003B6A3DD0010EC56FC66FCAEC03F0260EE1
:1028F000F66E040EF76E2AEC04F0010EC56F020EA0
:10290000C66FCAEC03F03C0EF66E040EF76E2AECAE
:1029100004F0010EC56F030EC66FCAEC03F0520E31
:10292000F66E040EF76E2AEC04F0010EC56F040E6D
:10293000C66FCAEC03F0680EF66E040EF76E2AEC52
:1029400004F0020EB36FFA0ECA6F13EC03F0B32F4C
:10295000FAD70B0E1C6E0C0EC46FFBEC03F01C5070
:102960000B080FE21C500D080CE3010E1C5CB36F4A
:10297000C56F040EC66FCAEC03F036C0C4F0FBECA2
:1029800003F019503D08D8A487D1010EC56FC66F5A
:10299000CAEC03F07E0EF66E040EF76E2AEC04F01D
:1029A000010EC56F020EC66FCAEC03F0940EF66EF0
:1029B000040EF76E2AEC04F0010EC56F030EC66F0D
:1029C000CAEC03F0AA0EF66E040EF76E0A0EB76F8D
:1029D00044EC06F038C0B3F01F0EB46F67EC06F09D
:1029E00039C0B3F01F0EB46F67EC06F03AC0B3F015
:1029F0001F0EB46F67EC06F03BC0B3F01F0EB46F50
:102A000067EC06F0200EC46FFBEC03F0200EC46FE1
:102A1000FBEC03F0928A80AA11D017B60ED00B0EF1
:102A20001C5C036A380FE96E000E0320EA6EEF2A81
:102A300017861E0ECA6F13EC03F001D0179696800E
:102A400084A011D017BA0ED00B0E1C5C036A380F8D
:102A5000E96E000E0320EA6EEF06178A1E0ECA6F9B
:102A600013EC03F001D0179A968284A20DD017B808
:102A70000AD017881C2A1E0ECA6F13EC03F00C0E26
:102A8000C46FFBEC03F001D01798968484A40DD09A
:102A900017BC0AD0178C1C061E0ECA6F13EC03F06D
:102AA0000C0EC46FFBEC03F001D0179C0B0E1C5CEA
:102AB000036A380FE96E000E0320EA6EEFBE01D004
:102AC0000AD00B0E1C5C036A380FE96E000E03205F
:102AD000EA6E090EEF6E0B0E1C5C036A380FE96E8E
:102AE000000E0320EA6EEFBE0CD0EF50090809E299
:102AF0000B0E1C5C036A380FE96E000E0320EA6EB1
:102B0000EF6A1C500A0804E3050E196E0B0E1C6ECA
:102B10001CC0C5F0040EC66FCAEC03F037C0C4F089
:102B2000FBEC03F01C500E08D8B0A4D0010EC56F0A
:102B3000C66FCAEC03F0C00EF66E040EF76E2AECF8
:102B400004F0010EC56F020EC66FCAEC03F0D60E7C
:102B5000F66E040EF76E2AEC04F0010EC56F030E3C
:102B6000C66FCAEC03F0EC0EF66E040EF76E2AEC9C
:102B700004F0010EC56F040EC66FCAEC03F0020E1E
:102B8000F66E050EF76E2AEC04F0A96A38C0A8FFAD
:102B9000A69CA69EA684F250006EF29E0F01550ED2
:102BA000A76EAA0EA76EA682A6B2FED7A694005064
:102BB000F212140E0001CA6F13EC03F0010EA96E9D
:102BC00039C0A8FFA69CA69EA684F250006EF29E75
:102BD0000F01550EA76EAA0EA76EA682A6B2FED74B
:102BE000A6940050F212140E0001CA6F13EC03F009
:102BF000020EA96E3AC0A8FFA69CA69EA684F2501B
:102C0000006EF29E0F01550EA76EAA0EA76EA68249
:102C1000A6B2FED7A6940050F212140E0001CA6F9D
:102C200013EC03F0030EA96E3BC0A8FFA69CA69E62
:102C3000A684F250006EF29E0F01550EA76EAA0EEA
:102C4000A76EA682A6B2FED7A6940050F212140E6A
:102C50000001CA6F13EC03F0020EB36FFA0ECA6FD5
:102C600013EC03F0B32FFAD7010E196E336A020E7C
:102C70001D6E1F6E1C500B080FE21C500D080CE35C
:102C8000010E1C5CB36FC56F040EC66FCAEC03F077
:102C900036C0C4F0FBEC03F01950050839E1010E11
:102CA000C56FC66FCAEC03F0180EF66E050EF76E10
:102CB0002AEC04F0010EC56F020EC66FCAEC03F0D9
:102CC0002E0EF66E050EF76E0B0EB76F44EC06F087
:102CD000080EE96E44C0B4F043C0B3F075EF07F0DE
:102CE000200EC46FFBEC03F0200EC46FFBEC03F06E
:102CF000200EC46FFBEC03F0010EC56F040EC66F0F
:102D0000CAEC03F0420EF66E050EF76E2AEC04F0E4
:102D1000928A80AA78D0968284A275D0C80ECA6F93
:102D200013EC03F00C0EC46FFBEC03F0010EC56F47
:102D3000020EC66FCAEC03F0580EF66E050EF76E63
:102D40002AEC04F0010EC56F030EC66FCAEC03F047
:102D50006A0EF66E050EF76E2AEC04F0320EA96EBE
:102D6000A86AA69CA69EA684F250006EF29E0F0151
:102D7000550EA76EAA0EA76EA682A6B2FED7A6947F
:102D80000050F212330EA96EA86AA69CA69EA684D5
:102D9000F250006EF29E550EA76EAA0EA76EA68286
:102DA000A6B2FED7A6940050F212340EA96EA86AFD
:102DB000A69CA69EA684F250006EF29E550EA76EAB
:102DC000AA0EA76EA682A6B2FED7A6940050F21253
:102DD000040E0001B36FAF0ECA6F13EC03F0B32FF4
:102DE000FAD7226A236A446A436A1E0ECA6F13EC3A
:102DF00003F0010E196E336A020E1D6E1F6E0C0E6B
:102E0000C46FFBEC03F0968484A416D017BC13D0D7
:102E1000178C020EB36FFA0ECA6F13EC03F0B32FC8
:102E2000FAD7010E196E336A020E1D6E1F6E0C0E5C
:102E3000C46FFBEC03F001D0179C19500608D8A40E
:102E40000FD1010EC56FC66FCAEC03F07C0EF66E93
:102E5000050EF76E2AEC04F0010EC56F020EC66F68
:102E6000CAEC03F0050EB36F0AEC08F000C0B3F033
:102E700001C0B4F002C0B5F003C0B6F003C0CAF0A0
:102E800002C0C9F001C0C8F000C0C7F0D70ECE6FB5
:102E9000A30ECD6FCC6B810ECB6FD7EC08F000C0CA
:102EA000B3F001C0B4F002C0B5F003C0B6F0920EAA
:102EB000F66E050EF76E090EB76F44EC06F0020EC3
:102EC000E96EB6C0BAF0B5C0B9F0B4C0B8F0B3C0DE
:102ED000B7F0BB6FADEC09F0A00EF66E050EF76E05
:102EE000070EB76F44EC06F0010EC56F030EC66FF8
:102EF000CAEC03F0010EB86FA1EC03F000C0B3F010
:102F000001C0B4F002C0B5F003C0B6F0A80EF66E72
:102F1000050EF76E080EB76F44EC06F0010EE96E71
:102F2000B6C0BAF0B5C0B9F0B4C0B8F0B3C0B7F02D
:102F3000BB6BADEC09F0010EC56F040EC66FCAEC99
:102F400003F0B60EF66E050EF76E070EB76F44EC83
:102F500006F0010EE96EB2C0BAF0B1C0B9F0B0C06F
:102F6000B8F0AFC0B7F0BB6BADEC09F0968284A2AD
:102F70005FD017B85CD0010E196E336A020E1D6E59
:102F80001F6E0B0E1C6E020EB36FFA0ECA6F13EC9F
:102F900003F0B32FFAD70C0EC46FFBEC03F0010E55
:102FA000B86FA1EC03F003C0B2F002C0B1F001C0F1
:102FB000B0F000C0AFF0B2C0CAF0B1C0C9F0B0C04C
:102FC000C8F0AFC0C7F070EC0AF002C046F001C014
:102FD00045F045C026F046C027F03C0EA96E26C03D
:102FE000A8FFA69CA69EA684F250006EF29E0F013A
:102FF000550EA76EAA0EA76EA682A6B2FED7A694FD
:103000000050F2123D0EA96E27C0A8FFA69CA69EF6
:10301000A684F250006EF29E550EA76EAA0EA76E01
:10302000A682A6B2FED7A6940050F212000101D0EB
:103030001798968484A413D017BC10D0010E196E73
:10304000336A020E1D6E1F6E0B0E1C6E1E0ECA6FB3
:1030500013EC03F00C0EC46FFBEC03F001D0179CD3
:1030600019506408D8A416D2010EC56FC66FCAECF9
:1030700003F0A6C0CAF0A5C0C9F0A4C0C8F0A3C0A0
:10308000C7F0D70ECE6FA30ECD6FCC6B810ECB6F7A
:10309000D7EC08F000C0B3F001C0B4F002C0B5F046
:1030A00003C0B6F0C40EF66E050EF76E080EB76FCD
:1030B00044EC06F0020EE96EB6C0BAF0B5C0B9F045
:1030C000B4C0B8F0B3C0B7F0BB6FADEC09F0D10E2F
:1030D000F66E050EF76E070EB76F44EC06F0010EA4
:1030E000C56F020EC66FCAEC03F0DA0EF66E050E5F
:1030F000F76E2AEC04F018A00DD01890050EB36FEF
:103100000AEC08F003C0A6F002C0A5F001C0A4F0CC
:1031100000C0A3F00A0EC56F030EC66FCAEC03F021
:10312000E20EF66E050EF76E060EB76F44EC06F073
:1031300028C0B3F0010EB46F0CEC07F03A0EC46F68
:10314000FBEC03F029C0B3F0010EB46F0CEC07F0F8
:1031500017A41DD0010EC56F040EC66FCAEC03F094
:10316000F20EF66E050EF76E2AEC04F0F2CFB3F015
:10317000F29E050EA96EA69CA69EA680A850B3BF7F
:10318000F28EB46FB4C0B5F03FEC07F013D0010E6F
:10319000C56F040EC66FCAEC03F0FC0EF66E050E8A
:1031A000F76E2AEC04F0B56B3FEC07F0A66BA56B4D
:1031B000A46BA36B17A02AD00D0EC56F040EC66FAB
:1031C000CAEC03F0060EF66E060EF76E2AEC04F05B
:1031D0001794B56B3FEC07F017928C9295928C8008
:1031E0009590179E18B211D0020EB36FFA0ECA6FE7
:1031F00013EC03F0B32FFAD7320ECA6F13EC03F0BF
:103200005BEC03F01882010E316E22D017900D0E88
:10321000C56F040EC66FCAEC03F00E0EF66E060EF6
:10322000F76E2AEC04F08C90959018A211D0020E43
:10323000B36FFA0ECA6F13EC03F0B32FFAD7320E46
:10324000CA6F13EC03F05BEC03F01892010E316EC1
:1032500017A218D0010EC56F030EC66FCAEC03F09B
:10326000160EF66E060EF76E2AEC04F08C8295921E
:1032700018B407D0320ECA6F13EC03F05BEC03F006
:10328000188417D0010EC56F030EC66FCAEC03F089
:103290001E0EF66E060EF76E2AEC04F08C929592D6
:1032A00018A407D0320ECA6F13EC03F05BEC03F0E6
:1032B0001894A6C0CAF0A5C0C9F0A4C0C8F0A3C0A5
:1032C000C7F0A40ECE6F700ECD6F3D0ECC6F7D0E8D
:1032D000CB6F3AEC04F000C0B3F001C0B4F002C010
:1032E000B5F003C0B6F003C0CAF002C0C9F001C017
:1032F000C8F000C0C7F0CE6BCD6B300ECC6F820E25
:10330000CB6FD7EC08F003C0A2F002C0A1F001C05F
:10331000A0F000C09FF0CA6BC96B300EC86F820E60
:10332000C76FA2C0CEF0A1C0CDF0A0C0CCF09FC0AE
:10333000CBF0CFEC07F006E3A26BA16B300EA06FD1
:10334000820E9F6F2E6AA2C0B6F0A1C0B5F0A0C0D9
:10335000B4F09FC0B3F025EC0CF000C0B3F001C096
:10336000B4F002C0B5F003C0B6F0CC6B2EC0CBF009
:1033700086EC03F003C0CAF002C0C9F001C0C8F077
:1033800000C0C7F0B6C0CEF0B5C0CDF0B4C0CCF030
:10339000B3C0CBF0CFEC07F00EE3080E2E24B36FD2
:1033A000C56F020EC66FCAEC03F0D10EC46FFBEC02
:1033B00003F02E2AC8D7A2C0B6F0A1C0B5F0A0C0B5
:1033C000B4F09FC0B3F025EC0CF003C0CAF002C00B
:1033D000C9F001C0C8F000C0C7F070EC0AF001C02D
:1033E0002EF02E500A080EE3080E2E24B36FC56F80
:1033F000020EC66FCAEC03F0200EC46FFBEC03F0A4
:103400002E2AEFD7968084A00DD017B60AD0177257
:103410001786020EB36F960ECA6F13EC03F0B32F2C
:10342000FAD701D01796968284A20DD017B80AD089
:1034300017741788020EB36F960ECA6F13EC03F061
:10344000B32FFAD701D01798928A80AA12D00C0E07
:10345000C46FFBEC03F0020EB36F960ECA6F13EC51
:1034600003F0B32FFAD7010E196E336A020E1D6EE8
:103470001F6E968484A40DD017BA0AD01770178ACD
:10348000020EB36F960ECA6F13EC03F0B32FFAD788
:1034900001D0179A312C57D0320EA96E22C0A8FF46
:1034A000A69CA69EA684F250006EF29E0F01550EB9
:1034B000A76EAA0EA76EA682A6B2FED7A69400504B
:1034C000F212330EA96E23C0A8FFA69CA69EA68466
:1034D000F250006EF29E550EA76EAA0EA76EA6823F
:1034E000A6B2FED7A6940050F21243C024F0445076
:1034F000256E340EA96E24C0A8FFA69CA69EA684A5
:10350000F2CF00F0F29E550EA76EAA0EA76EA6820D
:10351000A6B2FED7A6940050F212350EA96E25C0B1
:10352000A8FFA69CA69EA684F2CF00F0F29E550EA0
:10353000A76EAA0EA76EA682A6B2FED7A6940050CA
:10354000F212316A00013050130803E25BEC03F021
:10355000306A22503B0802E2226A232A23503C08A8
:1035600004E1236A432AD8B4442A6AEF0EF0030028
:020000040030CA
:0E0000003FC03E1E000781000FC00FE00F4002
:00000001FF
;PIC18F4550
;CRC=211A  CREATED="22-may.-18 14:56"
